:10071A00205353452C20617267733A20342C3130B0
:10072A003020200A4E6F2064656265726961206418
:10073A006172206572726F7265732C207065726FB8
:10074A00207369206461005353452C2061726773DA
:10075A003A20342C31303020202D2D2D2D2D2D2DC9
:10076A0020204F4B0A00205353452C206172677397
:10077A003A20392C3420200A446562657269612066
:10078A00646172206572726F72203430362079206B
:10079A006E6F206461005353452C20617267733A6F
:1007AA0020342C3920202D2D2D2D2D2D2D20204F7C
:1007BA004B0A00205353452C20617267733A203448
:1007CA0020200A446562657269612064617220654D
:1007DA0072726F72203430372079206E6F20646114
:1007EA00005353452C20617267733A203420202D20
:1007FA002D2D2D2D2D2D20204F4B0A0020535345F2
:10080A002C20617267733A20342C20200A646562B6
:10081A006572696120646172206572726F72203438
:10082A0030382079206E6F206461005353452C20A4
:10083A00617267733A20342C20202D2D2D2D2D2DF9
:10084A002D20204F4B0A00205353452C20617267FC
:10085A00733A20313020617267756D656E746F73FB
:10086A0020200A646562657269612064617220658C
:10087A0072726F72203430372079206E6F20646173
:10088A00005353452C20617267733A20313020613E
:10089A007267756D656E746F7320202D2D2D2D2D49
:1008AA002D2D20204F4B0A00205353452C206172D6
:1008BA0067733A20342C72383820200A64656265DE
:1008CA0072696120646172206572726F72203430BD
:1008DA00362079206E6F206461005353452C2061C5
:1008EA007267733A20342C72383820202D2D2D2D22
:1008FA002D2D2D20204F4B0A00205353452C2061CB
:10090A007267733A20342C38723820200A64656280
:10091A006572696120646172206572726F72203437
:10092A0030362079206E6F206461005353452C20A5
:10093A00617267733A20342C38723820202D2D2D9D
:10094A002D2D2D2D20204F4B0A00205353452C20AE
:10095A00617267733A20342C38387220200A646531
:10096A00626572696120646172206572726F7220B9
:10097A003430362079206E6F206461005353452C41
:10098A0020617267733A20342C38387220202D2D5A
:10099A002D2D2D2D2D20204F4B0A00205353452C51
:1009AA0020617267733A20342C38303020200A6470
:1009BA0065626572696120646172206572726F7224
:1009CA00203430362079206E6F20646100535345FD
:1009DA002C20617267733A20342C38303020202D55
:1009EA002D2D2D2D2D2D20204F4B0A002D2D2D2D57
:1009FA002D2D2D2D2D2D2D2D2D2D2D2D2D2D5445DE
:100A0A00535453205041524120434F4D414E444F7D
:100A1A00205353452D2D2D2D2D2D2D2D2D2D2D2DA5
:100A2A002D2D2D2D2D2D2D2D2D2D0A002D2D2D2D3C
:100A3A002D2D2D2D2D2D2D2D2D2D2D2D2D2D4649A7
:100A4A004E205445535453205041524120434F4D58
:100A5A00414E444F205353452D2D2D2D2D2D2D2DF7
:100A6A002D2D2D2D2D2D2D2D2D2D2D2D2D2D0A00FC
:040A7A0025730A00D6
:041D3A00021D000086
:101C5900743490000512044E900006742C02044E50
:101C6900AB14AA15A91690003F22743890000702F8
:021C7900044E17
:100DDA00121C69E4F5F012052A90000274531204F9
:100DEA004E900003745312044E900004744512048A
:100DFA004E121C597431120FF212049B64FB45F017
:100E0A007003D38001C340077BFF7A07791A227ADD
:100E1A00077951120F767439121C5B7434121C75DF
:100E2A007403121092BE0106BF9603D38001C34019
:100E3A00077BFF7A077970227A0779A0120F7690DA
:100E4A000005743412044E7401121092BE0106BFDA
:100E5A009703D38001C340077BFF7A0779BD227AC3
:100E6A000779EB120FAC74021210E4BE0106BF98A8
:100E7A0003D38001C340077BFF7A087906227A08E8
:100E8A0079351210AE740A1210E4BE0106BF95033A
:100E9A00D38001C340077BFF7A087951227A087907
:100EAA008B120FAC900007747212044E7438121031
:100EBA0066BE0106BF9603D38001C340077BFF7A53
:100ECA000879B2227A0879E4121020121C7374721B
:100EDA00121066BE0106BF9603D38001C340077B8A
:100EEA00FF7A097903227A097935121020121C73C4
:100EFA00900008743812044E900009747212044E5D
:100F0A00740512043CAB14AA15A916120003121C8C
:100F1A006912049BFFAEF0BE0106BF9603D380019F
:100F2A00C340077BFF7A097954227A09798612101D
:100F3A00AE121C597438120FF212049BFFAEF0BEA7
:100F4A000106BF9603D38001C37BFF40057A097966
:100F5A00A5227A0979D7120AE0121C69E4F5F0127F
:100F6A00052A121A817B007A007900227BFF120A75
:100F7A00E0AB14AA15A91690003FE4F5F012052A71
:100F8A00121A81AB14AA15A91690000274531204FE
:100F9A004E900003745312044E90000474451204D8
:100FAA004E227BFF120AE0AB14AA15A91690003F45
:100FBA00E4F5F012052A121A81AB14AA15A91690A3
:100FCA000002745312044E900003745312044E909C
:100FDA000004744512044E900005743412044E90B5
:100FEA000006742C12044E2290000712044E900040
:100FFA0008743012044E900009743012044E7405BD
:10100A0012043CAB14AA15A916120003AB14AA15B4
:10101A00A91690003F227BFF120AE0AB14AA15A979
:10102A001690003FE4F5F012052A121A81AB14AAB1
:10103A0015A916900002745312044E9000037453BB
:10104A0012044E900004744512044E900005743444
:10105A0012044E900006742C12044E2290000812BC
:10106A00044E900009743812044E740512043CAB05
:10107A0014AA15A916120003AB14AA15A9169000F2
:10108A003F12049BFFAEF02212043CAB14AA15A92E
:10109A0016120003AB14AA15A91690003F12049B5E
:1010AA00FFAEF0227BFF120AE0AB14AA15A9169034
:1010BA00003FE4F5F012052A121A81AB14AA15A909
:1010CA0016900002745312044E90000374531204D3
:1010DA004E900004744512044E2212043CAB14AA2A
:1010EA0015A916120003AB14AA15A91690003F12EF
:0610FA00049BFFAEF02292
:091BB7007BFF7A0979F6120AE0BD
:101BC000120DDA8B258A268927051EE51E7002056F
:071BD0001DEA494B600122F0
:101BD7007BFF7A0A7936120AE07B007A00790022C5
:101AC20053D9BF7F447E001215DDAA06A9077514FB
:101AD200018A158916121D8C121D82121C0E121BF0
:101AE200B78B228A238924AE02AF01EF4E600F8B9F
:101AF200328A3389347BFF7A0A797A120AE080FECD
:10198E0053452C25632C256C750A0044462C256383
:10199E002C256C750A007365206465746F6E6F205C
:1019AE00746F646F0A006964783A2025690A0041F1
:1019BE004443304D55583A20307825780A007661E8
:1019CE00723A2025690A004144435B25695D3A203D
:1019DE0025750A0041444330434E3A203078256342
:0219EE000A00ED
:10191700F9E4354CFAAF4EEF3395E0FEEF25E0FFE3
:10192700EE33FEE92FF9EA3EFA222430F532AB2BEB
:10193700AA2CA92D12063B8F368E358D348C337B1E
:10194700FF22C2ED75F383D2AF9000050203DC12CC
:101957001CD18F118E108D0F8C0E7B007A00790EA3
:1019670022AB4BAA4CA94D9000422290003F740134
:1019770075F09622AB2BAA2CA92D90003F02052AC1
:07198700AB2BAA2CA92D22B5
:101CD10085C50A85C40BE47B1AFAF9F8AF0BAE0A85
:071CE100AD09AC08120593E8
:011CE80022D9
:101706008B2B8A2C892D75F38012195012065B17C4
:101716003130173631173F32174933175334175DB7
:10172600351767361771370000177B53F4F0805171
:10173600E5F454F004F5F48048E5F454F02402F599
:10174600F4803EE5F454F02403F5F48034E5F454D3
:10175600F02404F5F4802AE5F454F02405F5F48029
:1017660020E5F454F02406F5F48016E5F454F0244C
:1017760007F5F4800C740175F09712197B75F383E5
:0C1786002275F383E475F0FD12197B223C
:101B020075F380E5C6540FFFBF0815E5C6B4780823
:101B120043F41075C6018024741025C6F5C6801CD6
:101B2200E5C6540FC394085016E5C6B4670853F4CB
:101B3200EF75C6088006742225C6F5C675F38322A2
:061A3E008B2B8A2C892D80
:101A4400AFC68F2EE52E540FFFBF0812E52E780483
:101A5400A2E713D8FB1219317A19798E801BE52E6F
:101A6400540FC3648094885013E52E7804A2E713BE
:0C1A7400D8FB1219317A197999120AE096
:011A80002243
:0612C6008B4B8A4C894DA0
:1012CC00E5C6540FFFE5C6C4540FFEEF75F00812C7
:1012DC0003A1ADF0D3ED64809480121968400774BB
:1012EC00011204098004E412044E1219681203DC82
:1012FC00FDC3EE9F24082DF54EC36480948C505C86
:10130C00E9240DF9E43A12191B120470FDACF04CEF
:10131C007002FF22ED64014C7023AB4BE54D24258C
:10132C00121917120470FDE54D240DF9E4354CFA31
:10133C0012192AE5F08DF012050B7F0122AB4BE55B
:10134C004D240D121917120470D39401E5F094007A
:10135C00404D74FFF5F01204D37F00227BFF7A1905
:10136C0079A4120AE07BFF7A1979B4AF4EEF33956A
:10137C00E0F5328F33120AE07BFF7A1979BDAFC6E4
:10138C008F32120AE01219681203DCFF3395E0F574
:10139C00328F337BFF7A1979CC120AE07FFF227FE0
:0113AC000040
:0113AD00221D
:10189E008B2B8A2C892DE92407F9E43AFA12152F9D
:1018AE008E0C8F0DE4FCFDFBFA7901F8C3120625B0
:1018BE005008121987121972804B1219871219507B
:1018CE00FF3395E0FEEF24D0F513EE34FFF512C38F
:1018DE00648094804025E5139408E512648094801A
:1018EE005019E92425F9E43AFAE51325E0FFE5124B
:1018FE00121928E50C850DF012050B1219879000B0
:09190E003FE475F0FB12052A22EA
:10181E008B2B8A2C892DE92407F9E43AFA12152F1D
:10182E008E0C8F0DAB2BAA2CA92D12195024CE6025
:10183E001424FE601824FE601C240670207512000D
:10184E00751308801D751200751309801575120029
:10185E0075130A800D75120075130B80051219721F
:10186E00802AAB2BE52D2425F9E4352CFAE513253A
:10187E00E0FFE512121928E50C850DF012050BABF1
:10188E002BAA2CA92D90003FE475F0FC12052A22FC
:101CE900121949FFC454F02408F5C6121956121ADC
:071CF9003EE4F5F3C2AF2247
:101B7E0012194924CE601124FE601224FE60132433
:101B8E0006701475C601801575C623801075C6457E
:101B9E00800B75C667800612197202052A12195635
:091BAE00121A3EE4F5F3C2AF2265
:0619F0008B2B8A2C892DCF
:1019F600E4F52EAF2EEF3395E0FEF5328F33AB2BA9
:101A0600E52D2425F9E4352CFA121923120470F574
:101A16003585F0347BFF7A1979D5120AE0052EC395
:101A2600E52E6480948C40CB7BFF7A1979E2AFF483
:081A3600EF2430F532020AE052
:101CB50054696D657230203A20256C750A005469A7
:0C1CC5006D657232203A20256C750A0013
:0B1D77007BFF8F358E348D338C3222C1
:101C7B00E4F543F544858C45858A46AF46AE45ADC4
:0D1C8B0044AC437A1C79B5121D77020AE0C3
:101C9800E4F547F54885CD4985CC4AAF4AAE49AD0C
:0D1CA80048AC477A1C79C3121D77020AE090
:0A1D820043E24043A41043A50222EF
:0A1D8C0043B20375EF04E4F5A92249
:101C340043D103E4F5F4F5FB75F708F59B759A3F7A
:101C4400F5BD75C60875F38130EAFD43E60875F302
:051C540080E4FEFF2208
:101C0E0043E10143E240E4F5D443A41043F12075CF
:101C1E009810758D96438E08858D8B53890F438949
:061C2E0020D28ED29922A3
:0F1D4A0043E210E4F58CF58A4389254388502243
:101D000043918043910443E68043F680E4F594F5E3
:061D100095F592F5932207
:041DA00043B1202209
:0F1D590043E201E4F5D875D90875DACBD2DE2262
:101100004D4D4C3E000A41434B203235313A207060
:10111000696E20256320636F6E666967757261640E
:101120006F20656E206D6F646F2073696E676C65EC
:101130005F656E6465640A000A41434B20323532B4
:101140003A2070696E65732025632079202563201D
:10115000636F6E666967757261646F7320656E2078
:101160006D6F646F206469666572656E6369616C3A
:101170000A000A41434B203235333A2067616E61E1
:101180006E63696120636F6E666967757261646121
:1011900020656E20325E25630A000A41434B2032EF
:1011A00035343A20696E6963696F20646520636F26
:1011B0006E76657273696F6E207920656E76696FE1
:1011C000206465206461746F732E207061726120E9
:1011D000766F6C76657220616C206D656E7520701F
:1011E000726573696F6E6520277327000A45525236
:1011F0004F52203430343A20636F6D616E646F203B
:101200006E6F20656E636F6E747261646F0A000AA0
:101210004552524F52203430353A2064656D617327
:101220006961646F7320617267756D656E746F7349
:10123000206F20617267756D656E746F20667565CD
:1012400072612064652072616E676F0A000A455200
:10125000524F52203430363A20616C67756E6F20E1
:101260006465206C6F7320617267756D656E746F55
:1012700073206573746120667565726120646520F2
:1012800072616E676F0A000A4552524F5220343025
:10129000373A2066616C74616E20617267756D65A6
:1012A0006E746F730A000A4552524F522034303820
:1012B0003A206572726F722064652073696E746182
:0612C000786973200A00AA
:10147600900002AB28AA29A92A0203DC90000512D3
:1014860003DC24D0FFC3940022AB28AA29A92A1280
:1014960003C3D364802290003F740175F09522AB9C
:1014A60028AA29A92A2290003F740175F096229055
:1014B60000030203DC9000040203DCAB53AA54A928
:1014C600559000051203DCF53222F9E43AFAE552AA
:1014D600FD3395E0FCE92DF9EA3CFAEF12043C05F0
:1014E6005222AB4FAA50A95122F9E43529FAE92F25
:1014F600F9EA3EFAE412043C0F221203C3FFD36456
:1015060080229000010203DC9000081203DC24D044
:10151600FEC39400229000060203DCC3EF648094AD
:0915260082221203C3C364802277
:0613AE008B4F8A508951AB
:1013B400E4F5527BFF7A117900120AE01214E890E6
:1013C400003FE4F5F0804512146C900001EF120424
:1013D4004E642C603C121508FFB40A0FE552700BE2
:1013E40090003F740375F0E802052AEF640A602157
:1013F400C3E552648094835008E924021214D08017
:10140400C61214E890003F740175F09412052A8006
:10141400B6E4F5521214E8121508640A602E121488
:101424006C900001EF12044E640A6020C3E552641C
:10143400809488500C121508FFE924051214D080FA
:10144400DD1214E812149C12052A80D21214E8E565
:101454005212043C1214E8121508640A6006121DA4
:0714640029BF0AFA1214E887
:0B146B0022121D29AB4FAA50A95122EC
:100003008B288A29892A9000021203DCFFB4531A31
:100013001214B5B4541490003FE475F0FE12052A8F
:10002300900041E412044E02039DEF645360030207
:10003300010F1214B56453600302010F1214BB6461
:1000430045600302010F1215009485400302023C30
:1000530012151BFE642C600512152140061203C302
:10006300FF7003020144EE642C600B12152140065D
:100073001214A502015B900006121479B42C0A1223
:1000830015289483500302015B1214824052EFD36C
:100093009407400302019212148F9482401190003E
:1000A300071214854006EFD394094003020192120C
:1000B30014A51215009483400E12150E4006EED3BC
:1000C30094094003020192D3EF6480948440141294
:1000D30014A59000091214854006EFD39409400338
:1000E30002019212148F94844019E92407F9E43A27
:1000F300FA12152FD3EF94FFEE940040061214A5C5
:100103000201921214A512189E02039D1214766422
:100113005360030202201214B564446003020220F8
:100123001214BB6449600302022012150094854037
:100133000302023C12151BFE642C601012152150A1
:100143000B90003F740175F097020387EE642C60F7
:10015300121215289482400B90003F740175F09899
:1001630002038712151BB42C121215289483500B0B
:1001730090003F740175F098020387121482400FB8
:10018300EFD3940650099000051203DC30E0061209
:1001930014AC02038712148F948340149000071247
:1001A30014854006EFD3940940061214AC0203876A
:1001B3001214A51215009484401112150E4006EE78
:1001C300D3940940061214AC020387D3EF648094DE
:1001D3008540171214A59000091214854006EFD329
:1001E300940940061214AC02038712148F948540BD
:1001F300239000081203DCFF9000071203DC2FFF9B
:100203009000091203DC2F2470D394FF40061214CC
:10021300AC0203871214A512181E02039D12147652
:10022300644770351214B56453702E1214BB6445C1
:1002330070271214959481400612149C02038712AE
:1002430014824006EFD3940740061214AC020387CE
:100253001214A5121CE902039D121476644770352B
:100263001214B56444702E1214BB6449702712141F
:10027300959486400612149C02038712148240064A
:10028300EFD3940640061214AC0203871214A5128E
:100293001B7E02039D121476645370351214B564E9
:1002A30047702E1214BB6441702712149594814039
:1002B3000612149C0203871214824006EFD394079C
:1002C30040061214AC0203871214A5121706020388
:1002D3009D1214766447701F1214B5B45419121486
:1002E300BBB430131214959480400612149C02037D
:1002F30087121C7B02039D1214766447701F12142D
:10030300B5B454191214BBB432131214959480402B
:100313000612149C020387121C9802039D12147682
:100323006453701F1214B5644870181214BBB4419F
:10033300121214959480400512149C80471219F0F0
:1003430002039D1214766447701D1214B5B452173C
:100353001214BBB450111214959480400512149CCE
:10036300802212000080331214766450701E12141F
:10037300B5B457181214BBB44D121214959480409F
:100383000612149C02052A120000800E1214A59076
:0E039300003F740175F09412052A1214A52281
:101679008B538A54895590003F12049B1206811698
:10168900B000FB16BB00FC16C900FD16D400FE16FF
:10169900DC019416E4019516EC019616F4019716EF
:1016A900FC0198000017051214C17BFF7A11790516
:1016B90080471214C104F5337BFF7A1179388039D8
:1016C9001214C17BFF7A117972802E7BFF7A11790E
:1016D9009A80267BFF7A1179EC801E7BFF7A12793A
:1016E9000F80167BFF7A12794D800E7BFF7A127973
:0D16F9008780067BFF7A1279A6120AE02294
:061A81008B288A29892A46
:101A8700E4FFFEAB28E52A24051214EFBF00010E80
:101A9700EF64084E70EDE4FEFFAB28E52A2402123E
:101AA70014EFBF00010EEF64034E70EDAB28AA29B7
:0B1AB700A92A90003FE4F5F002052A88
:0300000002179252
:0C179200787FE4F6D8FD7581550217D968
:1003A100C2D530F707B2D563F0FF05F030E70CB2E4
:1003B100D5F4048463F0FF05F080018430D502F4A4
:0203C100042214
:1003C300BB010689828A83E0225002E722BBFE0238
:0903D300E32289828A83E493226B
:1003DC00BB010CE58229F582E5833AF583E02250D6
:1003EC0006E92582F8E622BBFE06E92582F8E22220
:0D03FC00E58229F582E5833AF583E493223A
:10040900BB010FF8E58229F582E5833AF583E028F7
:10041900F0225009C58229F8E58226F622BBFE0999
:10042900C58229F8E22582F222F8EA2583F583E9D3
:03043900932822E3
:10043C00BB010689828A83F0225002F722BBFE019F
:02044C00F32299
:10044E00F8BB010DE58229F582E5833AF583E8F0E4
:10045E00225006E92582C8F622BBFE05E92582C890
:02046E00F22278
:10047000BB010A89828A83E0F5F0A3E02250068757
:10048000F009E71922BBFE07E3F5F009E319228919
:0B049000828A83E493F5F0740193224C
:10049B00BB0110E58229F582E5833AF583E0F5F09F
:1004AB00A3E0225009E92582F886F008E622BBFE7C
:1004BB000AE92582F8E2F5F008E222E5832AF583C2
:0804CB00E993F5F0A3E9932287
:1004D300BB010789828A830206C0500B09C5F02736
:1004E300F7C5F01937F722BBFE0D09F8E325F0F342
:1004F300C5F019E338F322F889828A8374019325BE
:08050300F0C5F0F8E493382282
:10050B00BB010A89828A83F0E5F0A3F0225006F73B
:0F051B0009A7F01922BBFE06F3E5F009F3192238
:10052A00F8BB0111E58229F582E5833AF583E8F003
:10053A00E5F0A3F0225009E92582C8F608A6F022C0
:0D054A00BBFE09E92582C8F2E5F008F222A7
:1005570075F008758200EF2FFFEE33FECD33CDCC5B
:1005670033CCC58233C5829BED9AEC99E5829840DE
:100577000CF582EE9BFEED9AFDEC99FC0FD5F0D6BB
:10058700E4CEFBE4CDFAE4CCF9A88222B800C1B9E5
:100597000059BA002DEC8BF084CFCECDFCE5F0CB23
:1005A700F97818EF2FFFEE33FEED33FDEC33FCEB5C
:1005B70033FB10D703994004EB99FB0FD8E5E4F917
:1005C700FA227818EF2FFFEE33FEED33FDEC33FC04
:1005D700C933C910D7059BE99A4007EC9BFCE99AF8
:1005E700F90FD8E0E4C9FAE4CCFB2275F010EF2F3D
:1005F700FFEE33FEED33FDCC33CCC833C810D7073D
:100607009BEC9AE899400AED9BFDEC9AFCE899F877
:0E0617000FD5F0DAE4CDFBE4CCFAE4C8F9220A
:10062500EB9FF5F0EA9E42F0E99D42F0EC6480C84C
:0606350064809845F022EC
:10063B00BB010789828A830206E25005E9F80206AC
:10064B00D6BBFE05E9F80206EE89828A830206FA1A
:10065B00D083D082F8E4937012740193700DA3A32E
:10066B0093F8740193F5828883E473740293686042
:06067B00EFA3A3A380DF42
:10068100D083D082F8E4937012740193700DA3A308
:1006910093F8740193F5828883E473740293B5F03F
:0D06A100067403936860E9A3A3A3A380D8A7
:100A7E00E53E2432F8E6053E22782F300702783222
:100A8E00E475F00112070A0203C32000EB7F2ED299
:100A9E00008018EF540F2490D43440D4FF30040B50
:100AAE00EF24BFB41A0050032461FFE53F60021526
:100ABE003F0542E5427002054130070D782FE4757F
:100ACE00F00112070AEF02043C021BE77403D2077F
:100ADE008003E4C207F53E8B2F8A308931E4F53F5F
:100AEE00F541F542E53F60077F20120AB980F575A2
:100AFE0040FFC201C200C202C203C205C206C20842
:100B0E00120A87FF700D3007057F00120ACAAF4226
:100B1E00AE4122B4255FC2D5C204120A87FF24D08B
:100B2E00B40A00501A75F00A783F30D50508B6FFA2
:100B3E000106C6A426F620D5047002D20380D9245D
:100B4E00CFB41A00EF5004C2E5D204020CCAD2018F
:100B5E0080C6D20080C0D20280BCD2D580BAD20567
:100B6E0080B47F20120AB92002077401B53F0040FD
:100B7E00F1120A7EFF120AB9020AF2D208D20680D8
:100B8E0095120A7EFB120A7EFA120A7EF94A4B7001
:100B9E0006799B7A0D7BFF20022EE53F602A7E00B0
:100BAE008E827583001203DC60060EEE654070F0D7
:100BBE00C2D5EBC0E0EAC0E0E9C0E0EE120D11D004
:100BCE00E0F9D0E0FAD0E0FB1203C3FF60AAEBC05D
:100BDE00E0EAC0E0E9C0E0120AB9D0E02401F9D0A1
:100BEE00E03400FAD0E0FBE5400460DCD540D9806B
:100BFE00877BFF7A0D790DD202809C791080027965
:100C0E0008C206C2088008D2D5790A8004790AC2C1
:100C1E00D5E540047002F540E4FAFDFEFF120A7EAF
:100C2E00FC7B08200113120A7EFD7B1030000A1295
:100C3E000A7EFE120A7EFF7B20EC3382D592D550BF
:100C4E0013C3E43000069FFFE49EFEE42001039DE3
:100C5E00FDE49CFCE4CBF8C201EC700CCFCECDCC05
:100C6E00E824F8F870F38017C3EF33FFEE33FEED90
:100C7E0033FDEC33FCEB33FB994002FB0FD8E9EB71
:100C8E00300105F8D0E0C448B201C0E00AEC4D4E88
:100C9E004F78207B0070C2EAB5400040BCC0E01225
:100CAE000D13D0F0D0E0200104C4C0E0C4B201C0E6
:100CBE00F0120AA2D0F0D5F0EB020AF212065B0B8C
:100CCE008F530C09580B604C0B5C420C0D4F0C15DE
:0F0CDE00440C15490B75430C1B550BFF460BFFC0
:100CED00450BFF470DBB500B642D0B682E0B8B2B4B
:100CFD000B6C230B89200DA42A0B244800000B83B9
:100D0D003F3F3F00790AA2D5200314300509B910E1
:100D1D00020404B9080104A2D520060250010420E2
:100D2D0002689202B53F005034C0E07F20300319B5
:100D3D007F30A20272067205500F120D6AC202C2F6
:100D4D0006C205C2087F30800F300503E9C0E012EE
:100D5D000AB9300503D0E0F9D0E0B53FCC30051726
:100D6D007F30B9100C120AB97F583004077F788094
:100D7D0003B90803120AB93002057F2D020AB97FA3
:100D8D00202008F87F2B2006F322920280CF286EB8
:100D9D00756C6C2900D201120A7E3001F8C20178FF
:100DAD003F30D50108F6020B242D50434958120A45
:100DBD007E2403B405004001E4900DB693120AAAF7
:0D0DCD00743A120AAAD203753F04020C0901
:101D290010090B121D96BF0D027F0A021BE7AF1F98
:011D39002287
:10152F008B2E8A2F8930AB2EAA2FA9301203C3FF1F
:10153F00121D16500D74012530F530E4352FF52F9F
:10154F0080E4D200AB2EAA2FA9301203C3FF642B65
:10155F006004EFB42D1BAB2E0530E530AA2F7002BF
:10156F00052F14F91203C3642D6003D38001C392B6
:10157F0000E4F531F532AB2EAA2FA9301203C3FFC9
:10158F00121D685036AB2EAA2FA9301203C3FF339A
:10159F0095E0FEEF24D0FBEE34FFFAAE31AF327C94
:1015AF00007D0A1206AEEF2BF532EE3AF5317401DB
:1015BF002530F530E4352FF52F80BB300006AE31E6
:0E15CF00AF328009C3E49532FFE49531FE226D
:1015DD008E258F267E007F008F828E83E0FCA3E018
:1015ED00FD4C7003FEFF228D828C83A3A3E0FAA332
:1015FD00E0FBC39526EA95255008CEECCECFEDCF76
:10160D0080D6C3EB9526F528EA9525F527C3E52861
:10161D009410E527940050198D828C83E0FBA3E094
:10162D008F828E83CBF0A3EBF0ED2404FFE43CFE20
:10163D002274FC2528F52874FF3527F5278D828C1B
:10164D0083A3A3F0A3E528F0ED2404FFE43CFEEF13
:10165D002528FFEE3527FE8F82F583A3A3E525F020
:0C166D00A3E526F0EF2404FFE43EFE227B
:10179E00021AC2E493A3F8E493A34003F68001F285
:1017AE0008DFF48029E493A3F85407240CC8C3334C
:1017BE00C4540F4420C8834004F456800146F6DF1B
:1017CE00E4800B0102040810204080901D3AE47E54
:1017DE00019360BCA3FF543F30E509541FFEE49310
:1017EE00A360010ECF54C025E060A840B8E493A3D7
:1017FE00FAE493A3F8E493A3C8C582C8CAC583CA02
:10180E00F0A3C8C582C8CAC583CADFE9DEE780BEB9
:011D3E0000A4
:1006AE00EF8DF0A4A8F0CF8CF0A428CE8DF0A42E60
:0206BE00FE221A
:1006C000C5F0F8A3E028F0C5F0F8E58215827002C5
:0606D0001583E038F02262
:0C06D600E6FC08E6FD08E6FE08E6FF2250
:0C06E200E0FCA3E0FDA3E0FEA3E0FF228B
:0C06EE00E2FC08E2FD08E2FE08E2FF2248
:1006FA00E493FC740193FD740293FE740393FF2246
:10070A00FAE6FB0808E6F925F0F618E6CA3AF622F0
:101BE700EFB40A07740D121BF2740A309811A89902
:101BF700B8130CC2983098FDA899C298B811F6305E
:071C070099FDC299F5992235
:0A1D96003098FDAF99C2987E00223C
:0F1D6800EFC394304007EF943A50028001C3223A
:101D1600EFC394094005EF940E4003BF2003D38020
:031D260001C322D4
:0B1D3F00480000000000000000000051
:101B4200EF4E7008FE7F01ED1D70011C900000EE4B
:101B5200F0A3EFF0A3ECF0A3EDF0900000E0FEA301
:101B6200E0FFF5828E83E4F0A3F0ED24FCFDEC347B
:0C1B7200FF8F828E83A3A3F0A3EDF0226E
:00000001FF
