:100056006572726F7220656E2063616D626961728E
:100066005F70696E2C20414443304D5558206465BD
:1000760062657269612073657220307831380A00D2
:100086006572726F7220656E2063616D626961725E
:100096005F70696E2C20414443304D55582064658D
:1000A60062657269612073657220307832380A00A1
:1000B6006572726F7220656E2063616D626961722E
:1000C6005F70696E2C20414443304D55582064655D
:1000D60062657269612073657220307833380A0070
:1000E6006572726F7220656E2063616D62696172FE
:1000F6005F70696E2C20414443304D55582064652D
:1001060062657269612073657220307834380A003E
:100116006572726F7220656E2063616D62696172CD
:100126005F70696E2C20414443304D5558206465FC
:1001360062657269612073657220307835380A000D
:100146006572726F7220656E2063616D626961729D
:100156005F70696E2C20414443304D5558206465CC
:1001660062657269612073657220307836380A00DC
:100176006572726F7220656E2063616D626961726D
:100186005F70696E2C20414443304D55582064659C
:1001960062657269612073657220307837380A00AB
:1001A6006572726F7220656E2063616D626961723D
:1001B6005F70696E2C20414443304D55582064656C
:1001C60062657269612073657220307830310A0089
:1001D6006572726F7220656E2063616D626961720D
:1001E6005F70696E2C20414443304D55582064653C
:1001F60062657269612073657220307832330A0055
:100206006572726F7220656E2063616D62696172DC
:100216005F70696E2C20414443304D55582064650B
:1002260062657269612073657220307834350A0020
:100236006572726F7220656E2063616D62696172AC
:100246005F70696E2C20414443304D5558206465DB
:1002560062657269612073657220307836370A00EC
:100266006572726F7220656E2063616D626961727C
:100276005F70696E2C20414443304D5558206465AB
:1002860062657269612073657220307830380A00C1
:100296006572726F7220656E20636F6E665F67614E
:1002A6006E616E6369612C2041444330434E206485
:1002B6006562657269612073657220307830300A34
:1002C600006572726F7220656E20636F6E665F677F
:1002D600616E616E6369612C2041444330434E2058
:1002E60064656265726961207365722030783031A9
:1002F6000A006572726F7220656E20636F6E665FAC
:1003060067616E616E6369612C2041444330434EE0
:100316002064656265726961207365722030783089
:10032600320A006572726F7220656E20636F6E66A8
:100336005F67616E616E6369612C2041444330439F
:100346004E2064656265726961207365722030783B
:1003560030330A006572726F7220656E20636F6EAD
:10036600665F67616E616E6369612C20414443304C
:10037600434E206465626572696120736572203040
:100386007830340A006572726F7220656E20636F72
:100396006E665F67616E616E6369612C20414443DE
:1003A60030434E2064656265726961207365722010
:1003B600307830350A006572726F7220656E206380
:1003C6006F6E665F67616E616E6369612C20414482
:1003D6004330434E206465626572696120736572BD
:1003E60020307830360A006572726F7220656E2092
:1003F600636F6E665F67616E616E6369612C204133
:10040600444330434E2064656265726961207365BA
:100416007220307830370A006572726F7220656E0E
:1004260020636F6E665F67616E616E6369612C2023
:100436006572726E206465626572696120736572A9
:10044600203430370A006572726F7220656E206143
:100456006E616C697A61725F627566666572206349
:100466006F6E20414443304D5558203D2030783042
:1004760038206520696E6469636520302C206465C8
:1004860062657269612073657220310A0065727255
:100496006F7220656E20616E616C697A61725F624F
:1004A600756666657220636F6E20414443304D5514
:1004B60058203D2030783138206520696E646963A4
:1004C6006520312C206465626572696120736572EE
:1004D60020310A006572726F7220656E20616E614E
:1004E6006C697A61725F62756666657220636F6EAB
:1004F60020414443304D5558203D20307832382035
:100506006520696E6469636520322C2064656265C6
:100516007269612073657220310A006572726F72AA
:1005260020656E20616E616C697A61725F627566C4
:1005360066657220636F6E20414443304D555820E6
:100546003D2030783338206520696E646963652004
:10055600332C20646562657269612073657220318F
:100566000A006572726F7220656E20616E616C6939
:100576007A61725F62756666657220636F6E20418E
:100586004443304D5558203D20307834382065207E
:10059600696E6469636520342C20646562657269DE
:1005A600612073657220310A006572726F72206570
:1005B6006E20616E616C697A61725F6275666665EE
:1005C6007220636F6E20414443304D5558203D20C4
:1005D60030783538206520696E6469636520352C6E
:1005E60020646562657269612073657220310A0054
:1005F6006572726F7220656E20616E616C697A61D8
:10060600725F62756666657220636F6E2041444351
:10061600304D5558203D2030783638206520696E9B
:100626006469636520362C206465626572696120A1
:1006360073657220310A006572726F7220656E20D2
:10064600616E616C697A61725F6275666665722059
:10065600636F6E20414443304D5558203D2030781D
:100666003738206520696E6469636520372C2064FD
:100676006562657269612073657220310A00657270
:10068600726F7220656E20616E616C697A61725F4D
:1006960062756666657220636F6E20414443304D15
:1006A6005558203D2030783031206520696E6469C8
:1006B600636520382C206465626572696120736504
:1006C6007220310A006572726F7220656E20616E4B
:1006D600616C697A61725F62756666657220636FC6
:1006E6006E20414443304D5558203D2030783233FA
:1006F600206520696E6469636520392C2064656213
:10070600657269612073657220310A006572726FC5
:100716007220656E20616E616C697A61725F6275C6
:100726006666657220636F6E20414443304D5558AE
:10073600203D2030783435206520696E6469636514
:100746002031302C206465626572696120736572A0
:1007560020310A006572726F7220656E20616E61CB
:100766006C697A61725F62756666657220636F6E28
:1007760020414443304D5558203D203078363720AF
:100786006520696E646963652031313B206465626A
:10079600657269612073657220310A006572726F35
:1007A6007220656E20616E616C697A61725F627536
:1007B6006666657220636F6E20414443304D55581E
:1007C600203D20307834352C20696E6469636520BD
:1007D600313020792076616C6F7220302C20646570
:1007E60062657269612073657220300A00657272F3
:1007F6006F7220656E20616E616C697A61725F62EC
:10080600756666657220636F6E20414443304D55B0
:1008160058203D20307834352C20696E6469636534
:1008260020313020792076616C6F72203130302C87
:1008360020646562657269612073657220300A0002
:100846006572726F7220656E20616E616C697A6185
:10085600725F62756666657220636F6E20414443FF
:10086600304D5558203D20307834382C20696E6440
:10087600696365203420792076616C6F72203020A0
:10088600646562657269612073657220300A00656D
:1008960072726F7220656E20616E616C697A617228
:1008A6005F62756666657220636F6E2041444330F1
:1008B6004D5558203D20307834382C20696E6469B7
:1008C6006365203420792076616C6F722031303078
:1008D6002C20646562657269612073657220300A36
:1008E600006572726F7220656E20616E616C697A46
:1008F60061725F62756666657220636F6E20414441
:1009060043304D5558203D20307830312C20696ECB
:1009160064696365203820792076616C6F722030B7
:1009260020646562657269612073657220300A0011
:100936006572726F7220656E20616E616C697A6194
:10094600725F62756666657220636F6E204144430E
:10095600304D5558203D20307830312C20696E645A
:10096600696365203820792076616C6F722031309A
:10097600302C20646562657269612073657220306F
:100986000A0062616C616E63653A2025640A00653F
:100996006C204F57522065732064656D61736961E1
:1009A600646F20616C746F002D2D2D2D2D2D2D2D36
:1009B6002D2D2D2D2D2D2D54455354532044454C6E
:1009C60020434F4E564552534F52202D2D2D2D2D3F
:1009D6002D2D2D2D2D2D2D2D2D2D2D0A00746573CC
:1009E600745F63616D626961725F70696E0A00743B
:1009F6006573745F63616D626961725F70696E5F72
:100A06004F4B0A00746573745F636F6E665F676150
:100A16006E616E6369610A00746573745F636F6EFD
:100A2600665F67616E616E6369615F4F4B0A007452
:100A36006573745F616E616C697A61725F62756617
:100A46006665720A00746573745F616E616C697ABB
:100A560061725F6275666665725F4F4B0A00746508
:100A660073745F4F57520A00746573745F4F575221
:100A76005F4F4B0A002D2D2D2D2D2D2D2D2D2D2D7E
:100A86002D2D2D2D2D2D2D2D2D2D2D2046494E2054
:100A96002D2D2D2D2D2D2D2D2D2D2D2D2D2D2D2D80
:100AA6002D2D2D2D2D2D2D2D0A006E6F206861798F
:100AB600206C756761722070617261207368656C65
:080AC6006C210A0025730A00EF
:041DCB000212000000
:101CCA0090003F740175F097AB09AA0AA90B020F9D
:101CDA005075C645AB09AA0AA90B228B258A268903
:0D1CEA00270513E513227B007A0079002204
:03005300021D810A
:101D8100C0E030EDFDC2ED750801050DE50D7002F5
:051D9100050CD0E0325A
:1014560075C608121C4EAFC6BF1803D38001C34021
:10146600077BFF7A0079562275C618121C4EAFC646
:10147600BF2803D38001C340077BFF7A0079862209
:1014860075C628121C4EAFC6BF3803D38001C340B1
:10149600077BFF7A0079B62275C638121C4EAFC696
:1014A600BF4803D38001C340077BFF7A0079E62259
:1014B60075C648121C4EAFC6BF5803D38001C34041
:1014C600077BFF7A0179162275C658121C4EAFC6E5
:1014D600BF6803D38001C340077BFF7A01794622A8
:1014E60075C668121C4EAFC6BF7803D38001C340D1
:1014F600077BFF7A0179762275C678121C4EAFC635
:10150600BF0103D38001C340077BFF7A0179A6227E
:1015160075C601121C4EAFC6BF2303D38001C3405C
:10152600077BFF7A0179D62275C623121C4EAFC6F9
:10153600BF4503D38001C340077BFF7A02790622A9
:1015460075C645121C4EAFC6BF6703D38001C340A4
:10155600077BFF7A0279362275C667121C4EAFC624
:10156600BF0803D38001C340077BFF7A0279662256
:04157600121CF02231
:10132D0075F40174301214097003D38001C34007A2
:10133D007BFF7A027996227431121409FFBF0103E3
:10134D00D38001C340077BFF7A0279C72274321222
:10135D00141DBF0203D38001C340077BFF7A0279BE
:10136D00F822743312141DBF0303D38001C3400749
:10137D007BFF7A037929227434121432E5F4540F69
:10138D00FFBF0403D38001C340077BFF7A03795A63
:10139D00227435121432E5F4540FFFBF0503D380C8
:1013AD0001C340077BFF7A03798B22121CDE743652
:1013BD00121442E5F4540FFFBF0603D38001C3405E
:1013CD00077BFF7A0379BC22121CDE74371214429C
:1013DD00E5F4540FFFBF0703D38001C340077BFF24
:1013ED007A0379ED22121CDE743812144C121CCAC9
:1013FD00743912144C121CCA121CF022AB09AA0A21
:10140D00A90B900005120EAC12184AE5F4540F22E8
:10141D00AB09AA0AA90B900005120EAC12184AE5E9
:10142D00F4540FFF22AB09AA0AA90B900005120E66
:10143D00AC12184A22900005120EAC12184A2290D6
:09144D000005120EAC12184A222F
:10113E0075C60890000D1212AC70077BFF7A047909
:10114E004C2275C61890000F1212BE70077BFF7AE4
:10115E000479932275C6289000111212D070077B65
:10116E00FF7A0479DA2275C6389000131212D07005
:10117E00077BFF7A0579212275C648900015121259
:10118E00AC70077BFF7A0579682275C658900017F8
:10119E001212E270077BFF7A0579AF2275C668904E
:1011AE0000191212E270077BFF7A0579F62275C6D6
:1011BE007890001BE475F001121CD212157AEF70B4
:1011CE00077BFF7A06793D2275C60190001D12122B
:1011DE00BE70077BFF7A0679842275C62390001FA6
:1011EE001212F470077BFF7A0679CB2275C64590F2
:1011FE0000211212F470077BFF7A0779122275C64E
:10120E0067121CDE900023E475F001120F501215C8
:10121E007AEF70077BFF7A07795A22121CDB900057
:10122E0021E4F5F012131260077BFF7A0779A222F0
:10123E00121CDB900021E475F06412131260077B20
:10124E00FF7A0779F32275C648121CDE900015123C
:10125E00132260077BFF7A0879462275C648121C56
:10126E00DE90001512130660077BFF7A087995222F
:10127E0075C601121CDE90001D12132260077BFF43
:10128E007A0879E72275C601121CDE90001D121332
:10129E000660077BFF7A09793622121CF022AB0911
:1012AE00AA0AA90BE475F001120F5012157AEF225B
:1012BE00AB09AA0AA90BE475F001120F5012157AA8
:1012CE00EF22AB09AA0AA90BE475F001120F501216
:1012DE00157AEF22AB09AA0AA90BE475F001120FD9
:1012EE005012157AEF22AB09AA0AA90BE475F00188
:1012FE00120F5012157AEF22E475F064120F50128D
:10130E00157AEF22120F509000427402120EAC1298
:0F131E00157AEF22E4F5F0120F5012157AEF2234
:101AE000752C1EE4F50CF50D75C608D3E52C648045
:101AF00094804033E50860F3E4F508121D638F2BF2
:101B00008E2A8D298C28121CDE12157AEF60097B33
:101B1000007A007928121C0B121C4E152CE50D15AD
:101B20000D70C8150C80C47BFF7A097988850C3448
:101B3000850D35120B30E50D450C7003D38001C3C4
:0C1B400040077BFF7A09799522121CF007
:011B4C002276
:0E1710007A0979AE12179E7A0979E3120B302E
:10171E00121456121CE570020512EA494B600122A2
:0E172E007A0979F512179E7A0A790A120B30A1
:10173C0012132D121CE570020512EA494B600122AE
:0E174C007A0A791E1217A67A0A7935120B3026
:10175A0012113E121CE570020512EA494B60012281
:0E176A007A0A794B1217A67A0A7964120B30AC
:10177800121AE0121CE570020512EA494B600122B8
:101788007BFF7A0A796E120B307BFF7A0A797B121B
:101798000B30121CF0227BFF120B307BFF227BFFE9
:0617A800120B307BFF2252
:101BAF0053D9BF121DF7121DEA121D43121D1E7FBE
:101BBF00447E001217AEAA06A9077509018A0A8981
:101BCF000BE94A450970097BFF7A0A79B0120B308D
:101BDF00C2ED75C60875F383D2AF1217108B228A28
:101BEF00238924AE02AF01EF4E600F8B348A358903
:0C1BFF00367BFF7A0A79CA120B3080FE98
:101D4300759810758D96538EF4438E08858D8B533D
:101D5300890F43892075C608D28ED299E4FEFF22EB
:101D1E0043D103E4F5F4F5FB75F708F59B759A3F8F
:101D2E00F5BD75C60875F38130EAFD43E60875F317
:051D3E0080E4FEFF221D
:0D1DEA0075E10175E25143A41043A480226D
:071DF70043B20375EF042263
:101B4D0053452C25632C256C750A0044462C2563C2
:101B5D002C256C750A007365206465746F6E6F209B
:101B6D00746F646F0A006964783A2025690A004130
:101B7D004443304D55583A20307825780A00766127
:101B8D00723A2025690A004144435B25695D3A207C
:101B9D0025750A0041444330434E3A203078256381
:021BAD000A002C
:101A6500F9E4352EFAAF30EF3395E0FEEF25E0FFD0
:101A7500EE33FEE92FF9EA3EFA222430F534AB2D98
:101A8500AA2EA92F1210618F388E378D368C357B93
:101A9500FF22F5C6121D638F1D8E1C8D1B8C1A7BB4
:101AA500007A00791A22C2ED75F383D2AF90004314
:101AB500120E4CFFC454F022AB2DAA2EA92F900074
:101AC5004222AB28AA29A92A90003F020F50900074
:0B1AD50005020E4CAB4EAA4FA9502298
:101D6300E4F51485C51585C41685C3177B367A1A21
:0D1D7300F9F8AF17AE16AD15AC14120FB98C
:011D80002240
:10184A008B288A29892A75F380121AD312108118D3
:10185A007530187A31188332188D3318973418A1D5
:10186A003518AB3618B537000018BF53F4F080515D
:10187A00E5F454F004F5F48048E5F454F02402F554
:10188A00F4803EE5F454F02403F5F48034E5F4548E
:10189A00F02404F5F4802AE5F454F02405F5F480E4
:1018AA0020E5F454F02406F5F48016E5F454F02407
:1018BA0007F5F4800C740175F097121AC775F38353
:0C18CA002275F383E475F0FD121AC722AA
:101C4E0075F380E5C6540FFFBF0815E5C6B47808D6
:101C5E0043F41075C6018024741025C6F5C6801C89
:101C6E00E5C6540FC394085016E5C6B4670853F47E
:101C7E00EF75C6088006742225C6F5C675F3832255
:061C0B008B2D8A2E892FAB
:101C1100AFC68F30E530540FFFBF0812E5307804AE
:101C2100A2E713D8FB121A7F7A1B794D801BE5308E
:101C3100540FC3648094885013E5307804A2E713ED
:0C1C4100D8FB121A7F7A1B7958120B3066
:011C4D002274
:06157A008B2D8A2E892F43
:10158000E5C6540FFFE5C6C4540FFEEF75F0081210
:101590000E2AADF0D3ED64809480121ABD4007741A
:1015A00001120E798004E4120EAC121ABD120E4C18
:1015B000FDC3EE9F24082DF530C36480948C505CED
:1015C000E9240DF9E43A121A69120ECEFDACF04C82
:1015D0007002FF22ED64014C7023AB2DE52F242512
:1015E000121A65120ECEFDE52F240DF9E4352EFA00
:1015F000121A78E5F08DF0120F317F0122AB2DE544
:101600002F240D121A65120ECED39401E5F094002A
:10161000404D74FFF5F0120EF97F00227BFF7A1B1C
:101620007963120B307BFF7A1B7973AF30EF339500
:10163000E0F5348F35120B307BFF7A1B797CAFC617
:101640008F34120B30121ABD120E4CFF3395E0F599
:10165000348F357BFF7A1B798B120B307FFF227F13
:011660000089
:011661002266
:1019E7008B4E8A4F8950E92407F9E43AFA121662B6
:1019F7008E188F19E4FCFDFBFA7901F8C312104B1E
:101A0700500D121AD990003F740175F096804B1251
:101A17001AD9121AD3FF3395E0FEEF24D0F51FEE43
:101A270034FFF51EC3648094804025E51F9408E5C4
:101A37001E648094805019E92425F9E43AFAE51FD9
:101A470025E0FFE51E121A76E5188519F0120F3109
:0E1A5700121AD990003FE475F0FB120F5022D6
:101962008B518A528953E92406F9E43AFA12166233
:101972008E188F19AB51AA52A953121AD324CE60D2
:101982001424FE601824FE601C24067020751E00BC
:10199200751F088022751E00751F09801A751E00AA
:1019A200751F0A8012751E00751F0B800A90003F7A
:1019B200740175F096802AAB51E5532425F9E4357C
:1019C20052FAE51F25E0FFE51E121A76E518851981
:1019D200F0120F31AB51AA52A95390003FE475F0B7
:0519E200FC120F502271
:101DA900121AAB2408121A97121C0BE4F5F3C2AFEE
:011DB9002207
:101DBA00121AAB2F04121A97121C0BE4F5F3C2AFD6
:011DCA0022F6
:060003008B4A8A4B894C78
:10000900E4F54DAF4DEF3395E0FEF5348F35AB4A4E
:10001900E54C2425F9E4354BFA121A71120ECEF586
:100029003785F0367BFF7A1B7994120B30054DC367
:10003900E54D6480948C40CB7BFF7A1B79A1AFF4AA
:08004900EF2430F534020B3006
:030000000218D60D
:0C18D600787FE4F6D8FD75815302191DDF
:100E2A00C2D530F707B2D563F0FF05F030E70CB250
:100E3A00D5F4048463F0FF05F080018430D502F410
:020E4A00042280
:100E4C00BB010CE58229F582E5833AF583E022505B
:100E5C0006E92582F8E622BBFE06E92582F8E222A5
:0D0E6C00E58229F582E5833AF583E49322BF
:100E7900BB010FF8E58229F582E5833AF583E0287D
:100E8900F0225009C58229F8E58226F622BBFE091F
:100E9900C58229F8E22582F222F8EA2583F583E959
:030EA90093282269
:100EAC00F8BB010DE58229F582E5833AF583E8F07C
:100EBC00225006E92582C8F622BBFE05E92582C828
:020ECC00F22210
:100ECE00BB010A89828A83E0F5F0A3E022500687EF
:100EDE00F009E71922BBFE07E3F5F009E3192289B1
:0B0EEE00828A83E493F5F074019322E4
:100EF900BB010789828A830210E4500B09C5F027D8
:100F0900F7C5F01937F722BBFE0D09F8E325F0F311
:100F1900C5F019E338F322F889828A83740193258D
:080F2900F0C5F0F8E493382252
:100F3100BB010A89828A83F0E5F0A3F0225006F70B
:0F0F410009A7F01922BBFE06F3E5F009F3192208
:100F5000F8BB0111E58229F582E5833AF583E8F0D3
:100F6000E5F0A3F0225009E92582C8F608A6F02290
:0D0F7000BBFE09E92582C8F2E5F008F22277
:100F7D0075F008758200EF2FFFEE33FECD33CDCC2B
:100F8D0033CCC58233C5829BED9AEC99E5829840AE
:100F9D000CF582EE9BFEED9AFDEC99FC0FD5F0D68B
:100FAD00E4CEFBE4CDFAE4CCF9A88222B800C1B9B5
:100FBD000059BA002DEC8BF084CFCECDFCE5F0CBF3
:100FCD00F97818EF2FFFEE33FEED33FDEC33FCEB2C
:100FDD0033FB10D703994004EB99FB0FD8E5E4F9E7
:100FED00FA227818EF2FFFEE33FEED33FDEC33FCD4
:100FFD00C933C910D7059BE99A4007EC9BFCE99AC8
:10100D00F90FD8E0E4C9FAE4CCFB2275F010EF2F0C
:10101D00FFEE33FEED33FDCC33CCC833C810D7070C
:10102D009BEC9AE899400AED9BFDEC9AFCE899F847
:0E103D000FD5F0DAE4CDFBE4CCFAE4C8F922DA
:10104B00EB9FF5F0EA9E42F0E99D42F0EC6480C81C
:06105B0064809845F022BC
:10106100BB010789828A830211065005E9F8021043
:10107100FABBFE05E9F802111289828A8302111E68
:10108100D083D082F8E4937012740193700DA3A3FE
:1010910093F8740193F5828883E473740293686012
:0610A100EFA3A3A380DF12
:100ACE00E5402434F8E605402278313007027834C8
:100ADE00E475F00112112E0210A72000EB7F2ED22A
:100AEE00008018EF540F2490D43440D4FF30040B00
:100AFE00EF24BFB41A0050032461FFE541600215D4
:100B0E00410544E5447002054330070D7831E47524
:100B1E00F00112112EEF0210C0021CF77403D2075F
:100B2E008003E4C207F5408B318A328933E4F54104
:100B3E00F543F544E54160077F20120B0980F575FA
:100B4E0042FFC201C200C202C203C205C206C208EF
:100B5E00120AD7FF700D3007057F00120B1AAF4433
:100B6E00AE4322B4255FC2D5C204120AD7FF24D0E9
:100B7E00B40A00501A75F00A784130D50508B6FF50
:100B8E000106C6A426F620D5047002D20380D9240D
:100B9E00CFB41A00EF5004C2E5D204020D1AD201EE
:100BAE0080C6D20080C0D20280BCD2D580BAD20517
:100BBE0080B47F20120B092002077401B54100405A
:100BCE00F1120ACEFF120B09020B42D208D2068096
:100BDE0095120ACEFB120ACEFA120ACEF94A4B70C1
:100BEE000679EB7A0D7BFF20022EE541602A7E000E
:100BFE008E82758300120E4C60060EEE654270F00A
:100C0E00C2D5EBC0E0EAC0E0E9C0E0EE120D61D063
:100C1E00E0F9D0E0FAD0E0FB1210A7FF60AAEBC01B
:100C2E00E0EAC0E0E9C0E0120B09D0E02401F9D0FF
:100C3E00E03400FAD0E0FBE5420460DCD542D98016
:100C4E00877BFF7A0D795DD202809C7910800279C4
:100C5E0008C206C2088008D2D5790A8004790AC271
:100C6E00D5E542047002F542E4FAFDFEFF120ACE0B
:100C7E00FC7B08200113120ACEFD7B1030000A12F5
:100C8E000ACEFE120ACEFF7B20EC3382D592D550CF
:100C9E0013C3E43000069FFFE49EFEE42001039D93
:100CAE00FDE49CFCE4CBF8C201EC700CCFCECDCCB5
:100CBE00E824F8F870F38017C3EF33FFEE33FEED40
:100CCE0033FDEC33FCEB33FB994002FB0FD8E9EB21
:100CDE00300105F8D0E0C448B201C0E00AEC4D4E38
:100CEE004F78207B0070C2EAB5420040BCC0E012D3
:100CFE000D63D0F0D0E0200104C4C0E0C4B201C046
:100D0E00F0120AF2D0F0D5F0EB020B421210810B6A
:100D1E00DF530C59580BB04C0BAC420C5D4F0C65AD
:0F0D2E00440C65490BC5430C6B550C4F460C4FDD
:100D3D00450C4F470E0B500BB42D0BB82E0BDB2B68
:100D4D000BBC230BD9200DF42A0B744800000BD3D8
:100D5D003F3F3F00790AA2D5200314300509B91091
:100D6D00020404B9080104A2D52006025001042092
:100D7D0002689202B541005034C0E07F2030031963
:100D8D007F30A20272067205500F120DBAC202C256
:100D9D0006C205C2087F30800F300503E9C0E0129E
:100DAD000B09300503D0E0F9D0E0B541CC30051783
:100DBD007F30B9100C120B097F583004077F7880F3
:100DCD0003B90803120B093002057F2D020B097FB1
:100DDD00202008F87F2B2006F322920280CF286E68
:100DED00756C6C2900D201120ACE3001F8C201785F
:100DFD004130D50108F6020B742D50434958120AA3
:100E0D00CE2403B405004001E4900E0693120AFAB5
:0D0E1D00743A120AFAD203754104020C590E
:101662008B458A468947AB45AA46A9471210A7FF70
:10167200121D96500D74012547F547E43546F5468F
:1016820080E4D209AB45AA46A9471210A7FF642BF2
:101692006004EFB42D1BAB450547E547AA4670022F
:1016A200054614F91210A7642D6003D38001C3927A
:1016B20009E4F548F549AB45AA46A9471210A7FF28
:1016C200121DDB5036AB45AA46A9471210A7FF33BD
:1016D20095E0FEEF24D0FBEE34FFFAAE48AF497C32
:1016E200007D0A1210D2EF2BF549EE3AF54874014B
:1016F2002547F547E43546F54680BB300906AE4836
:0E170200AF498009C3E49549FFE49548FE22F3
:1017AE008E258F267E007F008F828E83E0FCA3E045
:1017BE00FD4C7003FEFF228D828C83A3A3E0FAA35F
:1017CE00E0FBC39526EA95255008CEECCECFEDCFA3
:1017DE0080D6C3EB9526F528EA9525F527C3E5288F
:1017EE009410E527940050198D828C83E0FBA3E0C2
:1017FE008F828E83CBF0A3EBF0ED2404FFE43CFE4E
:10180E002274FC2528F52874FF3527F5278D828C48
:10181E0083A3A3F0A3E528F0ED2404FFE43CFEEF40
:10182E002528FFEE3527FE8F82F583A3A3E525F04D
:0C183E00A3E526F0EF2404FFE43EFE22A8
:1018E200021BAFE493A3F8E493A34003F68001F252
:1018F20008DFF48029E493A3F85407240CC8C33307
:10190200C4540F4420C8834004F456800146F6DFD5
:10191200E4800B0102040810204080901DCBE47E7D
:10192200019360BCA3FF543F30E509541FFEE493CA
:10193200A360010ECF54C025E060A840B8E493A391
:10194200FAE493A3F8E493A3C8C582C8CAC583CABC
:10195200F0A3C8C582C8CAC583CADFE9DEE780BE74
:011DCF000013
:1010A700BB010689828A83E0225002E722BBFE0247
:0910B700E32289828A83E493227A
:1010C000BB010689828A83F0225002F722BBFE010F
:0210D000F32209
:1010D200EF8DF0A4A8F0CF8CF0A428CE8DF0A42E32
:0210E200FE22EC
:1010E400C5F0F8A3E028F0C5F0F8E5821582700297
:0610F4001583E038F02234
:0C10FA00E6FC08E6FD08E6FE08E6FF2222
:0C110600E0FCA3E0FDA3E0FEA3E0FF225C
:0C111200E2FC08E2FD08E2FE08E2FF2219
:10111E00E493FC740193FD740293FE740393FF2217
:10112E00FAE6FB0808E6F925F0F618E6CA3AF622C2
:101CF700EFB40A07740D121D02740A309811A899DF
:101D0700B8130CC2983098FDA899C298B811F6304C
:071D170099FDC299F5992224
:0F1DDB00EFC394304007EF943A50028001C322C7
:101D9600EFC394094005EF940E4003BF2003D380A0
:031DA60001C32254
:0B1DD0004800000000000000000000C0
:101C8E00EF4E7008FE7F01ED1D70011C900000EEFE
:101C9E00F0A3EFF0A3ECF0A3EDF0900000E0FEA3B4
:101CAE00E0FFF5828E83E4F0A3F0ED24FCFDEC342E
:0C1CBE00FF8F828E83A3A3F0A3EDF02221
:00000001FF
