:10000300C200E4F5D912008C1200961200637FD867
:100013007EA41200727F587E021200447F747EA475
:100023001200727F587E021200447FF07E8112001C
:10003300727F587E021200447FA07E8C1200728071
:01004300FEBE
:0700960075B283E4F5A92215
:0A008C00E4F5E175E24143A401220E
:0F006300E4F5D875D90875DACB43E610D2DE2262
:0E007200D2AF20D8FDC2AFEFF5E9EEF5EA22DD
:10004400E4FDFCD2AF30D8FDC2D80DBD00010CC315
:0E005400ED9FEE6480F8EC64809840E9C2AF46
:01006200227B
:030000000200807B
:0C008000787FE4F6D8FD758120020003B3
:00000001FF
