:0719EE00253035642C7A005E
:0A19C8007BFF7A1979EE754C0322BB
:1019690043E24043A41043A50243A4045380FB224D
:0A19BE0043B20375EF04E4F5A9221B
:1018330043D103E4F5F4F5FB75F708F59B759A3F7F
:10184300F5BD75C60875F38130EAFD75F380E4FED6
:02185300FF2272
:10180D0043E10143E240E4F5D443A41043F12075D4
:10181D009810758D96438E08858D8B53890F43894E
:06182D0020D28ED29922A8
:0F19790043E210E4F58CF58A4389254388502218
:10191B0043918043910443E68043F680E4F594F5CC
:06192B0095F592F59322F0
:04004D0043B1202279
:0F19880043E201E4F5D875D90875DACBD2DE2237
:10000300AFA88F1EAFE68F1FE4F5A8F5E6D2ACD2FA
:0E001300AF1219C8754D201209034387012250
:10190400A2AF92AFA2AC92AC851EA8851FE61219B5
:07191400C8754D2102090313
:0719F500253035642C7A0057
:100EBA00900002AB3FAA40A9410200B1900005127E
:100ECA0000B124D0FFC3940022AB3FAA40A941122B
:100EDA000098D364802290003F740175F0952290A7
:100EEA0000030200B19000040200B1AB3FAA40A97E
:100EFA00412290003F740175F096227BFF7A19799E
:100F0A00F522F9E43AFAE542FD3395E0FCE92DF9D8
:100F1A00EA3CFAEF120111054222AB3FAA40A9416D
:100F2A0022F9E43540FAE92FF9EA3EFAE41201110E
:100F3A000F22120098FFD36480229000010200B1B0
:100F4A009000081200B124D0FEC39400229000063B
:100F5A000200B1C3EF6480948222120098C36480B5
:010F6A002264
:060DFF008B3F8A40894190
:100E0500E4F54290003FF5F08045120EB0900001E8
:100E1500EF1201236478603C120F44FFB40A0FE51A
:100E250042700B90003F740375F0E80201FFEF6418
:100E35000A6021C3E542648094835008E9240212C4
:100E45000F0C80C6120F2490003F740175F09412A8
:100E550001FF80B6E4F542120F24120F44640A60C4
:100E65002E120EB0900001EF120123640A6020C318
:100E7500E54264809488500C120F44FFE924051262
:100E85000F0C80DD120F24120EE01201FF80D2122A
:100E95000F24E542120111120F24120F44640A6057
:0A0EA50006121958BF0AFA120F24B2
:0B0EAF0022121958AB3FAA40A94122B3
:1004A5008B3F8A4089419000021200B1FFB4531A74
:1004B500120EE9B4541490003FE475F0FE1201FFEA
:1004C500900041E412012302088BEF64536003029C
:1004D50005A0120EE9645360030205A0120EEF6435
:1004E5004560030205A0120F3C948540030206B83F
:1004F500120F57FE642C6005120F5D40061200981E
:10050500FF70030205D5EE642C600B120F5D4006EB
:10051500120EF50205EC900006120EBDB42C0A125F
:100525000F64948350030205EC120EC64052EFD3BC
:1005350094074003020623120ED3948240119000C3
:1005450007120EC94006EFD3940940030206231291
:100555000EF5120F3C9483400E120F4A4006EED35F
:1005650094094003020623D3EF6480948440141257
:100575000EF5900009120EC94006EFD39409400309
:10058500020623120ED39484400812088F400302FA
:10059500068A120EF512137E02088B120EBA6453E8
:1005A500600302069C120EE96444600302069C1275
:1005B5000EEF6449600302069C120F3C94854003CC
:1005C5000206B8120F57FE642C6010120F5D500B17
:1005D50090003F740175F097020875EE642C601267
:1005E500120F649482400B90003F740175F09802DD
:1005F5000875120F57B42C12120F649483500B9088
:10060500003F740175F098020875120EC6400FEF91
:10061500D3940650099000051200B130E006120E81
:10062500FC020875120ED394824014900007120E36
:10063500C94006EFD394094006120EFC0208751254
:100645000EF5120F3C94834011120F4A4006EED36B
:1006550094094006120EFC020875D3EF6480948459
:100665004017120EF5900009120EC94006EFD394FB
:10067500094006120EFC020875120ED39484400E32
:1006850012088F4009120EF5120EFC020875120EA3
:10069500F51212FE02088B120EBA64477035120E5F
:1006A500E96453702E120EEF64457027120ED9942B
:1006B500814006120EE0020875120EC64006EFD301
:1006C50094074006120EFC020875120EF51216CD9F
:1006D50002088B120EBA64477035120EE964447035
:1006E5002E120EEF64497027120ED9948640061219
:1006F5000EE0020875120EC64006EFD394064006BA
:10070500120EFC020875120EF51214D402088B1293
:100715000EBA64537035120EE96447702E120EEF4F
:1007250064417027120ED994814006120EE002082A
:1007350075120EC64006EFD394074006120EFC0252
:100745000875120EF512115C02088B120EBA644779
:10075500701F120EE9B45419120EEFB43013120EB5
:10076500D994804006120EE0020875120056020860
:100775008B120EBA6447701F120EE9B45419120E8B
:10078500EFB43213120ED994804006120EE002081F
:100795007512189802088B120EBA64537020120E47
:1007A500E964487019120EEFB44113120ED9948002
:1007B5004006120EE00208751215FE02088B120E95
:1007C500BA6447701F120EE9B45219120EEFB450F5
:1007D50013120ED994804006120EE0020875121805
:1007E5005502088B120EBA6450701F120EE9B457E9
:1007F50019120EEFB44D13120ED994804006120E45
:10080500E002087512178402088B120EBA644E7046
:100815001E120EE9B45418120EEFB45012120ED96E
:1008250094804005120EE080471219A602088B122B
:100835000EBA6453701D120EE9B44C17120EEFB4C4
:100845005011120ED994804005120EE0802212003C
:10085500038033120EBA6457701E120EE9B44B189A
:10086500120EEFB45012120ED994804006120EE00B
:100875000201FF121904800E120EF590003F74015B
:1008850075F0941201FF120EF522E92407F9E43AF6
:0C089500FA120F6BD3EF94FFEE940022D8
:1012740090003F1201701203D612A500FB12AD00BC
:10128400FC12B500FD12BD00FE12C5019412D0017E
:101294009512DB019612E6019712F10198000012F3
:1012A400FD120F05754CFB804D120F05754CFC802B
:1012B40045120F05754CFD803D120F05754CFE80DF
:1012C40035120F05754C01754D94802A120F057562
:1012D4004C01754D95801F120F05754C01754D9687
:1012E4008014120F05754C01754D978009120F0576
:0A12F400754C01754D981209032294
:06164C008B3F8A4089413A
:10165200E4FFFEAB3FE5412405120F2BBF00010E54
:10166200EF64084E70EDE4FEFFAB3FE54124021249
:101672000F2BBF00010EEF64034E70EDAB3FAA408B
:0B168200A94190003FE4F5F00201FFD9
:04193100027400003C
:030053000219DCB3
:0919DC0030EDFDC2ED756A013227
:030023000219E5DA
:0919E500309805C29875690132C1
:030073000215A2D1
:1015A200C0E0C0F0C083C082C0D075D000C000C00F
:0D15B20001C002C003C004C005C006C00790
:1015BF0053917F5391BFC3E5759403E57464809491
:1015CF008040091217BF7574007575000575E575B4
:0415DF00700205741D
:1015E300D007D006D005D004D003D002D001D0005C
:0B15F300D0D0D082D083D0F0D0E03206
:101877006E6F20686179206C756761722070617284
:1018870061207368656C6C21210A0053544F500A1C
:011897000050
:10002600AB3BE53D2425F9E4353CFAAF3EEF33958D
:10003600E0FEEF25E0FFEE33FEE92FF9EA3EFA2275
:07004600AB3BAA3CA93D22DF
:100BFD00E4F53E53D9BF7F44FE1210C0AA06A907E3
:100C0D007B018B3B8A3C893D900042E4120123E538
:100C1D003D453C453B700B7BFF7A187977120903F4
:100C2D0080FEE4F53E120026E4F5F01201E0053EEB
:100C3D00E53EB40CF01219BE12196912004D1218CE
:100C4D000D12198812183312197912191B12004638
:100C5D0090004174011201231200469000411200D0
:100C6D00B16401702612164C120046120DFF1200CF
:100C7D004690003F12017045F06002800912004657
:100C8D001204A512004612127480CDE4F53E120036
:100C9D0026120145FDE53D240DF9E4353CFA12001F
:100CAD003FE5F08DF01201E0053EE53EB40CDFC2EC
:100CBD00ED75C60875F38343E608D2AFD2ACE5698E
:100CCD00601DE4F5F3C2AFF56912004690004104D2
:100CDD001201237BFF7A187992120903020C65C267
:100CED00ACE56A60D7E4F56A1218EC8F6E8E6D8DE7
:100CFD006C8C6B120046120D17EF60097B007A00A9
:0A0D0D00796B12146612168D80B285
:1018B50054696D657230203A20256C750A005469AB
:0C18C5006D657232203A20256C750A0017
:0B19B3007BFF8F4F8E4E8D4D8C4C2221
:10005600E4F516F517858C18858A19AF19AE18AD13
:0D00660017AC167A1879B51219B302090308
:10189800E4F51AF51B85CD1C85CC1DAF1DAE1CAD1E
:0D18A8001BAC1A7A1879C31219B302090398
:10153D002530356C757A002B2530346C752C7A007E
:10154D002D2530346C752C7A007365206465746FAD
:10155D006E6F20746F646F0A006964783A20256994
:10156D000A00414443304D55583A20307825780AC9
:10157D00007661723A2025690A004144435B256972
:10158D005D3A2025750A0041444330434E3A2030E0
:05159D007825630A003F
:1013F700F9E43540FAAF42EF3395E0FEEF25E0FF21
:10140700EE33FEE92FF9EA3EFA22E47B02FAF9F815
:1014170012022C8F4F8E4E8D4D8C4C7BFF22E4F5A4
:101427006A1218EC8F668E658D648C637B007A0078
:101437007963229000050200B1AB3FAA40A9419011
:1014470000422290003F740175F09622AB42AA43F6
:0F145700A94490003F0201FFAB42AA43A94422DF
:1018EC0085C55F85C460E47B1AFAF9F8AF60AE5F1A
:0718FC00AD5EAC5D1202B706
:0119030022C1
:10115C008B428A43894475F38012143A1203B011FE
:10116C008730118C31119532119F3311A93411B381
:10117C003511BD3611C737000011D153F4F0805131
:10118C00E5F454F004F5F48048E5F454F02402F549
:10119C00F4803EE5F454F02403F5F48034E5F45483
:1011AC00F02404F5F4802AE5F454F02405F5F480D9
:1011BC0020E5F454F02406F5F48016E5F454F024FC
:1011CC0007F5F4800C740175F09712145375F383C2
:0C11DC002275F383E475F0FD1214532219
:10168D0075F380E5C6540FFFBF0815E5C6B478089D
:10169D0043F41075C6018024741025C6F5C6801C50
:1016AD00E5C6540FC394085016E5C6B4670853F445
:1016BD00EF75C6088006742225C6F5C675F383221C
:061466008B458A46894710
:10146C00AFC68F48E548540FFFBF080C120370122B
:10147C00141A7A15793D804CE548540FC364809456
:10148C00885044AB45AA46A947120370E47BE27A24
:10149C0004F9F8D312035FAB45AA46A947400C12D6
:1014AC0003701214117A1579448019120390C374C5
:1014BC00D89BFF74099AFEE499FDE498FC12141170
:0714CC007A15794D120903A6
:0114D30022F6
:060D17008B3F8A40894178
:100D1D00E5C6540FFFE5C6C4540FFEEF75F008127B
:100D2D000076ADF0D3ED64809480121440400774CA
:100D3D00011200DE8004E41201231214401200B1EE
:100D4D00FDC3EE9F24082DF542C36480948C505C46
:100D5D00E9240DF9E43A1213FB120145FDACF04CF8
:100D6D007002FF22ED64014C7023AB3FE541242559
:100D7D001213F7120145FDE541240DF9E43540FA52
:100D8D0012140AE5F08DF01201E07F0122AB3FE570
:100D9D0041240D1213F7120145D39401E5F094008F
:100DAD00404D74FFF5F01201A87F00227BFF7A15EC
:100DBD0079561209037BFF7A157966AF42EF3395A9
:100DCD00E0F54C8F4D1209037BFF7A15796FAFC695
:100DDD008F4C1209031214401200B1FF3395E0F548
:100DED004C8F4D7BFF7A15797E1209037FFF227F91
:010DFD0000F5
:010DFE0022D2
:10137E008B428A438944E92407F9E43AFA120F6B47
:10138E008E618F62E4FCFDFBFA7901F8C31203490A
:10139E00500812145F12144A804B12145F12143A42
:1013AE00FF3395E0FEEF24D0F568EE34FFF567C30A
:1013BE00648094804025E5689408E5676480948095
:1013CE005019E92425F9E43AFAE56825E0FFE567C6
:1013DE00121408E5618562F01201E012145F9000AC
:0913EE003FE475F0FB1201FF223F
:1012FE008B428A438944E92407F9E43AFA120F6BC8
:10130E008E618F62AB42AA43A94412143A24CE6076
:10131E001424FE601824FE601C24067020756700DD
:10132E00756808801D7567007568098015756700FA
:10133E0075680A800D75670075680B800512144A72
:10134E00802AAB42E5442425F9E43543FAE56825C5
:10135E00E0FFE567121408E5618562F01201E0AB6B
:10136E0042AA43A94490003FE475F0FC1201FF220B
:1016CD008B428A43894412143AFFC454F02408F51E
:1016DD00C6C2EDE4F5FB75F38243E608D2AFE56AC9
:1016ED0060FC121425121466E4F5F3C2AF53E6F74D
:0E16FD00AB42AA43A94490003FF5F00201FF62
:1014D4008B428A43894412143A24CE601424FE6059
:1014E4001824FE601C2406702043F41075C6018085
:1014F4001D43F41075C623801543F41075C645804A
:101504000D43F41075C667800512144A8027C2ED96
:1015140075F38243E608D2AFE56A60FC1214251223
:101524001466E4F5F3C2AF53E6F7AB42AA43A94409
:0915340090003FF5F01201FF22C6
:0615FE008B428A43894480
:10160400E4F545AF45EF3395E0FEF54C8F4DAB4225
:10161400E5442425F9E43543FA121403120145F58F
:101624004F85F04E7BFF7A1579871209030545C370
:10163400E5456480948C40CB7BFF7A157994AFF4B4
:08164400EF2430F54C0209030C
:10170B00256C75202B2D313530207270730A0073C8
:10171B006520636F72726967696F2031302076655F
:10172B006365732E2E0A2564206465206D61730A30
:0D173B002564206465206D656E6F730A00E3
:0419350002148CA06C
:10185500E47F96FEFDFCAB13AA12A911A810120293
:101865002C8F4F8E4E8D4D8C4C7BFF7A17790B024A
:02187500090365
:1017BF00E4F508F509858C0A858A0BAF0BAE0AADE7
:1017CF0009AC088F138E128D118C107D12FC121024
:0617DF0019E4F58CF58A07
:0117E50022E1
:081019008E238F248C258D2607
:10102100E5262402FFE43525FED3E5249FE5239E32
:10103100401274322515F515E41210B5050FE50FB0
:101041007002050EE52624FEFFE52534FFFEC3E50B
:10105100249FE5239E501374CE2515F51574FF12B8
:1010610010B5050DE50D7002050CE50D250FFFE529
:101071000C350EFEC3EF940AEE64809480401E7B13
:10108100FF7A17791A850C4C850D4D850E4E850F0B
:101091004F120903E4F50EF50FF50CF50DAE14AF83
:1010A10015E4FCFD7BF07A81F9F8D3120349400382
:0310B1001219A66B
:0C10B400223514F514AF15FE1219FC22B1
:10178400D2827FE87E031218D17FD81217B27F74F9
:101794001217B27FF07E811219FC7F587E02121854
:1017A400D17FA07E8C1219FC43E680D2AF227EA4A6
:0B17B4001219FC7F587E021218D1228F
:0D19A60053E67F7FDC7EFF1219FCC2822217
:0719FC00EFF5E9EEF5EA2228
:1018D100E4FDFC30D8FDC2D80DBD00010CC3ED9F65
:0B18E100EE6480F8EC64809840E9227F
:030000000211E802
:0C11E800787FE4F6D8FD75817602122FA6
:10007600C2D530F707B2D563F0FF05F030E70CB212
:10008600D5F4048463F0FF05F080018430D502F4D2
:02009600042242
:10009800BB010689828A83E0225002E722BBFE0266
:0900A800E32289828A83E4932299
:1000B100BB010CE58229F582E5833AF583E0225004
:1000C10006E92582F8E622BBFE06E92582F8E2224E
:0D00D100E58229F582E5833AF583E4932268
:1000DE00BB010FF8E58229F582E5833AF583E02826
:1000EE00F0225009C58229F8E58226F622BBFE09C8
:1000FE00C58229F8E22582F222F8EA2583F583E902
:03010E0093282211
:10011100BB010689828A83F0225002F722BBFE01CD
:02012100F322C7
:10012300F8BB010DE58229F582E5833AF583E8F012
:10013300225006E92582C8F622BBFE05E92582C8BE
:02014300F222A6
:10014500BB010A89828A83E0F5F0A3E02250068785
:10015500F009E71922BBFE07E3F5F009E319228947
:0B016500828A83E493F5F0740193227A
:10017000BB0110E58229F582E5833AF583E0F5F0CD
:10018000A3E0225009E92582F886F008E622BBFEAA
:100190000AE92582F8E2F5F008E222E5832AF583F0
:0801A000E993F5F0A3E99322B5
:1001A800BB010789828A83020415500B09C5F02711
:1001B800F7C5F01937F722BBFE0D09F8E325F0F370
:1001C800C5F019E338F322F889828A8374019325EC
:0801D800F0C5F0F8E4933822B1
:1001E000BB010A89828A83F0E5F0A3F0225006F76A
:0F01F00009A7F01922BBFE06F3E5F009F3192267
:1001FF00F8BB0111E58229F582E5833AF583E8F032
:10020F00E5F0A3F0225009E92582C8F608A6F022EE
:0D021F00BBFE09E92582C8F2E5F008F222D5
:10022C00E88FF0A4CC8BF0A42CFCE98EF0A42CFC71
:10023C008AF0EDA42CFCEA8EF0A4CDA8F08BF0A4EF
:10024C002DCC3825F0FDE98FF0A42CCD35F0FCEB4E
:10025C008EF0A4FEA9F0EB8FF0A4CFC5F02ECD3913
:0F026C00FEE43CFCEAA42DCE35F0FDE43CFC2280
:10027B0075F008758200EF2FFFEE33FECD33CDCC3A
:10028B0033CCC58233C5829BED9AEC99E5829840BD
:10029B000CF582EE9BFEED9AFDEC99FC0FD5F0D69A
:1002AB00E4CEFBE4CDFAE4CCF9A88222B800C1B9C4
:1002BB000059BA002DEC8BF084CFCECDFCE5F0CB02
:1002CB00F97818EF2FFFEE33FEED33FDEC33FCEB3B
:1002DB0033FB10D703994004EB99FB0FD8E5E4F9F6
:1002EB00FA227818EF2FFFEE33FEED33FDEC33FCE3
:1002FB00C933C910D7059BE99A4007EC9BFCE99AD7
:10030B00F90FD8E0E4C9FAE4CCFB2275F010EF2F1B
:10031B00FFEE33FEED33FDCC33CCC833C810D7071B
:10032B009BEC9AE899400AED9BFDEC9AFCE899F856
:0E033B000FD5F0DAE4CDFBE4CCFAE4C8F922E9
:10034900EB9FF5F0EA9E42F0E99D42F0EC6480C82B
:0603590064809845F022CB
:10035F00EB9FF5F0EA9E42F0E99D42F0E89C45F0F4
:01036F00226B
:10037000BB010789828A830204375005E9F8020429
:100380002BBBFE05E9F802044389828A8302044FED
:10039000BB010789828A8302046C5005E9F80204D4
:1003A0005FBBFE05E9F802047889828A830204852E
:1003B000D083D082F8E4937012740193700DA3A3DC
:1003C00093F8740193F5828883E4737402936860F0
:0603D000EFA3A3A380DFF0
:1003D600D083D082F8E4937012740193700DA3A3B6
:1003E60093F8740193F5828883E473740293B5F0ED
:0D03F600067403936860E9A3A3A3A380D855
:1008A100E558244CF8E60558227849301002784C76
:1008B100E475F0011204950200982009EB7F2ED215
:1008C100098018EF540F2490D43440D4FF300D0B1D
:1008D100EF24BFB41A0050032461FFE559600215EB
:1008E10059055CE55C7002055B30100D7849E475D3
:1008F100F001120495EF0201110217E67403D21000
:100901008003E4C210F5588B498A4A894BE4F559B2
:10091100F55BF55CE55960077F201208DC80F57511
:100921005AFFC20AC209C20BC20CC20EC20FC211C7
:100931001208AAFF700D3010057F001208EDAF5CA0
:10094100AE5B22B4255FC2D5C20D1208AAFF24D026
:10095100B40A00501A75F00A785930D50508B6FF67
:100961000106C6A426F620D5047002D20C80D92433
:10097100CFB41A00EF5004C2E5D20D020AEDD20A3B
:1009810080C6D20980C0D20B80BCD2D580BAD20E2B
:1009910080B47F201208DC200B077401B559004098
:1009A100F11208A1FF1208DC020915D211D20F8041
:1009B100951208A1FB1208A1FA1208A1F94A4B707D
:1009C1000679BE7A0B7BFF200B2EE559602A7E004B
:1009D1008E827583001200B160060EEE655A70F0CA
:1009E100C2D5EBC0E0EAC0E0E9C0E0EE120B34D0C2
:1009F100E0F9D0E0FAD0E0FB120098FF60AAEBC06A
:100A0100E0EAC0E0E9C0E01208DCD0E02401F9D05E
:100A1100E03400FAD0E0FBE55A0460DCD55AD98015
:100A2100877BFF7A0B7930D20B809C791080027919
:100A310008C20FC2118008D2D5790A8004790AC28E
:100A4100D5E55A047002F55AE4FAFDFEFF1208A139
:100A5100FC7B08200A131208A1FD7B1030090A1241
:100A610008A1FE1208A1FF7B20EC3382D592D5505C
:100A710013C3E43009069FFFE49EFEE4200A039DB0
:100A8100FDE49CFCE4CBF8C20AEC700CCFCECDCCDB
:100A9100E824F8F870F38017C3EF33FFEE33FEED6F
:100AA10033FDEC33FCEB33FB994002FB0FD8E9EB50
:100AB100300A05F8D0E0C448B20AC0E00AEC4D4E55
:100AC1004F78207B0070C2EAB55A0040BCC0E012EA
:100AD1000B36D0F0D0E0200A04C4C0E0C4B20AC092
:100AE100F01208C5D0F0D5F0EB0209151203B009D8
:100AF100B2530A2C5809834C097F420A304F0A38F5
:0F0B0100440A38490998430A3E550A22460A22F7
:100B1000450A22470BDE5009872D098B2E09AE2B83
:100B2000098F2309AC200BC72A094748000009A6F2
:100B30003F3F3F00790AA2D5200C14300E09B910AE
:100B4000020404B9080104A2D5200F0250010420B8
:100B50000B68920BB559005034C0E07F20300C195F
:100B60007F30A20B720F720E500F120B8DC20BC290
:100B70000FC20EC2117F30800F300E03E9C0E012A9
:100B800008DC300E03D0E0F9D0E0B559CC300E17B8
:100B90007F30B9100C1208DC7F58300D077F788049
:100BA00003B908031208DC300B057F2D0208DC7F37
:100BB000202011F87F2B200FF322920B80CF286E7C
:100BC000756C6C2900D20A1208A1300AF8C20A78A2
:100BD0005930D50108F60209472D504349581208EB
:100BE000A12403B405004001E4900BD9931208CD71
:0D0BF000743A1208CDD20C755904020A2C7B
:1019580010120B1219D2BF0D027F0A0217E6AF76DA
:01196800225C
:100F6B008B458A468947AB45AA46A947120098FF8D
:100F7B00121945500D74012547F547E43546F546E2
:100F8B0080E4D209AB45AA46A947120098FF642B0F
:100F9B006004EFB42D1BAB450547E547AA4670022D
:100FAB00054614F9120098642D6003D38001C39297
:100FBB0009E4F548F549AB45AA46A947120098FF45
:100FCB001219975036AB45AA46A947120098FF3322
:100FDB0095E0FEEF24D0FBEE34FFFAAE48AF497C30
:100FEB00007D0A120403EF2BF549EE3AF548740124
:100FFB002547F547E43546F54680BB300906AE4834
:0E100B00AF498009C3E49549FFE49548FE22F1
:1010C0008E3F8F407E007F008F828E83E0FCA3E006
:1010D000FD4C7003FEFF228D828C83A3A3E0FAA354
:1010E000E0FBC39540EA953F5008CEECCECFEDCF64
:1010F00080D6C3EB9540F542EA953FF541C3E54202
:101100009410E541940050198D828C83E0FBA3E09C
:101110008F828E83CBF0A3EBF0ED2404FFE43CFE42
:101120002274FC2542F54274FF3541F5418D828CD5
:1011300083A3A3F0A3E542F0ED2404FFE43CFEEF1B
:101140002542FFEE3541FE8F82F583A3A3E53FF0F4
:0C115000A3E540F0EF2404FFE43EFE2283
:1011F400020BFDE493A3F8E493A34003F68001F209
:1012040008DFF48029E493A3F85407240CC8C333FB
:10121400C4540F4420C8834004F456800146F6DFCA
:10122400E4800B0102040810204080901931E47E10
:10123400019360BCA3FF543F30E509541FFEE493BF
:10124400A360010ECF54C025E060A840B8E493A386
:10125400FAE493A3F8E493A3C8C582C8CAC583CAB1
:10126400F0A3C8C582C8CAC583CADFE9DEE780BE69
:0119390000AD
:10040300EF8DF0A4A8F0CF8CF0A428CE8DF0A42E0D
:02041300FE22C7
:10041500C5F0F8A3E028F0C5F0F8E5821582700272
:060425001583E038F0220F
:0C042B00E6FC08E6FD08E6FE08E6FF22FD
:0C043700E0FCA3E0FDA3E0FEA3E0FF2238
:0C044300E2FC08E2FD08E2FE08E2FF22F5
:10044F00E493FC740193FD740293FE740393FF22F3
:0D045F00E6FB08E6F908E6FA08E6CBF8220D
:0C046C00E0F8A3E0F9A3E0FAA3E0FB2213
:0D047800E2FB08E2F908E2FA08E2CBF82204
:10048500E493F8740193F9740293FA740393FB22CD
:10049500FAE6FB0808E6F925F0F618E6CA3AF62268
:1017E600EFB40A07740D1217F1740A309811A8990C
:1017F600B8130CC2983098FDA899C298B811F63063
:0718060099FDC299F599223A
:0A19D2003098FDAF99C2987E002204
:0F199700EFC394304007EF943A50028001C3220F
:10194500EFC394094005EF940E4003BF2003D380F5
:0319550001C322A9
:0B193A0048000000000000000000005A
:10174800EF4E7008FE7F01ED1D70011C900000EE49
:10175800F0A3EFF0A3ECF0A3EDF0900000E0FEA3FF
:10176800E0FFF5828E83E4F0A3F0ED24FCFDEC3479
:0C177800FF8F828E83A3A3F0A3EDF0226C
:00000001FF
