:0A18EF0043E24043A41043A5022287
:0A18F90043B20375EF04E4F5A922E1
:1017D70043D103E4F5F4F5FB75F708F59B759A3FDC
:1017E700F5BD75C60875F38130EAFD75F380E4FE33
:0217F700FF22CF
:1017B10043E10143E240E4F5D443A41043F1207531
:1017C1009810758D96438E08858D8B53890F4389AB
:0617D10020D28ED2992205
:0F18B70043E210E4F58CF58A43892543885022DB
:1018690043918043910443E68043F680E4F594F57F
:0618790095F592F59322A3
:04004D0043B1202279
:0F18C60043E201E4F5D875D90875DACBD2DE22FA
:07191F00253035642C7A002D
:100E6E00900002AB47AA48A9490200B190000512B2
:100E7E0000B124D0FFC3940022AB47AA48A949125F
:100E8E000098D364802290003F740175F09522ABD8
:100E9E0047AA48A9492290003F740175F096229006
:100EAE0000030200B19000040200B17BFF7A1979B1
:100EBE001F22F9E43AFAE54AFD3395E0FCE92DF9F3
:100ECE00EA3CFAEF120111054A22AB47AA48A9499A
:100EDE0022F9E43548FAE92FF9EA3EFAE412011153
:100EEE000F22120098FFD36480229000010200B1FD
:100EFE009000081200B124D0FEC394002290000688
:100F0E000200B1C3EF6480948222120098C3648001
:010F1E0022B0
:060DB3008B478A488949C4
:100DB900E4F54A90003FF5F08045120E6490000179
:100DC900EF1201236478603C120EF8FFB40A0FE5B4
:100DD9004A700B90003F740375F0E80201FFEF645D
:100DE9000A6021C3E54A648094835008E924021209
:100DF9000EC080C6120ED890003F740175F094128F
:100E090001FF80B6E4F54A120ED8120EF8640A60A2
:100E19002E120E64900001EF120123640A6020C3B0
:100E2900E54A64809488500C120EF8FFE9240512F3
:100E39000EC080DD120ED8120E941201FF80D2125C
:100E49000ED8E54A120111120ED8120EF8640A6082
:0A0E5900061218A6BF0AFA120ED8FE
:0B0E6300221218A6AB47AA48A949229A
:1004A5008B478A4889499000021200B1FFB4531A5C
:1004B500120EADB4541490003FE475F0FE1201FF26
:1004C500900041E412012302083FEF6453600302E8
:1004D50005A0120EAD645360030205A0120EB364AD
:1004E5004560030205A0120EF0948540030206B88C
:1004F500120F0BFE642C6005120F114006120098B6
:10050500FF70030205D5EE642C600B120F11400637
:10051500120E9D0205EC900006120E71B42C0A1203
:100525000F18948350030205EC120E7A4052EFD354
:1005350094074003020623120E879482401190000F
:1005450007120E7D4006EFD39409400302062312DD
:100555000E9D120EF09483400E120EFE4006EED351
:1005650094094003020623D3EF6480948440141257
:100575000E9D900009120E7D4006EFD394094003AD
:10058500020623120E879484400812084340030292
:10059500068A120E9D12131C02083F120E6E64533A
:1005A500600302069C120EAD6444600302069C12B1
:1005B5000EB36449600302069C120EF09485400355
:1005C5000206B8120F0BFE642C6010120F11500BAF
:1005D50090003F740175F097020829EE642C6012B3
:1005E500120F189482400B90003F740175F0980229
:1005F5000829120F0BB42C12120F189483500B906C
:10060500003F740175F098020829120E7A400FEF29
:10061500D3940650099000051200B130E006120E81
:10062500A4020829120E8794824014900007120E26
:100635007D4006EFD394094006120EA40208291244
:100645000E9D120EF094834011120EFE4006EED35D
:1006550094094006120EA4020829D3EF64809484FD
:100665004017120E9D900009120E7D4006EFD3949F
:10067500094006120EA4020829120E879484400E22
:100685001208434009120E9D120EA4020829120EEB
:100695009D12129C02083F120E6E64477035120EB1
:1006A500AD6453702E120EB364457027120E8D94EF
:1006B500814006120E94020829120E7A4006EFD3E5
:1006C50094074006120EA4020829120E9D1216B3B5
:1006D50002083F120E6E64477035120EAD64447009
:1006E5002E120EB364497027120E8D9486400612A1
:1006F5000E94020829120E7A4006EFD3940640069E
:10070500120EA4020829120E9D12147202083F123D
:100715000E6E64537035120EAD6447702E120EB313
:1007250064417027120E8D94814006120E940208C2
:1007350029120E7A4006EFD394074006120EA40242
:100745000829120E9D1210FA02083F120E6E644718
:10075500701F120EADB45419120EB3B43013120E2D
:100765008D94804006120E94020829120003020897
:100775003F120E6E6447701F120EADB45419120E5F
:10078500B3B43213120E8D94804006120E940208F3
:100795002912005602083F120E6E64537020120E85
:1007A500AD64487019120EB3B44113120E8D9480C6
:1007B5004006120E9402082912159C02083F120EDB
:1007C5006E6447701E120EADB45218120EB3B450BB
:1007D50012120E8D94804005120E9480471215EA70
:1007E50002083F120E6E6450701D120EADB45717FD
:1007F500120EB3B44D11120E8D94804005120E9455
:10080500802212172D8033120E6E644E701E120E4A
:10081500ADB45418120EB3B45012120E8D9480401C
:1008250006120E940201FF121926800E120E9D90DB
:10083500003F740175F0941201FF120E9D22E92408
:1008450007F9E43AFA120F1FD3EF94FFEE94002252
:1012120090003F1201701203D6124300FB124B00E2
:10122200FC125300FD125B00FE12630194126E0168
:10123200951279019612840197128F01980000127B
:101242009B120EB97559FB804D120EB97559FC806F
:1012520045120EB97559FD803D120EB97559FE80C1
:1012620035120EB9755901755A94802A120EB97544
:101272005901755A95801F120EB9755901755A9602
:101282008014120EB9755901755A978009120EB958
:0A129200755901755A981208B72229
:061632008B478A4889493C
:10163800E4FFFEAB47E5492405120EDFBF00010EAB
:10164800EF64084E70EDE4FEFFAB47E54924021253
:101658000EDFBF00010EEF64034E70EDAB47AA48E2
:0B166800A94990003FE4F5F00201FFEB
:04187F00027C0000E7
:0300530002190D82
:09190D0030EDFDC2ED751501324B
:03002300021916A9
:09191600309805C29875140132E5
:0300730002154033
:10154000C0E0C0F0C083C082C0D075D000C000C071
:0D15500001C002C003C004C005C006C007F2
:10155D0053917F5391BFC3E57D9403E57C648094E3
:10156D008040091215EA757C00757D00057DE57DCD
:04157D007002057C77
:10158100D007D006D005D004D003D002D001D000BE
:0B159100D0D0D082D083D0F0D0E03268
:1017F9006E6F20686179206C756761722070617203
:1018090061207368656C6C21210A0053544F500A9A
:0118190000CE
:10002600AB43E5452425F9E43544FAAF46EF33956D
:10003600E0FEEF25E0FFEE33FEE92FF9EA3EFA2275
:07004600AB43AA44A94522C7
:100BB100E4F54653D9BF7F44FE120FCDAA06A9071B
:100BC1007B018B438A448945900042E4120123E56D
:100BD1004545444543700B7BFF7A1779F91208B7F5
:100BE10080FEE4F546120026E4F5F01201E0054628
:100BF100E546B40CF01218F91218EF12004D121755
:100C0100B11218C61217D71218B712186912004676
:100C1100900041740112012312004690004112001C
:100C2100B164017026121632120046120DB3120081
:100C31004690003F12017045F060028009120046A3
:100C41001204A512004612121280CDE4F5461200DC
:100C510026120145FDE545240DF9E43544FA12005B
:100C61003FE5F08DF01201E00546E546B40CDFC228
:100C7100ED75C60875F38343E608D2AFD2ACE5142F
:100C8100601DE4F5F3C2AFF5141200469000410473
:100C91001201237BFF7A1879141208B7020C19C2CA
:100CA100ACE51560D7E4F5151218518F198E188D22
:100CB100178C16120046120CCBEF60097B007A00EC
:0A0CC100791612140412167380B2A3
:10181A0054696D657230203A20256C750A00546946
:0C182A006D657232203A20256C750A00B2
:0B18E4007BFF8F5C8E5B8D5A8C5922BD
:10000300E4F574F575858C76858A77AF77AE76AD32
:0D00130075AC747A18791A1218E40208B757
:10005600E4F578F57985CD7A85CC7BAF7BAE7AAD44
:0D00660079AC787A1879281218E40208B7EE
:1014DB002530356C757A002B2530346C752C7A00E1
:1014EB002D2530346C752C7A007365206465746F10
:1014FB006E6F20746F646F0A006964783A202569F7
:10150B000A00414443304D55583A20307825780A2B
:10151B00007661723A2025690A004144435B2569D4
:10152B005D3A2025750A0041444330434E3A203042
:05153B007825630A00A1
:10139500F9E43548FAAF4AEF3395E0FEEF25E0FF73
:1013A500EE33FEE92FF9EA3EFA22E47B02FAF9F878
:1013B50012022C8F5C8E5B8D5A8C597BFF22E4F5D3
:1013C500151218518F118E108D0F8C0E7B007A001F
:1013D500790E229000050200B1AB47AA48A94990B1
:1013E50000422290003F740175F09622AB4AAA4B49
:0F13F500A94C90003F0201FFAB4AAA4BA94C2222
:1018510085C50A85C40BE47B1AFAF9F8AF0BAE0A09
:07186100AD09AC081202B74B
:01186800225D
:1010FA008B4A8A4B894C75F3801213D81203B011AC
:10110A002530112A31113332113D3311473411512F
:10111A0035115B361165370000116F53F4F08051B9
:10112A00E5F454F004F5F48048E5F454F02402F5AB
:10113A00F4803EE5F454F02403F5F48034E5F454E5
:10114A00F02404F5F4802AE5F454F02405F5F4803B
:10115A0020E5F454F02406F5F48016E5F454F0245E
:10116A0007F5F4800C740175F0971213F175F38387
:0C117A002275F383E475F0FD1213F122DE
:1016730075F380E5C6540FFFBF0815E5C6B47808B7
:1016830043F41075C6018024741025C6F5C6801C6A
:10169300E5C6540FC394085016E5C6B4670853F45F
:1016A300EF75C6088006742225C6F5C675F3832236
:061404008B4D8A4E894F5A
:10140A00AFC68F50E550540FFFBF080C120370127D
:10141A0013B87A1479DB804CE550540FC364809476
:10142A00885044AB4DAA4EA94F120370E47BE27A6E
:10143A0004F9F8D312035FAB4DAA4EA94F400C1220
:10144A0003701213AF7A1479E28019120390C374ED
:10145A00D89BFF74099AFEE499FDE498FC1213AF35
:07146A007A1479EB1208B7B8
:011471002258
:060CCB008B478A488949AD
:100CD100E5C6540FFFE5C6C4540FFEEF75F00812C8
:100CE1000076ADF0D3ED648094801213DE4007747A
:100CF100011200DE8004E41201231213DE1200B19E
:100D0100FDC3EE9F24082DF54AC36480948C505C8A
:100D1100E9240DF9E43A121399120145FDACF04CA6
:100D21007002FF22ED64014C7023AB47E549242595
:100D3100121395120145FDE549240DF9E43548FAF0
:100D41001213A8E5F08DF01201E07F0122AB47E517
:100D510049240D121395120145D39401E5F0940035
:100D6100404D74FFF5F01201A87F00227BFF7A1439
:100D710079F41208B77BFF7A157904AF4AEF3395FE
:100D8100E0F5598F5A1208B77BFF7A15790DAFC676
:100D91008F591208B71213DE1200B1FF3395E0F537
:100DA100598F5A7BFF7A15791C1208B77FFF227F72
:010DB1000041
:010DB200221E
:10131C008B4A8A4B894CE92407F9E43AFA120F1FDD
:10132C008E0C8F0DE4FCFDFBFA7901F8C312034916
:10133C0050081213FD1213E8804B1213FD1213D830
:10134C00FF3395E0FEEF24D0F513EE34FFF512C316
:10135C00648094804025E5139408E51264809480A1
:10136C005019E92425F9E43AFAE51325E0FFE512D2
:10137C001213A6E50C850DF01201E01213FD90007E
:09138C003FE475F0FB1201FF22A1
:10129C008B4A8A4B894CE92407F9E43AFA120F1F5E
:1012AC008E0C8F0DAB4AAA4BA94C1213D824CE60CE
:1012BC001424FE601824FE601C2406702075120095
:1012CC00751308801D7512007513098015751200B1
:1012DC0075130A800D75120075130B80051213E837
:1012EC00802AAB4AE54C2425F9E4354BFAE5132565
:1012FC00E0FFE5121213A6E50C850DF01201E0AB30
:10130C004AAA4BA94C90003FE475F0FC1201FF2255
:1016B3008B4A8A4B894C1213D8FFC454F02408F583
:1016C300C6C2EDE4F5FB75F38243E608D2AFE51538
:1016D30060FC1213C3121404E4F5F3C2AF53E6F72C
:0E16E300AB4AAA4BA94C90003FF5F00201FF64
:101472008B4A8A4B894C1213D824CE601424FE6006
:101482001824FE601C2406702043F41075C60180E7
:101492001D43F41075C623801543F41075C64580AC
:1014A2000D43F41075C66780051213E88027C2ED5C
:1014B20075F38243E608D2AFE51560FC1213C3123E
:1014C2001404E4F5F3C2AF53E6F7AB4AAA4BA94CB6
:0914D20090003FF5F01201FF2229
:06159C008B4A8A4B894CCA
:1015A200E4F54DAF4DEF3395E0FEF5598F5AAB4A56
:1015B200E54C2425F9E4354BFA1213A1120145F545
:1015C2005C85F05B7BFF7A1579251208B7054DC360
:1015D200E54D6480948C40CB7BFF7A157932AFF471
:0815E200EF2430F5590208B7AF
:10175C00736520636F72726967696F203130207610
:10176C00656365732E2E0A2564206465206D617394
:0E177C000A2564206465206D656E6F730A0097
:0418830002728CA0C1
:1015EA00E4F54DF54CF54BF54AF56AF56B858C6CCF
:1015FA00858A6DAF6DAE6CAD6BAC6A8F4D8E4C8DBE
:10160A004B8C4A7F96FEFDFCAB4DAA4CA94BA84ACF
:10161A0012022C8F518E508D4F8C4E7D887C9012E9
:07162A001069E4F58CF58A5C
:011631002296
:081069008E528F538C548D55FB
:10107100E5552432FFE43554FED3E5539FE5529EF6
:101081004012740A2573F573E41210EF056FE56FD2
:101091007002056EE55524CEFFE55434FFFEC3E52D
:1010A100539FE5529E501374F62573F57374FF1226
:1010B10010EF0571E57170020570E56F2571FFE5AF
:1010C1006E3570FEC3EF940AEE64809480401E7BFF
:1010D100FF7A17795C856E59856F5A85705B8571CA
:0D10E1005C1208B7E4F570F571F56EF56F5F
:0C10EE00223572F572AF73FE12192D222C
:10172D007FD812174F7F7412174F7FF07E811219D9
:10173D002D7F587E021218367FA07E8C12192DD265
:0F174D00AF227EA412192D7F587E021218362269
:071926007FDC7EFF02192D9A
:07192D00EFF5E9EEF5EA22F7
:10183600E4FDFC30D8FDC2D80DBD00010CC3ED9F00
:0B184600EE6480F8EC64809840E9221A
:0300000002118664
:0C118600787FE4F6D8FD75817D0211CD64
:10007600C2D530F707B2D563F0FF05F030E70CB212
:10008600D5F4048463F0FF05F080018430D502F4D2
:02009600042242
:10009800BB010689828A83E0225002E722BBFE0266
:0900A800E32289828A83E4932299
:1000B100BB010CE58229F582E5833AF583E0225004
:1000C10006E92582F8E622BBFE06E92582F8E2224E
:0D00D100E58229F582E5833AF583E4932268
:1000DE00BB010FF8E58229F582E5833AF583E02826
:1000EE00F0225009C58229F8E58226F622BBFE09C8
:1000FE00C58229F8E22582F222F8EA2583F583E902
:03010E0093282211
:10011100BB010689828A83F0225002F722BBFE01CD
:02012100F322C7
:10012300F8BB010DE58229F582E5833AF583E8F012
:10013300225006E92582C8F622BBFE05E92582C8BE
:02014300F222A6
:10014500BB010A89828A83E0F5F0A3E02250068785
:10015500F009E71922BBFE07E3F5F009E319228947
:0B016500828A83E493F5F0740193227A
:10017000BB0110E58229F582E5833AF583E0F5F0CD
:10018000A3E0225009E92582F886F008E622BBFEAA
:100190000AE92582F8E2F5F008E222E5832AF583F0
:0801A000E993F5F0A3E99322B5
:1001A800BB010789828A83020415500B09C5F02711
:1001B800F7C5F01937F722BBFE0D09F8E325F0F370
:1001C800C5F019E338F322F889828A8374019325EC
:0801D800F0C5F0F8E4933822B1
:1001E000BB010A89828A83F0E5F0A3F0225006F76A
:0F01F00009A7F01922BBFE06F3E5F009F3192267
:1001FF00F8BB0111E58229F582E5833AF583E8F032
:10020F00E5F0A3F0225009E92582C8F608A6F022EE
:0D021F00BBFE09E92582C8F2E5F008F222D5
:10022C00E88FF0A4CC8BF0A42CFCE98EF0A42CFC71
:10023C008AF0EDA42CFCEA8EF0A4CDA8F08BF0A4EF
:10024C002DCC3825F0FDE98FF0A42CCD35F0FCEB4E
:10025C008EF0A4FEA9F0EB8FF0A4CFC5F02ECD3913
:0F026C00FEE43CFCEAA42DCE35F0FDE43CFC2280
:10027B0075F008758200EF2FFFEE33FECD33CDCC3A
:10028B0033CCC58233C5829BED9AEC99E5829840BD
:10029B000CF582EE9BFEED9AFDEC99FC0FD5F0D69A
:1002AB00E4CEFBE4CDFAE4CCF9A88222B800C1B9C4
:1002BB000059BA002DEC8BF084CFCECDFCE5F0CB02
:1002CB00F97818EF2FFFEE33FEED33FDEC33FCEB3B
:1002DB0033FB10D703994004EB99FB0FD8E5E4F9F6
:1002EB00FA227818EF2FFFEE33FEED33FDEC33FCE3
:1002FB00C933C910D7059BE99A4007EC9BFCE99AD7
:10030B00F90FD8E0E4C9FAE4CCFB2275F010EF2F1B
:10031B00FFEE33FEED33FDCC33CCC833C810D7071B
:10032B009BEC9AE899400AED9BFDEC9AFCE899F856
:0E033B000FD5F0DAE4CDFBE4CCFAE4C8F922E9
:10034900EB9FF5F0EA9E42F0E99D42F0EC6480C82B
:0603590064809845F022CB
:10035F00EB9FF5F0EA9E42F0E99D42F0E89C45F0F4
:01036F00226B
:10037000BB010789828A830204375005E9F8020429
:100380002BBBFE05E9F802044389828A8302044FED
:10039000BB010789828A8302046C5005E9F80204D4
:1003A0005FBBFE05E9F802047889828A830204852E
:1003B000D083D082F8E4937012740193700DA3A3DC
:1003C00093F8740193F5828883E4737402936860F0
:0603D000EFA3A3A380DFF0
:1003D600D083D082F8E4937012740193700DA3A3B6
:1003E60093F8740193F5828883E473740293B5F0ED
:0D03F600067403936860E9A3A3A3A380D855
:10085500E5652459F8E60565227856301002785981
:10086500E475F0011204950200982009EB7F2ED261
:10087500098018EF540F2490D43440D4FF300D0B69
:10088500EF24BFB41A0050032461FFE5666002152A
:10089500660569E5697002056830100D7856E475DE
:1008A500F001120495EF02011102178A7403D210A8
:1008B5008003E4C210F5658B568A578958E4F566BE
:1008C500F568F569E56660077F2012089080F57583
:1008D50067FFC20AC209C20BC20CC20EC20FC21107
:1008E50012085EFF700D3010057F001208A1AF6978
:1008F500AE6822B4255FC2D5C20D12085EFF24D0B2
:10090500B40A00501A75F00A786630D50508B6FFA6
:100915000106C6A426F620D5047002D20C80D9247F
:10092500CFB41A00EF5004C2E5D20D020AA1D20AD3
:1009350080C6D20980C0D20B80BCD2D580BAD20E77
:1009450080B47F20120890200B077401B566004023
:10095500F1120855FF1208900208C9D211D20F8072
:1009650095120855FB120855FA120855F94A4B70AD
:100975000679727A0B7BFF200B2EE566602A7E00D6
:100985008E827583001200B160060EEE656770F009
:10099500C2D5EBC0E0EAC0E0E9C0E0EE120AE8D05B
:1009A500E0F9D0E0FAD0E0FB120098FF60AAEBC0B6
:1009B500E0EAC0E0E9C0E0120890D0E02401F9D0F7
:1009C500E03400FAD0E0FBE5670460DCD567D98048
:1009D500877BFF7A0A79E4D20B809C7910800279B3
:1009E50008C20FC2118008D2D5790A8004790AC2DB
:1009F500D5E567047002F567E4FAFDFEFF120855B8
:100A0500FC7B08200A13120855FD7B1030090A12D9
:100A15000855FE120855FF7B20EC3382D592D55040
:100A250013C3E43009069FFFE49EFEE4200A039DFC
:100A3500FDE49CFCE4CBF8C20AEC700CCFCECDCC27
:100A4500E824F8F870F38017C3EF33FFEE33FEEDBB
:100A550033FDEC33FCEB33FB994002FB0FD8E9EB9C
:100A6500300A05F8D0E0C448B20AC0E00AEC4D4EA1
:100A75004F78207B0070C2EAB5670040BCC0E01229
:100A85000AEAD0F0D0E0200A04C4C0E0C4B20AC02B
:100A9500F0120879D0F0D5F0EB0208C91203B009BD
:100AA500665309E05809374C09334209E44F09EC0C
:0F0AB5004409EC49094C4309F25509D64609D6C4
:100AC4004509D6470B9250093B2D093F2E09622B4D
:100AD4000943230960200B7B2A08FB480000095ABC
:100AE4003F3F3F00790AA2D5200C14300E09B910FB
:100AF400020404B9080104A2D5200F025001042005
:100B04000B68920BB566005034C0E07F20300C199E
:100B14007F30A20B720F720E500F120B41C20BC228
:100B24000FC20EC2117F30800F300E03E9C0E012F5
:100B34000890300E03D0E0F9D0E0B566CC300E1743
:100B44007F30B9100C1208907F58300D077F7880E1
:100B540003B90803120890300B057F2D0208907F1B
:100B6400202011F87F2B200FF322920B80CF286EC8
:100B7400756C6C2900D20A120855300AF8C20A783A
:100B84006630D50108F60208FB2D50434958120877
:100B9400552403B405004001E4900B8D93120881A1
:0D0BA400743A120881D20C7566040209E053
:1018A60010120B121903BF0D027F0A02178AAF1F0F
:0118B600220F
:100F1F008B4D8A4E894FAB4DAA4EA94F120098FFA9
:100F2F00121893500D7401254FF54FE4354EF54EC1
:100F3F0080E4D209AB4DAA4EA94F120098FF642B43
:100F4F006004EFB42D1BAB4D054FE54FAA4E700259
:100F5F00054E14F9120098642D6003D38001C392DB
:100F6F0009E4F550F551AB4DAA4EA94F120098FF69
:100F7F001218D55036AB4DAA4EA94F120098FF3319
:100F8F0095E0FEEF24D0FBEE34FFFAAE50AF517C6C
:100F9F00007D0A120403EF2BF551EE3AF550740160
:100FAF00254FF54FE4354EF54E80BB300906AE5058
:0E0FBF00AF518009C3E49551FFE49550FE2226
:100FCD008E478F487E007F008F828E83E0FCA3E0EA
:100FDD00FD4C7003FEFF228D828C83A3A3E0FAA348
:100FED00E0FBC39548EA95475008CEECCECFEDCF48
:100FFD0080D6C3EB9548F54AEA9547F549C3E54ACE
:10100D009410E549940050198D828C83E0FBA3E088
:10101D008F828E83CBF0A3EBF0ED2404FFE43CFE36
:10102D002274FC254AF54A74FF3549F5498D828CA9
:10103D0083A3A3F0A3E54AF0ED2404FFE43CFEEF07
:10104D00254AFFEE3549FE8F82F583A3A3E547F0D0
:0C105D00A3E548F0EF2404FFE43EFE226F
:10119200020BB1E493A3F8E493A34003F68001F2B7
:1011A20008DFF48029E493A3F85407240CC8C3335E
:1011B200C4540F4420C8834004F456800146F6DF2D
:1011C200E4800B010204081020408090187FE47E26
:1011D200019360BCA3FF543F30E509541FFEE49322
:1011E200A360010ECF54C025E060A840B8E493A3E9
:1011F200FAE493A3F8E493A3C8C582C8CAC583CA14
:10120200F0A3C8C582C8CAC583CADFE9DEE780BECB
:011887000060
:10040300EF8DF0A4A8F0CF8CF0A428CE8DF0A42E0D
:02041300FE22C7
:10041500C5F0F8A3E028F0C5F0F8E5821582700272
:060425001583E038F0220F
:0C042B00E6FC08E6FD08E6FE08E6FF22FD
:0C043700E0FCA3E0FDA3E0FEA3E0FF2238
:0C044300E2FC08E2FD08E2FE08E2FF22F5
:10044F00E493FC740193FD740293FE740393FF22F3
:0D045F00E6FB08E6F908E6FA08E6CBF8220D
:0C046C00E0F8A3E0F9A3E0FAA3E0FB2213
:0D047800E2FB08E2F908E2FA08E2CBF82204
:10048500E493F8740193F9740293FA740393FB22CD
:10049500FAE6FB0808E6F925F0F618E6CA3AF62268
:10178A00EFB40A07740D121795740A309811A899C4
:10179A00B8130CC2983098FDA899C298B811F630BF
:0717AA0099FDC299F5992297
:0A1903003098FDAF99C2987E0022D3
:0F18D500EFC394304007EF943A50028001C322D2
:10189300EFC394094005EF940E4003BF2003D380A8
:0318A30001C3225C
:0B18880048000000000000000000000D
:1016F100EF4E7008FE7F01ED1D70011C900000EEA1
:10170100F0A3EFF0A3ECF0A3EDF0900000E0FEA356
:10171100E0FFF5828E83E4F0A3F0ED24FCFDEC34D0
:0C172100FF8F828E83A3A3F0A3EDF022C3
:00000001FF
