:0A1A2C0043E24043A41043A5022248
:0A1A360043B20375EF04E4F5A922A2
:1018C20043D103E4F5F4F5FB75F708F59B759A3FF0
:1018D200F5BD75C60875F38130EAFD43E60875F378
:0518E20080E4FEFF227E
:10189C0043E10143E240E4F5D443A41043F1207545
:1018AC009810758D96438E08858D8B53890F4389BF
:0618BC0020D28ED2992219
:0F19E60043E210E4F58CF58A43892543885022AB
:1019660043918043910443E68043F680E4F594F581
:0619760095F592F59322A5
:04004D0043B1202279
:0F19F50043E201E4F5D875D90875DACBD2DE22CA
:100B4B004D4D4C3E000A41434B203235313A20701B
:100B5B00696E20256320636F6E66696775726164C9
:100B6B006F20656E206D6F646F2073696E676C65A7
:100B7B005F656E6465640A000A41434B203235326F
:100B8B003A2070696E6573202563207920256320D8
:100B9B00636F6E666967757261646F7320656E2033
:100BAB006D6F646F206469666572656E6369616CF5
:100BBB000A000A41434B203235333A2067616E619C
:100BCB006E63696120636F6E6669677572616461DC
:100BDB0020656E20325E25630A000A41434B2032AA
:100BEB0035343A20696E6963696F20646520636FE1
:100BFB006E76657273696F6E207920656E76696F9C
:100C0B00206465206461746F732E207061726120A3
:100C1B00766F6C76657220616C206D656E752070D9
:100C2B00726573696F6E6520277327000A455252F0
:100C3B004F52203430343A20636F6D616E646F20F5
:100C4B006E6F20656E636F6E747261646F0A000A5B
:100C5B004552524F52203430353A2064656D6173E2
:100C6B006961646F7320617267756D656E746F7304
:100C7B000A000A4552524F52203430363A20616CEA
:100C8B0067756E6F206465206C6F7320617267757A
:100C9B006D656E746F732065737461206675657214
:100CAB00612064652072616E676F0A000A455252BB
:100CBB004F52203430373A2066616C74616E20617C
:100CCB007267756D656E746F730A000A4552524FE9
:100CDB0052203430383A206572726F72206465206E
:0B0CEB0073696E7461786973200A0061
:100EF500900002AB26AA27A9280200B1AB26AA2793
:100F0500A9281200B124D0FFC3940022AB26AA273A
:100F1500A928120098D364802290003F740175F0CF
:100F2500952290003F740175F0962290000302000F
:100F3500B19000040200B1AB26AA27A9282290008F
:100F4500081200B1FF9000071200B12FFF900009B1
:100F55001200B12F2470D394FF22AB26AA27A9280B
:100F65009000051200B1F53A22F9E43AFAE529FDB7
:100F75003395E0FCE92DF9EA3CFAEF120111052958
:100F850022120098FFD3648022AB26AA27A9282223
:100F9500F9E43527FAE92FF9EA3EFAE41201110FCF
:100FA500229000060200B1740175F09490003F0292
:100FB50001FF9000010200B1120098C364802290E5
:0C0FC50000081200B124D0FEC3940022EA
:060FD1008B268A27892807
:100FD700E4F5297BFF7A0B794B12085112107C90AC
:100FE7000001EF120123642C6034120FB7FFB40A1B
:100FF7000FE529700B90003F740375F0E80201FFBD
:10100700EF640A6019C3E529648094835008E924D2
:1010170002120F6E80C6120F8E120FAC80BEE4F55F
:1010270029120F8E120FB7640A602E12107C9000DF
:1010370001EF120123640A6020C3E52964809488C4
:10104700500C120FB7FFE92405120F6E80DD120F47
:101057008E120F1E1201FF80D2120F8EE529120188
:1010670011120F8E120FB7640A60061219C5BF0A54
:04107700FA120F8ECC
:0B107B00221219C5AB26AA27A92822C3
:10043E008B268A2789289000021200B1FFB4531729
:10044E00120F30B45411E475F0FE120FB19000414A
:10045E00E41201230207EBEF64536003020532122C
:10046E000F3064536003020532120F366445600389
:10047E00020532120F869485400302064A120FA619
:10048E00FE642C600BC3EF64809482500302056AF5
:10049E00EE642C600A120FBD948240030205811295
:1004AE000FA6B42C0A120FBD94835003020581903F
:1004BE000005120F074052EFD3940740030205BB0D
:1004CE00120F1194834011900007120F074006EF90
:1004DE00D3940940030205BB120F3C120F8694847D
:1004EE00400E120FC44006EED3940940030205BB22
:1004FE00D3EF648094854014900009120EF8120F09
:10050E000A4006EFD3940940030205BB120F119463
:10051E00854008120F4340030205BB120F3C121513
:10052E002D0207EB120EF56453600302062E120F16
:10053E00306444600302062E120F366449600302D3
:10054E00062E120F869485400302064A120FA6FE4F
:10055E00642C6013C3EF64809482500B90003F7440
:10056E000175F0970207DDEE642C6012120FBD9438
:10057E0082400B90003F740175F0980207DD120F58
:10058E00A6B42C12120FBD9483500B90003F740131
:10059E0075F0980207DD900005120F07400FEFD39C
:1005AE00940650099000051200B130E006120F2794
:1005BE000207DD120F1194834014900007120F07EB
:1005CE004006EFD394094006120F270207DD120FE3
:1005DE003C120F8694844011120FC44006EED39441
:1005EE00094006120F270207DDD3EF648094854081
:1005FE0014900009120F014006EFD3940940061221
:10060E000F270207DD120F119485400B120F434086
:10061E0006120F270207DD120F3C1214A80207EB79
:10062E00120EF564477045120F306453703E120F70
:10063E003664457037120F1794874006120F1E024C
:10064E0007DD120FA6642C6006120F270207DD903D
:10065E000005120F074006EFD394074006120F272E
:10066E000207DD120F3C1219A30207EB120EF564FE
:10067E00477044120F306444703D120F3664497057
:10068E0036120F869486500CEF75F002120076AF7C
:10069E00F0EF6006120F1E0207DD900005120F012B
:1006AE004006EFD394064006120F270207DD120F05
:1006BE003C1219B40207EB120EF564537038120F88
:1006CE003064477031120F366441702A120F17943E
:1006DE00814006120F1E0207DD900005120F074023
:1006EE0006EFD394074006120F270207DD120F3CC8
:1006FE001213900207EB120EF56447701F120F30A3
:10070E00B45419120F36B43013120F1794804006DA
:10071E00120F1E0207DD1200560207EB120EF564D1
:10072E0047701F120F30B45419120F36B432131211
:10073E000F1794804006120F1E0207DD12192D02AC
:10074E0007EB120EF56447701C120F30B4501612E0
:10075E000F36B44310120F17948050030207EB129A
:10076E000F1E0207DD9000021200B16453701F12BB
:10077E000F3064487018120F36B44112120F1794CE
:10078E00804005120F1E80471216D90207EB120E7B
:10079E00F56447701D120F30B45217120F36B45055
:1007AE0011120F1794804005120F1E802212113461
:1007BE00802B120EF56450701E120F30B4571812A3
:1007CE000F36B44D12120F1794804006120F1E02F0
:1007DE0001FF1217278006120F3C120FAC120F3CAE
:0107EE0022E8
:101303008B268A27892890003F1201701203A513A8
:101313003A00FB134500FC135300FD135E00FE135C
:10132300660194136E019513760196137E0197134C
:101333008601980000138F120F5F7BFF7A0B7950A1
:101343008047120F5F04F53B7BFF7A0B798380396B
:10135300120F5F7BFF7A0B79BD802E7BFF7A0B79AF
:10136300E580267BFF7A0C7937801E7BFF7A0C7928
:101373005A80167BFF7A0C797D800E7BFF7A0C797D
:0D138300B780067BFF7A0C79D61208512244
:0617B8008B268A27892818
:1017BE00E4FFFEAB26E5282405120F95BF00010EAF
:1017CE00EF64084E70EDE4FEFFAB26E5282402120E
:1017DE000F95BF00010EEF64034E70EDAB26AA27E6
:0B17EE00A92890003FE4F5F00201FF85
:03005300021A543A
:091A540030EDFDC2ED7515013203
:03002300021A5D61
:091A5D00309805C298751401329D
:03007300021A402E
:0A1A400053917F5391BF751C0132D2
:10190C006E6F20686179206C7567617220706172EE
:10191C0061207368656C6C21210A0053544F500A86
:01192C0000BA
:10002600AB22E5242425F9E43523FAAF25EF3395F1
:10003600E0FEEF25E0FFEE33FEE92FF9EA3EFA2275
:07004600AB22AA23A924222A
:100CF600E4F52553D9BF7F44FE1211D2AA06A907EF
:100D06007B018B228A238924900042E4120123E589
:100D16002445234522700B7BFF7A19790C12085162
:100D260080FEE4F525120026E4F5F01201E0052523
:100D3600E525B40CF0121A36121A2C12004D1218B0
:100D46009C1219F51218C21219E6121966120046FB
:100D560090004174011201231200469000411200D6
:100D6600B1640170261217B8120046120FD1120094
:100D76004690003F12017045F0600280091200465D
:100D860012043E12004612130380CDE4F52512002C
:100D960026120145FDE524240DF9E43523FA120057
:100DA6003FE5F08DF01201E00525E525B40CDFC224
:100DB600ED75C60875F383D2AFD2ACE514601DE4B9
:100DC600F5F3C2AFF5141200469000410412012358
:100DD6007BFF7A197927120851020D5EC2ACE51520
:100DE60060D7E4F5151200038F198E188D178C162F
:100DF600120046120E0DEF60097B007A007916127A
:070E060017751217F980B205
:10194A0054696D657230203A20256C750A00546915
:0C195A006D657232203A20256C750A0081
:0B1A21007BFF8F3D8E3C8D3B8C3A22FA
:10005600E4F54BF54C858C4D858A4EAF4EAE4DADD5
:0D0066004CAC4B7A19794A121A210208514C
:10192D00E4F54FF55085CD5185CC52AF52AE51AD4A
:0D193D0050AC4F7A197958121A2102085146
:1016260053452C25632C256C750A0044462C2563EE
:101636002C256C750A007365206465746F6E6F20C7
:10164600746F646F0A006964783A2025690A00415C
:101656004443304D55583A20307825780A00766153
:10166600723A2025690A004144435B25695D3A20A8
:1016760025750A0041444330434E3A2030782563AD
:021686000A0058
:1015AB00F9E43527FAAF29EF3395E0FEEF25E0FF9D
:1015BB00EE33FEE92FF9EA3EFA222430F53AAB2955
:1015CB00AA2AA92B12035F8F3E8E3D8D3C8C3B7B51
:1015DB00FF22F5C61200038F118E108D0F8C0E7B20
:1015EB00007A00790E22C2ED75F383D2AF900043DF
:1015FB001200B1FFC454F022AB26AA27A9289000F1
:10160B004222AB29AA2AA92B90003F0201FF90008E
:0B161B00050200B1AB29AA2AA92B226E
:10000300E4F50885C50985C40A85C30B7B367A1ACE
:0D001300F9F8AF0BAE0AAD09AC081202B748
:0100200022BD
:101390008B298A2A892B75F38012161912037F1361
:1013A000BB3013C03113C93213D33313DD3413E709
:1013B0003513F13613FB370000140553F4F0805158
:1013C000E5F454F004F5F48048E5F454F02402F513
:1013D000F4803EE5F454F02403F5F48034E5F4544D
:1013E000F02404F5F4802AE5F454F02405F5F480A3
:1013F00020E5F454F02406F5F48016E5F454F024C6
:1014000007F5F4800C740175F09712160D75F383CF
:0C1410002275F383E475F0FD12160D2226
:1017F90075F380E5C6540FFFBF0815E5C6B4780830
:1018090043F41075C6018024741025C6F5C6801CE2
:10181900E5C6540FC394085016E5C6B4670853F4D7
:10182900EF75C6088006742225C6F5C675F38322AE
:061775008B298A2A892B52
:10177B00AFC68F2CE52C540FFFBF0812E52C780455
:10178B00A2E713D8FB1215C57A167926801BE52C18
:10179B00540FC3648094885013E52C7804A2E7138C
:0C17AB00D8FB1215C57A167931120851CE
:0117B700220F
:060E0D008B268A278928CC
:100E1300E5C6540FFFE5C6C4540FFEEF75F0081284
:100E23000076ADF0D3ED648094801216034007740E
:100E3300011200DE8004E41201231216031200B132
:100E4300FDC3EE9F24082DF529C36480948C505C68
:100E5300E9240DF9E43A1215AF120145FDACF04C4B
:100E63007002FF22ED64014C7023AB26E528242594
:100E73001215AB120145FDE528240DF9E43527FAD7
:100E83001215BEE5F08DF01201E07F0122AB26E5DD
:100E930028240D1215AB120145D39401E5F09400FB
:100EA300404D74FFF5F01201A87F00227BFF7A16F4
:100EB300793C1208517BFF7A16794CAF29EF3395B1
:100EC300E0F53A8F3B1208517BFF7A167955AFC68E
:100ED3008F3A1208511216031200B1FF3395E0F551
:100EE3003A8F3B7BFF7A1679641208517FFF227F8A
:010EF30000FE
:010EF40022DB
:10152D008B298A2A892BE92407F9E43AFA121086C5
:10153D008E0C8F0DE4FCFDFBFA7901F8C312034903
:10154D00500D12161F90003F740175F096804B12CE
:10155D00161F121619FF3395E0FEEF24D0F513EE8A
:10156D0034FFF512C3648094804025E5139408E59B
:10157D0012648094805019E92425F9E43AFAE513B0
:10158D0025E0FFE5121215BCE50C850DF01201E00A
:0E159D0012161F90003FE475F0FB1201FF22B2
:1014A8008B298A2A892BE92406F9E43AFA1210864C
:1014B8008E0C8F0DAB29AA2AA92B12161924CE60DF
:1014C8001424FE601824FE601C2406702075120087
:1014D8007513088022751200751309801A75120099
:1014E80075130A801275120075130B800A90003F5D
:1014F800740175F096802AAB29E52B2425F9E4358B
:101508002AFAE51325E0FFE5121215BCE50C850D56
:10151800F01201E0AB29AA2AA92B90003FE475F04C
:05152800FC1201FF228E
:1019A3001215F124081215DD121775E4F5F3C2AF11
:0119B3002211
:1019B4001215F12F041215DD121775E4F5F3C2AFF9
:0119C4002200
:0616D9008B298A2A892BEF
:1016DF00E4F52CAF2CEF3395E0FEF53A8F3BAB29B9
:1016EF00E52B2425F9E4352AFA1215B7120145F531
:1016FF003D85F03C7BFF7A16796D120851052CC39E
:10170F00E52C6480948C40CB7BFF7A16797AAFF40A
:08171F00EF2430F53A020851F5
:10126E0053544F500A00256C75202B2D33302072AD
:10127E00706D0A00736520636F6E74726F6C6F20F1
:10128E0070617261207175652076617961206D6182
:10129E007320646573706163696F0A007365206300
:1012AE006F6E74726F6C6F207061726120717565F4
:1012BE002076617961206D61732072617069646F4F
:1012CE000A000A4661736520312E2E2E0A004661F1
:1012DE00736520322E2E2E0A00417272616E717568
:1012EE00652E2E2E0A004E6976656C20657374612C
:0512FE00626C650A00AE
:0419D60002578CA088
:0E1A1300FEE5349FEE6480F8E533648098228F
:10113400E4F52CF52BF52AF529F52DF52EF51CD221
:10114400AFD2ACE514600EC2AFE4F5147BFF7A12A3
:10115400796E020851C2ACE51C60E6052EE52E70DE
:1011640002052DE4F51CD3E52E940FE52D6480943F
:101174008040CEE4F553F554858C55858A56AF5698
:10118400AE55AD54AC538F2C8E2B8D2A8C297F1EDB
:10119400FEFDFCAB2CAA2BA92AA82912022C8F3203
:1011A4008E318D308C2F7BFF7A1279748F3D8E3C7B
:1011B4008D3B8C3A120851AE31AF327DA07C8C123B
:0E11C4001688E4F58CF58AF52DF52E021145FE
:101688008E338F348C358D36E5362432FFE435358C
:10169800D3121A134016E558249CFFE55734FFFE71
:1016A80012197C7BFF7A127982120851E53624CE12
:1016B800FFE53534FFC3121A135015E5582464FFAB
:1016C800E43557FE12197C7BFF7A1279AA12085169
:0116D80022EF
:101727007BFF7A1279D01208517FD81217667A1286
:1017370079DC1208517F741217667A1279E712085A
:10174700517FF07E8112197C7F587E021218E77B49
:10175700FF7A1279F41208517FA07E8C02197C7EE1
:0E176700A412197C7F587E021218E77BFF2225
:10197C0043E610D2AF20D8FDEFF5E9EEF5EAC2AFA1
:04198C0053E6EF220D
:1018E700E4FDFC43E610D2AF30D8FDC2D80DBD00F1
:1018F700010CC3ED9FEE6480F8EC64809840E9C268
:04190700AF53E6EF05
:01190B0022B9
:0300000002141CCB
:0C141C00787FE4F6D8FD75815802146357
:10007600C2D530F707B2D563F0FF05F030E70CB212
:10008600D5F4048463F0FF05F080018430D502F4D2
:02009600042242
:10009800BB010689828A83E0225002E722BBFE0266
:0900A800E32289828A83E4932299
:1000B100BB010CE58229F582E5833AF583E0225004
:1000C10006E92582F8E622BBFE06E92582F8E2224E
:0D00D100E58229F582E5833AF583E4932268
:1000DE00BB010FF8E58229F582E5833AF583E02826
:1000EE00F0225009C58229F8E58226F622BBFE09C8
:1000FE00C58229F8E22582F222F8EA2583F583E902
:03010E0093282211
:10011100BB010689828A83F0225002F722BBFE01CD
:02012100F322C7
:10012300F8BB010DE58229F582E5833AF583E8F012
:10013300225006E92582C8F622BBFE05E92582C8BE
:02014300F222A6
:10014500BB010A89828A83E0F5F0A3E02250068785
:10015500F009E71922BBFE07E3F5F009E319228947
:0B016500828A83E493F5F0740193227A
:10017000BB0110E58229F582E5833AF583E0F5F0CD
:10018000A3E0225009E92582F886F008E622BBFEAA
:100190000AE92582F8E2F5F008E222E5832AF583F0
:0801A000E993F5F0A3E99322B5
:1001A800BB010789828A830203E4500B09C5F02743
:1001B800F7C5F01937F722BBFE0D09F8E325F0F370
:1001C800C5F019E338F322F889828A8374019325EC
:0801D800F0C5F0F8E4933822B1
:1001E000BB010A89828A83F0E5F0A3F0225006F76A
:0F01F00009A7F01922BBFE06F3E5F009F3192267
:1001FF00F8BB0111E58229F582E5833AF583E8F032
:10020F00E5F0A3F0225009E92582C8F608A6F022EE
:0D021F00BBFE09E92582C8F2E5F008F222D5
:10022C00E88FF0A4CC8BF0A42CFCE98EF0A42CFC71
:10023C008AF0EDA42CFCEA8EF0A4CDA8F08BF0A4EF
:10024C002DCC3825F0FDE98FF0A42CCD35F0FCEB4E
:10025C008EF0A4FEA9F0EB8FF0A4CFC5F02ECD3913
:0F026C00FEE43CFCEAA42DCE35F0FDE43CFC2280
:10027B0075F008758200EF2FFFEE33FECD33CDCC3A
:10028B0033CCC58233C5829BED9AEC99E5829840BD
:10029B000CF582EE9BFEED9AFDEC99FC0FD5F0D69A
:1002AB00E4CEFBE4CDFAE4CCF9A88222B800C1B9C4
:1002BB000059BA002DEC8BF084CFCECDFCE5F0CB02
:1002CB00F97818EF2FFFEE33FEED33FDEC33FCEB3B
:1002DB0033FB10D703994004EB99FB0FD8E5E4F9F6
:1002EB00FA227818EF2FFFEE33FEED33FDEC33FCE3
:1002FB00C933C910D7059BE99A4007EC9BFCE99AD7
:10030B00F90FD8E0E4C9FAE4CCFB2275F010EF2F1B
:10031B00FFEE33FEED33FDCC33CCC833C810D7071B
:10032B009BEC9AE899400AED9BFDEC9AFCE899F856
:0E033B000FD5F0DAE4CDFBE4CCFAE4C8F922E9
:10034900EB9FF5F0EA9E42F0E99D42F0EC6480C82B
:0603590064809845F022CB
:10035F00BB010789828A830204065005E9F802036C
:10036F00FABBFE05E9F802041289828A8302041E91
:10037F00D083D082F8E4937012740193700DA3A30D
:10038F0093F8740193F5828883E473740293686021
:06039F00EFA3A3A380DF21
:1003A500D083D082F8E4937012740193700DA3A3E7
:1003B50093F8740193F5828883E473740293B5F01E
:0D03C500067403936860E9A3A3A3A380D886
:1007EF00E546243AF8E60546227837300702783A8C
:1007FF00E475F00112042E0200982000EB7F2ED238
:10080F00008018EF540F2490D43440D4FF30040BE1
:10081F00EF24BFB41A0050032461FFE547600215AF
:10082F0047054AE54A7002054930070D7837E475E8
:10083F00F00112042EEF0201110218757403D20792
:10084F008003E4C207F5468B378A388939E4F547C8
:10085F00F549F54AE54760077F2012082A80F575AC
:10086F0048FFC201C200C202C203C205C206C208CB
:10087F001207F8FF700D3007057F0012083BAF4AD3
:10088F00AE4922B4255FC2D5C2041207F8FF24D0A7
:10089F00B40A00501A75F00A784730D50508B6FF2C
:1008AF000106C6A426F620D5047002D20380D924EF
:1008BF00CFB41A00EF5004C2E5D204020A3BD201B2
:1008CF0080C6D20080C0D20280BCD2D580BAD205F9
:1008DF0080B47F2012082A2002077401B547004018
:1008EF00F11207EFFF12082A020863D208D206801E
:1008FF00951207EFFB1207EFFA1207EFF94A4B7049
:10090F0006790C7A0B7BFF20022EE547602A7E00CA
:10091F008E827583001200B160060EEE654870F08E
:10092F00C2D5EBC0E0EAC0E0E9C0E0EE120A82D027
:10093F00E0F9D0E0FAD0E0FB120098FF60AAEBC01C
:10094F00E0EAC0E0E9C0E012082AD0E02401F9D0C3
:10095F00E03400FAD0E0FBE5480460DCD548D980EC
:10096F00877BFF7A0A797ED202809C791080027988
:10097F0008C206C2088008D2D5790A8004790AC253
:10098F00D5E548047002F548E4FAFDFEFF1207EFC3
:10099F00FC7B082001131207EFFD7B1030000A12B9
:1009AF0007EFFE1207EFFF7B20EC3382D592D55075
:1009BF0013C3E43000069FFFE49EFEE42001039D75
:1009CF00FDE49CFCE4CBF8C201EC700CCFCECDCC97
:1009DF00E824F8F870F38017C3EF33FFEE33FEED22
:1009EF0033FDEC33FCEB33FB994002FB0FD8E9EB03
:1009FF00300105F8D0E0C448B201C0E00AEC4D4E1A
:100A0F004F78207B0070C2EAB5480040BCC0E012AE
:100A1F000A84D0F0D0E0200104C4C0E0C4B201C009
:100A2F00F0120813D0F0D5F0EB02086312037F0920
:100A3F000053097A5808D14C08CD42097E4F0986D8
:0F0A4F004409864908E643098C55097046097029
:100A5E00450970470B2C5008D52D08D92E08FC2BB4
:100A6E0008DD2308FA200B152A089548000008F423
:100A7E003F3F3F00790AA2D5200314300509B91073
:100A8E00020404B9080104A2D52006025001042074
:100A9E0002689202B547005034C0E07F203003193F
:100AAE007F30A20272067205500F120ADBC202C21A
:100ABE0006C205C2087F30800F300503E9C0E01280
:100ACE00082A300503D0E0F9D0E0B547CC30051741
:100ADE007F30B9100C12082A7F583004077F7880B7
:100AEE0003B9080312082A3002057F2D02082A7F57
:100AFE00202008F87F2B2006F322920280CF286E4A
:100B0E00756C6C2900D2011207EF3001F8C2017822
:100B1E004730D50108F60208952D50434958120763
:100B2E00EF2403B405004001E4900B279312081B39
:0D0B3E00743A12081BD20375470402097AAD
:1019C50010090B121A4ABF0D027F0A021875AF1FC4
:0119D50022EF
:101086008B2C8A2D892EAB2CAA2DA92E120098FF07
:10109600121990500D7401252EF52EE4352DF52DDF
:1010A60080E4D200AB2CAA2DA92E120098FF642B47
:1010B6006004EFB42D1BAB2C052EE52EAA2D700275
:1010C600052D14F9120098642D6003D38001C39294
:1010D60000E4F52FF530AB2CAA2DA92E120098FFAF
:1010E600121A045036AB2CAA2DA92E120098FF33E3
:1010F60095E0FEEF24D0FBEE34FFFAAE2FAF307C46
:10110600007D0A1203D2EF2BF530EE3AF52F74016B
:10111600252EF52EE4352DF52D80BB300006AE2F9D
:0E112600AF308009C3E49530FFE4952FFE2220
:1011D2008E268F277E007F008F828E83E0FCA3E025
:1011E200FD4C7003FEFF228D828C83A3A3E0FAA341
:1011F200E0FBC39527EA95265008CEECCECFEDCF83
:1012020080D6C3EB9527F529EA9526F528C3E5296B
:101212009410E528940050198D828C83E0FBA3E0A2
:101222008F828E83CBF0A3EBF0ED2404FFE43CFE2F
:101232002274FC2529F52974FF3528F5288D828C26
:1012420083A3A3F0A3E529F0ED2404FFE43CFEEF21
:101252002529FFEE3528FE8F82F583A3A3E526F02C
:0C126200A3E527F0EF2404FFE43EFE2289
:10142800020CF6E493A3F8E493A34003F68001F2D8
:1014380008DFF48029E493A3F85407240CC8C333C5
:10144800C4540F4420C8834004F456800146F6DF94
:10145800E4800B01020408102040809019D6E47E35
:10146800019360BCA3FF543F30E509541FFEE49389
:10147800A360010ECF54C025E060A840B8E493A350
:10148800FAE493A3F8E493A3C8C582C8CAC583CA7B
:10149800F0A3C8C582C8CAC583CADFE9DEE780BE33
:0119DA00000C
:1003D200EF8DF0A4A8F0CF8CF0A428CE8DF0A42E3F
:0203E200FE22F9
:1003E400C5F0F8A3E028F0C5F0F8E58215827002A4
:0603F4001583E038F02241
:0C03FA00E6FC08E6FD08E6FE08E6FF222F
:0C040600E0FCA3E0FDA3E0FEA3E0FF2269
:0C041200E2FC08E2FD08E2FE08E2FF2226
:10041E00E493FC740193FD740293FE740393FF2224
:10042E00FAE6FB0808E6F925F0F618E6CA3AF622CF
:10187500EFB40A07740D121880740A309811A899EC
:10188500B8130CC2983098FDA899C298B811F630D3
:0718950099FDC299F59922AB
:0A1A4A003098FDAF99C2987E00228B
:0F1A0400EFC394304007EF943A50028001C322A1
:10199000EFC394094005EF940E4003BF2003D380AA
:0319A00001C3225E
:0B19DB004800000000000000000000B9
:10183900EF4E7008FE7F01ED1D70011C900000EE57
:10184900F0A3EFF0A3ECF0A3EDF0900000E0FEA30D
:10185900E0FFF5828E83E4F0A3F0ED24FCFDEC3487
:0C186900FF8F828E83A3A3F0A3EDF0227A
:00000001FF
