:1009F90050756572746F20302E303A200A00507598
:100A09006572746F20302E313A200A005075657274
:100A1900746F20302E323A200A0050756572746F57
:100A290020302E333A200A0050756572746F2030D9
:100A39002E343A200A0050756572746F20302E35B5
:100A49003A200A0050756572746F20302E363A20AC
:100A59000A0050756572746F20302E373A200A00EB
:100A6900455354414D4F5320454E204C412042207F
:020A79000A0071
:040E890075C6082200
:10080B008E228F23E52260030208C4E523B408007F
:10081B0040030208C4900827F828287302083F02F7
:10082B000850020861020872020883020894020849
:10083B00A20208B37BFF7A0979F91200B87522007E
:10084B00752308807D7BFF7A0A79071200B8752221
:10085B0000752318806C7BFF7A0A79151200B87526
:10086B002200752328805B7BFF7A0A79231200B85C
:10087B00752200752338804A7BFF7A0A7931120082
:10088B00B875220075234880397522007523587B73
:10089B00FF7A0A793F80287BFF7A0A794D1200B8DC
:1008AB00752200752368801A7BFF7A0A795B120028
:1008BB00B875220075237880097BFF7A0A79691253
:0608CB0000B88523C622DF
:0A0E6C0043A41075E10175E2402275
:07004C0043B20375EF04222B
:100D310043D103E4F5F4F5FB75F708759B03759A48
:100D4100BFF5BD75C60875F38130EAFD43E6087548
:060D5100F380E4FEFF2226
:100DC300759810758D96538EF4438E08858D8B53CD
:0D0DD300890F438920D28ED299E4FEFF22C1
:040E8D00E4FEFF225E
:040E9100E4FEFF225A
:040E9500E4FEFF2256
:040E9900E4FEFF2252
:100BA600456E74726520616C20636F6E7665727433
:100BB60069720A00766F6C74616A653A2025386C32
:100BC60064206D560A00456C2076616C6F72206E4B
:100BD600756D657269636F2065733A202568690AC9
:060BE600002568690A0009
:080DFC00024000000242000069
:100CDE0030EDFDC2ED7BFF7A0B79A61200B8E4F57C
:100CEE003C85C53D85C43E85C33F7B367A1AF9F8EF
:0B0CFE00AF3FAE3EAD3DAC3C1206EB3C
:010D090022C7
:100E4A007BFF7A0B79BA8F2E8E2D8D2C8C2B02007C
:010E5A00B8DF
:100B4800E4F526F527EF3395E0FEEF24D0F545EEE2
:100B580034FFF5447BFF7A0B79CCF52B85452C12B5
:100B680000B8E54525E0240DF87600087601E4F59F
:100B780026F5277BFF7A0B79E7E52725E0240DF892
:100B8800E6F52B08E6F52C1200B80527E5277002D4
:0D0B98000526C39408E5266480948040D6AD
:010BA500222D
:100C2F00D3E5439407E542648094804005E4F542A0
:100C3F00F543E54325E0240DF8E6FE08E664014E92
:100C4F0070110543E5437002054224FFFFE542346E
:0D0C5F00FFFE220543E54370C7054280C338
:1003B2000A204D656EC3BA20646520636F6E66695C
:1003C2006775726163696F6E0A00312E20436F6E2A
:1003D2006669677572616369C3B36E2064652041A3
:1003E20044430A00322E204D6F646F7320646520EF
:1003F2007472616E736D6973696F6E2064652064D7
:1004020061746F730A00332E205469706F20646523
:1004120020636F6D756E69636163696F6E207365CA
:100422007269616C0A00342E2047756172646172D0
:10043200206C6120636F6E66696775726163696FB4
:100442006E0A00352E2053616C6972206520696E38
:1004520069636961720A000A312E20436F6E666910
:1004620067757261722070696E7320656E206D6FA0
:10047200646F2073696E676C652D656E6465640ACE
:1004820000322E20436F6E6669677572617220704A
:10049200696E7320656E206D6F646F206469666596
:1004A20072656E6369616C0A00332E20436F6E665B
:1004B2006967757261722067616E616E6369610A54
:1004C20000342E20566F6C76657220616C206D654B
:1004D2006E7520616E746572696F720A000A496EE8
:1004E200677265736172206C6F73206E756D6572D1
:1004F2006F73206465206C6F732070696E65732062
:10050200736570617261646F7320706F72206C61C9
:10051200207465636C612027656E746572270A001A
:10052200416C207465726D696E61722C20696E6710
:1005320072657365206C61207465636C612027723B
:10054200270A000A496E6772657361722C2064651E
:10055200206120646F732C206C6F73207061726550
:1005620073206465206C6F732070696E65732064FC
:10057200657361646F732C207365706172616E6460
:100582006F206C6F7320677275706F7320636F6E6C
:10059200206C61207465636C612027656E746572DE
:1005A200270A000A312E20506F7220706574696329
:1005B200696F6E20646520646973706F7369746912
:1005C200766F2065787465726E6F0A00322E20464F
:1005D2006C756A6F20636F6E7374616E74650A0066
:1005E200332E20506F722076656E63696D69656E79
:1005F200746F2064652074656D706F726172697AC0
:1006020061646F720A000A312E2052533233320A69
:1006120000322E2049324320286E6F20696D706CA3
:10062200656D656E7461646F290A000A00436F6C20
:100632006F636172206C612067616E616E636961D4
:100642002071756520736520717569657265206119
:10065200706C696361722C0A006C6F732076616C36
:100662006F7265732061646D697469646F7320735E
:100672006F6E3A200A0031297831202032297832EF
:100682002020332978342020342978382020352935
:1006920078313620203629783332202037297836AF
:0D06A200342020382978313238202E0A000B
:100CA8007BFF7A0379B21200B87BFF7A0379CC1202
:100CB80000B87BFF7A0379E61200B87BFF7A0479E3
:100CC800081200B87BFF7A0479281200B87BFF7AF3
:060CD8000479450200B89A
:100D57007BFF7A0479591200B87BFF7A04798312F2
:100D670000B87BFF7A0479AB1200B87BFF7A04796D
:040D7700C30200B8FB
:100E14007BFF7A0479DF1200B87BFF7A057922021E
:020E240000B814
:100E26007BFF7A0579451200B87BFF7A05792202A5
:020E360000B802
:100D7B007BFF7A0579A51200B87BFF7A0579CE1235
:100D8B0000B87BFF7A0579E21200B87BFF7A047911
:040D9B00C30200B8D7
:100E38007BFF7A0679081200B87BFF7A06791302DD
:020E480000B8F0
:100D9F007BFF7A06792D1200B87BFF7A06792F1226
:100DAF0000B87BFF7A06795B1200B87BFF7A067971
:040DBF00780200B8FE
:100BEC0064656661756C7421210A0047616E616EE3
:100BFC006369612078312E0A0047616E616E63690A
:100C0C00612078322E0A0047616E616E6369612043
:100C1C0078342E0A0047616E616E63696120783802
:030C2C002E0A008D
:040E040002460001A1
:100A7B00752300752401E52464014523705D120C78
:100A8B00A8120E5B8F22120E5BBF0AFAE52224CE50
:100A9B00602D14602F1460DE14602E24047031124C
:100AAB000D57120E5B8F22120E5BBF0AFAE5222442
:100ABB00CD600924027008120DE0800312000312AE
:100ACB000D7B80B2120E3880ADE4F523F52480A6A1
:0B0ADB007BFF7A0B79EC1200B8809BC7
:010AE60022ED
:100DE000120E14120E5B8F25120E5BBF0AFAE52558
:0B0DF00064726007AF25120B4880E81A
:010DFB0022D5
:10000300120D9F120E5BEF24FE6017146021146023
:100013002B240370337BFF7A0B79F71200B8E4F5D6
:10002300F4227BFF7A0C79051200B875F401227B68
:10003300FF7A0C79131200B875F402227BFF7A0C55
:0800430079211200B875F403E5
:01004B002292
:03005300020E801A
:090E800030EDFDC2ED75080132F0
:100AE700E4FFFE53D9BFC3EE648094805011EF2515
:100AF700E0240DF8E4F608F60FBF00010E80E77F4B
:100B0700087E001208D18E1D8F1E12004C120E6C2B
:100B1700120DC3120D31120A7BC2ED75F383D2AFEA
:100B2700E50860FCE4F508120CDE8F0C8E0B8D0ACD
:100B37008C09120E4A120C2F8E1D8F1E12080B8065
:010B4700DFCE
:0300000002096D85
:0C096D00787FE4F6D8FD7581470209B4DC
:1006AF0075F008758200EF2FFFEE33FECD33CDCC02
:1006BF0033CCC58233C5829BED9AEC99E582984085
:1006CF000CF582EE9BFEED9AFDEC99FC0FD5F0D662
:1006DF00E4CEFBE4CDFAE4CCF9A88222B800C1B98C
:1006EF000059BA002DEC8BF084CFCECDFCE5F0CBCA
:1006FF00F97818EF2FFFEE33FEED33FDEC33FCEB03
:10070F0033FB10D703994004EB99FB0FD8E5E4F9BD
:10071F00FA227818EF2FFFEE33FEED33FDEC33FCAA
:10072F00C933C910D7059BE99A4007EC9BFCE99A9E
:10073F00F90FD8E0E4C9FAE4CCFB2275F010EF2FE3
:10074F00FFEE33FEED33FDCC33CCC833C810D707E3
:10075F009BEC9AE899400AED9BFDEC9AFCE899F81E
:0E076F000FD5F0DAE4CDFBE4CCFAE4C8F922B1
:10005600E537242BF8E60537227828300702782B77
:10006600E475F0011207D502077D2000EB7F2ED242
:10007600008018EF540F2490D43440D4FF30040B82
:10008600EF24BFB41A0050032461FFE5386002155F
:1000960038053BE53B7002053A30070D7828E475D4
:1000A600F0011207D5EF0207C3020D0A7403D20747
:1000B6008003E4C207F5378B288A29892AE4F538B4
:1000C600F53AF53BE53860077F2012009180F5751B
:1000D60039FFC201C200C202C203C205C206C2087B
:1000E60012005FFF700D3007057F001200A2AF3BC4
:1000F600AE3A22B4255FC2D5C20412005FFF24D0F7
:10010600B40A00501A75F00A783830D50508B6FFDB
:100116000106C6A426F620D5047002D20380D9248F
:10012600CFB41A00EF5004C2E5D2040202A2D201F3
:1001360080C6D20080C0D20280BCD2D580BAD20599
:1001460080B47F201200912002077401B538004068
:10015600F1120056FF1200910200CAD208D20680A0
:1001660095120056FB120056FA120056F94A4B70C9
:100176000679737A037BFF20022EE538602A7E001B
:100186008E8275830012079660060EEE653970F052
:10019600C2D5EBC0E0EAC0E0E9C0E0EE1202E9D069
:1001A600E0F9D0E0FAD0E0FB12077DFF60AAEBC0D1
:1001B600E0EAC0E0E9C0E0120091D0E02401F9D005
:1001C600E03400FAD0E0FBE5390460DCD539D980AB
:1001D600877BFF7A0279E5D202809C7910800279CA
:1001E60008C206C2088008D2D5790A8004790AC2F4
:1001F600D5E539047002F539E4FAFDFEFF12005622
:10020600FC7B08200113120056FD7B1030000A12F9
:100216000056FE120056FF7B20EC3382D592D55055
:1002260013C3E43000069FFFE49EFEE42001039D15
:10023600FDE49CFCE4CBF8C201EC700CCFCECDCC37
:10024600E824F8F870F38017C3EF33FFEE33FEEDC2
:1002560033FDEC33FCEB33FB994002FB0FD8E9EBA3
:10026600300105F8D0E0C448B201C0E00AEC4D4EBA
:100276004F78207B0070C2EAB5390040BCC0E0125E
:1002860002EBD0F0D0E0200104C4C0E0C4B201C04B
:10029600F012007AD0F0D5F0EB0200CA1207E501A1
:1002A600675301E15801384C01344201E54F01ED35
:0F02B6004401ED49014D4301F35501D74601D7EE
:1002C5004501D747039350013C2D01402E01632B77
:1002D500014423016120037C2A00FC480000015BE6
:1002E5003F3F3F00790AA2D5200314300509B91014
:1002F500020404B9080104A2D52006025001042015
:1003050002689202B538005034C0E07F20300319EE
:100315007F30A20272067205500F120342C202C25A
:1003250006C205C2087F30800F300503E9C0E01220
:100335000091300503D0E0F9D0E0B538CC30051791
:100345007F30B9100C1200917F583004077F7880F8
:1003550003B908031200913002057F2D0200917F39
:10036500202008F87F2B2006F322920280CF286EEA
:10037500756C6C2900D2011200563001F8C2017863
:100385003830D50108F60200FC2D504349581200BB
:10039500562403B405004001E490038E93120082B5
:0D03A500743A120082D2037538040201E19F
:100E5B0010090B120E76BF0D027F0A020D0AAF1F8F
:010E6B002264
:1008D1008E228F237E007F008F828E83E0FCA3E037
:1008E100FD4C7003FEFF228D828C83A3A3E0FAA34B
:1008F100E0FBC39523EA95225008CEECCECFEDCF95
:1009010080D6C3EB9523F525EA9522F524C3E52589
:100911009410E524940050198D828C83E0FBA3E0B0
:100921008F828E83CBF0A3EBF0ED2404FFE43CFE39
:100931002274FC2525F52574FF3524F5248D828C40
:1009410083A3A3F0A3E525F0ED2404FFE43CFEEF2F
:100951002525FFEE3524FE8F82F583A3A3E522F042
:0C096100A3E523F0EF2404FFE43EFE2297
:10097900020AE7E493A3F8E493A34003F68001F2A3
:1009890008DFF48029E493A3F85407240CC8C3337F
:10099900C4540F4420C8834004F456800146F6DF4E
:1009A900E4800B0102040810204080900DFCE47ED5
:1009B900019360BCA3FF543F30E509541FFEE49343
:1009C900A360010ECF54C025E060A840B8E493A30A
:1009D900FAE493A3F8E493A3C8C582C8CAC583CA35
:1009E900F0A3C8C582C8CAC583CADFE9DEE780BEED
:010E080000E9
:10077D00BB010689828A83E0225002E722BBFE027A
:09078D00E32289828A83E49322AD
:10079600BB010CE58229F582E5833AF583E0225018
:1007A60006E92582F8E622BBFE06E92582F8E22262
:0D07B600E58229F582E5833AF583E493227C
:1007C300BB010689828A83F0225002F722BBFE0115
:0207D300F3220F
:1007D500FAE6FB0808E6F925F0F618E6CA3AF62225
:1007E500D083D082F8E4937012740193700DA3A3A3
:1007F50093F8740193F5828883E4737402936860B7
:06080500EFA3A3A380DFB6
:100D0A00EFB40A07740D120D15740A309811A899D8
:100D1A00B8130CC2983098FDA899C298B811F63049
:070D2A0099FDC299F5992221
:0A0E76003098FDAF99C2987E00226B
:0B0E0900480000000000000000000096
:100C6C00EF4E7008FE7F01ED1D70011C900000EE30
:100C7C00F0A3EFF0A3ECF0A3EDF0900000E0FEA3E6
:100C8C00E0FFF5828E83E4F0A3F0ED24FCFDEC3460
:0C0C9C00FF8F828E83A3A3F0A3EDF02253
:00000001FF
