:0A181F0043E24043A41043A5022257
:0A18290043B20375EF04E4F5A922B1
:1017030043D103E4F5F4F5FB75F708F59B759A3FB0
:10171300F5BD75C60875F38130EAFD43E60875F338
:0517230080E4FEFF223E
:1016DD0043E10143E240E4F5D443A41043F1207506
:1016ED009810758D96438E08858D8B53890F438980
:0616FD0020D28ED29922DA
:0F17E70043E210E4F58CF58A43892543885022AC
:10179D0043918043910443E68043F680E4F594F54C
:0617AD0095F592F5932270
:04186A0043B1202244
:0F17F60043E201E4F5D875D90875DACBD2DE22CB
:0A1833004D4D4C3E0025303264009C
:100F4A00900002AB26AA27A9280200B19000051238
:100F5A0000B124D0FFC3940022AB26AA27A92812E5
:100F6A000098D364802290003F740175F09522ABFB
:100F7A0026AA27A9282290003F740175F09622908C
:100F8A0000030200B19000040200B1F9E43AFAE564
:100F9A0029FD3395E0FCE92DF9EA3CFAEF1201113B
:100FAA00052922AB26AA27A92822F9E43527FAE936
:100FBA002FF9EA3EFAE41201110F22120098FFD328
:100FCA006480229000010200B19000081200B1244E
:100FDA00D0FEC39400229000060200B1C3EF6480E1
:0A0FEA00948222120098C364802252
:060D23008B268A278928B7
:100D2900E4F5297BFF7A18793312082A120FAD905E
:100D3900003FE4F5F08045120DE1900001EF12014A
:100D490023642C603C120FCDFFB40A0FE529700B08
:100D590090003F740375F0E80201FFEF640A602117
:100D6900C3E529648094835008E92402120F958011
:100D7900C6120FAD90003F740175F0941201FF8007
:100D8900B6E4F529120FAD120FCD640A602E120DCB
:100D9900E1900001EF120123640A6020C3E5296490
:100DA900809488500C120FCDFFE92405120F95800D
:100DB900DD120FAD120F701201FF80D2120FADE5D7
:100DC90029120111120FAD120FCD640A6006121714
:070DD900C6BF0AFA120FADBC
:0B0DE000221217C6AB26AA27A9282262
:10043E008B268A2789289000021200B1FFB4531A26
:10044E00120F89B4541490003FE475F0FE1201FFB0
:10045E00900041E41201230207B2EF6453600302DD
:10046E000539120F8964536003020539120F8F6428
:10047E00456003020539120FC594854003020651EB
:10048E00120FE0FE642C6005120FE6400612009873
:10049E00FF700302056EEE642C600B120FE6400631
:1004AE00120F79020585900006120F4DB42C0A1218
:1004BE000FED94835003020585120F564052EFD371
:1004CE00940740030205BC120F6394824011900002
:1004DE0007120F594006EFD3940940030205BC12D0
:1004EE000F79120FC59483400E120FD34006EED330
:1004FE00940940030205BCD3EF6480948440141227
:10050E000F79900009120F594006EFD3940940035A
:10051E000205BC120F63948440081207B640030212
:10052E000623120F791212C60207B2120F4A645333
:10053E006003020635120F89644460030206351209
:10054E000F8F64496003020635120FC59485400370
:10055E00020651120FE0FE642C6010120FE6500BD3
:10056E0090003F740175F09702079CEE642C6012A8
:10057E00120FED9482400B90003F740175F09802BB
:10058E00079C120FE0B42C12120FED9483500B90B7
:10059E00003F740175F09802079C120F56400FEF42
:1005AE00D3940650099000051200B130E006120FE8
:1005BE008002079C120F6394824014900007120F62
:1005CE00594006EFD394094006120F8002079C1281
:1005DE000F79120FC594834011120FD34006EED33C
:1005EE0094094006120F8002079CD3EF6480948416
:1005FE004017120F79900009120F594006EFD3944D
:10060E00094006120F8002079C120F639484400E5D
:10061E001207B64009120F79120F8002079C120FB3
:10062E00791212460207B2120F4A64477035120F42
:10063E00896453702E120F8F64457027120F6994C0
:10064E00814006120F7002079C120F564006EFD320
:10065E0094074006120F8002079C120F7912002693
:10066E000207B2120F4A64477035120F8964447044
:10067E002E120F8F64497027120F6994864006124E
:10068E000F7002079C120F564006EFD394064006D9
:10069E00120F8002079C120F7912145B0207B2121E
:1006AE000F4A64537035120F896447702E120F8FE4
:1006BE0064417027120F6994814006120F70020771
:1006CE009C120F564006EFD394074006120F80027D
:1006DE00079C120F7912112E0207B2120F4A6447AD
:1006EE00701F120F89B45419120F8FB43013120FDA
:1006FE006994804006120F7002079C120056020782
:10070E00B2120F4A6447701F120F89B45419120F98
:10071E008FB43213120F6994804006120F700207C5
:10072E009C1217490207B2120F4A6453701F120F20
:10073E008964487018120F8FB44112120F69948099
:10074E004005120F7080471214FC0207B2120F4AB6
:10075E006447701D120F89B45217120F8FB45011C7
:10076E00120F6994804005120F708022120FF480D0
:10077E0033120F4A6450701E120F89B45718120F9D
:10078E008FB44D12120F6994804006120F70020141
:10079E00FF12154A800E120F7990003F740175F00A
:1007AE00941201FF120F7922E92407F9E43AFA12A2
:0A07BE000E9CD3EF94FFEE9400228E
:1014AD0090003F1201701203A514DE00FB14E00042
:1014BD00FC14E200FD14E400FE14EF019414EF019E
:1014CD009514EF019614EF019714EF019800001495
:1014DD00FB8004800280007BFF7A187938753A0111
:0F14ED0080097BFF7A187938E4F53A12082A2231
:061598008B268A2789283A
:10159E00E4FFFEAB26E5282405120FB4BF00010EB2
:1015AE00EF64084E70EDE4FEFFAB26E52824021230
:1015BE000FB4BF00010EEF64034E70EDAB26AA27E9
:0B15CE00A92890003FE4F5F00201FFA7
:030053000218513F
:0918510030EDFDC2ED7515013208
:0300230002185A66
:09185A00309805C29875140132A2
:0300730002183D33
:0A183D0053917F5391BF751C0132D7
:101728006E6F20686179206C7567617220706172D4
:1017380061207368656C6C21210A0053544F500A6C
:0117480000A0
:10168F00AB22E5242425F9E43523FAAF25EF339572
:10169F00E0FEEF25E0FFEE33FEE92FF9EA3EFA22F6
:0716AF00AB22AA23A92422AB
:100B2400E4F52553D9BF7F44FE121092AA06A90703
:100B34007B018B228A238924900042E4120123E55D
:100B44002445234522700B7BFF7A17792812082A43
:100B540080FEE4F52512168FE4F5F01201E0052578
:100B6400E525B40CF012182912181F12186A12166F
:100B7400DD1217F61217031217E712179D1216AF9C
:100B840090004174011201231216AF90004112002B
:100B9400B1640170261215981216AF120D231216A5
:100BA400AF90003F12017045F0600280091216AF49
:100BB40012043E1216AF1214AD80CDE4F5251216C0
:100BC4008F120145FDE524240DF9E43523FA1216AC
:100BD400A8E5F08DF01201E00525E525B40CDFC28F
:100BE400ED75C60875F383D2AFD2ACE514601DE48D
:100BF400F5F3C2AFF5141216AF90004104120123AD
:100C04007BFF7A17794312082A020B8CC2ACE515D4
:100C140060D7E4F5151200038F198E188D178C1602
:100C24001216AF120C3BEF60097B007A00791612A2
:070C340016551215D980B21C
:1017660054696D657230203A20256C750A005469FB
:0C1776006D657232203A20256C750A0067
:0B1814007BFF8F3D8E3C8D3B8C3A2209
:10005600E4F54BF54C858C4D858A4EAF4EAE4DADD5
:0D0066004CAC4B7A17796612181402082A68
:10174900E4F54FF55085CD5185CC52AF52AE51AD30
:0D17590050AC4F7A17797412181402082A48
:101408002530346C750A007365206465746F6E6FDF
:1014180020746F646F0A006964783A2025690A00AD
:10142800414443304D55583A20307825780A0076A3
:1014380061723A2025690A004144435B25695D3A97
:101448002025750A0041444330434E3A2030782520
:03145800630A0024
:1013A900F9E43527FAAF29EF3395E0FEEF25E0FFA1
:1013B900EE33FEE92FF9EA3EFA22C2ED75F383D244
:1013C900AF9000050200B11200038F118E108D0F2E
:1013D9008C0E7B007A00790E22AB26AA27A92890C9
:1013E90000422290003F740175F09622AB29AA2A87
:0F13F900A92B90003F0201FFAB29AA2AA92B22A2
:10000300E4F50885C50985C40A85C30B7B367A1ACE
:0D001300F9F8AF0BAE0AAD09AC081202B748
:0100200022BD
:10112E008B298A2A892B75F3801213CA12037F1119
:10113E005930115E31116732117133117B341185C3
:10114E0035118F36119937000011A353F4F08051E9
:10115E00E5F454F004F5F48048E5F454F02402F577
:10116E00F4803EE5F454F02403F5F48034E5F454B1
:10117E00F02404F5F4802AE5F454F02405F5F48007
:10118E0020E5F454F02406F5F48016E5F454F0242A
:10119E0007F5F4800C740175F0971213F575F3834F
:0C11AE002275F383E475F0FD1213F522A6
:1015D90075F380E5C6540FFFBF0815E5C6B4780852
:1015E90043F41075C6018024741025C6F5C6801C05
:1015F900E5C6540FC394085016E5C6B4670853F4FA
:10160900EF75C6088006742225C6F5C675F38322D0
:061655008B2C8A2D892E6A
:10165B00AFC68F2FE52F540FFFBF08028011E52F68
:10166B00540FC364809488501AAB2CAA2DA92E1248
:10167B00035F8F3D8E3C8D3B8C3A7BFF7A14790850
:03168B0012082A18
:01168E002239
:060C3B008B268A278928A0
:100C4100E5C6540FFFE5C6C4540FFEEF75F0081258
:100C51000076ADF0D3ED648094801213E240077406
:100C6100011200DE8004E41201231213E21200B12A
:100C7100FDC3EE9F24082DF529C36480948C505C3C
:100C8100E9240DF9E43A1213AD120145FDACF04C23
:100C91007002FF22ED64014C7023AB26E528242568
:100CA1001213A9120145FDE528240DF9E43527FAAF
:100CB1001213BCE5F08DF01201E07F0122AB26E5B5
:100CC10028240D1213A9120145D39401E5F09400D3
:100CD100404D74FFF5F01201A87F00227BFF7A14CA
:100CE100790F12082A7BFF7A14791FAF29EF339508
:100CF100E0F53A8F3B12082A7BFF7A147928AFC6B8
:100D01008F3A12082A1213E21200B1FF3395E0F56F
:100D11003A8F3B7BFF7A14793712082A7FFF227FB3
:010D210000D1
:010D220022AE
:1012C6008B298A2A892BE92407F9E43AFA120E9C1B
:1012D6008E0C8F0DE4FCFDFBFA7901F8C31203496D
:1012E60050081214011213EC804B1214011213CA87
:1012F600FF3395E0FEEF24D0F513EE34FFF512C36D
:10130600648094804025E5139408E51264809480F7
:101316005019E92425F9E43AFAE51325E0FFE51228
:101326001213BAE50C850DF01201E01214019000BB
:091336003FE475F0FB1201FF22F7
:101246008B298A2A892BE92407F9E43AFA120E9C9B
:101256008E0C8F0DAB29AA2AA92B1213CA24CE6095
:101266001424FE601824FE601C24067020751200EB
:10127600751308801D751200751309801575120007
:1012860075130A800D75120075130B80051213EC89
:10129600802AAB29E52B2425F9E4352AFAE513251E
:1012A600E0FFE5121213BAE50C850DF01201E0AB72
:1012B60029AA2AA92B90003FE475F0FC1201FF220F
:100026008B298A2A892B1213C3FFC454F02408F59E
:10003600C61213D0121655E4F5F3C2AFAB29AA2A9D
:0A004600A92B90003FF5F00201FF26
:10145B008B298A2A892B1213C324CE601124FE6098
:10146B001224FE60132406701475C601801A75C60B
:10147B0023801575C645801075C667800BAB29AAEE
:10148B002AA92B1213EC80161213D0121655E4F561
:10149B00F3C2AFAB29AA2AA92B90003FF5F012019A
:0214AB00FF221E
:0614FC008B298A2A892BCE
:10150200E4F52CAF2CEF3395E0FEF53A8F3BAB2997
:10151200E52B2425F9E4352AFA1213B5120145F513
:101522003D85F03C7BFF7A14794012082A052CC3D2
:10153200E52C6480948C40CB7BFF7A14794DAFF418
:08154200EF2430F53A02082AFB
:100DEB0053544F500A00256C75202B2D3330207235
:100DFB00706D0A00736520636F6E74726F6C6F2079
:100E0B0070617261207175652076617961206D6109
:100E1B007320646573706163696F0A72706D5F69CB
:100E2B006465616C203D2025640A72706D5F72658C
:100E3B00616C203D20256400736520636F6E7472B6
:100E4B006F6C6F20706172612071756520766179AE
:100E5B0061206D61732072617069646F0A000A46CC
:100E6B0061736520312E2E2E0A0046617365203288
:100E7B002E2E2E0A00417272616E7175652E2E2E0A
:100E8B000A004E6976656C2065737461626C650A45
:010E9B000056
:0417D70002578CA089
:100FF400E4F52CF52BF52AF529F52DF52EF51CD263
:10100400AFD2ACE514600EC2AFE4F5147BFF7A0DE9
:1010140079EB02082AC2ACE51C60E6052EE52E70C9
:1010240002052DE4F51CD3E52E940FE52D64809480
:101034008040CEE4F553F554858C55858A56AF56D9
:10104400AE55AD54AC538F2C8E2B8D2A8C297F1E1C
:10105400FEFDFCAB2CAA2BA92AA82912022C8F3244
:101064008E318D308C2F7BFF7A0D79F18F3D8E3C44
:101074008D3B8C3A12082AAE31AF327D107C0E12B1
:0E108400133FE4F58CF58AF52DF52E021005CC
:10133F008E338F348C358D36E5362432FFE43535D8
:10134F00FED3E5349FE5339E401D74322558F55882
:10135F00E412139C7A0D79FF85353A85363B853338
:10136F003C85343D12082AE53624CEFFE53534FF9F
:10137F00FEC3E5349FE5339E501274CE2558F558C1
:10138F0074FF12139C7A0E794312082A223557F5EF
:0A139F0057AF58FE1218637BFF22BF
:10154A007BFF7A0E796912082A7FD81215897A0EDA
:10155A00797512082A7F741215897A0E7980120811
:10156A002A7FF07E811218637F587E021217827BCF
:10157A00FF7A0E798D12082A7FA07E8C0218637E6C
:0E158A00A41218637F587E021217827BFF2284
:07186300EFF5E9EEF5EA22C2
:10178200E4FDFC30D8FDC2D80DBD00010CC3ED9FB5
:0B179200EE6480F8EC64809840E922CF
:030000000211BA30
:0C11BA00787FE4F6D8FD75815802120120
:10007600C2D530F707B2D563F0FF05F030E70CB212
:10008600D5F4048463F0FF05F080018430D502F4D2
:02009600042242
:10009800BB010689828A83E0225002E722BBFE0266
:0900A800E32289828A83E4932299
:1000B100BB010CE58229F582E5833AF583E0225004
:1000C10006E92582F8E622BBFE06E92582F8E2224E
:0D00D100E58229F582E5833AF583E4932268
:1000DE00BB010FF8E58229F582E5833AF583E02826
:1000EE00F0225009C58229F8E58226F622BBFE09C8
:1000FE00C58229F8E22582F222F8EA2583F583E902
:03010E0093282211
:10011100BB010689828A83F0225002F722BBFE01CD
:02012100F322C7
:10012300F8BB010DE58229F582E5833AF583E8F012
:10013300225006E92582C8F622BBFE05E92582C8BE
:02014300F222A6
:10014500BB010A89828A83E0F5F0A3E02250068785
:10015500F009E71922BBFE07E3F5F009E319228947
:0B016500828A83E493F5F0740193227A
:10017000BB0110E58229F582E5833AF583E0F5F0CD
:10018000A3E0225009E92582F886F008E622BBFEAA
:100190000AE92582F8E2F5F008E222E5832AF583F0
:0801A000E993F5F0A3E99322B5
:1001A800BB010789828A830203E4500B09C5F02743
:1001B800F7C5F01937F722BBFE0D09F8E325F0F370
:1001C800C5F019E338F322F889828A8374019325EC
:0801D800F0C5F0F8E4933822B1
:1001E000BB010A89828A83F0E5F0A3F0225006F76A
:0F01F00009A7F01922BBFE06F3E5F009F3192267
:1001FF00F8BB0111E58229F582E5833AF583E8F032
:10020F00E5F0A3F0225009E92582C8F608A6F022EE
:0D021F00BBFE09E92582C8F2E5F008F222D5
:10022C00E88FF0A4CC8BF0A42CFCE98EF0A42CFC71
:10023C008AF0EDA42CFCEA8EF0A4CDA8F08BF0A4EF
:10024C002DCC3825F0FDE98FF0A42CCD35F0FCEB4E
:10025C008EF0A4FEA9F0EB8FF0A4CFC5F02ECD3913
:0F026C00FEE43CFCEAA42DCE35F0FDE43CFC2280
:10027B0075F008758200EF2FFFEE33FECD33CDCC3A
:10028B0033CCC58233C5829BED9AEC99E5829840BD
:10029B000CF582EE9BFEED9AFDEC99FC0FD5F0D69A
:1002AB00E4CEFBE4CDFAE4CCF9A88222B800C1B9C4
:1002BB000059BA002DEC8BF084CFCECDFCE5F0CB02
:1002CB00F97818EF2FFFEE33FEED33FDEC33FCEB3B
:1002DB0033FB10D703994004EB99FB0FD8E5E4F9F6
:1002EB00FA227818EF2FFFEE33FEED33FDEC33FCE3
:1002FB00C933C910D7059BE99A4007EC9BFCE99AD7
:10030B00F90FD8E0E4C9FAE4CCFB2275F010EF2F1B
:10031B00FFEE33FEED33FDCC33CCC833C810D7071B
:10032B009BEC9AE899400AED9BFDEC9AFCE899F856
:0E033B000FD5F0DAE4CDFBE4CCFAE4C8F922E9
:10034900EB9FF5F0EA9E42F0E99D42F0EC6480C82B
:0603590064809845F022CB
:10035F00BB010789828A830204065005E9F802036C
:10036F00FABBFE05E9F802041289828A8302041E91
:10037F00D083D082F8E4937012740193700DA3A30D
:10038F0093F8740193F5828883E473740293686021
:06039F00EFA3A3A380DF21
:1003A500D083D082F8E4937012740193700DA3A3E7
:1003B50093F8740193F5828883E473740293B5F01E
:0D03C500067403936860E9A3A3A3A380D886
:1007C800E546243AF8E60546227837300702783AB3
:1007D800E475F00112042E0200982000EB7F2ED25F
:1007E800008018EF540F2490D43440D4FF30040B09
:1007F800EF24BFB41A0050032461FFE547600215D7
:1008080047054AE54A7002054930070D7837E4750F
:10081800F00112042EEF0201110216B67403D2077A
:100828008003E4C207F5468B378A388939E4F547EF
:10083800F549F54AE54760077F2012080380F575FA
:1008480048FFC201C200C202C203C205C206C208F2
:100858001207D1FF700D3007057F00120814AF4A48
:10086800AE4922B4255FC2D5C2041207D1FF24D0F5
:10087800B40A00501A75F00A784730D50508B6FF53
:100888000106C6A426F620D5047002D20380D92416
:10089800CFB41A00EF5004C2E5D204020A14D20100
:1008A80080C6D20080C0D20280BCD2D580BAD20520
:1008B80080B47F201208032002077401B547004066
:1008C800F11207C8FF12080302083CD208D20680BA
:1008D800951207C8FB1207C8FA1207C8F94A4B70E5
:1008E8000679E57A0A7BFF20022EE547602A7E001A
:1008F8008E827583001200B160060EEE654870F0B6
:10090800C2D5EBC0E0EAC0E0E9C0E0EE120A5BD075
:10091800E0F9D0E0FAD0E0FB120098FF60AAEBC043
:10092800E0EAC0E0E9C0E0120803D0E02401F9D011
:10093800E03400FAD0E0FBE5480460DCD548D98013
:10094800877BFF7A0A7957D202809C7910800279D6
:1009580008C206C2088008D2D5790A8004790AC27A
:10096800D5E548047002F548E4FAFDFEFF1207C811
:10097800FC7B082001131207C8FD7B1030000A1207
:1009880007C8FE1207C8FF7B20EC3382D592D550EA
:1009980013C3E43000069FFFE49EFEE42001039D9C
:1009A800FDE49CFCE4CBF8C201EC700CCFCECDCCBE
:1009B800E824F8F870F38017C3EF33FFEE33FEED49
:1009C80033FDEC33FCEB33FB994002FB0FD8E9EB2A
:1009D800300105F8D0E0C448B201C0E00AEC4D4E41
:1009E8004F78207B0070C2EAB5480040BCC0E012D6
:1009F8000A5DD0F0D0E0200104C4C0E0C4B201C058
:100A0800F01207ECD0F0D5F0EB02083C12037F0897
:100A1800D95309535808AA4C08A64209574F095FE9
:0F0A280044095F4908BF43096555094946094913
:100A3700450949470B055008AE2D08B22E08D52B9E
:100A470008B62308D3200AEE2A086E48000008CD0E
:100A57003F3F3F00790AA2D5200314300509B9109A
:100A6700020404B9080104A2D5200602500104209B
:100A770002689202B547005034C0E07F2030031966
:100A87007F30A20272067205500F120AB4C202C268
:100A970006C205C2087F30800F300503E9C0E012A7
:100AA7000803300503D0E0F9D0E0B547CC3005178F
:100AB7007F30B9100C1208037F583004077F788005
:100AC70003B908031208033002057F2D0208037FCC
:100AD700202008F87F2B2006F322920280CF286E71
:100AE700756C6C2900D2011207C83001F8C2017871
:100AF7004730D50108F602086E2D504349581207B2
:100B0700C82403B405004001E4900B00931207F4D6
:0D0B1700743A1207F4D20375470402095323
:1017C60010090B121847BF0D027F0A0216B6AF1F8B
:0117D60022F0
:100E9C008B2C8A2D892EAB2CAA2DA92E120098FFF3
:100EAC001217B3500D7401252EF52EE4352DF52DAA
:100EBC0080E4D200AB2CAA2DA92E120098FF642B33
:100ECC006004EFB42D1BAB2C052EE52EAA2D700261
:100EDC00052D14F9120098642D6003D38001C39280
:100EEC0000E4F52FF530AB2CAA2DA92E120098FF9B
:100EFC001218055036AB2CAA2DA92E120098FF33D0
:100F0C0095E0FEEF24D0FBEE34FFFAAE2FAF307C31
:100F1C00007D0A1203D2EF2BF530EE3AF52F740157
:100F2C00252EF52EE4352DF52D80BB300006AE2F89
:0E0F3C00AF308009C3E49530FFE4952FFE220C
:101092008E268F277E007F008F828E83E0FCA3E066
:1010A200FD4C7003FEFF228D828C83A3A3E0FAA382
:1010B200E0FBC39527EA95265008CEECCECFEDCFC4
:1010C20080D6C3EB9527F529EA9526F528C3E529AD
:1010D2009410E528940050198D828C83E0FBA3E0E4
:1010E2008F828E83CBF0A3EBF0ED2404FFE43CFE71
:1010F2002274FC2529F52974FF3528F5288D828C68
:1011020083A3A3F0A3E529F0ED2404FFE43CFEEF62
:101112002529FFEE3528FE8F82F583A3A3E526F06D
:0C112200A3E527F0EF2404FFE43EFE22CA
:1011C600020B24E493A3F8E493A34003F68001F210
:1011D60008DFF48029E493A3F85407240CC8C3332A
:1011E600C4540F4420C8834004F456800146F6DFF9
:1011F600E4800B01020408102040809017D7E47E9B
:10120600019360BCA3FF543F30E509541FFEE493ED
:10121600A360010ECF54C025E060A840B8E493A3B4
:10122600FAE493A3F8E493A3C8C582C8CAC583CADF
:10123600F0A3C8C582C8CAC583CADFE9DEE780BE97
:0117DB00000D
:1003D200EF8DF0A4A8F0CF8CF0A428CE8DF0A42E3F
:0203E200FE22F9
:1003E400C5F0F8A3E028F0C5F0F8E58215827002A4
:0603F4001583E038F02241
:0C03FA00E6FC08E6FD08E6FE08E6FF222F
:0C040600E0FCA3E0FDA3E0FEA3E0FF2269
:0C041200E2FC08E2FD08E2FE08E2FF2226
:10041E00E493FC740193FD740293FE740393FF2224
:10042E00FAE6FB0808E6F925F0F618E6CA3AF622CF
:1016B600EFB40A07740D1216C1740A309811A8996E
:1016C600B8130CC2983098FDA899C298B811F63094
:0716D60099FDC299F599226C
:0A1847003098FDAF99C2987E002290
:0F180500EFC394304007EF943A50028001C322A2
:1017B300EFC394094005EF940E4003BF2003D38089
:0317C30001C3223D
:0B17DC004800000000000000000000BA
:10161900EF4E7008FE7F01ED1D70011C900000EE79
:10162900F0A3EFF0A3ECF0A3EDF0900000E0FEA32F
:10163900E0FFF5828E83E4F0A3F0ED24FCFDEC34A9
:0C164900FF8F828E83A3A3F0A3EDF0229C
:00000001FF
