:05004D002530356400C0
:0A1BAA007BFF7A00794D754C032291
:101B240043E24043A41043A50243A48043A40453C6
:031B340080FB2211
:0A1BA00043B20375EF04E4F5A92237
:1019F30043D103E4F5F4F5FB75F708F59B759A3FBE
:101A0300F5BD75C60875F38130EAFD75F380E4FE14
:021A1300FF22B0
:1019CD0043E10143E240E4F5D443A41043F1207513
:1019DD009810758D96538EF4858D8B53890F438991
:0619ED0020D28ED29922E7
:0F1B5B0043E210E4F58CF58A4389254388502234
:101AE40043918043910443E68043F680E4F594F502
:061AF40095F592F5932226
:041BD30043B12022D8
:0F1B6A0043E201E4F5D875D90875DACBD2DE2253
:101A3700121BAA754D20120929AFA88F6FAFE68F29
:101A470070E4F5A8F5E6D2ACD2AF750E0143870175
:011A5700226C
:101ACD00A2AF92AFA2AC92AC856FA88570E6121B47
:071ADD00AA754D2102092941
:051BCE00253035640024
:100FC100900002AB3FAA40A9410200B1AB3FAA4049
:100FD100A941120098D364802290003F740175F0FA
:100FE10095229000051200B124D0FFC394002290F5
:100FF10000030200B19000040200B1AB3FAA40A976
:10100100412290003F740175F096227BFF7A1B7993
:10101100CE22F9E43AFAE542FD3395E0FCE92DF9F7
:10102100EA3CFAEF120111054222AB3FAA40A94165
:1010310022F9E43540FAE92FF9EA3EFAE412011106
:101041000F22120098FFD36480229000010200B1A8
:101051009000081200B124D0FEC394002290000633
:101061000200B1C3EF6480948222120098C36480AD
:01107100225C
:060F06008B3F8A40894187
:100F0C00E4F54290003FF5F08045120FB7900001D8
:100F1C00EF1201236478603C12104BFFB40A0FE50A
:100F2C0042700B90003F740375F0E80201FFEF6410
:100F3C000A6021C3E542648094835008E9240212BC
:100F4C00101380C612102B90003F740175F0941290
:100F5C0001FF80B6E4F54212102B12104B640A60AC
:100F6C002E120FB7900001EF120123640A6020C308
:100F7C00E54264809488500C12104BFFE924051252
:100F8C00101380DD12102B120FDA1201FF80D21217
:100F9C00102BE54212011112102B12104B640A6037
:0A0FAC0006121B4ABF0AFA12102BAE
:0B0FB60022121B4AAB3FAA40A94122B7
:1004A5008B3F8A4089419000021200B1FFB4531A74
:1004B500120FF0B4541490003FE475F0FE1201FFE2
:1004C500900041E41201230208B1EF645360030276
:1004D50005A0120FF0645360030205A0120FF66425
:1004E5004560030205A0121043948540030206B837
:1004F50012105EFE642C600512106440061200980E
:10050500FF70030205D5EE642C600B1210644006E3
:10051500120FFC0205EC900006120FC4B42C0A124F
:10052500106B948350030205EC120FE34052EFD396
:1005350094074003020623120FCD948240119000C8
:1005450007120FE64006EFD3940940030206231273
:100555000FFC1210439483400E1210514006EED347
:1005650094094003020623D3EF6480948440141257
:100575000FFC900009120FE64006EFD394094003E3
:10058500020623120FCD948440081208B5400302D9
:10059500068A120FFC12145E0208B1120FC16453D1
:1005A500600302069C120FF06444600302069C126D
:1005B5000FF66449600302069C12104394854003BC
:1005C5000206B812105EFE642C6010121064500B07
:1005D50090003F740175F09702089BEE642C601241
:1005E50012106B9482400B90003F740175F09802D5
:1005F500089B12105EB42C1212106B9483500B9052
:10060500003F740175F09802089B120FE3400FEF4D
:10061500D3940650099000051200B130E00612107F
:100625000302089B120FCD94824014900007120F0D
:10063500E64006EFD39409400612100302089B1208
:100645000FFC121043948340111210514006EED353
:100655009409400612100302089BD3EF648094842A
:100665004017120FFC900009120FE64006EFD394D5
:1006750009400612100302089B120FCD9484400E08
:100685001208B54009120FFC12100302089B120F45
:10069500FC12135E0208B1120FC164477035120FC8
:1006A500F06453702E120FF664457027120FD39421
:1006B500814006120FDA02089B120FE34006EFD3C2
:1006C5009407400612100302089B120FFC1219052D
:1006D5000208B1120FC164477035120FF0644470FF
:1006E5002E120FF664497027120FD3948640061216
:1006F5000FDA02089B120FE34006EFD3940640067B
:1007050012100302089B120FFC1215B40208B11255
:100715000FC164537035120FF06447702E120FF637
:1007250064417027120FD394814006120FDA020834
:100735009B120FE34006EFD3940740061210030205
:10074500089B120FFC1211BC0208B1120FC16447BD
:10075500701F120FF0B45419120FF6B43013120FA4
:10076500D394804006120FDA02089B120056020845
:10077500B1120FC16447701F120FF0B45419120F54
:10078500F6B43213120FD394804006120FDA020822
:100795009B121A790208B1120FC164537020120F0F
:1007A500F064487019120FF6B44113120FD39480F8
:1007B5004006120FDA02089B1217EC0208B1120F5D
:1007C500C16447701F120FF0B45219120FF6B450DE
:1007D50013120FD394804006120FDA02089B121AE7
:1007E500150208B1120FC16450701F120FF0B457F3
:1007F50019120FF6B44D13120FD394804006120F41
:10080500DA02089B1216E10208B1120FC1644E709C
:100815001F120FF0B45419120FF6B45013120FD360
:1008250094804006120FDA02089B121B880208B159
:10083500120FC16453701E120FF0B44C18120FF64C
:10084500B45012120FD394804005120FDA8047126C
:100855001A370208B1120FC16445701D120FF0B4AA
:100865005317120FF6B44311120FD394804005129B
:100875000FDA80221213DE8033120FC16443701E1B
:10088500120FF0B44E18120FF6B44612120FD3948D
:10089500804006120FDA0201FF12179A800E120F1E
:1008A500FC90003F740175F0941201FF120FFC22B9
:1008B500E92407F9E43AFA121072D3EF94FFEE94A3
:0208C50000220F
:1012D40090003F1201701203D6130500FB130D009A
:1012E400FC131500FD131D00FE132501941330019A
:1012F40095133B019613460197135101980000136F
:101304005D12100C754CFB804D12100C754CFC805A
:101314004512100C754CFD803D12100C754CFE806E
:101324003512100C754C01754D94802A12100C75F1
:101334004C01754D95801F12100C754C01754D961E
:10134400801412100C754C01754D97800912100C05
:0A135400754C01754D98120929220D
:061884008B3F8A40894100
:10188A00E4FFFEAB3FE5412405121032BF00010E12
:10189A00EF64084E70EDE4FEFFAB3FE5412402120F
:1018AA001032BF00010EEF64034E70EDAB3FAA4049
:0B18BA00A94190003FE4F5F00201FF9F
:041B1000027100005E
:03005300021BBECF
:091BBE0030EDFDC2ED75090132A4
:0300230002183A86
:10183A00C0E0C0F0C083C082C0D075D000C000C074
:10184A0001C002C003C004C005C006C00730980F1B
:10185A00C298750801E50E6006750E00121ACDD001
:10186A0007D006D005D004D003D002D001D000D0D2
:0A187A00D0D082D083D0F0D0E0324D
:0300730002173E33
:10173E00C0E0C0F0C083C082C0D075D000C000C071
:0D174E0001C002C003C004C005C006C007F2
:10175B0053917F5391BFC3E5729403E571648094F9
:10176B0080400912197F7571007572000572E57260
:04177B007002057182
:10177F00D007D006D005D004D003D002D001D000BE
:0B178F00D0D0D082D083D0F0D0E03268
:101A58006E6F20686179206C7567617220706172A1
:101A680061207368656C6C21210A0053544F500A39
:011A7800006D
:10002600AB3BE53D2425F9E4353CFAAF3EEF33958D
:10003600E0FEEF25E0FFEE33FEE92FF9EA3EFA2275
:07004600AB3BAA3CA93D22DF
:100C2300E4F53E53D9BF7F44FE121120AA06A9075B
:100C33007B018B3B8A3C893D900042E4120123E512
:100C43003D453C453B700B7BFF7A1A7958120929C5
:100C530080FEE4F53E120026E4F5F01201E0053EC5
:100C6300E53EB40CF0E4F50E121BA0121B24121B7C
:100C7300D31219CD121B6A1219F3121B5B121AE459
:100C830012004690004174011201231200469000A5
:100C9300411200B164017026121884120046120F2B
:100CA3000612004690003F12017045F06002800971
:100CB3001200461204A51200461212D480CDE4F5A8
:100CC3003E120026120145FDE53D240DF9E4353CB5
:100CD300FA12003FE5F08DF01201E0053EE53EB467
:100CE3000CDFC2ED75C60875F38343E608D2AFD2B5
:100CF300ACE508601DE4F5F3C2AFF50812004690B9
:100D03000041041201237BFF7A1A79731209290225
:100D13000C8EC2ACE50960D7E4F5091200038F0D10
:100D23008E0C8D0B8C0A120046120D40EF60097B6E
:0D0D3300007A00790A1215461218C580B228
:101A960054696D657230203A20256C750A005469C8
:0C1AA6006D657232203A20256C750A0034
:0B1B95007BFF8F4F8E4E8D4D8C4C223D
:10005600E4F567F568858C69858A6AAF6AAE69AD2D
:0D00660068AC677A1A7996121B9502092979
:101A7900E4F56BF56C85CD6D85CC6EAF6EAE6DAD55
:0D1A89006CAC6B7A1A79A4121B9502092926
:101681002530356C75002B2530346C75002D2530D7
:10169100346C75007365206465746F6E6F20746FB0
:1016A100646F0A006964783A2025690A004144435D
:1016B100304D55583A20307825780A007661723AD3
:1016C1002025690A004144435B25695D3A2025755F
:1016D1000A0041444330434E3A20307825630A00E2
:1014D700F9E43540FAAF42EF3395E0FEEF25E0FF40
:1014E700EE33FEE92FF9EA3EFA22E47B02FAF9F835
:1014F70012022C8F4F8E4E8D4D8C4C7BFF22E4F5C4
:10150700091200038F1D8E1C8D1B8C1A7B007A001D
:10151700791A229000050200B1AB3FAA40A9419079
:1015270000422290003F740175F09622AB42AA4315
:0F153700A94490003F0201FFAB42AA43A94422FE
:10000300E4F51485C51585C41685C3177B367A1A9E
:0D001300F9F8AF17AE16AD15AC141202B718
:0100200022BD
:1011BC008B428A43894475F38012151A1203B011BD
:1011CC00E73011EC3111F53211FF331209341213DF
:1011DC0035121D361227370000123153F4F08051AE
:1011EC00E5F454F004F5F48048E5F454F02402F5E9
:1011FC00F4803EE5F454F02403F5F48034E5F45423
:10120C00F02404F5F4802AE5F454F02405F5F48078
:10121C0020E5F454F02406F5F48016E5F454F0249B
:10122C0007F5F4800C740175F09712153375F38380
:0C123C002275F383E475F0FD12153322D7
:1018C50075F380E5C6540FFFBF0815E5C6B4780863
:1018D50043F41075C6018024741025C6F5C6801C16
:1018E500E5C6540FC394085016E5C6B4670853F40B
:1018F500EF75C6088006742225C6F5C675F38322E2
:061546008B458A4689472F
:10154C00AFC68F48E548540FFFBF080C120370124A
:10155C0014FA7A167981804CE548540FC364809450
:10156C00885044AB45AA46A947120370E47BE27A43
:10157C0004F9F8D312035FAB45AA46A947400C12F5
:10158C0003701214F17A1679878019120390C374C0
:10159C00D89BFF74099AFEE499FDE498FC1214F1AF
:0715AC007A16798E1209295D
:0115B3002215
:060D40008B3F8A4089414F
:100D4600E5C6540FFFE5C6C4540FFEEF75F0081252
:100D56000076ADF0D3ED64809480121520400774C0
:100D6600011200DE8004E41201231215201200B1E4
:100D7600FDC3EE9F24082DF542C36480948C505C1D
:100D8600E9240DF9E43A1214DB120145FDACF04CEE
:100D96007002FF22ED64014C7023AB3FE541242530
:100DA6001214D7120145FDE541240DF9E43540FA48
:100DB6001214EAE5F08DF01201E07F0122AB3FE567
:100DC60041240D1214D7120145D39401E5F0940085
:100DD600404D74FFF5F01201A87F00227BFF7A16C2
:100DE60079951209297BFF7A1679A5AF42EF3395DB
:100DF600E0F54C8F4D1209297BFF7A1679AEAFC606
:100E06008F4C1209291215201200B1FF3395E0F517
:100E16004C8F4D7BFF7A1679BD1209297FFF227F01
:010E260000CB
:010E270022A8
:10145E008B428A438944E92407F9E43AFA1210725E
:10146E008E188F19E4FCFDFBFA7901F8C3120349BB
:10147E00500812153F12152A804B12153F12151ADD
:10148E00FF3395E0FEEF24D0F51FEE34FFF51EC3BB
:10149E00648094804025E51F9408E51E6480948046
:1014AE005019E92425F9E43AFAE51F25E0FFE51E77
:1014BE001214E8E5188519F01201E012153F90009C
:0914CE003FE475F0FB1201FF225E
:10135E008B428A438944E92407F9E43AFA1210725F
:10136E008E188F19AB42AA43A94412151A24CE60C7
:10137E001424FE601824FE601C24067020751E00C6
:10138E00751F08801D751E00751F098015751E00BE
:10139E00751F0A800D751E00751F0B800512152A0C
:1013AE00802AAB42E5442425F9E43543FAE51F25AE
:1013BE00E0FFE51E1214E8E5188519F01201E0AB06
:1013CE0042AA43A94490003FE475F0FC1201FF22AB
:101905008B428A43894412151AFFC454F02408F502
:10191500C6C2EDE4F5FB75F38243E608D2AFE509EF
:1019250060FC121505121546E4F5F3C2AF53E6F750
:0E193500AB42AA43A94490003FF5F00201FF27
:1015B4008B428A43894412151A24CE601424FE6097
:1015C4001824FE601C2406702043F41075C60180A4
:1015D4001D43F41075C623801543F41075C6458069
:1015E4000D43F41075C667800512152A8027C2EDD5
:1015F40075F38243E608D2AFE50960FC12150512C3
:101604001546E4F5F3C2AF53E6F7AB42AA43A94447
:0916140090003FF5F01201FF22E5
:0617EC008B428A43894490
:1017F200E4F545AF45EF3395E0FEF54C8F4DAB4236
:10180200E5442425F9E43543FA1214E3120145F5BF
:101812004F85F04E7BFF7A1679C61209290545C31A
:10182200E5456480948C40CB7BFF7A1679D3AFF484
:08183200EF2430F54C020929F6
:100E2800256C75202B2D313530207270730A000A1D
:100E38004661736520312E2E2E0A004661736520A7
:100E4800322E2E2E0A00417272616E7175652E2E39
:100E58002E0A004E6976656C2065737461626C6554
:100E68000A00726565737461626C656369616E64BA
:100E78006F2076616C6F7265732064656C206D6F8E
:100E8800746F720A00256C750A00636F6E66696775
:100E980075726163696F6E2064656C206D6F746F25
:100EA800722E2E206375616C717569657220746588
:100EB800636C61206861636520746F67676C652087
:100EC800656E206C61206163656C65726163696F32
:100ED8006E20646520302061203130302E20277349
:100EE800272073616C650A0050574D203D2027313B
:0E0EF800270A0050574D203D202730270A00C2
:041B140002658CA03A
:101AFA00C374089545FF74CF9544FE22E4F545F575
:061B0A0044F543F5422200
:101A1500E47F96FEFDFCAB64AA63A962A86112028D
:101A25002C8F4F8E4E8D4D8C4C7BFF7A0E79280274
:021A350009297D
:10197F00E4F55DF55E858C5F858A60AF60AE5FAD27
:10198F005EAC5D8F648E638D628C617D12FC12166E
:06199F001DE4F58CF58A41
:0119A500221F
:10161D008E378F388C398D3AE53A2402FFE435390F
:10162D00FED3E5389FE5379E400A74322566F56690
:10163D00E4121676E53A24FEFFE53934FFFEC3E5E4
:10164D00389FE5379E500B74CE2566F56674FF12F4
:10165D001676AE65AF66E4FCFD7BF07A81F9F8D3C2
:10166D001203494003121B88223565F565AF66FEEE
:04167D00121BC72253
:1016E100D2827FE87E03121AB27BFF7A0E7937121B
:1016F10009297FD812172F7A0E79431209297F748D
:1017010012172F7A0E794E1209297FF07E81121B52
:10171100C77F587E02121AB27BFF7A0E795B1209DB
:10172100297FA07E8C121BC743E680D2AF227EA404
:0D173100121BC77F587E02121AB27BFF22E6
:0D1B880053E67F7FDC7EFF121BC7C2822266
:071BC700EFF5E9EEF5EA225B
:101AB200E4FDFC30D8FDC2D80DBD00010CC3ED9F82
:0B1AC200EE6480F8EC64809840E9229C
:1013DE00E4F545F544F543F542D2827FE87E0312EB
:1013EE001AB27BFF7A0E796A120929E47F307E7574
:1013FE00FDFCAB45AA44A943A842C312035F504A61
:10140E007BFF7A0E798D121AFAE49543FDE495422C
:10141E008F4F8E4E8D4DF54C120929D286121AFA27
:10142E00121BC77F507E00121AB2C286121AB2E584
:10143E004524F4FFE5443401FEE43543FDE4354232
:0F144E008F458E448D43F54280A143E680D2AF97
:01145D00226C
:10179A00121B067BFF7A0E7992120929D282121B3A
:1017AA004AEF6473603BAE44AF45121BC7E4FFFEC9
:1017BA00FDFCAB45AA44A943A842C312035F7BFFC1
:1017CA0070137A0E79F0120929E4F545F544754348
:1017DA0001F54280C97A0E79FB120929121B06808B
:0117EA00BD41
:0117EB0022DB
:03000000021248A1
:0C124800787FE4F6D8FD75817302128FE8
:10007600C2D530F707B2D563F0FF05F030E70CB212
:10008600D5F4048463F0FF05F080018430D502F4D2
:02009600042242
:10009800BB010689828A83E0225002E722BBFE0266
:0900A800E32289828A83E4932299
:1000B100BB010CE58229F582E5833AF583E0225004
:1000C10006E92582F8E622BBFE06E92582F8E2224E
:0D00D100E58229F582E5833AF583E4932268
:1000DE00BB010FF8E58229F582E5833AF583E02826
:1000EE00F0225009C58229F8E58226F622BBFE09C8
:1000FE00C58229F8E22582F222F8EA2583F583E902
:03010E0093282211
:10011100BB010689828A83F0225002F722BBFE01CD
:02012100F322C7
:10012300F8BB010DE58229F582E5833AF583E8F012
:10013300225006E92582C8F622BBFE05E92582C8BE
:02014300F222A6
:10014500BB010A89828A83E0F5F0A3E02250068785
:10015500F009E71922BBFE07E3F5F009E319228947
:0B016500828A83E493F5F0740193227A
:10017000BB0110E58229F582E5833AF583E0F5F0CD
:10018000A3E0225009E92582F886F008E622BBFEAA
:100190000AE92582F8E2F5F008E222E5832AF583F0
:0801A000E993F5F0A3E99322B5
:1001A800BB010789828A83020415500B09C5F02711
:1001B800F7C5F01937F722BBFE0D09F8E325F0F370
:1001C800C5F019E338F322F889828A8374019325EC
:0801D800F0C5F0F8E4933822B1
:1001E000BB010A89828A83F0E5F0A3F0225006F76A
:0F01F00009A7F01922BBFE06F3E5F009F3192267
:1001FF00F8BB0111E58229F582E5833AF583E8F032
:10020F00E5F0A3F0225009E92582C8F608A6F022EE
:0D021F00BBFE09E92582C8F2E5F008F222D5
:10022C00E88FF0A4CC8BF0A42CFCE98EF0A42CFC71
:10023C008AF0EDA42CFCEA8EF0A4CDA8F08BF0A4EF
:10024C002DCC3825F0FDE98FF0A42CCD35F0FCEB4E
:10025C008EF0A4FEA9F0EB8FF0A4CFC5F02ECD3913
:0F026C00FEE43CFCEAA42DCE35F0FDE43CFC2280
:10027B0075F008758200EF2FFFEE33FECD33CDCC3A
:10028B0033CCC58233C5829BED9AEC99E5829840BD
:10029B000CF582EE9BFEED9AFDEC99FC0FD5F0D69A
:1002AB00E4CEFBE4CDFAE4CCF9A88222B800C1B9C4
:1002BB000059BA002DEC8BF084CFCECDFCE5F0CB02
:1002CB00F97818EF2FFFEE33FEED33FDEC33FCEB3B
:1002DB0033FB10D703994004EB99FB0FD8E5E4F9F6
:1002EB00FA227818EF2FFFEE33FEED33FDEC33FCE3
:1002FB00C933C910D7059BE99A4007EC9BFCE99AD7
:10030B00F90FD8E0E4C9FAE4CCFB2275F010EF2F1B
:10031B00FFEE33FEED33FDCC33CCC833C810D7071B
:10032B009BEC9AE899400AED9BFDEC9AFCE899F856
:0E033B000FD5F0DAE4CDFBE4CCFAE4C8F922E9
:10034900EB9FF5F0EA9E42F0E99D42F0EC6480C82B
:0603590064809845F022CB
:10035F00EB9FF5F0EA9E42F0E99D42F0E89C45F0F4
:01036F00226B
:10037000BB010789828A830204375005E9F8020429
:100380002BBBFE05E9F802044389828A8302044FED
:10039000BB010789828A8302046C5005E9F80204D4
:1003A0005FBBFE05E9F802047889828A830204852E
:1003B000D083D082F8E4937012740193700DA3A3DC
:1003C00093F8740193F5828883E4737402936860F0
:0603D000EFA3A3A380DFF0
:1003D600D083D082F8E4937012740193700DA3A3B6
:1003E60093F8740193F5828883E473740293B5F0ED
:0D03F600067403936860E9A3A3A3A380D855
:1008C700E558244CF8E60558227849301002784C50
:1008D700E475F0011204950200982009EB7F2ED2EF
:1008E700098018EF540F2490D43440D4FF300D0BF7
:1008F700EF24BFB41A0050032461FFE559600215C5
:1009070059055CE55C7002055B30100D7849E475AC
:10091700F001120495EF0201110219A67403D21017
:100927008003E4C210F5588B498A4A894BE4F5598C
:10093700F55BF55CE55960077F2012090280F575C4
:100947005AFFC20AC209C20BC20CC20EC20FC211A1
:100957001208D0FF700D3010057F00120913AF5C2D
:10096700AE5B22B4255FC2D5C20D1208D0FF24D0DA
:10097700B40A00501A75F00A785930D50508B6FF41
:100987000106C6A426F620D5047002D20C80D9240D
:10099700CFB41A00EF5004C2E5D20D020B13D20AEE
:1009A70080C6D20980C0D20B80BCD2D580BAD20E05
:1009B70080B47F20120902200B077401B55900404B
:1009C700F11208C7FF12090202093BD211D20F80A8
:1009D700951208C7FB1208C7FA1208C7F94A4B70E5
:1009E7000679E47A0B7BFF200B2EE559602A7E00FF
:1009F7008E827583001200B160060EEE655A70F0A4
:100A0700C2D5EBC0E0EAC0E0E9C0E0EE120B5AD075
:100A1700E0F9D0E0FAD0E0FB120098FF60AAEBC043
:100A2700E0EAC0E0E9C0E0120902D0E02401F9D011
:100A3700E03400FAD0E0FBE55A0460DCD55AD980EF
:100A4700877BFF7A0B7956D20B809C7910800279CD
:100A570008C20FC2118008D2D5790A8004790AC268
:100A6700D5E55A047002F55AE4FAFDFEFF1208C7ED
:100A7700FC7B08200A131208C7FD7B1030090A12F5
:100A870008C7FE1208C7FF7B20EC3382D592D550EA
:100A970013C3E43009069FFFE49EFEE4200A039D8A
:100AA700FDE49CFCE4CBF8C20AEC700CCFCECDCCB5
:100AB700E824F8F870F38017C3EF33FFEE33FEED49
:100AC70033FDEC33FCEB33FB994002FB0FD8E9EB2A
:100AD700300A05F8D0E0C448B20AC0E00AEC4D4E2F
:100AE7004F78207B0070C2EAB55A0040BCC0E012C4
:100AF7000B5CD0F0D0E0200A04C4C0E0C4B20AC046
:100B0700F01208EBD0F0D5F0EB02093B1203B00965
:100B1700D8530A525809A94C09A5420A564F0A5EEA
:0F0B2700440A5E4909BE430A64550A48460A4813
:100B3600450A48470C045009AD2D09B12E09D42B9E
:100B460009B52309D2200BED2A096D48000009CC0E
:100B56003F3F3F00790AA2D5200C14300E09B91088
:100B6600020404B9080104A2D5200F025001042092
:100B76000B68920BB559005034C0E07F20300C1939
:100B86007F30A20B720F720E500F120BB3C20BC244
:100B96000FC20EC2117F30800F300E03E9C0E01283
:100BA6000902300E03D0E0F9D0E0B559CC300E176B
:100BB6007F30B9100C1209027F58300D077F7880FC
:100BC60003B90803120902300B057F2D0209027FC3
:100BD600202011F87F2B200FF322920B80CF286E56
:100BE600756C6C2900D20A1208C7300AF8C20A7856
:100BF6005930D50108F602096D2D5043495812089F
:100C0600C72403B405004001E4900BFF931208F3D8
:0D0C1600743A1208F3D20C755904020A5208
:101B4A0010120B121BB4BF0D027F0A0219A6AF7343
:011B5A002268
:101072008B458A468947AB45AA46A947120098FF85
:10108200121B37500D74012547F547E43546F546E6
:1010920080E4D209AB45AA46A947120098FF642B07
:1010A2006004EFB42D1BAB450547E547AA46700225
:1010B200054614F9120098642D6003D38001C3928F
:1010C20009E4F548F549AB45AA46A947120098FF3D
:1010D200121B795036AB45AA46A947120098FF3336
:1010E20095E0FEEF24D0FBEE34FFFAAE48AF497C28
:1010F200007D0A120403EF2BF549EE3AF54874011C
:101102002547F547E43546F54680BB300906AE482B
:0E111200AF498009C3E49549FFE49548FE22E9
:101120008E3F8F407E007F008F828E83E0FCA3E0A5
:10113000FD4C7003FEFF228D828C83A3A3E0FAA3F3
:10114000E0FBC39540EA953F5008CEECCECFEDCF03
:1011500080D6C3EB9540F542EA953FF541C3E542A1
:101160009410E541940050198D828C83E0FBA3E03C
:101170008F828E83CBF0A3EBF0ED2404FFE43CFEE2
:101180002274FC2542F54274FF3541F5418D828C75
:1011900083A3A3F0A3E542F0ED2404FFE43CFEEFBB
:1011A0002542FFEE3541FE8F82F583A3A3E53FF094
:0C11B000A3E540F0EF2404FFE43EFE2223
:10125400020C23E493A3F8E493A34003F68001F281
:1012640008DFF48029E493A3F85407240CC8C3339B
:10127400C4540F4420C8834004F456800146F6DF6A
:10128400E4800B0102040810204080901B10E47ECF
:10129400019360BCA3FF543F30E509541FFEE4935F
:1012A400A360010ECF54C025E060A840B8E493A326
:1012B400FAE493A3F8E493A3C8C582C8CAC583CA51
:1012C400F0A3C8C582C8CAC583CADFE9DEE780BE09
:011B180000CC
:10040300EF8DF0A4A8F0CF8CF0A428CE8DF0A42E0D
:02041300FE22C7
:10041500C5F0F8A3E028F0C5F0F8E5821582700272
:060425001583E038F0220F
:0C042B00E6FC08E6FD08E6FE08E6FF22FD
:0C043700E0FCA3E0FDA3E0FEA3E0FF2238
:0C044300E2FC08E2FD08E2FE08E2FF22F5
:10044F00E493FC740193FD740293FE740393FF22F3
:0D045F00E6FB08E6F908E6FA08E6CBF8220D
:0C046C00E0F8A3E0F9A3E0FAA3E0FB2213
:0D047800E2FB08E2F908E2FA08E2CBF82204
:10048500E493F8740193F9740293FA740393FB22CD
:10049500FAE6FB0808E6F925F0F618E6CA3AF62268
:1019A600EFB40A07740D1219B1740A309811A89988
:1019B600B8130CC2983098FDA899C298B811F630A1
:0719C60099FDC299F5992279
:0A1BB4003098FDAF99C2987E002220
:0F1B7900EFC394304007EF943A50028001C3222B
:101B3700EFC394094005EF940E4003BF2003D38001
:031B470001C322B5
:0B1B1900480000000000000000000079
:10194300EF4E7008FE7F01ED1D70011C900000EE4C
:10195300F0A3EFF0A3ECF0A3EDF0900000E0FEA302
:10196300E0FFF5828E83E4F0A3F0ED24FCFDEC347C
:0C197300FF8F828E83A3A3F0A3EDF0226F
:00000001FF
