:05004D002530356400C0
:0A1D0B007BFF7A00794D754C03222E
:101C850043E24043A41043A50243A48043A4045364
:031C950080FB22AF
:0A1D010043B20375EF04E4F5A922D4
:101B500043D103E4F5F4F5FB75F708F59B759A3F5F
:101B6000F5BD75C60875F38130EAFD75F380E4FEB6
:021B7000FF2252
:101B2A0043E10143E240E4F5D443A41043F12075B4
:101B3A009810758D96538EF4858D8B53890F438932
:061B4A0020D28ED2992288
:0F1CBC0043E210E4F58CF58A43892543885022D2
:101C590043918043910443E68043F680E4F594F58B
:061C690095F592F59322AF
:041D340043B1202275
:0F1CCB0043E201E4F5D875D90875DACBD2DE22F1
:101B9400121D0B754D201209A4AFA88F71AFE68FEB
:101BA40072E4F5A8F5E6D2ACD2AF750E0143870115
:011BB400220E
:101C4200A2AF92AFA2AC92AC8571A88572E6121DCA
:071C52000B754D210209A4EE
:051D2F002530356400C1
:10107C00900002AB3FAA40A9410200B1AB3FAA408D
:10108C00A941120098D364802290003F740175F03E
:10109C0095229000051200B124D0FFC39400229039
:1010AC0000030200B19000040200B1AB3FAA40A9BA
:1010BC00412290003F740175F096227BFF7A1D79D6
:1010CC002F22F9E43AFAE542FD3395E0FCE92DF9DB
:1010DC00EA3CFAEF120111054222AB3FAA40A941AA
:1010EC0022F9E43540FAE92FF9EA3EFAE41201114B
:1010FC000F22120098FFD36480229000010200B1ED
:10110C009000081200B124D0FEC394002290000677
:10111C000200B1C3EF6480948222120098C36480F1
:01112C0022A0
:060FC1008B3F8A408941CC
:100FC700E4F54290003FF5F0804512107290000161
:100FD700EF1201236478603C121106FFB40A0FE593
:100FE70042700B90003F740375F0E8020266EF64ED
:100FF7000A6021C3E542648094835008E924021201
:1010070010CE80C61210E690003F740175F094125E
:10101700026680B6E4F5421210E6121106640A6011
:101027002E121072900001EF120123640A6020C390
:10103700E54264809488500C121106FFE9240512DA
:1010470010CE80DD1210E612109512026680D212C1
:1010570010E6E5421201111210E6121106640A6049
:0A10670006121CABBF0AFA1210E6D5
:0B10710022121CABAB3FAA40A9412299
:1004FA008B3F8A4089419000021200B1FFB4531A1F
:10050A001210ABB4541490003FE475F0FE12026668
:10051A00900041E412012302092CEF6453600302A4
:10052A0005F51210AB645360030205F51210B164AD
:10053A004560030205F51210FE9485400302070D7B
:10054A00121119FE642C600512111F400612009840
:10055A00FF700302062AEE642C600B12111F40067C
:10056A001210B702064190000612107FB42C0A122C
:10057A0011269483500302064112109E4052EFD373
:10058A009407400302067812108894824011900062
:10059A00071210A14006EFD394094003020678120D
:1005AA0010B71210FE9483400E12110C4006EED3BF
:1005BA0094094003020678D3EF64809484401412AD
:1005CA0010B79000091210A14006EFD39409400316
:1005DA0002067812108894844008120930400302F7
:1005EA0006DF1210B71215BB02092C12107C6453D5
:1005FA0060030206F11210AB644460030206F112B2
:10060A0010B1644960030206F11210FE948540039A
:10061A0002070D121119FE642C601012111F500BE3
:10062A0090003F740175F097020916EE642C60126F
:10063A001211269482400B90003F740175F09802C3
:10064A000916121119B42C121211269483500B9008
:10065A00003F740175F09802091612109E400FEFC0
:10066A00D3940650099000051200B130E00612102A
:10067A00BE020916121088948240149000071210C4
:10068A00A14006EFD3940940061210BE02091612C1
:10069A0010B71210FE9483401112110C4006EED3CB
:1006AA00940940061210BE020916D3EF648094849E
:1006BA0040171210B79000091210A14006EFD39408
:1006CA000940061210BE0209161210889484400EC0
:1006DA0012093040091210B71210BE020916121080
:1006EA00B71214BB02092C12107C64477035121021
:1006FA00AB6453702E1210B16445702712108E9499
:10070A0081400612109502091612109E4006EFD378
:10071A00940740061210BE0209161210B7121A6286
:10072A0002092C12107C644770351210AB644470B5
:10073A002E1210B16449702712108E948640061248
:10074A00109502091612109E4006EFD39406400631
:10075A001210BE0209161210B712171102092C1232
:10076A00107C645370351210AB6447702E1210B1AE
:10077A006441702712108E94814006121095020966
:10078A001612109E4006EFD3940740061210BE02BE
:10079A0009161210B712131902092C12107C644799
:1007AA00701F1210ABB454191210B1B430131210D6
:1007BA008E948040061210950209161200560209FC
:1007CA002C12107C6447701F1210ABB4541912100B
:1007DA00B1B4321312108E94804006121095020999
:1007EA0016121BD602092C12107C645370201210A8
:1007FA00AB644870191210B1B4411312108E948070
:10080A00400612109502091612194902092C1210F3
:10081A007C6447701F1210ABB452191210B1B45055
:10082A001312108E94804006121095020916121B9C
:10083A007202092C12107C6450701F1210ABB4574C
:10084A00191210B1B44D1312108E94804006121072
:10085A009502091612183E02092C12107C644E7079
:10086A001F1210ABB454191210B1B4501312108ED7
:10087A0094804006121095020916121CE902092CEE
:10088A0012107C6453701F1210ABB44C191210B1C1
:10089A00B4501312108E9480400612109502091655
:1008AA00121B9402092C12107C6445701E1210ABA4
:1008BA00B453181210B1B4431212108E948040052A
:1008CA00121095804712153B02092C12107C6443C2
:1008DA00701D1210ABB44E171210B1B4461112109B
:1008EA008E9480400512109580221218F7803312D8
:1008FA00107C6450701E1210ABB450181210B1B4B0
:10090A00501212108E94804006121095020266123E
:10091A0011DB800E1210B790003F740175F094122B
:10092A0002661210B722E92407F9E43AFA12112DE5
:08093A00D3EF94FFEE940022BC
:1014310090003F1201D712043D146200FB146A00B0
:10144100FC147200FD147A00FE14820194148D01C3
:10145100951498019614A3019714AE0198000014F5
:10146100BA1210C7754CFB804D1210C7754CFC8029
:10147100451210C7754CFD803D1210C7754CFE809A
:10148100351210C7754C01754D94802A1210C7751D
:101491004C01754D95801F1210C7754C01754D9605
:1014A10080141210C7754C01754D9780091210C731
:0A14B100754C01754D981209A42234
:0619E1008B3F8A408941A2
:1019E700E4FFFEAB3FE54124051210EDBF00010EF9
:1019F700EF64084E70EDE4FEFFAB3FE541240212B1
:101A070010EDBF00010EEF64034E70EDAB3FAA402F
:0B1A1700A94190003FE4F5F0020266D8
:041C2A000273000041
:03005300021D1F6C
:091D1F0030EDFDC2ED7509013241
:0300230002199728
:10199700C0E0C0F0C083C082C0D075D000C000C016
:1019A70001C002C003C004C005C006C00730980FBD
:1019B700C298750801E50E6006750E00121C42D02C
:1019C70007D006D005D004D003D002D001D000D074
:0A19D700D0D082D083D0F0D0E032EF
:0300730002189BD5
:10189B00C0E0C0F0C083C082C0D075D000C000C013
:0D18AB0001C002C003C004C005C006C00794
:1018B80053917F5391BFC3E5749403E57364809497
:1018C800804009121ADC7573007574000574E5749C
:0418D8007002057322
:1018DC00D007D006D005D004D003D002D001D00060
:0B18EC00D0D0D082D083D0F0D0E0320A
:101BB5006E6F20686179206C756761722070617243
:101BC50061207368656C6C21210A0053544F500ADB
:011BD500000F
:10002600AB3BE53D2425F9E4353CFAAF3EEF33958D
:10003600E0FEEF25E0FFEE33FEE92FF9EA3EFA2275
:07004600AB3BAA3CA93D22DF
:100DBC00E4F53E53D9BF7F44FE12127DAA06A90763
:100DCC007B018B3B8A3C893D900042E4120123E578
:100DDC003D453C453B700B7BFF7A1B79B51209A452
:100DEC0080FEE4F53E120026E4F5F0120247053EC3
:100DFC00E53EB40CF0E4F50E121D01121C85121D1B
:100E0C0034121B2A121CCB121B50121CBC121C5964
:100E1C00120046900041740112012312004690000A
:100E2C00411200B1640170261219E1120046120F32
:100E3C00C112004690003F1201D745F060028009B4
:100E4C001200461204FA12004612143180CDE4F559
:100E5C003E1200261201ACFDE53D240DF9E4353CB3
:100E6C00FA12003FE5F08DF0120247053EE53EB464
:100E7C000CDFC2ED75C60875F38343E608D2AFD21A
:100E8C00ACE508601DE4F5F3C2AFF508120046901E
:100E9C000041041201237BFF7A1B79D01209A402B2
:100EAC000E27C2ACE50960D7E4F5091200038F0DDB
:100EBC008E0C8D0B8C0A120046120ED9EF60097B3A
:0D0ECC00007A00790A1216A3121A2280B2D1
:101BF30054696D657230203A20256C750A0054696A
:0C1C03006D657232203A20256C750A00D5
:0B1CF6007BFF8F4F8E4E8D4D8C4C22DB
:10005600E4F569F56A858C6B858A6CAF6CAE6BAD21
:0D0066006AAC697A1B79F3121CF60209A43A
:101BD600E4F56DF56E85CD6F85CC70AF70AE6FADEB
:0D1BE6006EAC6D7A1C7901121CF60209A488
:1017DE002530356C75002B2530346C75002D253079
:1017EE00346C75007365206465746F6E6F20746F52
:1017FE00646F0A006964783A2025690A00414443FF
:10180E00304D55583A20307825780A007661723A74
:10181E002025690A004144435B25695D3A20257500
:10182E000A0041444330434E3A20307825630A0083
:10163400F9E43540FAAF42EF3395E0FEEF25E0FFE1
:10164400EE33FEE92FF9EA3EFA22E47B02FAF9F8D6
:101654001202938F4F8E4E8D4D8C4C7BFF22E4F5FE
:10166400091200038F1D8E1C8D1B8C1A7B007A00BF
:10167400791A229000050200B1AB3FAA40A941901B
:1016840000422290003F740175F09622AB42AA43B7
:0F169400A94490003F020266AB42AA43A9442238
:10000300E4F51485C51585C41685C3177B367A1A9E
:0D001300F9F8AF17AE16AD15AC1412031EB0
:0100200022BD
:101319008B428A43894475F3801216771204171396
:101329004430134931135232135C3313663413704A
:1013390035137A361384370000138E53F4F0805135
:10134900E5F454F004F5F48048E5F454F02402F58A
:10135900F4803EE5F454F02403F5F48034E5F454C4
:10136900F02404F5F4802AE5F454F02405F5F4801A
:1013790020E5F454F02406F5F48016E5F454F0243D
:1013890007F5F4800C740175F09712169075F383C4
:0C1399002275F383E475F0FD121690221B
:101A220075F380E5C6540FFFBF0815E5C6B4780804
:101A320043F41075C6018024741025C6F5C6801CB7
:101A4200E5C6540FC394085016E5C6B4670853F4AC
:101A5200EF75C6088006742225C6F5C675F3832283
:0616A3008B458A468947D1
:1016A900AFC68F48E548540FFFBF080C1203D71285
:1016B90016577A1779DE804CE548540FC364809435
:1016C900885044AB45AA46A9471203D7E47BE27A7E
:1016D90004F9F8D31203C6AB45AA46A947400C1230
:1016E90003D712164E7A1779E480191203F7C374D7
:1016F900D89BFF74099AFEE499FDE498FC12164EF2
:071709007A1779EB1209A425
:0117100022B6
:060ED9008B3F8A408941B5
:100EDF00E5C6540FFFE5C6C4540FFEEF75F00812B8
:100EEF000076ADF0D3ED6480948012167D400774C8
:100EFF00011200DE8004E412012312167D1200B1EC
:100F0F00FDC3EE9F24082DF542C36480948C505C82
:100F1F00E9240DF9E43A1216381201ACFDACF04C8D
:100F2F007002FF22ED64014C7023AB3FE541242595
:100F3F001216341201ACFDE541240DF9E43540FAE7
:100F4F00121647E5F08DF01202477F0122AB3FE505
:100F5F0041240D1216341201ACD39401E5F0940024
:100F6F00404D74FFF5F012020F7F00227BFF7A17BE
:100F7F0079F21209A47BFF7A187902AF42EF339509
:100F8F00E0F54C8F4D1209A47BFF7A18790BAFC691
:100F9F008F4C1209A412167D1200B1FF3395E0F5A4
:100FAF004C8F4D7BFF7A18791A1209A47FFF227F8D
:010FBF000031
:010FC000220E
:1015BB008B428A438944E92407F9E43AFA12112D44
:1015CB008E188F19E4FCFDFBFA7901F8C31203B0F6
:1015DB00500812169C121687804B12169C12167707
:1015EB00FF3395E0FEEF24D0F51FEE34FFF51EC35D
:1015FB00648094804025E51F9408E51E64809480E8
:10160B005019E92425F9E43AFAE51F25E0FFE51E18
:10161B00121645E5188519F012024712169C900018
:09162B003FE475F0FB1202662297
:1014BB008B428A438944E92407F9E43AFA12112D45
:1014CB008E188F19AB42AA43A94412167724CE600B
:1014DB001424FE601824FE601C24067020751E0068
:1014EB00751F08801D751E00751F098015751E0060
:1014FB00751F0A800D751E00751F0B800512168750
:10150B00802AAB42E5442425F9E43543FAE51F254F
:10151B00E0FFE51E121645E5188519F0120247ABE0
:10152B0042AA43A94490003FE475F0FC12026622E4
:101A62008B428A438944121677FFC454F02408F546
:101A7200C6C2EDE4F5FB75F38243E608D2AFE50991
:101A820060FC1216621216A3E4F5F3C2AF53E6F736
:0E1A9200AB42AA43A94490003FF5F002026661
:101711008B428A43894412167724CE601424FE60DA
:101721001824FE601C2406702043F41075C6018045
:101731001D43F41075C623801543F41075C645800A
:101741000D43F41075C66780051216878027C2ED18
:1017510075F38243E608D2AFE50960FC1216621206
:1017610016A3E4F5F3C2AF53E6F7AB42AA43A9448B
:0917710090003FF5F0120266221F
:061949008B428A43894431
:10194F00E4F545AF45EF3395E0FEF54C8F4DAB42D7
:10195F00E5442425F9E43543FA1216401201ACF59B
:10196F004F85F04E7BFF7A1879231209A40545C3E2
:10197F00E5456480948C40CB7BFF7A187930AFF4C7
:08198F00EF2430F54C0209A41D
:100C9E00256C75202B2D313530207270730A000AA9
:100CAE004661736520312E2E2E0A00466173652033
:100CBE00322E2E2E0A00417272616E7175652E2EC5
:100CCE002E0A004E6976656C2065737461626C65E0
:100CDE000A00726565737461626C656369616E6446
:100CEE006F2076616C6F7265732064656C206D6F1A
:100CFE00746F720A00256C750A00636F6E66696701
:100D0E0075726163696F6E2064656C206D6F746FB0
:100D1E00722E2E206375616C717569657220746513
:100D2E00636C61206861636520746F67676C652012
:100D3E00656E206C61206163656C65726163696FBD
:100D4E006E20646520302061203130302E202773D4
:100D5E00272073616C650A0050574D203D202731C6
:100D6E00270A0050574D203D202730270A00737563
:100D7E006269206F2062616A610A00736574205097
:100D8E007265736963696F6E3A206D3A20783130FF
:100D9E002C206C3A202F31300A0070726573696313
:0E0DAE00696F6E203D2025750A0025750A002C
:081C2E0002678CA00261006452
:101C6F00C374089545FF74CF9544FE22E4F545F5FE
:061C7F0044F543F542228A
:101B7200E47F96FEFDFCAB66AA65A964A863120227
:101B8200938F4F8E4E8D4D8C4C7BFF7A0C799E023B
:021B920009A4A4
:101ADC00E4F55DF55E858C5F858A60AF60AE5FADC9
:101AEC005EAC5D8F668E658D648C637D12FC121707
:061AFC007AE4F58CF58A86
:011B020022C0
:10177A008E378F388C398D3AE53A2402FFE43539B1
:10178A00FED3E5389FE5379E400A74322568F5682E
:10179A00E41217D3E53A24FEFFE53934FFFEC3E528
:1017AA00389FE5379E500B74CE2568F56874FF1292
:1017BA0017D3AE67AF68E4FCFD7BF07A81F9F8D302
:1017CA001203B04003121CE9223567F567AF68FEC1
:0417DA00121D282292
:10183E00D2827FE87E03121C0F7BFF7A0C79AD12E9
:10184E0009A47FD812188C7A0C79B91209A47F7466
:10185E0012188C7A0C79C41209A47FF07E81121DA5
:10186E00287F587E02121C0F7BFF7A0C79D1120949
:10187E00A47FA07E8C121D2843E680D2AF227EA4C8
:0D188E00121D287F587E02121C0F7BFF22C6
:0D1CE90053E67F7FDC7EFF121D28C28222A1
:071D2800EFF5E9EEF5EA22F8
:101C0F00E4FDFC30D8FDC2D80DBD00010CC3ED9F23
:0B1C1F00EE6480F8EC64809840E9223D
:10153B00E4F545F544F543F542D2827FE87E03128C
:10154B001C0F7BFF7A0C79E01209A4E47F307E75C7
:10155B00FDFCAB45AA44A943A842C31203C6504A9B
:10156B007BFF7A0D7903121C6FE49543FDE49542E2
:10157B008F4F8E4E8D4DF54C1209A4D286121C6FD7
:10158B00121D287F507E00121C0FC286121C0FE505
:10159B004524F4FFE5443401FEE43543FDE43542D4
:0F15AB008F458E448D43F54280A143E680D2AF39
:0115BA00220E
:1018F700121C7B7BFF7A0D79081209A4D282121C75
:10190700ABEF6473603BAE44AF45121D28E4FFFEA6
:10191700FDFCAB45AA44A943A842C31203C67BFFFB
:1019270070137A0D79661209A4E4F545F5447543F9
:1019370001F54280C97A0D79711209A4121C7B80C6
:01194700BDE2
:01194800227C
:1011DB00E4F542F5437BFF7A0D797C1209A4121CCE
:1011EB00AB8F42E542B4730122E542B42B0EE562AC
:1011FB002568F568E5613567F567805DE542B42DD7
:10120B000FC3E5689562F568E5679561F5678049F9
:10121B00E54264707043121CAB8F437BFF7A0D79F0
:10122B00891209A4E543B46D0DAE61AF627C007DFC
:10123B000A1201458010E543B46C0FAE61AF627CBE
:10124B00007D0A1201578E618F627BFF7A0D79A8A0
:10125B0085614C85624D1209A47BFF7A0D79B885A7
:10126B00674C85684D1209A4AF68AE67121D280242
:02127B0011E080
:030000000213A543
:0C13A500787FE4F6D8FD7581750213EC2A
:10007600C2D530F707B2D563F0FF05F030E70CB212
:10008600D5F4048463F0FF05F080018430D502F4D2
:02009600042242
:10009800BB010689828A83E0225002E722BBFE0266
:0900A800E32289828A83E4932299
:1000B100BB010CE58229F582E5833AF583E0225004
:1000C10006E92582F8E622BBFE06E92582F8E2224E
:0D00D100E58229F582E5833AF583E4932268
:1000DE00BB010FF8E58229F582E5833AF583E02826
:1000EE00F0225009C58229F8E58226F622BBFE09C8
:1000FE00C58229F8E22582F222F8EA2583F583E902
:03010E0093282211
:10011100BB010689828A83F0225002F722BBFE01CD
:02012100F322C7
:10012300F8BB010DE58229F582E5833AF583E8F012
:10013300225006E92582C8F622BBFE05E92582C8BE
:02014300F222A6
:10014500EF8DF0A4A8F0CF8CF0A428CE8DF0A42ECE
:02015500FE2288
:10015700BC000BBE0029EF8DF084FFADF022E4CC8C
:10016700F875F008EF2FFFEE33FEEC33FCEE9DEC55
:10017700984005FCEE9DFE0FD5F0E9E4CEFD22ED9B
:10018700F8F5F0EE8420D21CFEADF075F008EF2FE5
:10019700FFED33FD4007985006D5F0F222C398FDD6
:0501A7000FD5F0EA2273
:1001AC00BB010A89828A83E0F5F0A3E0225006871E
:1001BC00F009E71922BBFE07E3F5F009E3192289E0
:0B01CC00828A83E493F5F07401932213
:1001D700BB0110E58229F582E5833AF583E0F5F066
:1001E700A3E0225009E92582F886F008E622BBFE43
:1001F7000AE92582F8E2F5F008E222E5832AF58389
:08020700E993F5F0A3E993224D
:10020F00BB010789828A8302046A500B09C5F02754
:10021F00F7C5F01937F722BBFE0D09F8E325F0F308
:10022F00C5F019E338F322F889828A837401932584
:08023F00F0C5F0F8E493382249
:10024700BB010A89828A83F0E5F0A3F0225006F702
:0F02570009A7F01922BBFE06F3E5F009F31922FF
:10026600F8BB0111E58229F582E5833AF583E8F0CA
:10027600E5F0A3F0225009E92582C8F608A6F02287
:0D028600BBFE09E92582C8F2E5F008F2226E
:10029300E88FF0A4CC8BF0A42CFCE98EF0A42CFC0A
:1002A3008AF0EDA42CFCEA8EF0A4CDA8F08BF0A488
:1002B3002DCC3825F0FDE98FF0A42CCD35F0FCEBE7
:1002C3008EF0A4FEA9F0EB8FF0A4CFC5F02ECD39AC
:0F02D300FEE43CFCEAA42DCE35F0FDE43CFC2219
:1002E20075F008758200EF2FFFEE33FECD33CDCCD3
:1002F20033CCC58233C5829BED9AEC99E582984056
:100302000CF582EE9BFEED9AFDEC99FC0FD5F0D632
:10031200E4CEFBE4CDFAE4CCF9A88222B800C1B95C
:100322000059BA002DEC8BF084CFCECDFCE5F0CB9A
:10033200F97818EF2FFFEE33FEED33FDEC33FCEBD3
:1003420033FB10D703994004EB99FB0FD8E5E4F98E
:10035200FA227818EF2FFFEE33FEED33FDEC33FC7B
:10036200C933C910D7059BE99A4007EC9BFCE99A6F
:10037200F90FD8E0E4C9FAE4CCFB2275F010EF2FB4
:10038200FFEE33FEED33FDCC33CCC833C810D707B4
:100392009BEC9AE899400AED9BFDEC9AFCE899F8EF
:0E03A2000FD5F0DAE4CDFBE4CCFAE4C8F92282
:1003B000EB9FF5F0EA9E42F0E99D42F0EC6480C8C4
:0603C00064809845F02264
:1003C600EB9FF5F0EA9E42F0E99D42F0E89C45F08D
:0103D6002204
:1003D700BB010789828A8302048C5005E9F802046D
:1003E70080BBFE05E9F802049889828A830204A487
:1003F700BB010789828A830204C15005E9F8020418
:10040700B4BBFE05E9F80204CD89828A830204DAC7
:10041700D083D082F8E4937012740193700DA3A374
:1004270093F8740193F5828883E473740293686088
:06043700EFA3A3A380DF88
:10043D00D083D082F8E4937012740193700DA3A34E
:10044D0093F8740193F5828883E473740293B5F085
:0D045D00067403936860E9A3A3A3A380D8ED
:10094200E558244CF8E60558227849301002784CD4
:10095200E475F0011204EA0200982009EB7F2ED21E
:10096200098018EF540F2490D43440D4FF300D0B7B
:10097200EF24BFB41A0050032461FFE55960021549
:1009820059055CE55C7002055B30100D7849E47531
:10099200F0011204EAEF020111021B037403D210E8
:1009A2008003E4C210F5588B498A4A894BE4F55911
:1009B200F55BF55CE55960077F2012097D80F575CE
:1009C2005AFFC20AC209C20BC20CC20EC20FC21126
:1009D20012094BFF700D3010057F0012098EAF5CBB
:1009E200AE5B22B4255FC2D5C20D12094BFF24D0E3
:1009F200B40A00501A75F00A785930D50508B6FFC6
:100A02000106C6A426F620D5047002D20C80D92491
:100A1200CFB41A00EF5004C2E5D20D020B8ED20AF7
:100A220080C6D20980C0D20B80BCD2D580BAD20E89
:100A320080B47F2012097D200B077401B559004054
:100A4200F1120942FF12097D0209B6D211D20F80BA
:100A520095120942FB120942FA120942F94A4B70F5
:100A620006795F7A0C7BFF200B2EE559602A7E0007
:100A72008E827583001200B160060EEE655A70F028
:100A8200C2D5EBC0E0EAC0E0E9C0E0EE120BD5D07F
:100A9200E0F9D0E0FAD0E0FB120098FF60AAEBC0C8
:100AA200E0EAC0E0E9C0E012097DD0E02401F9D01B
:100AB200E03400FAD0E0FBE55A0460DCD55AD98074
:100AC200877BFF7A0B79D1D20B809C7910800279D7
:100AD20008C20FC2118008D2D5790A8004790AC2ED
:100AE200D5E55A047002F55AE4FAFDFEFF120942F6
:100AF200FC7B08200A13120942FD7B1030090A12FE
:100B02000942FE120942FF7B20EC3382D592D55076
:100B120013C3E43009069FFFE49EFEE4200A039D0E
:100B2200FDE49CFCE4CBF8C20AEC700CCFCECDCC39
:100B3200E824F8F870F38017C3EF33FFEE33FEEDCD
:100B420033FDEC33FCEB33FB994002FB0FD8E9EBAE
:100B5200300A05F8D0E0C448B20AC0E00AEC4D4EB3
:100B62004F78207B0070C2EAB55A0040BCC0E01248
:100B72000BD7D0F0D0E0200A04C4C0E0C4B20AC04F
:100B8200F0120966D0F0D5F0EB0209B61204170A8A
:100B920053530ACD580A244C0A20420AD14F0AD98B
:0F0BA200440AD9490A39430ADF550AC3460AC330
:100BB100450AC3470C7F500A282D0A2C2E0A4F2BB9
:100BC1000A30230A4D200C682A09E84800000A4728
:100BD1003F3F3F00790AA2D5200C14300E09B9100D
:100BE100020404B9080104A2D5200F025001042017
:100BF1000B68920BB559005034C0E07F20300C19BE
:100C01007F30A20B720F720E500F120C2EC20BC24C
:100C11000FC20EC2117F30800F300E03E9C0E01207
:100C2100097D300E03D0E0F9D0E0B559CC300E1774
:100C31007F30B9100C12097D7F58300D077F788005
:100C410003B9080312097D300B057F2D02097D7F51
:100C5100202011F87F2B200FF322920B80CF286EDA
:100C6100756C6C2900D20A120942300AF8C20A785E
:100C71005930D50108F60209E82D504349581209A7
:100C8100422403B405004001E4900C7A9312096EEA
:0D0C9100743A12096ED20C755904020ACD96
:101CAB0010120B121D15BF0D027F0A021B03AF751D
:011CBB002206
:10112D008B458A468947AB45AA46A947120098FFC9
:10113D00121C98500D74012547F547E43546F546C8
:10114D0080E4D209AB45AA46A947120098FF642B4B
:10115D006004EFB42D1BAB450547E547AA46700269
:10116D00054614F9120098642D6003D38001C392D3
:10117D0009E4F548F549AB45AA46A947120098FF81
:10118D00121CDA5036AB45AA46A947120098FF3318
:10119D0095E0FEEF24D0FBEE34FFFAAE48AF497C6C
:1011AD00007D0A120145EF2BF549EE3AF548740121
:1011BD002547F547E43546F54680BB300906AE4870
:0E11CD00AF498009C3E49549FFE49548FE222E
:10127D008E3F8F407E007F008F828E83E0FCA3E047
:10128D00FD4C7003FEFF228D828C83A3A3E0FAA395
:10129D00E0FBC39540EA953F5008CEECCECFEDCFA5
:1012AD0080D6C3EB9540F542EA953FF541C3E54243
:1012BD009410E541940050198D828C83E0FBA3E0DE
:1012CD008F828E83CBF0A3EBF0ED2404FFE43CFE84
:1012DD002274FC2542F54274FF3541F5418D828C17
:1012ED0083A3A3F0A3E542F0ED2404FFE43CFEEF5D
:1012FD002542FFEE3541FE8F82F583A3A3E53FF036
:0C130D00A3E540F0EF2404FFE43EFE22C4
:1013B100020DBCE493A3F8E493A34003F68001F289
:1013C10008DFF48029E493A3F85407240CC8C3333D
:1013D100C4540F4420C8834004F456800146F6DF0C
:1013E100E4800B0102040810204080901C2AE47E56
:1013F100019360BCA3FF543F30E509541FFEE49301
:10140100A360010ECF54C025E060A840B8E493A3C7
:10141100FAE493A3F8E493A3C8C582C8CAC583CAF2
:10142100F0A3C8C582C8CAC583CADFE9DEE780BEAA
:011C360000AD
:10046A00C5F0F8A3E028F0C5F0F8E582158270021D
:06047A001583E038F022BA
:0C048000E6FC08E6FD08E6FE08E6FF22A8
:0C048C00E0FCA3E0FDA3E0FEA3E0FF22E3
:0C049800E2FC08E2FD08E2FE08E2FF22A0
:1004A400E493FC740193FD740293FE740393FF229E
:0D04B400E6FB08E6F908E6FA08E6CBF822B8
:0C04C100E0F8A3E0F9A3E0FAA3E0FB22BE
:0D04CD00E2FB08E2F908E2FA08E2CBF822AF
:1004DA00E493F8740193F9740293FA740393FB2278
:1004EA00FAE6FB0808E6F925F0F618E6CA3AF62213
:101B0300EFB40A07740D121B0E740A309811A899CA
:101B1300B8130CC2983098FDA899C298B811F63042
:071B230099FDC299F599221A
:0A1D15003098FDAF99C2987E0022BD
:0F1CDA00EFC394304007EF943A50028001C322C9
:101C9800EFC394094005EF940E4003BF2003D3809F
:031CA80001C32253
:0B1C370048000000000000000000005A
:101AA000EF4E7008FE7F01ED1D70011C900000EEEE
:101AB000F0A3EFF0A3ECF0A3EDF0900000E0FEA3A4
:101AC000E0FFF5828E83E4F0A3F0ED24FCFDEC341E
:0C1AD000FF8F828E83A3A3F0A3EDF02211
:00000001FF
