:100AE80050756572746F20302E303A200A005075A8
:100AF8006572746F20302E313A200A005075657285
:100B0800746F20302E323A200A0050756572746F67
:100B180020302E333A200A0050756572746F2030E9
:100B28002E343A200A0050756572746F20302E35C5
:100B38003A200A0050756572746F20302E363A20BC
:100B48000A0050756572746F20302E373A200A00FB
:100B5800455354414D4F5320454E204C412042208F
:020B68000A0081
:04102F0075C6082258
:10080B008E3B8F3CE53B6003020915E53CB40800C9
:10081B004003020915900827F828287302083F02A5
:10082B00086502087702089D0208AE0208D202088A
:10083B00E00209047BFF7A0A79E81200B8E5386414
:10084B00014537700CF537F538F53B753C0102095E
:10085B001E753B00753C0802091E7BFF7A0A79F670
:10086B001200B8753B00753C1802091E7BFF7A0B12
:10087B0079041200B8E53864014537700CF537F58B
:10088B0038F53B753C2302091E753B00753C28026D
:10089B00091E7BFF7A0B79121200B8753B00753C71
:1008AB003880707BFF7A0B79201200B8E538640131
:1008BB004537700BF537F538F53B753C458054756E
:1008CB003B00753C48804C753B00753C587BFF7A70
:1008DB000B792E803B7BFF7A0B793C1200B8E53805
:1008EB0064014537700BF537F538F53B753C678080
:1008FB0022753B00753C68801A7BFF7A0B794A1294
:10090B0000B8753B00753C7880097BFF7A0B7958F2
:07091B001200B8853CC62262
:0A10010043A41075E10175E24022DE
:0710280043B20375EF04223F
:100E870043D103E4F5F4F5FB75F708759B03759AF1
:100E9700BFF5BD75C60875F38130EAFD43E60875F1
:060EA700F380E4FEFF22CF
:100F3C00759810758D96538EF4438E08858D8B5352
:0D0F4C00890F438920D28ED299E4FEFF2246
:04103300E4FEFF22B6
:04103700E4FEFF22B2
:04103B00E4FEFF22AE
:04103F00E4FEFF22AA
:100BEA00766F6C74616A653A2025386C64206D569C
:100BFA000A0063617267756520756E203120656E23
:100C0A00206C6120706F7363696F6E3A2025630AE6
:100C1A0000456C2076616C6F72206E756D65726925
:100C2A00636F2065733A202568690A0025640A0003
:100C3A00456E7472652061636120616C20656C7316
:100C4A00652069662E200A006C612062616E646507
:0C0C5A007261206573203A2025640A00B6
:080F9100020C00000210000038
:100F190030EDFDC2EDE4F50885C50985C40A85C330
:100F29000B7B367A1AF9F8AF0BAE0AAD09AC081289
:020F390006EBC5
:010F3B002293
:100FDF007BFF7A0B79EA8F468E458D448C43020056
:010FEF00B849
:100DF0008F3F7BFF7A0B79FC853F431200B8AF3FF2
:100E0000EF3395E0FEEF24D0F513EE34FFF5127BBF
:100E1000FF7A0C791BF5438513441200B8E51325BE
:0A0E2000E02427F87600087601228E
:100D4B008F3F7BFF7A0B79FC853F431200B8AF3F97
:100D5B00EF3395E0FEEF24D0F513EE34FFF5127B65
:100D6B00FF7A0C791BF5438513441200B8E5132564
:100D7B00E02427F87600087602E4F50EF50F7BFFEA
:100D8B007A0C7936E50F25E02427F8E6F54308E6DB
:100D9B00F5441200B8050FE50F7002050EC3940859
:090DAB00E50E6480948040D6221C
:100C6600D3E5119407E510648094804005E4F510FF
:100C7600F511E51125E02427F8E6FC08E6FD6401F8
:100C86004C700C0511E5117002051024FF8033ED40
:100C960064024C70347BFF7A0C793A1200B87537CF
:100CA600007538017BFF7A0C7952853743853844C5
:100CB6001200B874022511F511E43510F510E5118E
:100CC60024FEFFE51034FFFE220511E511709105A3
:030CD60010808DFE
:1003B2000A204D656EC3BA20646520636F6E66695C
:1003C2006775726163696F6E0A00312E20436F6E2A
:1003D2006669677572616369C3B36E2064652041A3
:1003E20044430A00322E204D6F646F7320646520EF
:1003F2007472616E736D6973696F6E2064652064D7
:1004020061746F730A00332E205469706F20646523
:1004120020636F6D756E69636163696F6E207365CA
:100422007269616C0A00342E2047756172646172D0
:10043200206C6120636F6E66696775726163696FB4
:100442006E0A00352E2053616C6972206520696E38
:1004520069636961720A000A312E20436F6E666910
:1004620067757261722070696E7320656E206D6FA0
:10047200646F2073696E676C652D656E6465640ACE
:1004820000322E20436F6E6669677572617220704A
:10049200696E7320656E206D6F646F206469666596
:1004A20072656E6369616C0A00332E20436F6E665B
:1004B2006967757261722067616E616E6369610A54
:1004C20000342E20566F6C76657220616C206D654B
:1004D2006E7520616E746572696F720A000A496EE8
:1004E200677265736172206C6F73206E756D6572D1
:1004F2006F73206465206C6F732070696E65732062
:10050200736570617261646F7320706F72206C61C9
:10051200207465636C612027656E746572270A001A
:10052200416C207465726D696E61722C20696E6710
:1005320072657365206C61207465636C612027723B
:10054200270A000A496E6772657361722C2064651E
:10055200206120646F732C206C6F73207061726550
:1005620073206465206C6F732070696E65732064FC
:10057200657361646F732C207365706172616E6460
:100582006F206C6F7320677275706F7320636F6E6C
:10059200206C61207465636C612027656E746572DE
:1005A200270A000A312E20506F7220706574696329
:1005B200696F6E20646520646973706F7369746912
:1005C200766F2065787465726E6F0A00322E20464F
:1005D2006C756A6F20636F6E7374616E74650A0066
:1005E200332E20506F722076656E63696D69656E79
:1005F200746F2064652074656D706F726172697AC0
:1006020061646F720A000A312E2052533233320A69
:1006120000322E2049324320286E6F20696D706CA3
:10062200656D656E7461646F290A000A00436F6C20
:100632006F636172206C612067616E616E636961D4
:100642002071756520736520717569657265206119
:10065200706C696361722C0A006C6F732076616C36
:100662006F7265732061646D697469646F7320735E
:100672006F6E3A200A0031297831202032297832EF
:100682002020332978342020342978382020352935
:1006920078313620203629783332202037297836AF
:0D06A200342020382978313238202E0A000B
:100E2A007BFF7A0379B21200B87BFF7A0379CC127E
:100E3A0000B87BFF7A0379E61200B87BFF7A04795F
:100E4A00081200B87BFF7A0479281200B87BFF7A6F
:060E5A000479450200B816
:100EAD007BFF7A0479591200B87BFF7A047983129B
:100EBD0000B87BFF7A0479AB1200B87BFF7A047916
:040ECD00C30200B8A4
:100FA9007BFF7A0479DF1200B87BFF7A0579220288
:020FB90000B87E
:100FBB007BFF7A0579451200B87BFF7A057922020F
:020FCB0000B86C
:100ED1007BFF7A0579A51200B87BFF7A0579CE12DE
:100EE10000B87BFF7A0579E21200B87BFF7A0479BA
:040EF100C30200B880
:100FCD007BFF7A0679081200B87BFF7A0679130247
:020FDD0000B85A
:100EF5007BFF7A06792D1200B87BFF7A06792F12CF
:100F050000B87BFF7A06795B1200B87BFF7A067919
:040F1500780200B8A6
:100B6A0064656661756C7421210A0047616E616E65
:100B7A006369612078312E0A0047616E616E63698C
:100B8A00612078322E0A0047616E616E63696120C6
:100B9A0078342E0A0047616E616E63696120783885
:100BAA002E0A0047616E616E636961207831362EC4
:100BBA000A0047616E616E636961207833322E0ADA
:100BCA000047616E616E636961207836342E0A00CF
:100BDA0047616E616E63696120783132382E0A008E
:040F9900021400013D
:100CD900753C00753D01E53D453C6065120E2A12E3
:100CE9000FF08F3B120FF0BF0AFAE53B24CE6035B7
:100CF9001460371460E014603624047039120EADA4
:100D0900120FF08F3B120FF0BF0AFAE53B24CE60B9
:100D19000C14600E2402700D120F598008120F7501
:100D29008003120922120ED180AC120FCD80A7E4E4
:100D3900F53CF53D80A07BFF7A0B796A1200B880FB
:010D49009514
:010D4A002286
:100F5900120FA9120FF08F3E120FF0BF0AFAE53EE9
:0B0F690064726007AF3E120DF080E8DC
:010F7400225A
:100F7500120FBB120FF08F3E120FF0BF0AFAE53EBB
:0B0F850064726007AF3E120D4B80E865
:010F9000223E
:10092200120EF5120FF0EF14B4080040030209BFD3
:1009320090094075F003A4C58325F0C583730209AD
:100942005802096502097202097F02098C0209999B
:100952000209A60209B37BFF7A0B79751200B8E48B
:10096200F5F4227BFF7A0B79831200B875F4012229
:100972007BFF7A0B79911200B875F402227BFF7A21
:100982000B799F1200B875F403227BFF7A0B79ADC5
:100992001200B875F404227BFF7A0B79BC1200B8FE
:1009A20075F405227BFF7A0B79CB1200B875F40639
:0D09B200227BFF7A0B79DA1200B875F4078A
:0109BF002215
:0300530002101F79
:09101F0030EDFDC2ED7522013235
:0A100B0061616161616161200A000A
:1000030053D9BF7F087E001209C08E378F38121074
:1000130028121001120F3C120E877BFF7A10790B06
:100023001200B8120CD9C2ED75F383D2AFE522608A
:10003300FCE4F522120F198F268E258D248C2312B2
:0E0043000FDF120C668E398F3A12080B80DF29
:03000000020A5C95
:0C0A5C00787FE4F6D8FD758153020AA3F0
:1006AF0075F008758200EF2FFFEE33FECD33CDCC02
:1006BF0033CCC58233C5829BED9AEC99E582984085
:1006CF000CF582EE9BFEED9AFDEC99FC0FD5F0D662
:1006DF00E4CEFBE4CDFAE4CCF9A88222B800C1B98C
:1006EF000059BA002DEC8BF084CFCECDFCE5F0CBCA
:1006FF00F97818EF2FFFEE33FEED33FDEC33FCEB03
:10070F0033FB10D703994004EB99FB0FD8E5E4F9BD
:10071F00FA227818EF2FFFEE33FEED33FDEC33FCAA
:10072F00C933C910D7059BE99A4007EC9BFCE99A9E
:10073F00F90FD8E0E4C9FAE4CCFB2275F010EF2FE3
:10074F00FFEE33FEED33FDCC33CCC833C810D707E3
:10075F009BEC9AE899400AED9BFDEC9AFCE899F81E
:0E076F000FD5F0DAE4CDFBE4CCFAE4C8F922B1
:10005600E54F2443F8E6054F2278403007027843FF
:10006600E475F0011207D502077D2000EB7F2ED242
:10007600008018EF540F2490D43440D4FF30040B82
:10008600EF24BFB41A0050032461FFE55060021547
:10009600500553E5537002055230070D7840E4755C
:1000A600F0011207D5EF0207C3020E607403D207F0
:1000B6008003E4C207F54F8B408A418942E4F5503C
:1000C600F552F553E55060077F2012009180F575D3
:1000D60051FFC201C200C202C203C205C206C20863
:1000E60012005FFF700D3007057F001200A2AF53AC
:1000F600AE5222B4255FC2D5C20412005FFF24D0DF
:10010600B40A00501A75F00A785030D50508B6FFC3
:100116000106C6A426F620D5047002D20380D9248F
:10012600CFB41A00EF5004C2E5D2040202A2D201F3
:1001360080C6D20080C0D20280BCD2D580BAD20599
:1001460080B47F201200912002077401B550004050
:10015600F1120056FF1200910200CAD208D20680A0
:1001660095120056FB120056FA120056F94A4B70C9
:100176000679737A037BFF20022EE550602A7E0003
:100186008E8275830012079660060EEE655170F03A
:10019600C2D5EBC0E0EAC0E0E9C0E0EE1202E9D069
:1001A600E0F9D0E0FAD0E0FB12077DFF60AAEBC0D1
:1001B600E0EAC0E0E9C0E0120091D0E02401F9D005
:1001C600E03400FAD0E0FBE5510460DCD551D9807B
:1001D600877BFF7A0279E5D202809C7910800279CA
:1001E60008C206C2088008D2D5790A8004790AC2F4
:1001F600D5E551047002F551E4FAFDFEFF120056F2
:10020600FC7B08200113120056FD7B1030000A12F9
:100216000056FE120056FF7B20EC3382D592D55055
:1002260013C3E43000069FFFE49EFEE42001039D15
:10023600FDE49CFCE4CBF8C201EC700CCFCECDCC37
:10024600E824F8F870F38017C3EF33FFEE33FEEDC2
:1002560033FDEC33FCEB33FB994002FB0FD8E9EBA3
:10026600300105F8D0E0C448B201C0E00AEC4D4EBA
:100276004F78207B0070C2EAB5510040BCC0E01246
:1002860002EBD0F0D0E0200104C4C0E0C4B201C04B
:10029600F012007AD0F0D5F0EB0200CA1207E501A1
:1002A600675301E15801384C01344201E54F01ED35
:0F02B6004401ED49014D4301F35501D74601D7EE
:1002C5004501D747039350013C2D01402E01632B77
:1002D500014423016120037C2A00FC480000015BE6
:1002E5003F3F3F00790AA2D5200314300509B91014
:1002F500020404B9080104A2D52006025001042015
:1003050002689202B550005034C0E07F20300319D6
:100315007F30A20272067205500F120342C202C25A
:1003250006C205C2087F30800F300503E9C0E01220
:100335000091300503D0E0F9D0E0B550CC30051779
:100345007F30B9100C1200917F583004077F7880F8
:1003550003B908031200913002057F2D0200917F39
:10036500202008F87F2B2006F322920280CF286EEA
:10037500756C6C2900D2011200563001F8C2017863
:100385005030D50108F60200FC2D504349581200A3
:10039500562403B405004001E490038E93120082B5
:0D03A500743A120082D2037550040201E187
:100FF00010090B121015BF0D027F0A020E60AF160A
:0110000022CD
:1009C0008E3B8F3C7E007F008F828E83E0FCA3E015
:1009D000FD4C7003FEFF228D828C83A3A3E0FAA35B
:1009E000E0FBC3953CEA953B5008CEECCECFEDCF73
:1009F00080D6C3EB953CF53EEA953BF53DC3E53E1D
:100A00009410E53D940050198D828C83E0FBA3E0A7
:100A10008F828E83CBF0A3EBF0ED2404FFE43CFE49
:100A20002274FC253EF53E74FF353DF53D8D828CEC
:100A300083A3A3F0A3E53EF0ED2404FFE43CFEEF26
:100A4000253EFFEE353DFE8F82F583A3A3E53BF007
:0C0A5000A3E53CF0EF2404FFE43EFE228E
:100A6800020003E493A3F8E493A34003F68001F2A1
:100A780008DFF48029E493A3F85407240CC8C3338F
:100A8800C4540F4420C8834004F456800146F6DF5E
:100A9800E4800B0102040810204080900F91E47E4E
:100AA800019360BCA3FF543F30E509541FFEE49353
:100AB800A360010ECF54C025E060A840B8E493A31A
:100AC800FAE493A3F8E493A3C8C582C8CAC583CA45
:100AD800F0A3C8C582C8CAC583CADFE9DEE780BEFD
:010F9D000053
:10077D00BB010689828A83E0225002E722BBFE027A
:09078D00E32289828A83E49322AD
:10079600BB010CE58229F582E5833AF583E0225018
:1007A60006E92582F8E622BBFE06E92582F8E22262
:0D07B600E58229F582E5833AF583E493227C
:1007C300BB010689828A83F0225002F722BBFE0115
:0207D300F3220F
:1007D500FAE6FB0808E6F925F0F618E6CA3AF62225
:1007E500D083D082F8E4937012740193700DA3A3A3
:1007F50093F8740193F5828883E4737402936860B7
:06080500EFA3A3A380DFB6
:100E6000EFB40A07740D120E6B740A309811A8992A
:100E7000B8130CC2983098FDA899C298B811F630F2
:070E800099FDC299F59922CA
:0A1015003098FDAF99C2987E0022CA
:0B0F9E00480000000000000000000000
:100DB400EF4E7008FE7F01ED1D70011C900000EEE7
:100DC400F0A3EFF0A3ECF0A3EDF0900000E0FEA39D
:100DD400E0FFF5828E83E4F0A3F0ED24FCFDEC3417
:0C0DE400FF8F828E83A3A3F0A3EDF0220A
:00000001FF
