:10102E0050756572746F20302E303A200A0050755C
:10103E006572746F20302E313A200A005075657239
:10104E00746F20302E323A200A0050756572746F1C
:10105E0020302E333A200A0050756572746F20309E
:10106E002E343A200A0050756572746F20302E357A
:10107E003A200A0050756572746F20302E363A2071
:10108E000A0050756572746F20302E373A200A00B0
:10109E00455354414D4F5320454E204C4120422044
:0210AE000A0036
:04149A0075C60822E9
:10079F008B258A2689271200D0FFAEF0E5F0600383
:1007AF000208F3EFB4080040030208F39007C2F801
:1007BF002828730207DA02080B02082102085202E6
:1007CF0008680208970208AC0208DB7BFF7A1079F1
:1007DF002E1204A5E543640145427013F542F5431B
:1007EF0043F410AB25AA26A92775F0010208EEAB3A
:1007FF0025AA26A927E475F0080208EE7BFF7A10D8
:10080F00793C1204A5AB25AA26A927E475F0180296
:10081F0008EE7BFF7A10794A1204A5E5436401457F
:10082F00427013F542F54343F410AB25AA26A927CE
:10083F0075F0230208EEAB25AA26A927E475F02848
:10084F000208EE7BFF7A1079581204A5AB25AA2671
:10085F00A927E475F0380208EE7BFF7A107966124B
:10086F0004A5E543640145427012F542F54343F494
:10087F0010AB25AA26A92775F0458063AB25AA26BC
:10088F00A927E475F0488057AB25AA26A927E47558
:10089F00F0581201807BFF7A107974804D7BFF7ABC
:1008AF001079821204A5E543640145427012F542A6
:1008BF00F54343F410AB25AA26A92775F067801FCF
:1008CF00AB25AA26A927E475F06880137BFF7A1061
:1008DF0079901204A5AB25AA26A927E475F0781202
:1008EF00018080097BFF7A10799E1204A5AB25AA9F
:0908FF0026A9271200D0F5C6223B
:0A14760043A41075E10175E2402265
:0714930043B20375EF0422D0
:10138B0043D103E4F5F4F5FB75F708759B03759AE8
:10139B00BFF5BD75C60875F38130EAFD43E60875E8
:0613AB00F380E4FEFF22C6
:1013F800759810758D96538EF4438E08858D8B5392
:0D140800890F438920D28ED299E4FEFF2285
:100C34004D4D4C3E000A41434B203230313A207036
:100C4400696E20256320636F6E66696775726164DF
:100C54006F20657869746F73616D656E7465206566
:100C64006E206D6F646F2073696E676C655F656E6F
:100C74006465640A000A41434B203230323A2070E2
:100C8400696E6573202563207920256320636F6E68
:100C9400666967757261646F7320657869746F73D0
:100CA400616D656E746520656E206D6F646F206480
:100CB40069666572656E6369616C0A000A45525221
:100CC4004F52203430343A20636F6D616E646F206C
:100CD4006E6F20656E636F6E747261646F0A000AD2
:100CE4004552524F52203430353A2064656D617359
:100CF4006961646F7320617267756D656E746F737B
:050D04000A0025630058
:060A4F008B258A26892791
:100A5500E4F5287BFF7A0C79341204A5121455AB02
:100A650025AA26A927900001EF1200AE642C604349
:100A750090000112006FFF640A6038C3E5286480A6
:100A85009483501CE92402F9E43AFAE528FD3395EC
:100A9500E0FCE92DF9EA3CFAEF12009C052880BC40
:100AA500AB25AA26A92790000E740175F0941201B2
:100AB5009F80A9E4F528AB25AA26A9279000011255
:100AC500006F640A6053121455AB25AA26A9279016
:100AD5000001EF1200AE640A603FC3E5286480940C
:100AE50084502390000112006FFFE92405F9E43AD0
:100AF500FAE528FD3395E0FCE92DF9EA3CFAEF1219
:100B0500009C052880C0AB25AA26A92790000E7455
:100B15000175F09512019F80ADAB25AA26A927E5A1
:100B25002812009CAB25AA26A927120056D364805B
:100B35009487401090000112006F640A6006121439
:100B450055BF0AFAAB25AA26A92790000E1200FB6D
:080B550045F07B007A007900F5
:010B5D002275
:060003008B258A268927E7
:10000900E4FFFEAB25E5272405F9E43526FAE92FB7
:10001900F9EA3EFAE412009C0FBF00010EEF6404F6
:100029004E70E0E4FEFFAB25E5272402F9E435260E
:10003900FAE92FF9EA3EFAE412009C0FBF00010E1B
:06004900EF64034E70E0BD
:01004F00228E
:100D09008B258A26892790000212006FFFB453149D
:100D190090000312006FB4540B900010740112007C
:100D2900AE020DD0EF6453703790000312006F6468
:100D390053702D90000412006FB44524120056B46C
:100D4900011CC002C001E5272405F9E435268525E3
:100D59002BF52C892DD001D0021211C8806980464B
:100D6900AB25AA26A92790000212006F645370468A
:100D790090000312006F6444703C90000412006FED
:100D8900B44933120056B4011DC003C002C001E9C1
:100D99002405F9E43A8B2BF52C892DD001D002D00A
:100DA900031212598021AB25AA26A92790000E7497
:100DB9000175F095800EAB25AA26A92790000E741F
:0E0DC9000175F09412019FAB25AA26A92722DE
:1010B0008B258A26892790000E1200FB12035410FC
:1010C000D300C910EA00CA11040194110D01950062
:1010D000001116AB25AA26A92790000512006FF56E
:1010E0002C7BFF7A0C79391204A5AB25AA26A927F7
:1010F00090000512006FF52C04F52D7BFF7A0C791A
:10110000791204A57BFF7A0C79C01204A57BFF7AC3
:071110000C79E31204A52293
:060FA5008B1A8A1B891C57
:100FAB00E4F51DF51EAB1AE51C2402F9E4351BFA1A
:100FBB00E9251EF9EA351DFA120056F52C7BFF7A4E
:100FCB000D79061204A5051EE51E7002051DC394BE
:100FDB0003E51D6480948040CCE4F51DF51EAB1A2F
:100FEB00AA1BA91C120056FF3395E0FEC3E51E9FFA
:100FFB00EE6480F8E51D6480985027E92405F9E438
:10100B003AFAE9251EF9EA351DFA120056F52C7B42
:10101B00FF7A0D79061204A5051EE51E70C0051D8D
:02102B0080BC87
:01102D0022A0
:0300530002148A0A
:09148A0030EDFDC2ED753D0132AB
:100B5E00E453D9BF7F11FE120E7DAA06A907752296
:100B6E00018A2389247F087E00120E7DAA06A9071A
:100B7E007B01C003C002C001AB22AA23A9249000AE
:100B8E00091202FBE4FFAB22AA23A924900009124A
:100B9E0002CBEFFD3395E08D82F583E41200AE0FAC
:100BAE00BF08E31214931214761213F812138BABC0
:100BBE0022AA23A92490001074011200AEAB22AA1F
:100BCE0023A92490001012006FB40120120A4FAB1B
:100BDE0022AA23A924120D09AB22AA23A9241200AA
:100BEE0003AB22AA23A9241210B080D1C2ED75F353
:100BFE0083D2AFE53D60FCE4F53D1213D58F418EF7
:100C0E00408D3F8C3E7B007A00793E121415AB224C
:100C1E00AA23A924120DD78E448F457B007A007922
:060C2E004412079F80CD77
:10131200A2AF9209C2AF75FF8075EF028F828E83F2
:1013220075B7A575B7F1438F0175FF8075EF02EDB3
:08133200F0538FFEA20992AFF7
:01133A002290
:10144300A2AF920AC2AF8F828E83E493FFA20A9265
:01145300AFE9
:011454002275
:10133B00A2AF920BC2AF75FF8075EF028F828E83C7
:10134B0075B7A575B7F1438F0375FF8075EF02E491
:08135B00F0538FFCA20B92AFCE
:011363002267
:080908008E088F098C0A8D0B8B
:10091000751202751300E51324FFFFE51234FFFE84
:10092000EFF4FFEEF4FE5508F50CE5095FF50D2533
:1009300013CDE50C3512CD24FFF50FED34FFF50E88
:10094000E509250BFDE508350A5EF510ED5FF511AB
:100950002513CFE5103512CF24FFCF34FFFEE50F6E
:100960006F7003E50E6E705EFF7E1A12133B12115C
:1009700017E42509FFE508341AFEC3EF950DFFEED5
:10098000950CFEE50B2FF515E50A3EF514E5092556
:100990000BF517E508350AF516C3E50F9509FFE5D0
:1009A0000E9508FEC3EF950BFFEE950ACF2401F5D7
:1009B00019E43F12112EAF0DAE0C12133B850C142F
:1009C000850D15020A3B7F007E1A12133B12111788
:1009D000AF0DAE0C12133B850C14850D1575161A50
:1009E000751700851218851319AA181211317F0086
:1009F0007E1A12133BC3E50F9509CFE50E9508CF7C
:100A00002401CF3400FEC3E50B9FFFE50A9EFEE400
:100A10002FF515EE341AF514E5112FF517E5103EF4
:100A2000F516C3E5139FF519E5129E12112EAF11AD
:100A3000AE1012133B85101485111575161A751713
:0E0A400000851218851319AB19AA181211336C
:010A4E002285
:1013B1008E718F728B738A748975AD77AC761209D1
:1013C10008AB73AA74A97585764B85774CAF72AE5D
:0413D1007102121281
:0A1212008E468F478B488A49894AAF
:10121C0085464D85474EE547254CFFE546354BFE4B
:10122C00C3E54E9FE54D9E5023AB48054AE54AAABF
:10123C00497002054914F9120056FDAF4EAE4D121D
:0C124C001312054EE54E70CE054D80CA11
:011258002273
:0A117E008B4F8A5089518C528D531B
:10118800E4F556F557C3E5579555E5569554502956
:10119800E5532557FFE5523556FE121443AB4F056C
:1011A80051E551AA507002055014F9EF12009C0540
:0F11B80057E55770D0055680CCAB4FAA50A951C0
:0111C7002205
:1011170075141A751500850C16850D17C3E5099505
:101127000DF519E508950CF518FAAB19AD17AC16BE
:04113700AF15AE142E
:0C113B008E618F628C638D648A658B6608
:10114700E4F567F568C3E5689566E5679565502634
:10115700E5642568FFE5633567FE121443AD07E5CF
:10116700622568FFE5613567FE1213120568E568B9
:0611770070D3056780CF74
:01117D00224F
:0412DA008E588F5942
:1012DE00E4F55FF560AE5FAF60E4FCFDAB5DAA5C6C
:1012EE00A95BA85AD312029A4019E5592560FFE569
:1012FE0058355FFEAD5E1213120560E56070D605BF
:03130E005F80D22B
:0113110022B9
:1013D50030EDFDC2EDE4F57885C57985C47A85C320
:1013E5007B7B367A1AF9F8AF7BAE7AAD79AC781299
:0213F5000208EC
:0113F70022D3
:10146600766F6C74616A653A202575206D560A00A0
:08142F0002690000026D0000DB
:101415008B258A2689271202AB8F2F8E2E8D2D8C38
:0A1425002C7BFF7A1479660204A5FF
:0611C8008B288A29892A08
:1011CE00E4F52EF52FAB2BAA2CA92D120056FF33CA
:1011DE0095E0FEEF24D0F570EE34FFF56FAB28AA44
:1011EE0029A92A9000091202CB857082856F83741B
:1011FE00011200AEAB28AA29A92A90000EE475F0C0
:04120E00C902019F71
:101259008B288A29892AAB2BAA2CA92D120056FF83
:101269003395E0FEEF24D0F570EE34FFF56FAB282F
:10127900AA29A92A9000091202CB857082856F8359
:1012890074021200AEAB28AA29A92A90000EE475AF
:05129900F0CA02019FF4
:100DD7008B258A268927AB25AA26A92790000C12DE
:100DE70000FBD39407E5F064809480400990000CE1
:100DF700E4F5F012019F9000091202CBC003C00274
:100E0700C001AB25AA26A92790000C1200FBD00130
:100E1700D002D003F58285F08312006FFDB4011A6A
:100E2700AB25AA26A92790000CE475F0011201331F
:100E370090000C1200FB24FF8022EDB402257542BE
:100E470000754301AB25AA26A92790000CE475F08D
:100E57000212013390000C1200FB24FEFFE5F03470
:100E6700FFFE22AB25AA26A92790000CE475F00106
:060E7700120133020DDD43
:03000000020F19D3
:0C0F1900787FE4F6D8FD75817B020F6044
:10005600BB010689828A83E0225002E722BBFE02A8
:09006600E32289828A83E49322DB
:10006F00BB010CE58229F582E5833AF583E0225046
:10007F0006E92582F8E622BBFE06E92582F8E22290
:0D008F00E58229F582E5833AF583E49322AA
:10009C00BB010689828A83F0225002F722BBFE0143
:0200AC00F3223D
:1000AE00F8BB010DE58229F582E5833AF583E8F088
:1000BE00225006E92582C8F622BBFE05E92582C834
:0200CE00F2221C
:1000D000BB010A89828A83E0F5F0A3E022500687FB
:1000E000F009E71922BBFE07E3F5F009E3192289BD
:0B00F000828A83E493F5F074019322F0
:1000FB00BB0110E58229F582E5833AF583E0F5F043
:10010B00A3E0225009E92582F886F008E622BBFE1F
:10011B000AE92582F8E2F5F008E222E5832AF58365
:08012B00E993F5F0A3E993222A
:10013300BB010DC58229C582C5833AC583020381EC
:100143005011C58229F808E5F026F618F5F0E58286
:1001530036F622BBFE11C58229F808E225F0F5F038
:10016300F218E23582F222F8E58229F582E5832A44
:0D017300F58374019325F0F5F0E493382234
:10018000BB010A89828A83F0E5F0A3F0225006F7CA
:0F01900009A7F01922BBFE06F3E5F009F31922C7
:10019F00F8BB0111E58229F582E5833AF583E8F092
:1001AF00E5F0A3F0225009E92582C8F608A6F0224F
:0D01BF00BBFE09E92582C8F2E5F008F22236
:1001CC0075F008758200EF2FFFEE33FECD33CDCCEA
:1001DC0033CCC58233C5829BED9AEC99E58298406D
:1001EC000CF582EE9BFEED9AFDEC99FC0FD5F0D64A
:1001FC00E4CEFBE4CDFAE4CCF9A88222B800C1B974
:10020C000059BA002DEC8BF084CFCECDFCE5F0CBB1
:10021C00F97818EF2FFFEE33FEED33FDEC33FCEBEA
:10022C0033FB10D703994004EB99FB0FD8E5E4F9A5
:10023C00FA227818EF2FFFEE33FEED33FDEC33FC92
:10024C00C933C910D7059BE99A4007EC9BFCE99A86
:10025C00F90FD8E0E4C9FAE4CCFB2275F010EF2FCB
:10026C00FFEE33FEED33FDCC33CCC833C810D707CB
:10027C009BEC9AE899400AED9BFDEC9AFCE899F806
:0E028C000FD5F0DAE4CDFBE4CCFAE4C8F92299
:10029A00EB9FF5F0EA9E42F0E99D42F0E89C45F0BA
:0102AA002231
:1002AB00BB010789828A830203A35005E9F8020385
:1002BB0097BBFE05E9F80203AF89828A830203BB71
:1002CB00BB010DE58229F582E5833AF5830203ED47
:1002DB005007E92582F80203CBBBFE07E92582F81C
:1002EB000203FFE58229F582E5833AF583020411C7
:1002FB00BB0120E58229F582E5833AF583D0F0D066
:10030B00E0F8D0E0F9D0E0FAD0E0FBE8C0E0C0F0D4
:10031B000203F65018E92582F8D083D082D0E0F999
:10032B00D0E0FAD0E0FBC082C0830203E4BBFE182E
:10033B00E92582F8D083D082D0E0F9D0E0FAD0E082
:09034B00FBC082C08302040822F9
:10035400D083D082F8E4937012740193700DA3A338
:1003640093F8740193F5828883E473740293B5F06F
:0D037400067403936860E9A3A3A3A380D8D7
:10044300E538242CF8E60538227829300702782C81
:10045300E475F0011203D40200562000EB7F2ED284
:10046300008018EF540F2490D43440D4FF30040B91
:10047300EF24BFB41A0050032461FFE5396002156D
:1004830039053CE53C7002053B30070D7829E475DE
:10049300F0011203D4EF02009C0213647403D20729
:1004A3008003E4C207F5388B298A2A892BE4F539BE
:1004B300F53BF53CE53960077F2012047E80F57536
:1004C3003AFFC201C200C202C203C205C206C20889
:1004D30012044CFF700D3007057F0012048FAF3CF0
:1004E300AE3B22B4255FC2D5C20412044CFF24D014
:1004F300B40A00501A75F00A783930D50508B6FFEA
:100503000106C6A426F620D5047002D20380D9249E
:10051300CFB41A00EF5004C2E5D20402068FD20111
:1005230080C6D20080C0D20280BCD2D580BAD205A8
:1005330080B47F2012047E2002077401B539004085
:10054300F1120443FF12047E0204B7D208D20680DC
:1005530095120443FB120443FA120443F94A4B7005
:100563000679607A077BFF20022EE539602A7E0038
:100573008E8275830012006F60060EEE653A70F08E
:10058300C2D5EBC0E0EAC0E0E9C0E0EE1206D6D087
:10059300E0F9D0E0FAD0E0FB120056FF60AAEBC00E
:1005A300E0EAC0E0E9C0E012047ED0E02401F9D023
:1005B300E03400FAD0E0FBE53A0460DCD53AD980B8
:1005C300877BFF7A0679D2D202809C7910800279E8
:1005D30008C206C2088008D2D5790A8004790AC203
:1005E300D5E53A047002F53AE4FAFDFEFF1204433E
:1005F300FC7B08200113120443FD7B1030000A1218
:100603000443FE120443FF7B20EC3382D592D55082
:1006130013C3E43000069FFFE49EFEE42001039D24
:10062300FDE49CFCE4CBF8C201EC700CCFCECDCC46
:10063300E824F8F870F38017C3EF33FFEE33FEEDD1
:1006430033FDEC33FCEB33FB994002FB0FD8E9EBB2
:10065300300105F8D0E0C448B201C0E00AEC4D4EC9
:100663004F78207B0070C2EAB53A0040BCC0E0126C
:1006730006D8D0F0D0E0200104C4C0E0C4B201C069
:10068300F0120467D0F0D5F0EB0204B712041D0595
:10069300545305CE5805254C05214205D24F05DAA2
:0F06A3004405DA49053A4305E05505C44605C448
:1006B2004505C44707805005292D052D2E05502BD1
:1006C200053123054E2007692A04E9480000054840
:1006D2003F3F3F00790AA2D5200314300509B91023
:1006E200020404B9080104A2D52006025001042024
:1006F20002689202B539005034C0E07F20300319FD
:100702007F30A20272067205500F12072FC202C278
:1007120006C205C2087F30800F300503E9C0E0122F
:10072200047E300503D0E0F9D0E0B539CC300517AE
:100732007F30B9100C12047E7F583004077F788016
:1007420003B9080312047E3002057F2D02047E7F66
:10075200202008F87F2B2006F322920280CF286EF9
:10076200756C6C2900D2011204433001F8C2017881
:100772003930D50108F60204E92D504349581204D4
:10078200432403B405004001E490077B9312046FF5
:0D079200743A12046FD2037539040205CECB
:10145500100C0B121480BF0D027F0A021364AF1F1C
:011465002264
:100E7D008E258F267E007F008F828E83E0FCA3E07F
:100E8D00FD4C7003FEFF228D828C83A3A3E0FAA399
:100E9D00E0FBC39526EA95255008CEECCECFEDCFDD
:100EAD0080D6C3EB9526F528EA9525F527C3E528C9
:100EBD009410E527940050198D828C83E0FBA3E0FC
:100ECD008F828E83CBF0A3EBF0ED2404FFE43CFE88
:100EDD002274FC2528F52874FF3527F5278D828C83
:100EED0083A3A3F0A3E528F0ED2404FFE43CFEEF7B
:100EFD002528FFEE3527FE8F82F583A3A3E525F088
:0C0F0D00A3E526F0EF2404FFE43EFE22E2
:100F2500020B5EE493A3F8E493A34003F68001F279
:100F350008DFF48029E493A3F85407240CC8C333CD
:100F4500C4540F4420C8834004F456800146F6DF9C
:100F5500E4800B010204081020408090142FE47EE9
:100F6500019360BCA3FF543F30E509541FFEE49391
:100F7500A360010ECF54C025E060A840B8E493A358
:100F8500FAE493A3F8E493A3C8C582C8CAC583CA83
:100F9500F0A3C8C582C8CAC583CADFE9DEE780BE3B
:0114370000B4
:10038100C5F0F8A3E028F0C5F0F8E5821582700207
:060391001583E038F022A4
:0C039700E6FC08E6FD08E6FE08E6FF2292
:0C03A300E0FCA3E0FDA3E0FEA3E0FF22CD
:0C03AF00E2FC08E2FD08E2FE08E2FF228A
:1003BB00E493FC740193FD740293FE740393FF2288
:0903CB00E6FB08E6FA08E6F92257
:1003D400FAE6FB0808E6F925F0F618E6CA3AF6222A
:0903E400EBF608EAF608E9F6223E
:0903ED00E0FBA3E0FAA3E0F92211
:0903F600EBF0A3EAF0A3E9F02208
:0903FF00E2FB08E2FA08E2F9222F
:09040800EBF208EAF208E9F22225
:0C041100E493FB740193FA740293F92247
:10041D00D083D082F8E4937012740193700DA3A36E
:10042D0093F8740193F5828883E473740293686082
:06043D00EFA3A3A380DF82
:10136400EFB40A07740D12136F740A309811A89918
:10137400B8130CC2983098FDA899C298B811F630E9
:0713840099FDC299F59922C1
:0A1480003098FDAF99C2987E00225B
:0B143800480000000000000000000061
:10129E00EF4E7008FE7F01ED1D70011C900000EEF8
:1012AE00F0A3EFF0A3ECF0A3EDF0900000E0FEA3AE
:1012BE00E0FFF5828E83E4F0A3F0ED24FCFDEC3428
:0C12CE00FF8F828E83A3A3F0A3EDF0221B
:00000001FF
