:1014060050756572746F20302E303A200A00507580
:101416006572746F20302E313A200A00507565725D
:10142600746F20302E323A200A0050756572746F40
:1014360020302E333A200A0050756572746F2030C2
:101446002E343A200A0050756572746F20302E359E
:101456003A200A0050756572746F20302E363A2095
:101466000A0050756572746F20302E373A200A00D4
:10147600455354414D4F5320454E204C4120422068
:021486000A005A
:10079F008B268A2789281200D0FFAEF0E5F0600380
:1007AF000208F3EFB4080040030208F39007C2F801
:1007BF002828730207DA02080B02082102085202E6
:1007CF0008680208970208AC0208DB7BFF7A1479ED
:1007DF00061204A5E546640145457013F545F54637
:1007EF0043F410AB26AA27A92875F0010208EEAB37
:1007FF0026AA27A928E475F0080208EE7BFF7A14D1
:10080F0079141204A5AB26AA27A928E475F01802BB
:10081F0008EE7BFF7A1479221204A5E546640145A0
:10082F00457013F545F54643F410AB26AA27A928C2
:10083F0075F0230208EEAB26AA27A928E475F02845
:10084F000208EE7BFF7A1479301204A5AB26AA2793
:10085F00A928E475F0380208EE7BFF7A14793E126E
:10086F0004A5E546640145457012F545F54643F488
:10087F0010AB26AA27A92875F0458063AB26AA27B7
:10088F00A928E475F0488057AB26AA27A928E47554
:10089F00F0581201807BFF7A14794C804D7BFF7AE0
:1008AF0014795A1204A5E546640145457012F545C1
:1008BF00F54643F410AB26AA27A92875F067801FC9
:1008CF00AB26AA27A928E475F06880137BFF7A145A
:1008DF0079681204A5AB26AA27A928E475F0781227
:1008EF00018080097BFF7A1479761204A5AB26AAC2
:0908FF0027A9281200D0F5C62239
:0A18840043A41075E10175E2402253
:0718A10043B20375EF0422BE
:10177D0043D103E4F5F4F5FB75F708759B03759AF2
:10178D00BFF5BD75C60875F38130EAFD43E60875F2
:06179D00F380E4FEFF22D0
:1017EA00759810758D96538EF4438E08858D8B539C
:0D17FA00890F438920D28ED299E4FEFF2290
:100908004D4D4C3E000A41434B203230313A207065
:10091800696E20256320636F6E666967757261640E
:100928006F20657869746F73616D656E7465206595
:100938006E206D6F646F2073696E676C655F656E9E
:100948006465640A000A41434B203230323A207011
:10095800696E6573202563207920256320636F6E97
:10096800666967757261646F7320657869746F73FF
:10097800616D656E746520656E206D6F646F2064AF
:1009880069666572656E6369616C0A000A41434B6A
:10099800203235333A2067616E616E636961206386
:1009A8006F6E666967757261646120656E20325E7C
:1009B80025630A000A4552524F52203430343A20F7
:1009C800636F6D616E646F206E6F20656E636F6E0E
:1009D800747261646F0A000A4552524F52203430D3
:1009E800353A2064656D61736961646F7320617263
:1009F80067756D656E746F730A000A4552524F52DF
:100A0800203430363A20616C67756E6F206465203B
:100A18006C6F7320617267756D656E746F73206596
:100A28007374612066756572612064652072616EF9
:100A3800676F0A00636F6D616E646F3A200025630B
:100A4800000A20617267756D656E746F733A2000D5
:100A58000A6E756D65726F206465206572726F72BB
:070A68003A202568690A002D
:060F2C008B268A278928AC
:100F3200E4F5297BFF7A0979081204A5121873AB2C
:100F420026AA27A928900001EF1200AE642C604364
:100F520090000112006FFF640A6038C3E5296480C3
:100F62009483501CE92402F9E43AFAE529FD339509
:100F7200E0FCE92DF9EA3CFAEF12009C052980BC5D
:100F8200AB26AA27A92890000E740175F0941201CD
:100F92009F80A9E4F529AB26AA27A928900001126F
:100FA200006F640A6053121873AB26AA27A928900F
:100FB2000001EF1200AE640A603FC3E52964809429
:100FC20084502390000112006FFFE92405F9E43AEE
:100FD200FAE529FD3395E0FCE92DF9EA3CFAEF1236
:100FE200009C052980C0AB26AA27A92890000E7470
:100FF2000175F09512019F80ADAB26AA27A928E5BD
:101002002912009CAB26AA27A928120056D3648075
:101012009487401090000112006F640A6006121853
:0A10220073BF0AFAAB26AA27A9281B
:01102C0022A1
:061564008B268A2789286E
:10156A00E4FFFEAB26E5282405F9E43527FAE92F3E
:10157A00F9EA3EFAE412009C0FBF00010EEF640480
:10158A004E70E0E4FEFFAB26E5282402F9E4352795
:10159A00FAE92FF9EA3EFAE412009C0FBF00010EA5
:1015AA00EF64034E70E0AB26AA27A92890000EE448
:0515BA00F5F002019FA5
:100A6F008B268A27892890000212006FFFB4531338
:100A7F0090000312006FB4540A900010E41200AEFD
:100A8F00020BBDEF6453705390000312006F645359
:100A9F00704990000412006F6445703F120056D3E6
:100AAF00648094814003020B7890000512006F243C
:100ABF00D0FFC394004068EFD394074003020B9616
:100ACF00E5282405F9E4352785262CF52D892EAB4D
:100ADF0026AA27A928121606020BBDAB26AA27A9FC
:100AEF002890000212006F645370509000031200A0
:100AFF006F6444704690000412006F6449703C129A
:100B0F000056D3648094814002805E9000051200ED
:100B1F006F24D0FFC394004006EFD39408400280A7
:100B2F0066E5282405F9E4352785262CF52D892E31
:100B3F00AB26AA27A92812164B8073AB26AA27A982
:100B4F002890000212006F64477052900003120049
:100B5F006F6441704890000412006F6453703E122E
:100B6F000056D364809481400A90000E740175F092
:100B7F0095801C90000512006F24D0FFC394014094
:100B8F0006EFD39408400B90000E740175F0960297
:100B9F00019FAB26AA27A92812102D8011AB26AAD8
:100BAF0027A92890000E740175F09412019FAB26AF
:050BBF00AA27A928226D
:10137C008B268A27892890000E1200FB1203541327
:10138C00A700FB13BD00FC13D600FD13EC01941356
:10139C00F4019513FC019600001405AB26AA27A9AD
:1013AC002890000512006FF52F7BFF7A09790D80CC
:1013BC0045AB26AA27A92890000512006FF52F042B
:1013CC00F5307BFF7A09794D802CAB26AA27A9280A
:1013DC0090000512006FF52F7BFF7A097994801627
:1013EC007BFF7A0979BC800E7BFF7A0979DF800656
:0A13FC007BFF7A0A79021204A52291
:0610FA008B268A278928DD
:101100007BFF7A0A793C1204A5E4F529F52AAB267F
:10111000E5282402F9E43527FAE9252AF9EA3529F0
:10112000FA120056F52F7BFF7A0A79461204A505BC
:101130002AE52A70020529C39403E5296480948076
:1011400040CC7BFF7A0A79491204A5E4F529F52AF7
:10115000AB26AA27A928120056FF3395E0FEC3E567
:101160002A9FEE6480F8E5296480985027E92405D9
:10117000F9E43AFAE9252AF9EA3529FA120056F58E
:101180002F7BFF7A0A79461204A5052AE52A70C04A
:10119000052980BCAB26AA27A92890000E1200FBC7
:0E11A000F53085F02F7BFF7A0A79580204A5FE
:03005300021898F8
:0918980030EDFDC2ED7540013296
:101807006E6F20686179206C7567617220706172F4
:0B18170061207368656C6C21210A00E1
:100D0B00E4F52553D9BF7F11FE121254AA06A90789
:100D1B007522018A2389247F087E00121254AA06A9
:100D2B00A9077B01C003C002C001AB22AA23A924DF
:100D3B009000091202FBE524452345226011AB22EA
:100D4B00AA23A9249000091202CBE94A4B700B7B12
:100D5B00FF7A1879071204A580FEE4F525AB22AAC9
:100D6B0023A9249000091202CBAF25EF3395E08F16
:100D7B0082F583E41200AE0525E525B408DF1218D1
:100D8B00A11218841217EA12177DAB22AA23A924E9
:100D9B0090001074011200AEAB22AA23A92490007C
:100DAB001012006F6401703B121564AB22AA23A9C9
:100DBB0024120F2CAB22AA23A9241210FAAB22AABD
:100DCB0023A92490000E1200FB45F06002800FABAC
:100DDB0022AA23A924120A6FAB22AA23A924121335
:100DEB007C80B5C2ED75F383D2AFE54060FCE4F5D2
:100DFB00401217C78F448E438D428C417B007A0083
:100E0B007941121822AB22AA23A9241211AE8E47C4
:0D0E1B008F487B007A00794712079F80CD39
:10170400A2AF9209C2AF75FF8075EF028F828E83FC
:1017140075B7A575B7F1438F0175FF8075EF02EDBD
:08172400F0538FFEA20992AF01
:01172C00229A
:10185000A2AF920AC2AF8F828E83E493FFA20A9254
:01186000AFD8
:011861002264
:10172D00A2AF920BC2AF75FF8075EF028F828E83D1
:10173D0075B7A575B7F1438F0375FF8075EF02E49B
:08174D00F0538FFCA20B92AFD8
:011755002271
:080BC4008E088F098C0A8D0BCD
:100BCC00751202751300E51324FFFFE51234FFFEC6
:100BDC00EFF4FFEEF4FE5508F50CE5095FF50D2575
:100BEC0013CDE50C3512CD24FFF50FED34FFF50ECA
:100BFC00E509250BFDE508350A5EF510ED5FF511ED
:100C0C002513CFE5103512CF24FFCF34FFFEE50FAF
:100C1C006F7003E50E6E705EFF7E1A12172D1214A4
:100C2C00FDE42509FFE508341AFEC3EF950DFFEE30
:100C3C00950CFEE50B2FF515E50A3EF514E5092597
:100C4C000BF517E508350AF516C3E50F9509FFE511
:100C5C000E9508FEC3EF950BFFEE950ACF2401F518
:100C6C0019E43F121514AF0DAE0C12172D850C1490
:100C7C00850D15020CF77F007E1A12172D1214FD2C
:100C8C00AF0DAE0C12172D850C14850D1575161A9B
:100C9C00751700851218851319AA181215177F00DD
:100CAC007E1A12172DC3E50F9509CFE50E9508CFC7
:100CBC002401CF3400FEC3E50B9FFFE50A9EFEE442
:100CCC002FF515EE341AF514E5112FF517E5103E36
:100CDC00F516C3E5139FF519E5129E121514AF1105
:100CEC00AE1012172D85101485111575161A75175F
:0E0CFC0000851218851319AB19AA18121519C4
:010D0A0022C6
:1017A3008E748F758B768A778978AD7AAC79120BC4
:1017B300C4AB76AA77A97885794E857A4FAF75AE93
:0417C300740215BFD8
:0A15BF008E498F4A8B4B8A4C894DF0
:1015C900854950854A51E54A254FFFE549354EFE83
:1015D900C3E5519FE5509E5023AB4B054DE54DAA00
:1015E9004C7002054C14F9120056FDAF51AE501261
:0C15F90017040551E55170CE055080CA62
:0116050022C2
:0A0003008B528A5389548C558D5698
:10000D00E4F559F55AC3E55A9558E55995575029D0
:10001D00E556255AFFE5553559FE121850AB5205D8
:10002D0054E554AA537002055314F9EF12009C05C0
:0F003D005AE55A70D0055980CCAB52AA53A9543A
:01004C002291
:1014FD0075141A751500850C16850D17C3E509951C
:10150D000DF519E508950CF518FAAB19AD17AC16D4
:04151D00AF15AE1444
:0C1521008E648F658C668D678A688B690C
:10152D00E4F56AF56BC3E56B9569E56A9568502638
:10153D00E567256BFFE566356AFE121850AD07E5C8
:10154D0065256BFFE564356AFE121704056BE56BC7
:06155D0070D3056A80CF87
:011563002265
:0416CC008E5B8F5C46
:1016D000E4F562F563AE62AF63E4FCFDAB60AA5F64
:1016E000A95EA85DD312029A4019E55C2563FFE567
:1016F0005B3562FEAD611217040563E56370D605C4
:031700006280D232
:0117030022C3
:1014880047616E616E6369612078312E0A00476199
:101498006E616E6369612078322E0A0047616E6161
:1014A8006E6369612078342E0A0047616E616E634D
:1014B80069612078382E0A0047616E616E63696140
:1014C800207831362E0A0047616E616E63696120AB
:1014D8007833322E0A0047616E616E636961207845
:1014E80036342E0A0047616E616E63696120783177
:0514F80032382E0A004D
:1017C70030EDFDC2EDE4F51A85C51B85C41C85C344
:1017D7001D7B367A1AF9F8AF1DAE1CAD1BAC1A1279
:0217E7000208F6
:0117E90022DD
:10102D008B298A2A892B90000512006F24CFB408D2
:10103D000040030210D990105175F003A4C583250B
:10104D00F0C58373021069021077021085021093A8
:10105D000210A10210AF0210BD0210CB7BFF7A145B
:10106D0079881204A5E4F5F480727BFF7A147996E1
:10107D001204A575F40180647BFF7A1479A412041F
:10108D00A575F40280567BFF7A1479B21204A5750A
:10109D00F40380487BFF7A1479C01204A575F4041B
:1010AD00803A7BFF7A1479CF1204A575F405802C54
:1010BD007BFF7A1479DE1204A575F406801E7BFF82
:1010CD007A1479ED1204A575F4078010AB29AA2ABC
:1010DD00A92B90000E740175F097800DAB29AA2AEB
:0D10ED00A92B90000EE475F0FD12019F226A
:10186200766F6C74616A653A20256C75206D560A34
:011872000075
:08183C00026C000002700000C4
:101822008B268A2789281202AB8F328E318D308C1B
:0A1832002F7BFF7A1879620204A5EB
:101606008B298A2A892BAB2CAA2DA92E120056FFCC
:101616003395E0FEEF24D0F573EE34FFF572AB2977
:10162600AA2AA92B9000091202CB857382857283A0
:1016360074011200AEAB29AA2AA92B90000EE475FC
:05164600F0FB02019F12
:10164B008B298A2A892BAB2CAA2DA92E120056FF87
:10165B003395E0FEEF24D0F573EE34FFF572AB2932
:10166B00AA2AA92B9000091202CB8573828572835B
:10167B0074021200AEAB29AA2AA92B90000EE475B6
:05168B00F0FC02019FCC
:1011AE008B268A278928AB26AA27A92890000C12FD
:1011BE0000FBD39407E5F064809480400990000C06
:1011CE00E4F5F012019F9000091202CBC003C00299
:1011DE00C001AB26AA27A92890000C1200FBD00153
:1011EE00D002D003F58285F08312006FFDB4011A90
:1011FE00AB26AA27A92890000CE475F00112013342
:10120E0090000C1200FB24FF8022EDB402257545E0
:10121E0000754601AB26AA27A92890000CE475F0AC
:10122E000212013390000C1200FB24FEFFE5F03495
:10123E00FFFE22AB26AA27A92890000CE475F00128
:06124E001201330211B48D
:030000000212F0F9
:0C12F000787FE4F6D8FD75817E0213378C
:10005600BB010689828A83E0225002E722BBFE02A8
:09006600E32289828A83E49322DB
:10006F00BB010CE58229F582E5833AF583E0225046
:10007F0006E92582F8E622BBFE06E92582F8E22290
:0D008F00E58229F582E5833AF583E49322AA
:10009C00BB010689828A83F0225002F722BBFE0143
:0200AC00F3223D
:1000AE00F8BB010DE58229F582E5833AF583E8F088
:1000BE00225006E92582C8F622BBFE05E92582C834
:0200CE00F2221C
:1000D000BB010A89828A83E0F5F0A3E022500687FB
:1000E000F009E71922BBFE07E3F5F009E3192289BD
:0B00F000828A83E493F5F074019322F0
:1000FB00BB0110E58229F582E5833AF583E0F5F043
:10010B00A3E0225009E92582F886F008E622BBFE1F
:10011B000AE92582F8E2F5F008E222E5832AF58365
:08012B00E993F5F0A3E993222A
:10013300BB010DC58229C582C5833AC583020381EC
:100143005011C58229F808E5F026F618F5F0E58286
:1001530036F622BBFE11C58229F808E225F0F5F038
:10016300F218E23582F222F8E58229F582E5832A44
:0D017300F58374019325F0F5F0E493382234
:10018000BB010A89828A83F0E5F0A3F0225006F7CA
:0F01900009A7F01922BBFE06F3E5F009F31922C7
:10019F00F8BB0111E58229F582E5833AF583E8F092
:1001AF00E5F0A3F0225009E92582C8F608A6F0224F
:0D01BF00BBFE09E92582C8F2E5F008F22236
:1001CC0075F008758200EF2FFFEE33FECD33CDCCEA
:1001DC0033CCC58233C5829BED9AEC99E58298406D
:1001EC000CF582EE9BFEED9AFDEC99FC0FD5F0D64A
:1001FC00E4CEFBE4CDFAE4CCF9A88222B800C1B974
:10020C000059BA002DEC8BF084CFCECDFCE5F0CBB1
:10021C00F97818EF2FFFEE33FEED33FDEC33FCEBEA
:10022C0033FB10D703994004EB99FB0FD8E5E4F9A5
:10023C00FA227818EF2FFFEE33FEED33FDEC33FC92
:10024C00C933C910D7059BE99A4007EC9BFCE99A86
:10025C00F90FD8E0E4C9FAE4CCFB2275F010EF2FCB
:10026C00FFEE33FEED33FDCC33CCC833C810D707CB
:10027C009BEC9AE899400AED9BFDEC9AFCE899F806
:0E028C000FD5F0DAE4CDFBE4CCFAE4C8F92299
:10029A00EB9FF5F0EA9E42F0E99D42F0E89C45F0BA
:0102AA002231
:1002AB00BB010789828A830203A35005E9F8020385
:1002BB0097BBFE05E9F80203AF89828A830203BB71
:1002CB00BB010DE58229F582E5833AF5830203ED47
:1002DB005007E92582F80203CBBBFE07E92582F81C
:1002EB000203FFE58229F582E5833AF583020411C7
:1002FB00BB0120E58229F582E5833AF583D0F0D066
:10030B00E0F8D0E0F9D0E0FAD0E0FBE8C0E0C0F0D4
:10031B000203F65018E92582F8D083D082D0E0F999
:10032B00D0E0FAD0E0FBC082C0830203E4BBFE182E
:10033B00E92582F8D083D082D0E0F9D0E0FAD0E082
:09034B00FBC082C08302040822F9
:10035400D083D082F8E4937012740193700DA3A338
:1003640093F8740193F5828883E473740293B5F06F
:0D037400067403936860E9A3A3A3A380D8D7
:10044300E53B242FF8E6053B22782C300702782F72
:10045300E475F0011203D40200562000EB7F2ED284
:10046300008018EF540F2490D43440D4FF30040B91
:10047300EF24BFB41A0050032461FFE53C6002156A
:100483003C053FE53F7002053E30070D782CE475CF
:10049300F0011203D4EF02009C0217567403D20733
:1004A3008003E4C207F53B8B2C8A2D892EE4F53CAF
:1004B300F53EF53FE53C60077F2012047E80F5752D
:1004C3003DFFC201C200C202C203C205C206C20886
:1004D30012044CFF700D3007057F0012048FAF3FED
:1004E300AE3E22B4255FC2D5C20412044CFF24D011
:1004F300B40A00501A75F00A783C30D50508B6FFE7
:100503000106C6A426F620D5047002D20380D9249E
:10051300CFB41A00EF5004C2E5D20402068FD20111
:1005230080C6D20080C0D20280BCD2D580BAD205A8
:1005330080B47F2012047E2002077401B53C004082
:10054300F1120443FF12047E0204B7D208D20680DC
:1005530095120443FB120443FA120443F94A4B7005
:100563000679607A077BFF20022EE53C602A7E0035
:100573008E8275830012006F60060EEE653D70F08B
:10058300C2D5EBC0E0EAC0E0E9C0E0EE1206D6D087
:10059300E0F9D0E0FAD0E0FB120056FF60AAEBC00E
:1005A300E0EAC0E0E9C0E012047ED0E02401F9D023
:1005B300E03400FAD0E0FBE53D0460DCD53DD980B2
:1005C300877BFF7A0679D2D202809C7910800279E8
:1005D30008C206C2088008D2D5790A8004790AC203
:1005E300D5E53D047002F53DE4FAFDFEFF12044338
:1005F300FC7B08200113120443FD7B1030000A1218
:100603000443FE120443FF7B20EC3382D592D55082
:1006130013C3E43000069FFFE49EFEE42001039D24
:10062300FDE49CFCE4CBF8C201EC700CCFCECDCC46
:10063300E824F8F870F38017C3EF33FFEE33FEEDD1
:1006430033FDEC33FCEB33FB994002FB0FD8E9EBB2
:10065300300105F8D0E0C448B201C0E00AEC4D4EC9
:100663004F78207B0070C2EAB53D0040BCC0E01269
:1006730006D8D0F0D0E0200104C4C0E0C4B201C069
:10068300F0120467D0F0D5F0EB0204B712041D0595
:10069300545305CE5805254C05214205D24F05DAA2
:0F06A3004405DA49053A4305E05505C44605C448
:1006B2004505C44707805005292D052D2E05502BD1
:1006C200053123054E2007692A04E9480000054840
:1006D2003F3F3F00790AA2D5200314300509B91023
:1006E200020404B9080104A2D52006025001042024
:1006F20002689202B53C005034C0E07F20300319FA
:100702007F30A20272067205500F12072FC202C278
:1007120006C205C2087F30800F300503E9C0E0122F
:10072200047E300503D0E0F9D0E0B53CCC300517AB
:100732007F30B9100C12047E7F583004077F788016
:1007420003B9080312047E3002057F2D02047E7F66
:10075200202008F87F2B2006F322920280CF286EF9
:10076200756C6C2900D2011204433001F8C2017881
:100772003C30D50108F60204E92D504349581204D1
:10078200432403B405004001E490077B9312046FF5
:0D079200743A12046FD203753C040205CEC8
:10187300100C0B12188EBF0D027F0A021756AF1EF3
:011883002242
:101254008E268F277E007F008F828E83E0FCA3E0A2
:10126400FD4C7003FEFF228D828C83A3A3E0FAA3BE
:10127400E0FBC39527EA95265008CEECCECFEDCF00
:1012840080D6C3EB9527F529EA9526F528C3E529E9
:101294009410E528940050198D828C83E0FBA3E020
:1012A4008F828E83CBF0A3EBF0ED2404FFE43CFEAD
:1012B4002274FC2529F52974FF3528F5288D828CA4
:1012C40083A3A3F0A3E529F0ED2404FFE43CFEEF9F
:1012D4002529FFEE3528FE8F82F583A3A3E526F0AA
:0C12E400A3E527F0EF2404FFE43EFE2207
:100E2800EF4E7003020F2B900002E07002A3E070F7
:100E380003020F2BCDEFCDCCEECCED24FCFDEC3432
:100E4800FFFC757B00757C00857C82857B83E0FADE
:100E5800A3E08A7DF57E457D6011D3E57E9FE57D23
:100E68009E5008857D7B857E7C80DDE57E457D60A6
:100E78004A8D828C83A3A3E0FAA3E02FFFEA3EFE0B
:100E8800EF657E7003EE657D7031857E82857D839A
:100E9800A3A3E0FEA3E02404FFE43E8D828C83A399
:100EA800A38FF0120381857E82857D83E0FFA3E016
:100EB8008D828C83CFF0A3EFF0800B8D828C83E53D
:100EC8007DF0A3E57EF0857C82857B83A3A3E0FE8D
:100ED800A3E0257CFFEE357BFEEF2404FFE43EFE15
:100EE800EF6D7002EE6C70308D828C83A3A3E0FEF0
:100EF800A3E02404FFE43E857C82857B83A3A38F43
:100F0800F01203818D828C83E0FFA3E0857C8285CB
:100F18007B83CFF0A3EFF022857C82857B83ECF086
:040F2800A3EDF02223
:1012FC00020D0BE493A3F8E493A34003F68001F2F0
:10130C0008DFF48029E493A3F85407240CC8C333F2
:10131C00C4540F4420C8834004F456800146F6DFC1
:10132C00E4800B010204081020408090183CE47EFD
:10133C00019360BCA3FF543F30E509541FFEE493B6
:10134C00A360010ECF54C025E060A840B8E493A37D
:10135C00FAE493A3F8E493A3C8C582C8CAC583CAA8
:10136C00F0A3C8C582C8CAC583CADFE9DEE780BE60
:0118440000A3
:10038100C5F0F8A3E028F0C5F0F8E5821582700207
:060391001583E038F022A4
:0C039700E6FC08E6FD08E6FE08E6FF2292
:0C03A300E0FCA3E0FDA3E0FEA3E0FF22CD
:0C03AF00E2FC08E2FD08E2FE08E2FF228A
:1003BB00E493FC740193FD740293FE740393FF2288
:0903CB00E6FB08E6FA08E6F92257
:1003D400FAE6FB0808E6F925F0F618E6CA3AF6222A
:0903E400EBF608EAF608E9F6223E
:0903ED00E0FBA3E0FAA3E0F92211
:0903F600EBF0A3EAF0A3E9F02208
:0903FF00E2FB08E2FA08E2F9222F
:09040800EBF208EAF208E9F22225
:0C041100E493FB740193FA740293F92247
:10041D00D083D082F8E4937012740193700DA3A36E
:10042D0093F8740193F5828883E473740293686082
:06043D00EFA3A3A380DF82
:10175600EFB40A07740D121761740A309811A8992C
:10176600B8130CC2983098FDA899C298B811F630F3
:0717760099FDC299F59922CB
:0A188E003098FDAF99C2987E002249
:0B184500480000000000000000000050
:10169000EF4E7008FE7F01ED1D70011C900000EE02
:1016A000F0A3EFF0A3ECF0A3EDF0900000E0FEA3B8
:1016B000E0FFF5828E83E4F0A3F0ED24FCFDEC3432
:0C16C000FF8F828E83A3A3F0A3EDF02225
:00000001FF
