:100BA80050756572746F20302E303A200A005075E7
:100BB8006572746F20302E313A200A0050756572C4
:100BC800746F20302E323A200A0050756572746FA7
:100BD80020302E333A200A0050756572746F203029
:100BE8002E343A200A0050756572746F20302E3505
:100BF8003A200A0050756572746F20302E363A20FC
:100C08000A0050756572746F20302E373A200A003A
:100C1800455354414D4F5320454E204C41204220CE
:020C28000A00C0
:04004D0075C608224A
:1009B7008E258F26E5256003020A70E526B4080018
:1009C7004003020A709009D3F82828730209EB0242
:1009D70009FC020A0D020A1E020A2F020A40020A35
:1009E7004E020A5F7BFF7A0B79A81200B8752500C3
:1009F700752608807D7BFF7A0B79B61200B87525BE
:100A070000752618806C7BFF7A0B79C41200B875C5
:100A17002500752628805B7BFF7A0B79D21200B8F8
:100A2700752500752638804A7BFF7A0B79E012001E
:100A3700B875250075264880397525007526587BB9
:100A4700FF7A0B79EE80287BFF7A0B79FC1200B8CE
:100A5700752500752668801A7BFF7A0C790A1200C3
:100A6700B875250075267880097BFF7A0C791812EE
:060A770000B88526C6222E
:0A112B0043A41075E10175E24022B3
:0711500043B20375EF042216
:100F9C0043D103E4F5F4F5FB75F708759B03759ADB
:100FAC00BFF5BD75C60875F38130EAFD43E60875DB
:060FBC00F380E4FEFF22B9
:10107500759810758D61538EF4438E01858D8B5354
:0D108500890F438920D28ED299E4FEFF220C
:04115700E4FEFF2291
:04115B00E4FEFF228D
:04115F00E4FEFF2289
:04116300E4FEFF2285
:1010C000766F6C74616A653A2025386C64206D56C1
:0210D0000A0014
:08113F00024100000243000020
:1010520030EDFDC2EDE4F53D85C53E85C43F85C357
:10106200407B367A1AF9F8AF40AE3FAD3EAC3D1246
:0210720007165F
:011074002259
:101092008B258A2689271207B98F2F8E2E8D2D8CAC
:0A10A2002C7BFF7A1079C00200B821
:100CAA001206AFFF24D0B40800505C900CC375F054
:100CBA0003A4C58325F0C58373020CDB020CE00292
:100CCA000CE7020CEE020CF5020CFC020D03020DFD
:100CDA000AEF4401FF221206AF4402FF221206AFB6
:100CEA004404FF221206AF4408FF221206AF441042
:100CFA00FF221206AF4420FF221206AF4440FF2211
:0C0D0A001206AF4480FF221206AFFF2249
:100E7500D3E5449407E543648094804005E4F54355
:100E8500F544E5446401454370047F0180027F0019
:100E9500E5206F60110544E5447002054324FFFF1A
:100EA500E54334FFFE220544E54470C4054380C094
:1003B2000A204D656EC3BA20646520636F6E66695C
:1003C2006775726163696F6E0A00312E20436F6E2A
:1003D2006669677572616369C3B36E2064652041A3
:1003E20044430A00322E204D6F646F7320646520EF
:1003F2007472616E736D6973696F6E2064652064D7
:1004020061746F730A00332E205469706F20646523
:1004120020636F6D756E69636163696F6E207365CA
:100422007269616C0A00342E2047756172646172D0
:10043200206C6120636F6E66696775726163696FB4
:100442006E0A00352E2053616C6972206520696E38
:1004520069636961720A000A312E20436F6E666910
:1004620067757261722070696E7320656E206D6FA0
:10047200646F2073696E676C652D656E6465640ACE
:1004820000322E20436F6E6669677572617220704A
:10049200696E7320656E206D6F646F206469666596
:1004A20072656E6369616C0A00332E20436F6E665B
:1004B2006967757261722067616E616E6369610A54
:1004C20000342E20566F6C76657220616C206D654B
:1004D2006E7520616E746572696F720A000A496EE8
:1004E200677265736172206C6F73206E756D6572D1
:1004F2006F73206465206C6F732070696E65732062
:10050200736570617261646F7320706F72206C61C9
:10051200207465636C612027656E746572270A001A
:10052200416C207465726D696E61722C20696E6710
:1005320072657365206C61207465636C612027723B
:10054200270A000A496E6772657361722C2064651E
:10055200206120646F732C206C6F73207061726550
:1005620073206465206C6F732070696E65732064FC
:10057200657361646F732C207365706172616E6460
:100582006F206C6F7320677275706F7320636F6E6C
:10059200206C61207465636C612027656E746572DE
:1005A200270A000A312E20506F7220706574696329
:1005B200696F6E20646520646973706F7369746912
:1005C200766F2065787465726E6F0A00322E20464F
:1005D2006C756A6F20636F6E7374616E74650A0066
:1005E200332E20506F722076656E63696D69656E79
:1005F200746F2064652074656D706F726172697AC0
:1006020061646F720A000A312E2052533233320A69
:1006120000322E2049324320286E6F20696D706CA3
:10062200656D656E7461646F290A000A00436F6C20
:100632006F636172206C612067616E616E636961D4
:100642002071756520736520717569657265206119
:10065200706C696361722C0A006C6F732076616C36
:100662006F7265732061646D697469646F7320735E
:100672006F6E3A200A0031297831202032297832EF
:100682002020332978342020342978382020352935
:1006920078313620203629783332202037297836AF
:0D06A200342020382978313238202E0A000B
:100EED007BFF7A0379B21200B87BFF7A0379CC12BB
:100EFD0000B87BFF7A0379E61200B87BFF7A04799C
:100F0D00081200B87BFF7A0479281200B87BFF7AAB
:060F1D000479450200B852
:100FC2007BFF7A0479591200B87BFF7A0479831285
:100FD20000B87BFF7A0479AB1200B87BFF7A047900
:040FE200C30200B88E
:1010D2007BFF7A0479DF1200B87BFF7A057922025E
:0210E20000B854
:1010E4007BFF7A0579451200B87BFF7A05792202E5
:0210F40000B842
:100FE6007BFF7A0579A51200B87BFF7A0579CE12C8
:100FF60000B87BFF7A0579E21200B87BFF7A0479A4
:04100600C30200B869
:1010F6007BFF7A0679081200B87BFF7A067913021D
:0211060000B82F
:10100A007BFF7A06792D1200B87BFF7A06792F12B8
:10101A0000B87BFF7A06795B1200B87BFF7A067903
:04102A00780200B890
:100C2A0064656661756C7421210A0047616E616EA4
:100C3A006369612078312E0A0047616E616E6369CB
:100C4A00612078322E0A0047616E616E6369612005
:100C5A0078342E0A0047616E616E636961207838C4
:100C6A002E0A0047616E616E636961207831362E03
:100C7A000A0047616E616E636961207833322E0A19
:100C8A000047616E616E636961207836342E0A000E
:100C9A0047616E616E63696120783132382E0A00CD
:100D1600752600752701E52764014526705D120ECC
:100D2600ED12111A8F2512111ABF0AFAE52524CEE3
:100D3600602D14602F1460DE14602E2404703112AE
:100D46000FC212111A8F2512111ABF0AFAE52524AD
:100D5600CD6009240270081210AC8003120A7D12BD
:100D66000FE680B21210F680ADE4F526F52780A6D0
:0B0D76007BFF7A0C792A1200B8809BEA
:010D8100224F
:1010AC001210D212111A8F2812111ABF0AFAE5283F
:0410BC00B472F022F8
:100A7D0012100A12111AEF24CFB408004003020B12
:100A8D001B900A9C75F003A4C58325F0C5837302E2
:100A9D000AB4020AC1020ACE020ADB020AE8020AFD
:100AAD00F5020B02020B0F7BFF7A0C79351200B8A1
:100ABD00E4F5F4227BFF7A0C79431200B875F4014A
:100ACD00227BFF7A0C79511200B875F402227BFF5C
:100ADD007A0C795F1200B875F403227BFF7A0C79DA
:100AED006D1200B875F404227BFF7A0C797C12002C
:100AFD00B875F405227BFF7A0C798B1200B875F46A
:0E0B0D0006227BFF7A0C799A1200B875F40765
:010B1B0022B7
:030053000211484F
:0811480030EDFDC2EDD21132C1
:100E3000E4F523F52453D9BFF52012115012112BDC
:100E4000121075120F9C120D16C2ED75F383D2AFFE
:100E50003011FDC2111210528F1D8E1C8D1B8C1A69
:100E60007B007A00791A121092120E758E1E8F1F57
:050E70001209B780DB50
:100F2300A2AF9212C2AF75FF8075EF028F828E83DC
:100F330075B7A575B7F1438F0175FF8075EF02EDA6
:080F4300F0538FFEA21292AFE1
:010F4B002283
:10110800A2AF9213C2AF8F828E83E493FFA2139291
:01111800AF27
:0111190022B3
:100F4C00A2AF9214C2AF75FF8075EF028F828E83B1
:100F5C0075B7A575B7F1438F0375FF8075EF02E484
:080F6C00F0538FFCA21492AFB8
:010F7400225A
:080870008E088F098C0A8D0B24
:10087800751202751300E51324FFFFE51234FFFE1D
:10088800EFF4FFEEF4FE5508F50CE5095FF50D25CC
:1008980013CDE50C3512CD24FFF50FED34FFF50E21
:1008A800E509250BFDE508350A5EF510ED5FF51144
:1008B8002513CFE5103512CF24FFCF34FFFEE50F07
:1008C8006F7003E50E6E705EFF7E1A120F4C120DEC
:1008D80082E42509FFE508341AFEC3EF950DFFEE03
:1008E800950CFEE50B2FF515E50A3EF514E50925EF
:1008F8000BF517E508350AF516C3E50F9509FFE569
:100908000E9508FEC3EF950BFFEE950ACF2401F56F
:1009180019E43F120D99AF0DAE0C120F4C850C1453
:10092800850D150209A37F007E1A120F4C120D8245
:10093800AF0DAE0C120F4C850C14850D1575161ADB
:10094800751700851218851319AA18120D9C7F00B7
:100958007E1A120F4CC3E50F9509CFE50E9508CF07
:100968002401CF3400FEC3E50B9FFFE50A9EFEE499
:100978002FF515EE341AF514E5112FF517E5103E8D
:10098800F516C3E5139FF519E5129E120D99AF11DF
:10099800AE10120F4C85101485111575161A75179F
:0E09A80000851218851319AB19AA18120D9E9E
:0109B600221E
:10102E008E698F6A8B6B8A6C896DAD6FAC6E120890
:10103E0070AB6BAA6CA96D856E4B856F4CAF6AAEAB
:04104E0069020DE93D
:0A0DE9008E468F478B488A49894ADD
:100DF30085464D85474EE547254CFFE546354BFE79
:100E0300C3E54E9FE54D9E5023AB48054AE54AAAEC
:100E1300497002054914F91206AFFDAF4EAE4D12EB
:0C0E23000F23054EE54E70CE054D80CA31
:010E2F0022A0
:0A0003008B4F8A5089518C528D53A7
:10000D00E4F556F557C3E5579555E55695545029E2
:10001D00E5532557FFE5523556FE121108AB4F0536
:10002D0051E551AA507002055014F9EF1206C8059A
:0F003D0057E55770D0055680CCAB4FAA50A9514C
:01004C002291
:100D820075141A751500850C16850D17C3E509959E
:100D92000DF519E508950CF518FAAB19AD17AC1657
:040DA200AF15AE14C7
:0C0DA6008E618F628C638D648A658B66A1
:100DB200E4F567F568C3E5689566E56795655026CD
:100DC200E5642568FFE5633567FE121108AD07E5A6
:100DD200622568FFE5613567FE120F230568E56845
:060DE20070D3056780CF0D
:010DE80022E8
:040EB5008E588F596B
:100EB900E4F55FF560AE5FAF60E4FCFDAB5DAA5C95
:100EC900A95BA85AD31207A84019E5592560FFE57F
:100ED90058355FFEAD5E120F230560E56070D605DB
:030EE9005F80D255
:010EEC0022E3
:03000000020B1CD4
:0C0B1C00787FE4F6D8FD758170020B6351
:1006AF00BB010689828A83E0225002E722BBFE0249
:0906BF00E32289828A83E493227C
:1006C800BB010689828A83F0225002F722BBFE0111
:0206D800F3220B
:1006DA0075F008758200EF2FFFEE33FECD33CDCCD7
:1006EA0033CCC58233C5829BED9AEC99E58298405A
:1006FA000CF582EE9BFEED9AFDEC99FC0FD5F0D637
:10070A00E4CEFBE4CDFAE4CCF9A88222B800C1B960
:10071A000059BA002DEC8BF084CFCECDFCE5F0CB9E
:10072A00F97818EF2FFFEE33FEED33FDEC33FCEBD7
:10073A0033FB10D703994004EB99FB0FD8E5E4F992
:10074A00FA227818EF2FFFEE33FEED33FDEC33FC7F
:10075A00C933C910D7059BE99A4007EC9BFCE99A73
:10076A00F90FD8E0E4C9FAE4CCFB2275F010EF2FB8
:10077A00FFEE33FEED33FDCC33CCC833C810D707B8
:10078A009BEC9AE899400AED9BFDEC9AFCE899F8F3
:0E079A000FD5F0DAE4CDFBE4CCFAE4C8F92286
:1007A800EB9FF5F0EA9E42F0E99D42F0E89C45F0A7
:0107B800221E
:1007B900BB010789828A830208125005E9F80208F9
:1007C90006BBFE05E9F802081E89828A8302082A07
:10005600E538242CF8E60538227829300F02782C6A
:10006600E475F00112083A0206AF2008EB7F2ED2A3
:10007600088018EF540F2490D43440D4FF300C0B72
:10008600EF24BFB41A0050032461FFE5396002155E
:1000960039053CE53C7002053B300F0D7829E475C7
:1000A600F00112083AEF0206C8020F757403D20F68
:1000B6008003E4C20FF5388B298A2A892BE4F539A7
:1000C600F53BF53CE53960077F2012009180F57518
:1000D6003AFFC209C208C20AC20BC20DC20EC21042
:1000E60012005FFF700D300F057F001200A2AF3CBB
:1000F600AE3B22B4255FC2D5C20C12005FFF24D0EE
:10010600B40A00501A75F00A783930D50508B6FFDA
:100116000106C6A426F620D5047002D20B80D92487
:10012600CFB41A00EF5004C2E5D20C0202A2D209E3
:1001360080C6D20880C0D20A80BCD2D580BAD20D81
:1001460080B47F20120091200A077401B53900405F
:10015600F1120056FF1200910200CAD210D20E8090
:1001660095120056FB120056FA120056F94A4B70C9
:100176000679737A037BFF200A2EE539602A7E0012
:100186008E827583001207D960060EEE653A70F00E
:10019600C2D5EBC0E0EAC0E0E9C0E0EE1202E9D069
:1001A600E0F9D0E0FAD0E0FB1206AFFF60AAEBC0A0
:1001B600E0EAC0E0E9C0E0120091D0E02401F9D005
:1001C600E03400FAD0E0FBE53A0460DCD53AD980A9
:1001D600877BFF7A0279E5D20A809C7910800279C2
:1001E60008C20EC2108008D2D5790A8004790AC2E4
:1001F600D5E53A047002F53AE4FAFDFEFF12005620
:10020600FC7B08200913120056FD7B1030080A12E9
:100216000056FE120056FF7B20EC3382D592D55055
:1002260013C3E43008069FFFE49EFEE42009039D05
:10023600FDE49CFCE4CBF8C209EC700CCFCECDCC2F
:10024600E824F8F870F38017C3EF33FFEE33FEEDC2
:1002560033FDEC33FCEB33FB994002FB0FD8E9EBA3
:10026600300905F8D0E0C448B209C0E00AEC4D4EAA
:100276004F78207B0070C2EAB53A0040BCC0E0125D
:1002860002EBD0F0D0E0200904C4C0E0C4B209C03B
:10029600F012007AD0F0D5F0EB0200CA12084A013B
:1002A600675301E15801384C01344201E54F01ED35
:0F02B6004401ED49014D4301F35501D74601D7EE
:1002C5004501D747039350013C2D01402E01632B77
:1002D500014423016120037C2A00FC480000015BE6
:1002E5003F3F3F00790AA2D5200B14300D09B91004
:1002F500020404B9080104A2D5200E02500104200D
:100305000A68920AB539005034C0E07F20300B19D5
:100315007F30A20A720E720D500F120342C20AC23A
:100325000EC20DC2107F30800F300D03E9C0E01200
:100335000091300D03D0E0F9D0E0B539CC300D1780
:100345007F30B9100C1200917F58300C077F7880F0
:1003550003B90803120091300A057F2D0200917F31
:10036500202010F87F2B200EF322920A80CF286ED2
:10037500756C6C2900D2091200563009F8C209784B
:100385003930D50108F60200FC2D504349581200BA
:10039500562403B405004001E490038E93120082B5
:0D03A500743A120082D20B7539040201E196
:10111A0010150B121135BF0D027F0A020F75AF7041
:01112A0022A2
:100B2800020E30E493A3F8E493A34003F68001F2A5
:100B380008DFF48029E493A3F85407240CC8C333CE
:100B4800C4540F4420C8834004F456800146F6DF9D
:100B5800E4800B010204081020408090113FE47EDD
:100B6800019360BCA3FF543F30E509541FFEE49392
:100B7800A360010ECF54C025E060A840B8E493A359
:100B8800FAE493A3F8E493A3C8C582C8CAC583CA84
:100B9800F0A3C8C582C8CAC583CADFE9DEE780BE3C
:0111470000A7
:1007D900BB010CE58229F582E5833AF583E02250D5
:1007E90006E92582F8E622BBFE06E92582F8E2221F
:0D07F900E58229F582E5833AF583E4932239
:0C080600E6FC08E6FD08E6FE08E6FF221E
:0C081200E0FCA3E0FDA3E0FEA3E0FF2259
:0C081E00E2FC08E2FD08E2FE08E2FF2216
:10082A00E493FC740193FD740293FE740393FF2214
:10083A00FAE6FB0808E6F925F0F618E6CA3AF622BF
:10084A00D083D082F8E4937012740193700DA3A33D
:10085A0093F8740193F5828883E473740293686051
:06086A00EFA3A3A380DF51
:100F7500EFB40A07740D120F80740A309811A899FE
:100F8500B8130CC2983098FDA899C298B811F630DC
:070F950099FDC299F59922B4
:0A1135003098FDAF99C2987E0022A9
:00000001FF
