:05004D002530356400C0
:0A1958007BFF7A00794D75370322FA
:1018EA0043E24043A41043A50243A4045380FB22CD
:0A194E0043B20375EF04E4F5A9228B
:1017AE0043D103E4F5F4F5FB75F708F59B759A3F05
:1017BE00F5BD75C60875F38130EAFD75F380E4FE5C
:0217CE00FF22F8
:1017880043E10143E240E4F5D443A41043F120755A
:101798009810758D96438E08858D8B53890F4389D4
:0617A80020D28ED299222E
:0F18FA0043E210E4F58CF58A4389254388502298
:10189C0043918043910443E68043F680E4F594F54C
:0618AC0095F592F5932270
:04198A0043B1202223
:0F19090043E201E4F5D875D90875DACBD2DE22B6
:10000300AFA88F5AAFE68F5BE4F5A8F5E6D2ACD282
:0E001300AF12195875382012090343870122D5
:10188500A2AF92AFA2AC92AC855AA8855BE61219BD
:071895005875382102090318
:0519850025303564006F
:100EBA00900002AB2AAA2BA92C0200B190000512BD
:100ECA0000B124D0FFC3940022AB2AAA2BA92C126A
:100EDA000098D364802290003F740175F0952290A7
:100EEA0000030200B19000040200B1AB2AAA2BA9A8
:100EFA002C2290003F740175F096227BFF7A1979B3
:100F0A008522F9E43AFAE52DFD3395E0FCE92DF95D
:100F1A00EA3CFAEF120111052D22AB2AAA2BA92CC1
:100F2A0022F9E4352BFAE92FF9EA3EFAE412011123
:100F3A000F22120098FFD36480229000010200B1B0
:100F4A009000081200B124D0FEC39400229000063B
:100F5A000200B1C3EF6480948222120098C36480B5
:010F6A002264
:060DFF008B2A8A2B892CCF
:100E0500E4F52D90003FF5F08045120EB0900001FD
:100E1500EF1201236478603C120F44FFB40A0FE51A
:100E25002D700B90003F740375F0E80201FFEF642D
:100E35000A6021C3E52D648094835008E9240212D9
:100E45000F0C80C6120F2490003F740175F09412A8
:100E550001FF80B6E4F52D120F24120F44640A60D9
:100E65002E120EB0900001EF120123640A6020C318
:100E7500E52D64809488500C120F44FFE924051277
:100E85000F0C80DD120F24120EE01201FF80D2122A
:100E95000F24E52D120111120F24120F44640A606C
:0A0EA500061218D9BF0AFA120F2432
:0B0EAF00221218D9AB2AAA2BA92C2272
:1004A5008B2A8A2B892C9000021200B1FFB4531AB3
:1004B500120EE9B4541490003FE475F0FE1201FFEA
:1004C500900041E412012302088BEF64536003029C
:1004D50005A0120EE9645360030205A0120EEF6435
:1004E5004560030205A0120F3C948540030206B83F
:1004F500120F57FE642C6005120F5D40061200981E
:10050500FF70030205D5EE642C600B120F5D4006EB
:10051500120EF50205EC900006120EBDB42C0A125F
:100525000F64948350030205EC120EC64052EFD3BC
:1005350094074003020623120ED3948240119000C3
:1005450007120EC94006EFD3940940030206231291
:100555000EF5120F3C9483400E120F4A4006EED35F
:1005650094094003020623D3EF6480948440141257
:100575000EF5900009120EC94006EFD39409400309
:10058500020623120ED39484400812088F400302FA
:10059500068A120EF51212D702088B120EBA645390
:1005A500600302069C120EE96444600302069C1275
:1005B5000EEF6449600302069C120F3C94854003CC
:1005C5000206B8120F57FE642C6010120F5D500B17
:1005D50090003F740175F097020875EE642C601267
:1005E500120F649482400B90003F740175F09802DD
:1005F5000875120F57B42C12120F649483500B9088
:10060500003F740175F098020875120EC6400FEF91
:10061500D3940650099000051200B130E006120E81
:10062500FC020875120ED394824014900007120E36
:10063500C94006EFD394094006120EFC0208751254
:100645000EF5120F3C94834011120F4A4006EED36B
:1006550094094006120EFC020875D3EF6480948459
:100665004017120EF5900009120EC94006EFD394FB
:10067500094006120EFC020875120ED39484400E32
:1006850012088F4009120EF5120EFC020875120EA3
:10069500F512125702088B120EBA64477035120E06
:1006A500E96453702E120EEF64457027120ED9942B
:1006B500814006120EE0020875120EC64006EFD301
:1006C50094074006120EFC020875120EF5121685E7
:1006D50002088B120EBA64477035120EE964447035
:1006E5002E120EEF64497027120ED9948640061219
:1006F5000EE0020875120EC64006EFD394064006BA
:10070500120EFC020875120EF512142D02088B123A
:100715000EBA64537035120EE96447702E120EEF4F
:1007250064417027120ED994814006120EE002082A
:1007350075120EC64006EFD394074006120EFC0252
:100745000875120EF51210B502088B120EBA644721
:10075500701F120EE9B45419120EEFB43013120EB5
:10076500D994804006120EE0020875120056020860
:100775008B120EBA6447701F120EE9B45419120E8B
:10078500EFB43213120ED994804006120EE002081F
:100795007512183102088B120EBA64537020120EAE
:1007A500E964487019120EEFB44113120ED9948002
:1007B5004006120EE00208751215B602088B120EDD
:1007C500BA6447701F120EE9B45219120EEFB450F5
:1007D50013120ED994804006120EE0020875121706
:1007E500D002088B120EBA6450701F120EE9B4576E
:1007F50019120EEFB44D13120ED994804006120E45
:10080500E00208751216FF02088B120EBA644E70CC
:100815001E120EE9B45418120EEFB45012120ED96E
:1008250094804005120EE0804712193602088B129B
:100835000EBA6453701D120EE9B44C17120EEFB4C4
:100845005011120ED994804005120EE0802212003C
:10085500038033120EBA6457701E120EE9B44B189A
:10086500120EEFB45012120ED994804006120EE00B
:100875000201FF121885800E120EF590003F7401DB
:1008850075F0941201FF120EF522E92407F9E43AF6
:0C089500FA120F6BD3EF94FFEE940022D8
:1011CD0090003F1201701203D611FE00FB120600B3
:1011DD00FC120E00FD121600FE121E0194122901C2
:1011ED009512340196123F0197124A019800001290
:1011FD0056120F057537FB804D120F057537FC80A4
:10120D0045120F057537FD803D120F057537FE80B0
:10121D0035120F05753701753894802A120F057533
:10122D003701753895801F120F0575370175389682
:10123D008014120F057537017538978009120F0547
:0A124D007537017538981209032265
:061604008B2A8A2B892CC1
:10160A00E4FFFEAB2AE52C2405120F2BBF00010EC6
:10161A00EF64084E70EDE4FEFFAB2AE52C240212BB
:10162A000F2BBF00010EEF64034E70EDAB2AAA2BFD
:0B163A00A92C90003FE4F5F00201FF36
:0418B200025C0000D4
:0300530002196C23
:09196C0030EDFDC2ED75150132EC
:030023000219754A
:09197500309805C2987514013286
:0300730002155A19
:10155A00C0E0C0F0C083C082C0D075D000C000C057
:0D156A0001C002C003C004C005C006C007D8
:1015770053917F5391BFC3E55D9403E55C64809409
:1015870080400912173A755C00755D00055DE55DE1
:041597007002055C7D
:10159B00D007D006D005D004D003D002D001D000A4
:0B15AB00D0D0D082D083D0F0D0E0324E
:1017F2006E6F20686179206C75676172207061720A
:1018020061207368656C6C21210A0053544F500AA1
:0118120000D5
:10002600AB26E5282425F9E43527FAAF29EF3395E1
:10003600E0FEEF25E0FFEE33FEE92FF9EA3EFA2275
:07004600AB26AA27A928221E
:100BFD00E4F52953D9BF7F44FE121019AA06A9079F
:100C0D007B018B268A278928900042E4120123E577
:100C1D002845274526700B7BFF7A1779F2120903B9
:100C2D0080FEE4F529120026E4F5F01201E0052915
:100C3D00E529B40CF012194E1218EA12198A12177E
:100C4D00881219091217AE1218FA12189C120046C2
:100C5D0090004174011201231200469000411200D0
:100C6D00B164017026121604120046120DFF120017
:100C7D004690003F12017045F06002800912004657
:100C8D001204A51200461211CD80CDE4F5291200F3
:100C9D0026120145FDE528240DF9E43527FA120049
:100CAD003FE5F08DF01201E00529E529B40CDFC216
:100CBD00ED75C60875F38343E608D2AFD2ACE514E3
:100CCD00601DE4F5F3C2AFF5141200469000410427
:100CDD001201237BFF7A18790D120903020C65C2EC
:100CED00ACE51560D7E4F5151218138F198E188D14
:100CFD00178C16120046120D17EF60097B007A0053
:0A0D0D0079161213BF12164580B2CA
:10184E0054696D657230203A20256C750A00546912
:0C185E006D657232203A20256C750A007E
:0B1943007BFF8F3A8E398D388C3722E5
:10005600E4F552F553858C54858A55AF55AE54ADAB
:0D00660053AC527A18794E12194302090367
:10183100E4F556F55785CD5885CC59AF59AE58AD1D
:0D18410057AC567A18795C1219430209035E
:1014FA002530356C75002B2530346C75002D253060
:10150A00346C75007365206465746F6E6F20746F38
:10151A00646F0A006964783A2025690A00414443E5
:10152A00304D55583A20307825780A007661723A5B
:10153A002025690A004144435B25695D3A202575E7
:10154A000A0041444330434E3A20307825630A006A
:10135000F9E4352BFAAF2DEF3395E0FEEF25E0FFF2
:10136000EE33FEE92FF9EA3EFA22E47B02FAF9F8BD
:1013700012022C8F3A8E398D388C377BFF22E4F5A0
:10138000151218138F118E108D0F8C0E7B007A00A2
:10139000790E229000050200B1AB2AAA2BA92C904D
:1013A00000422290003F740175F09622AB2DAA2EC8
:0F13B000A92F90003F0201FFAB2DAA2EA92F22DB
:10181300E4F50885C50985C40A85C30B7B367A1AA6
:0D182300F9F8AF0BAE0AAD09AC081202B720
:011830002295
:1010B5008B2D8A2E892F75F3801213931203B0108E
:1010C500E03010E53110EE3210F833110234110C16
:1010D500351116361120370000112A53F4F08051CE
:1010E500E5F454F004F5F48048E5F454F02402F5F1
:1010F500F4803EE5F454F02403F5F48034E5F4542B
:10110500F02404F5F4802AE5F454F02405F5F48080
:1011150020E5F454F02406F5F48016E5F454F024A3
:1011250007F5F4800C740175F0971213AC75F38311
:0C1135002275F383E475F0FD1213AC2268
:1016450075F380E5C6540FFFBF0815E5C6B47808E5
:1016550043F41075C6018024741025C6F5C6801C98
:10166500E5C6540FC394085016E5C6B4670853F48D
:10167500EF75C6088006742225C6F5C675F3832264
:0613BF008B308A318932F7
:1013C500AFC68F33E533540FFFBF080C12037012FD
:1013D50013737A1479FA804CE533540FC3648094FF
:1013E500885044AB30AA31A932120370E47BE27A0B
:1013F50004F9F8D312035FAB30AA31A932400C12BD
:10140500037012136A7A1579008019120390C37458
:10141500D89BFF74099AFEE499FDE498FC12136ABF
:071425007A15790712090393
:01142C00229D
:060D17008B2A8A2B892CB7
:100D1D00E5C6540FFFE5C6C4540FFEEF75F008127B
:100D2D000076ADF0D3ED6480948012139940077472
:100D3D00011200DE8004E41201231213991200B196
:100D4D00FDC3EE9F24082DF52DC36480948C505C5B
:100D5D00E9240DF9E43A121354120145FDACF04C9F
:100D6D007002FF22ED64014C7023AB2AE52C242583
:100D7D00121350120145FDE52C240DF9E4352BFA23
:100D8D00121363E5F08DF01201E07F0122AB2AE52D
:100D9D002C240D121350120145D39401E5F094004B
:100DAD00404D74FFF5F01201A87F00227BFF7A15EC
:100DBD00790E1209037BFF7A15791EAF2DEF33954E
:100DCD00E0F5378F381209037BFF7A157927AFC607
:100DDD008F371209031213991200B1FF3395E0F505
:100DED00378F387BFF7A1579361209037FFF227F03
:010DFD0000F5
:010DFE0022D2
:1012D7008B2D8A2E892FE92407F9E43AFA120F6B2E
:1012E7008E0C8F0DE4FCFDFBFA7901F8C31203495C
:1012F70050081213B81213A3804B1213B81213938A
:10130700FF3395E0FEEF24D0F513EE34FFF512C35B
:10131700648094804025E5139408E51264809480E6
:101327005019E92425F9E43AFAE51325E0FFE51217
:10133700121361E50C850DF01201E01213B890004D
:091347003FE475F0FB1201FF22E6
:101257008B2D8A2E892FE92407F9E43AFA120F6BAE
:101267008E0C8F0DAB2DAA2EA92F12139324CE60AF
:101277001424FE601824FE601C24067020751200DA
:10128700751308801D7512007513098015751200F6
:1012970075130A800D75120075130B80051213A3C1
:1012A700802AAB2DE52F2425F9E4352EFAE5132501
:1012B700E0FFE512121361E50C850DF01201E0ABBA
:1012C7002DAA2EA92F90003FE475F0FC1201FF22F2
:101685008B2D8A2E892F121393FFC454F02408F54D
:10169500C6C2EDE4F5FB75F38243E608D2AFE51566
:1016A50060FC12137E1213BFE4F5F3C2AF53E6F7E5
:0E16B500AB2DAA2EA92F90003FF5F00201FFE9
:10142D008B2D8A2E892F12139324CE601424FE60E7
:10143D001824FE601C2406702043F41075C601802C
:10144D001D43F41075C623801543F41075C64580F1
:10145D000D43F41075C66780051213A38027C2EDE6
:10146D0075F38243E608D2AFE51560FC12137E12C8
:10147D0013BFE4F5F3C2AF53E6F7AB2DAA2EA92F98
:09148D0090003FF5F01201FF226E
:0615B6008B2D8A2E892F07
:1015BC00E4F530AF30EF3395E0FEF5378F38AB2DD7
:1015CC00E52F2425F9E4352EFA12135C120145F5AA
:1015DC003A85F0397BFF7A15793F1209030530C340
:1015EC00E5306480948C40CB7BFF7A15794CAFF45A
:0815FC00EF2430F5370209036A
:0F191800256C75202B2D313530207270730A002D
:0418B60002508CA0B0
:1017D000E47F96FEFDFCAB4FAA4EA94DA84C120229
:1017E0002C8F3A8E398D388C377BFF7A1979180215
:0217F0000903EB
:10173A00E4F548F549858C4A858A4BAF4BAE4AADEC
:10174A0049AC488F4F8E4E8D4D8C4C7D12FC121435
:06175A0096E4F58CF58A0F
:011760002266
:101496008E228F238C248D25E5252402FFE4352416
:1014A600FED3E5239FE5229E400A74322551F5516D
:1014B600E41214EFE52524FEFFE52434FFFEC3E520
:1014C600239FE5229E500B74CE2551F55174FF12D1
:1014D60014EFAE50AF51E4FCFD7BF07A81F9F8D3FE
:1014E6001203494003121936223550F550AF51FE0A
:0414F60012197E2227
:1016FF00D2827FE87E0312186A7FD812172D7F746B
:10170F0012172D7FF07E8112197E7F587E021218DC
:10171F006A7FA07E8C12197E43E680D2AF227EA410
:0B172F0012197E7F587E0212186A22F9
:0D19360053E67F7FDC7EFF12197EC2822205
:07197E00EFF5E9EEF5EA22A6
:10186A00E4FDFC30D8FDC2D80DBD00010CC3ED9FCC
:0B187A00EE6480F8EC64809840E922E6
:03000000021141A9
:0C114100787FE4F6D8FD75815D0211880E
:10007600C2D530F707B2D563F0FF05F030E70CB212
:10008600D5F4048463F0FF05F080018430D502F4D2
:02009600042242
:10009800BB010689828A83E0225002E722BBFE0266
:0900A800E32289828A83E4932299
:1000B100BB010CE58229F582E5833AF583E0225004
:1000C10006E92582F8E622BBFE06E92582F8E2224E
:0D00D100E58229F582E5833AF583E4932268
:1000DE00BB010FF8E58229F582E5833AF583E02826
:1000EE00F0225009C58229F8E58226F622BBFE09C8
:1000FE00C58229F8E22582F222F8EA2583F583E902
:03010E0093282211
:10011100BB010689828A83F0225002F722BBFE01CD
:02012100F322C7
:10012300F8BB010DE58229F582E5833AF583E8F012
:10013300225006E92582C8F622BBFE05E92582C8BE
:02014300F222A6
:10014500BB010A89828A83E0F5F0A3E02250068785
:10015500F009E71922BBFE07E3F5F009E319228947
:0B016500828A83E493F5F0740193227A
:10017000BB0110E58229F582E5833AF583E0F5F0CD
:10018000A3E0225009E92582F886F008E622BBFEAA
:100190000AE92582F8E2F5F008E222E5832AF583F0
:0801A000E993F5F0A3E99322B5
:1001A800BB010789828A83020415500B09C5F02711
:1001B800F7C5F01937F722BBFE0D09F8E325F0F370
:1001C800C5F019E338F322F889828A8374019325EC
:0801D800F0C5F0F8E4933822B1
:1001E000BB010A89828A83F0E5F0A3F0225006F76A
:0F01F00009A7F01922BBFE06F3E5F009F3192267
:1001FF00F8BB0111E58229F582E5833AF583E8F032
:10020F00E5F0A3F0225009E92582C8F608A6F022EE
:0D021F00BBFE09E92582C8F2E5F008F222D5
:10022C00E88FF0A4CC8BF0A42CFCE98EF0A42CFC71
:10023C008AF0EDA42CFCEA8EF0A4CDA8F08BF0A4EF
:10024C002DCC3825F0FDE98FF0A42CCD35F0FCEB4E
:10025C008EF0A4FEA9F0EB8FF0A4CFC5F02ECD3913
:0F026C00FEE43CFCEAA42DCE35F0FDE43CFC2280
:10027B0075F008758200EF2FFFEE33FECD33CDCC3A
:10028B0033CCC58233C5829BED9AEC99E5829840BD
:10029B000CF582EE9BFEED9AFDEC99FC0FD5F0D69A
:1002AB00E4CEFBE4CDFAE4CCF9A88222B800C1B9C4
:1002BB000059BA002DEC8BF084CFCECDFCE5F0CB02
:1002CB00F97818EF2FFFEE33FEED33FDEC33FCEB3B
:1002DB0033FB10D703994004EB99FB0FD8E5E4F9F6
:1002EB00FA227818EF2FFFEE33FEED33FDEC33FCE3
:1002FB00C933C910D7059BE99A4007EC9BFCE99AD7
:10030B00F90FD8E0E4C9FAE4CCFB2275F010EF2F1B
:10031B00FFEE33FEED33FDCC33CCC833C810D7071B
:10032B009BEC9AE899400AED9BFDEC9AFCE899F856
:0E033B000FD5F0DAE4CDFBE4CCFAE4C8F922E9
:10034900EB9FF5F0EA9E42F0E99D42F0EC6480C82B
:0603590064809845F022CB
:10035F00EB9FF5F0EA9E42F0E99D42F0E89C45F0F4
:01036F00226B
:10037000BB010789828A830204375005E9F8020429
:100380002BBBFE05E9F802044389828A8302044FED
:10039000BB010789828A8302046C5005E9F80204D4
:1003A0005FBBFE05E9F802047889828A830204852E
:1003B000D083D082F8E4937012740193700DA3A3DC
:1003C00093F8740193F5828883E4737402936860F0
:0603D000EFA3A3A380DFF0
:1003D600D083D082F8E4937012740193700DA3A3B6
:1003E60093F8740193F5828883E473740293B5F0ED
:0D03F600067403936860E9A3A3A3A380D855
:1008A100E5432437F8E605432278343007027837E8
:1008B100E475F0011204950200982000EB7F2ED21E
:1008C100008018EF540F2490D43440D4FF30040B2F
:1008D100EF24BFB41A0050032461FFE54460021500
:1008E100440547E5477002054630070D7834E47545
:1008F100F001120495EF0201110217617403D2078E
:100901008003E4C207F5438B348A358936E4F54424
:10091100F546F547E54460077F201208DC80F57550
:1009210045FFC201C200C202C203C205C206C2081B
:100931001208AAFF700D3007057F001208EDAF47BE
:10094100AE4622B4255FC2D5C2041208AAFF24D044
:10095100B40A00501A75F00A784430D50508B6FF7C
:100961000106C6A426F620D5047002D20380D9243C
:10097100CFB41A00EF5004C2E5D204020AEDD2014D
:1009810080C6D20080C0D20280BCD2D580BAD20546
:1009910080B47F201208DC2002077401B5440040B6
:1009A100F11208A1FF1208DC020915D208D2068053
:1009B100951208A1FB1208A1FA1208A1F94A4B707D
:1009C1000679BE7A0B7BFF20022EE544602A7E0069
:1009D1008E827583001200B160060EEE654570F0DF
:1009E100C2D5EBC0E0EAC0E0E9C0E0EE120B34D0C2
:1009F100E0F9D0E0FAD0E0FB120098FF60AAEBC06A
:100A0100E0EAC0E0E9C0E01208DCD0E02401F9D05E
:100A1100E03400FAD0E0FBE5450460DCD545D9803F
:100A2100877BFF7A0B7930D202809C791080027922
:100A310008C206C2088008D2D5790A8004790AC2A0
:100A4100D5E545047002F545E4FAFDFEFF1208A163
:100A5100FC7B082001131208A1FD7B1030000A1253
:100A610008A1FE1208A1FF7B20EC3382D592D5505C
:100A710013C3E43000069FFFE49EFEE42001039DC2
:100A8100FDE49CFCE4CBF8C201EC700CCFCECDCCE4
:100A9100E824F8F870F38017C3EF33FFEE33FEED6F
:100AA10033FDEC33FCEB33FB994002FB0FD8E9EB50
:100AB100300105F8D0E0C448B201C0E00AEC4D4E67
:100AC1004F78207B0070C2EAB5450040BCC0E012FF
:100AD1000B36D0F0D0E0200104C4C0E0C4B201C0A4
:100AE100F01208C5D0F0D5F0EB0209151203B009D8
:100AF100B2530A2C5809834C097F420A304F0A38F5
:0F0B0100440A38490998430A3E550A22460A22F7
:100B1000450A22470BDE5009872D098B2E09AE2B83
:100B2000098F2309AC200BC72A094748000009A6F2
:100B30003F3F3F00790AA2D5200314300509B910C0
:100B4000020404B9080104A2D520060250010420C1
:100B500002689202B544005034C0E07F203003198F
:100B60007F30A20272067205500F120B8DC202C2B4
:100B700006C205C2087F30800F300503E9C0E012CD
:100B800008DC300503D0E0F9D0E0B544CC300517DF
:100B90007F30B9100C1208DC7F583004077F788052
:100BA00003B908031208DC3002057F2D0208DC7F40
:100BB000202008F87F2B2006F322920280CF286E97
:100BC000756C6C2900D2011208A13001F8C20178BD
:100BD0004430D50108F60209472D50434958120800
:100BE000A12403B405004001E4900BD9931208CD71
:0D0BF000743A1208CDD203754404020A2C99
:1018D90010090B121962BF0D027F0A021761AF1FAF
:0118E90022DC
:100F6B008B308A318932AB30AA31A932120098FF0B
:100F7B001218C6500D74012532F532E43531F531B6
:100F8B0080E4D200AB30AA31A932120098FF642B57
:100F9B006004EFB42D1BAB300532E532AA31700281
:100FAB00053114F9120098642D6003D38001C392AC
:100FBB0000E4F533F534AB30AA31A932120098FFB7
:100FCB001219275036AB30AA31A932120098FF33D1
:100FDB0095E0FEEF24D0FBEE34FFFAAE33AF347C5A
:100FEB00007D0A120403EF2BF534EE3AF53374014E
:100FFB002532F532E43531F53180BB300006AE33A6
:0E100B00AF348009C3E49534FFE49533FE2230
:101019008E2A8F2B7E007F008F828E83E0FCA3E0D7
:10102900FD4C7003FEFF228D828C83A3A3E0FAA3FB
:10103900E0FBC3952BEA952A5008CEECCECFEDCF35
:1010490080D6C3EB952BF52DEA952AF52CC3E52D12
:101059009410E52C940050198D828C83E0FBA3E059
:101069008F828E83CBF0A3EBF0ED2404FFE43CFEEA
:101079002274FC252DF52D74FF352CF52C8D828CD1
:1010890083A3A3F0A3E52DF0ED2404FFE43CFEEFD8
:10109900252DFFEE352CFE8F82F583A3A3E52AF0DB
:0C10A900A3E52BF0EF2404FFE43EFE2240
:10114D00020BFDE493A3F8E493A34003F68001F2B0
:10115D0008DFF48029E493A3F85407240CC8C333A3
:10116D00C4540F4420C8834004F456800146F6DF72
:10117D00E4800B01020408102040809018B2E47E38
:10118D00019360BCA3FF543F30E509541FFEE49367
:10119D00A360010ECF54C025E060A840B8E493A32E
:1011AD00FAE493A3F8E493A3C8C582C8CAC583CA59
:1011BD00F0A3C8C582C8CAC583CADFE9DEE780BE11
:0118BA00002D
:10040300EF8DF0A4A8F0CF8CF0A428CE8DF0A42E0D
:02041300FE22C7
:10041500C5F0F8A3E028F0C5F0F8E5821582700272
:060425001583E038F0220F
:0C042B00E6FC08E6FD08E6FE08E6FF22FD
:0C043700E0FCA3E0FDA3E0FEA3E0FF2238
:0C044300E2FC08E2FD08E2FE08E2FF22F5
:10044F00E493FC740193FD740293FE740393FF22F3
:0D045F00E6FB08E6F908E6FA08E6CBF8220D
:0C046C00E0F8A3E0F9A3E0FAA3E0FB2213
:0D047800E2FB08E2F908E2FA08E2CBF82204
:10048500E493F8740193F9740293FA740393FB22CD
:10049500FAE6FB0808E6F925F0F618E6CA3AF62268
:10176100EFB40A07740D12176C740A309811A89916
:10177100B8130CC2983098FDA899C298B811F630E8
:0717810099FDC299F59922C0
:0A1962003098FDAF99C2987E002274
:0F192700EFC394304007EF943A50028001C3227F
:1018C600EFC394094005EF940E4003BF2003D38075
:0318D60001C32229
:0B18BB004800000000000000000000DA
:1016C300EF4E7008FE7F01ED1D70011C900000EECF
:1016D300F0A3EFF0A3ECF0A3EDF0900000E0FEA385
:1016E300E0FFF5828E83E4F0A3F0ED24FCFDEC34FF
:0C16F300FF8F828E83A3A3F0A3EDF022F2
:00000001FF
