:1007E100636F6E74656E69646F20656E2030783159
:1007F1006235383A2025640A006C61206C656374A7
:10080100757261206E6F2064696F20353030006C25
:1008110061206C656374757261206E6F20747576EA
:0E0821006F206572726F7265730025730A0096
:100879007D587C1BE4F528F529FB7A007928F52FAA
:1008890075300212082F7BFF7A0779E185282D85BB
:10089900292E120065E529640845287003D38001D3
:1008A900C37BFF40057A0779FA227A08791012008A
:0708B900657B007A00790065
:0108C0002215
:100A31001208798B258A2689270500E500700205B1
:070A410000EA494B600122AD
:070A48007B007A0079002217
:1009400053D9BF120A96120AA9120A4F120A318B02
:10095000228A238924AE02AF01EF4E600F8B2D8ACD
:0E0960002E892F7BFF7A08792B12006580FE0E
:10096E00A2AF9209C2AF75FF8075EF028F828E83A0
:10097E0075B7A575B7F1438F0175FF8075EF02ED61
:08098E00F0538FFEA20992AFA5
:01099600223E
:100A6C00A2AF9200C2AF8F828E83E493FFA200925A
:010A7C00AFCA
:010A7D002256
:10099700A2AF920AC2AF75FF8075EF028F828E8376
:1009A70075B7A575B7F1438F0375FF8075EF02E43F
:0809B700F0538FFCA20A92AF7D
:0109BF002215
:0804C8008E088F098C0A8D0BD0
:1004D000751202751300E51324FFFFE51234FFFEC9
:1004E000EFF4FFEEF4FE5508F50CE5095FF50D2578
:1004F00013CDE50C3512CD24FFF50FED34FFF50ECD
:10050000E509250BFDE508350A5EF510ED5FF511EF
:100510002513CFE5103512CF24FFCF34FFFEE50FB2
:100520006F7003E50E6E705EFF7E1A120997120758
:100530007AE42509FFE508341AFEC3EF950DFFEEB6
:10054000950CFEE50B2FF515E50A3EF514E509259A
:100550000BF517E508350AF516C3E50F9509FFE514
:100560000E9508FEC3EF950BFFEE950ACF2401F51B
:1005700019E43F120791AF0DAE0C120997850C14C8
:10058000850D150205FB7F007E1A12099712077A66
:10059000AF0DAE0C120997850C14850D1575161A42
:1005A000751700851218851319AA181207947F0071
:1005B0007E1A120997C3E50F9509CFE50E9508CF6E
:1005C0002401CF3400FEC3E50B9FFFE50A9EFEE445
:1005D0002FF515EE341AF514E5112FF517E5103E39
:1005E000F516C3E5139FF519E5129E120791AF1199
:1005F000AE1012099785101485111575161A751706
:0E06000000851218851319AB19AA1812079657
:01060E0022C9
:100A0D008E588F598B5A8A5B895CAD5EAC5D120432
:100A1D00C8AB5AAA5BA95C855D43855E44AF59AEF0
:040A2D00580208C1A2
:0A08C1008E3E8F3F8B408A41894232
:1008CB00853E45853F46E53F2544FFE53E3543FEE6
:1008DB00C3E5469FE5459E5023AB400542E542AA42
:1008EB00417002054114F912060FFDAF46AE4512D9
:0C08FB00096E0546E54670CE054580CA32
:0109070022CD
:0A082F008B2A8A2B892C8C2D8D2E2C
:10083900E4F531F532C3E5329530E531952F50298C
:10084900E52E2532FFE52D3531FE120A6CAB2A055E
:100859002CE52CAA2B7002052B14F9EF120628059A
:0F08690032E53270D0053180CCAB2AAA2BA92CF6
:01087800225D
:10077A0075141A751500850C16850D17C3E50995AC
:10078A000DF519E508950CF518FAAB19AD17AC1665
:04079A00AF15AE14D5
:0C079E008E508F518C528D538A548B5515
:1007AA00E4F556F557C3E5579555E5569554502641
:1007BA00E5532557FFE5523556FE120A6CAD07E59B
:1007CA00512557FFE5503556FE12096E0557E55774
:0607DA0070D3055680CF2C
:0107E00022F6
:040908008E478F483F
:10090C00E4F54EF54FAE4EAF4FE4FCFDAB4CAA4BAD
:10091C00A94AA849D31206844019E548254FFFE59A
:10092C0047354EFEAD4D12096E054FE54F70D6059D
:03093C004E80D218
:01093F002295
:1006F80050756572746F20302E303A200A0050759C
:100708006572746F20302E313A200A005075657278
:10071800746F20302E323A200A0050756572746F5B
:1007280020302E333A200A0050756572746F2030DD
:100738002E343A200A0050756572746F20302E35B9
:100748003A200A0050756572746F20302E363A20B0
:100758000A0050756572746F20302E373A200A00EF
:10076800455354414D4F5320454E204C4120422083
:020778000A0075
:10035F008B1A8A1B891C12063AFFAEF0E5F0600378
:10036F000204B3EFB4080040030204B3900382F811
:10037F0028287302039A0203CB0203E1020412023C
:10038F00042802045702046C02049B7BFF7A06794F
:10039F00F8120065E500640145007013F500F500E3
:1003AF0043F410AB1AAA1BA91C75F0010204AEABE3
:1003BF001AAA1BA91CE475F0080204AE7BFF7A078A
:1003CF007906120065AB1AAA1BA91CE475F0180276
:1003DF0004AE7BFF7A077914120065E500640145CE
:1003EF00007013F500F50043F410AB1AAA1BA91CFB
:1003FF0075F0230204AEAB1AAA1BA91CE475F028F2
:10040F000204AE7BFF7A077922120065AB1AAA1B92
:10041F00A91CE475F0380204AE7BFF7A077930121D
:10042F000065E500640145007012F500F50043F426
:10043F0010AB1AAA1BA91C75F0458063AB1AAA1B37
:10044F00A91CE475F0488057AB1AAA1BA91CE475C8
:10045F00F0581206657BFF7A07793E804D7BFF7A55
:10046F0007794C120065E500640145007012F50034
:10047F00F50043F410AB1AAA1BA91C75F067801F77
:10048F00AB1AAA1BA91CE475F06880137BFF7A07CF
:10049F00795A120065AB1AAA1BA91CE475F07812E1
:1004AF00066580097BFF7A077968120065AB1AAA87
:0904BF001BA91C12063AF5C62225
:0A0A960075E10175E25143A410223E
:070AA90043B20375EF0422C4
:1009E70043D103E4F5F4F5FB75F708759B03759A96
:1009F700BFF5BD75C60875F38130EAFD43E6087596
:060A0700F380E4FEFF2273
:100A4F00759810758D96538EF4438E08858D8B5344
:0D0A5F00890F438920D28ED299E4FEFF2238
:0C0A7E00E4F58CF58A438925438850225A
:090AA00043C805E4F5CCF5CD22B4
:040AB00043B120220C
:03000000020A8A67
:0C0A8A00787FE4F6D8FD75815E0209401B
:10060F00BB010689828A83E0225002E722BBFE02E9
:09061F00E32289828A83E493221C
:10062800BB010689828A83F0225002F722BBFE01B1
:02063800F322AB
:10063A00BB010A89828A83E0F5F0A3E0225006878B
:10064A00F009E71922BBFE07E3F5F009E31922894D
:0B065A00828A83E493F5F07401932280
:10066500BB010A89828A83F0E5F0A3F0225006F7E0
:0F06750009A7F01922BBFE06F3E5F009F31922DD
:10068400EB9FF5F0EA9E42F0E99D42F0E89C45F0CC
:010694002243
:10000300E539242DF8E6053922782A300702782DC0
:10001300E475F0011206C202060F2000EB7F2ED218
:10002300008018EF540F2490D43440D4FF30040BD5
:10003300EF24BFB41A0050032461FFE53A600215B0
:100043003A053DE53D7002053C30070D782AE4751D
:10005300F0011206C2EF0206280209C07403D20798
:100063008003E4C207F5398B2A8A2B892CE4F53AFD
:10007300F53CF53DE53A60077F2012003E80F575BB
:100083003BFFC201C200C202C203C205C206C208CC
:1000930012000CFF700D3007057F0012004FAF3DBB
:1000A300AE3C22B4255FC2D5C20412000CFF24D09B
:1000B300B40A00501A75F00A783A30D50508B6FF2D
:1000C3000106C6A426F620D5047002D20380D924E3
:1000D300CFB41A00EF5004C2E5D20402024FD2019A
:1000E30080C6D20080C0D20280BCD2D580BAD205ED
:1000F30080B47F2012003E2002077401B53A00400D
:10010300F1120003FF12003E020077D208D20680EC
:1001130095120003FB120003FA120003F94A4B7015
:100123000679207A037BFF20022EE53A602A7E00BF
:100133008E8275830012069560060EEE653B70F0A5
:10014300C2D5EBC0E0EAC0E0E9C0E0EE120296D00F
:10015300E0F9D0E0FAD0E0FB12060FFF60AAEBC093
:10016300E0EAC0E0E9C0E012003ED0E02401F9D0AB
:10017300E03400FAD0E0FBE53B0460DCD53BD980FA
:10018300877BFF7A027992D202809C791080027970
:1001930008C206C2088008D2D5790A8004790AC247
:1001A300D5E53B047002F53BE4FAFDFEFF120003C4
:1001B300FC7B08200113120003FD7B1030000A12A0
:1001C3000003FE120003FF7B20EC3382D592D5504F
:1001D30013C3E43000069FFFE49EFEE42001039D69
:1001E300FDE49CFCE4CBF8C201EC700CCFCECDCC8B
:1001F300E824F8F870F38017C3EF33FFEE33FEED16
:1002030033FDEC33FCEB33FB994002FB0FD8E9EBF6
:10021300300105F8D0E0C448B201C0E00AEC4D4E0D
:100223004F78207B0070C2EAB53B0040BCC0E012AF
:100233000298D0F0D0E0200104C4C0E0C4B201C0F1
:10024300F0120027D0F0D5F0EB0200771206D201AE
:100253001453018E5800E54C00E14201924F019A7C
:0F02630044019A4900FA4301A0550184460184E1
:100272004501844703405000E92D00ED2E01102B6B
:1002820000F123010E2003292A00A94800000108D9
:100292003F3F3F00790AA2D5200314300509B91067
:1002A200020404B9080104A2D52006025001042068
:1002B20002689202B53A005034C0E07F2030031940
:1002C2007F30A20272067205500F1202EFC202C202
:1002D20006C205C2087F30800F300503E9C0E01274
:1002E200003E300503D0E0F9D0E0B53ACC30051736
:1002F2007F30B9100C12003E7F583004077F78809F
:1003020003B9080312003E3002057F2D02003E7F32
:10031200202008F87F2B2006F322920280CF286E3D
:10032200756C6C2900D2011200033001F8C2017809
:100332003A30D50108F60200A92D5043495812005F
:10034200032403B405004001E490033B9312002F01
:0D035200743A12002FD203753A0402018E96
:10069500BB010CE58229F582E5833AF583E022501A
:1006A50006E92582F8E622BBFE06E92582F8E22264
:0D06B500E58229F582E5833AF583E493227E
:1006C200FAE6FB0808E6F925F0F618E6CA3AF62239
:1006D200D083D082F8E4937012740193700DA3A3B7
:1006E20093F8740193F5828883E4737402936860CB
:0606F200EFA3A3A380DFCB
:1009C000EFB40A07740D1209CB740A309811A89974
:1009D000B8130CC2983098FDA899C298B811F63097
:0709E00099FDC299F599226F
:00000001FF
