:100CBD0050756572746F20302E303A200A005075D1
:100CCD006572746F20302E313A200A0050756572AE
:100CDD00746F20302E323A200A0050756572746F91
:100CED0020302E333A200A0050756572746F203013
:100CFD002E343A200A0050756572746F20302E35EF
:100D0D003A200A0050756572746F20302E363A20E5
:100D1D000A0050756572746F20302E373A200A0024
:100D2D00455354414D4F5320454E204C41204220B8
:020D3D000A00AA
:04004D0075C608224A
:100A30008E788F79E5786003020AE9E579B40800D9
:100A40004003020AE9900A4CF8282873020A64025B
:100A50000A75020A86020A97020AA8020AB9020A5D
:100A6000C7020AD87BFF7A0C79BD1200B8757800EE
:100A7000757908807D7BFF7A0C79CB1200B8757888
:100A800000757918806C7BFF7A0C79D91200B875E3
:100A90007800757928805B7BFF7A0C79E71200B8C3
:100AA000757800757938804A7BFF7A0C79F51200E9
:100AB000B875780075794880397578007579587BF4
:100AC000FF7A0D790380287BFF7A0D79111200B827
:100AD000757800757968801A7BFF7A0D791F12008E
:100AE000B875780075797880097BFF7A0D792D12B9
:060AF00000B88579C62262
:0A162C0043A41075E10175E24022AD
:0716490043B20375EF042218
:1014520043D103E4F5F4F5FB75F708759B03759A20
:10146200BFF5BD75C60875F38130EAFD43E6087520
:06147200F380E4FEFF22FE
:10156700759810758D96538EF4438E08858D8B5321
:0D157700890F438920D28ED299E4FEFF2215
:04165E00E4FEFF2285
:04166200E4FEFF2281
:04166600E4FEFF227D
:04166A00E4FEFF2279
:1012B200766F6C74616A653A2025386C64206D56CD
:1012C2000A00456C2076616C6F72206E756D6572D6
:1012D20069636F2065733A202568690A0025686989
:0212E2000A0000
:0815A000024B0000024D0000A7
:1015080030EDFDC2EDE4F54785C54885C44985C37E
:101518004A7B367A1AF9F8AF4AAE49AD48AC471259
:021528000716A4
:01152A00229E
:1015FC007BFF7A1279B28F398E388D378C36020098
:01160C00B825
:10104F00E4F57AF57BEF3395E0FEEF24D0F550EE23
:10105F0034FFF54F7BFF7A1279C4F536855037127E
:10106F0000B8E55025E02400F87600087601E4F595
:10107F007AF57B7BFF7A1279DFE57B25E02400F898
:10108F00E6F53608E6F5371200B8057BE57B70020A
:0D109F00057AC39408E57A6480948040D6F9
:0110AC002221
:1010F400D3E54E9407E54D648094804005E4F54DB6
:10110400F54EE54E25E02400F8E6FE08E664014EBF
:101114007011054EE54E7002054D24FFFFE54D3478
:0D112400FFFE22054EE54E70C7054D80C34D
:1003B2000A204D656EC3BA20646520636F6E66695C
:1003C2006775726163696F6E0A00312E20436F6E2A
:1003D2006669677572616369C3B36E2064652041A3
:1003E20044430A00322E204D6F646F7320646520EF
:1003F2007472616E736D6973696F6E2064652064D7
:1004020061746F730A00332E205469706F20646523
:1004120020636F6D756E69636163696F6E207365CA
:100422007269616C0A00342E2047756172646172D0
:10043200206C6120636F6E66696775726163696FB4
:100442006E0A00352E2053616C6972206520696E38
:1004520069636961720A000A312E20436F6E666910
:1004620067757261722070696E7320656E206D6FA0
:10047200646F2073696E676C652D656E6465640ACE
:1004820000322E20436F6E6669677572617220704A
:10049200696E7320656E206D6F646F206469666596
:1004A20072656E6369616C0A00332E20436F6E665B
:1004B2006967757261722067616E616E6369610A54
:1004C20000342E20566F6C76657220616C206D654B
:1004D2006E7520616E746572696F720A000A496EE8
:1004E200677265736172206C6F73206E756D6572D1
:1004F2006F73206465206C6F732070696E65732062
:10050200736570617261646F7320706F72206C61C9
:10051200207465636C612027656E746572270A001A
:10052200416C207465726D696E61722C20696E6710
:1005320072657365206C61207465636C612027723B
:10054200270A000A496E6772657361722C2064651E
:10055200206120646F732C206C6F73207061726550
:1005620073206465206C6F732070696E65732064FC
:10057200657361646F732C207365706172616E6460
:100582006F206C6F7320677275706F7320636F6E6C
:10059200206C61207465636C612027656E746572DE
:1005A200270A000A312E20506F7220706574696329
:1005B200696F6E20646520646973706F7369746912
:1005C200766F2065787465726E6F0A00322E20464F
:1005D2006C756A6F20636F6E7374616E74650A0066
:1005E200332E20506F722076656E63696D69656E79
:1005F200746F2064652074656D706F726172697AC0
:1006020061646F720A000A312E2052533233320A69
:1006120000322E2049324320286E6F20696D706CA3
:10062200656D656E7461646F290A000A00436F6C20
:100632006F636172206C612067616E616E636961D4
:100642002071756520736520717569657265206119
:10065200706C696361722C0A006C6F732076616C36
:100662006F7265732061646D697469646F7320735E
:100672006F6E3A200A0031297831202032297832EF
:100682002020332978342020342978382020352935
:1006920078313620203629783332202037297836AF
:0D06A200342020382978313238202E0A000B
:1011DD007BFF7A0379B21200B87BFF7A0379CC12C8
:1011ED0000B87BFF7A0379E61200B87BFF7A0479A9
:1011FD00081200B87BFF7A0479281200B87BFF7AB9
:06120D000479450200B85F
:101478007BFF7A0479591200B87BFF7A04798312CA
:1014880000B87BFF7A0479AB1200B87BFF7A047945
:04149800C30200B8D3
:1015B4007BFF7A0479DF1200B87BFF7A0579220277
:0215C40000B86D
:1015C6007BFF7A0579451200B87BFF7A05792202FE
:0215D60000B85B
:10149C007BFF7A0579A51200B87BFF7A0579CE120D
:1014AC0000B87BFF7A0579E21200B87BFF7A0479E9
:0414BC00C30200B8AF
:1015D8007BFF7A0679081200B87BFF7A0679130236
:0215E80000B849
:1014C0007BFF7A06792D1200B87BFF7A06792F12FE
:1014D00000B87BFF7A06795B1200B87BFF7A067949
:0414E000780200B8D6
:100D3F0064656661756C7421210A0047616E616E8E
:100D4F006369612078312E0A0047616E616E6369B5
:100D5F00612078322E0A0047616E616E63696120EF
:100D6F0078342E0A0047616E616E636961207838AE
:100D7F002E0A0047616E616E636961207831362EED
:100D8F000A0047616E616E636961207833322E0A03
:100D9F000047616E616E636961207836342E0A00F8
:100DAF0047616E616E63696120783132382E0A00B7
:100EB200751B00751C01E51C6401451B705D121158
:100EC200DD12160D8F1A12160DBF0AFAE51A24CE7C
:100ED200602D14602F1460DE14602E240470311211
:100EE200147812160D8F1A12160DBF0AFAE51A247B
:100EF200CD6009240270081215848003120AF612CA
:100F0200149C80B21215D880ADE4F51BF51C80A6A6
:0B0F12007BFF7A0D793F1200B8809B36
:010F1D0022B1
:101584001215B412160D8F7C12160DBF0AFAE57CE3
:0B15940064726007AF7C12104F80E80B
:01159F002229
:100AF6001214C012160DEF24CFB408004003020BE7
:100B060094900B1575F003A4C58325F0C583730275
:100B16000B2D020B3A020B47020B54020B61020B20
:100B26006E020B7B020B887BFF7A0D794A1200B8A6
:100B3600E4F5F4227BFF7A0D79581200B875F401BA
:100B4600227BFF7A0D79661200B875F402227BFFCC
:100B56007A0D79741200B875F403227BFF7A0D7949
:100B6600821200B875F404227BFF7A0D7991120087
:100B7600B875F405227BFF7A0D79A01200B875F4DA
:0E0B860006227BFF7A0D79AF1200B875F407D6
:010B9400223E
:0300530002164052
:0916400030EDFDC2ED7500013230
:1013D900A2AF9200C2AF75FF8075EF028F828E8334
:1013E90075B7A575B7F1438F0175FF8075EF02EDEC
:0813F900F0538FFEA20092AF39
:0114010022C8
:1015EA00A2AF9200C2AF8F828E83E493FFA20092D1
:0115FA00AF41
:0115FB0022CD
:10140200A2AF9209C2AF75FF8075EF028F828E8301
:1014120075B7A575B7F1438F0375FF8075EF02E4C9
:08142200F0538FFCA20992AF08
:01142A00229F
:08081C008E088F098C0A8D0B78
:10082400751202751300E51324FFFFE51234FFFE71
:10083400EFF4FFEEF4FE5508F50CE5095FF50D2520
:1008440013CDE50C3512CD24FFF50FED34FFF50E75
:10085400E509250BFDE508350A5EF510ED5FF51198
:100864002513CFE5103512CF24FFCF34FFFEE50F5B
:100874006F7003E50E6E705EFF7E1A121402120F83
:1008840089E42509FFE508341AFEC3EF950DFFEE50
:10089400950CFEE50B2FF515E50A3EF514E5092543
:1008A4000BF517E508350AF516C3E50F9509FFE5BD
:1008B4000E9508FEC3EF950BFFEE950ACF2401F5C4
:1008C40019E43F120FA0AF0DAE0C121402850C14E4
:1008D400850D1502094F7F007E1A121402120F892A
:1008E400AF0DAE0C121402850C14850D1575161A75
:1008F400751700851218851319AA18120FA37F0003
:100904007E1A121402C3E50F9509CFE50E9508CFA0
:100914002401CF3400FEC3E50B9FFFE50A9EFEE4ED
:100924002FF515EE341AF514E5112FF517E5103EE1
:10093400F516C3E5139FF519E5129E120FA0AF112A
:10094400AE1012140285101485111575161A751738
:0E09540000851218851319AB19AA18120FA5E9
:010962002272
:1014E4008E628F638B648A658966AD68AC67120807
:1014F4001CAB64AA65A966856735856836AF63AE9B
:04150400620210ADC2
:0A10AD008E308F318B328A33893484
:1010B700853037853138E5312536FFE5303535FE62
:1010C700C3E5389FE5379E5023AB320534E534AA94
:1010D700337002053314F91206AFFDAF38AE37127D
:0C10E70013D90538E53870CE053780CAF3
:0110F30022DA
:0A0003008B338A3489358C368D3733
:10000D00E4F53AF53BC3E53B9539E53A953850298A
:10001D00E537253BFFE536353AFE1215EAAB3305DC
:10002D0035E535AA347002053414F9EF1206C8050A
:0F003D003BE53B70D0053A80CCAB33AA34A935F4
:01004C002291
:100F890075141A751500850C16850D17C3E5099595
:100F99000DF519E508950CF518FAAB19AD17AC164E
:040FA900AF15AE14BE
:0C0FAD008E5A8F5B8C5C8D5D8A5E8B5FC2
:100FB900E4F560F561C3E561955FE560955E5026EE
:100FC900E55D2561FFE55C3560FE1215EAAD07E5D3
:100FD9005B2561FFE55A3560FE1213D90561E561AC
:060FE90070D3056080CF0B
:010FEF0022DF
:04116D008E518F52BE
:10117100E4F558F559AE58AF59E4FCFDAB56AA5504
:10118100A954A853D31207A84019E5522559FFE5E0
:10119100513558FEAD571213D90559E55970D60589
:0311A1005880D2A1
:0111A4002228
:1013AC000A20202020206572726F722C20696E69D1
:1013BC00636961725F55415254206E6F206465768B
:0D13CC006F6C76696F20300A0025730A00EF
:071650007BFF7A1379AC2245
:10152B001216508B1D8A1E891F0500E500700205DF
:07153B0000EA494B600122A8
:071542007B007A0079002212
:1012E40012152B8B698A6A896BAE02AF01EF4E60CF
:1012F4000F8B368A3789387BFF7A1379D51200B879
:10130400E56B456A60047F0180027F00EF3395E05E
:01131400FEDA
:0113150022B5
:04166E0025730A00D6
:071657007B007A00790022FC
:101549001216578B6C8A6D896E0500E500700205CD
:0715590000EA494B6001228A
:071560007B007A00790022F4
:101316001215498B6F8A708971AE02AF01EF4E606C
:101326000F8B368A3789387BFF7A16796E1200B8AA
:10133600E571457060047F0180027F00EF3395E020
:01134600FEA8
:011347002283
:100963000A20202020206572726F722C206E756E13
:10097300636120636F6E76697274696F206E616460
:10098300610A000A6C612066756E63696F6E20638D
:1009930061726761725F6275666665725F73696EC5
:1009A300676C65206E6F20636172676F20656E20D0
:1009B30070696E20300A000A6C612066756E636987
:1009C3006F6E206361726761725F627566666572DE
:1009D3005F73696E676C65206E6F20636172676F0A
:1009E30020656E2070696E20340A000A6C612066EF
:1009F300756E63696F6E206361726761725F6275A2
:100A0300666665725F73696E676C652063617267A2
:100A13006F20656E20656E747261646120696E6318
:0D0A23006F7272656374610A0025730A002A
:0E161E00E4F500E50060FC7B007A0079002214
:100FF000E4FF12104FE500640145007003D3800147
:10100000C340077BFF7A097986227F0412104FE5DF
:1010100000640145007003D38001C340077BFF7A61
:101020000979BA227F1212104FE50045007003D3F0
:101030008001C3400280117FFC12104FE500450083
:0F1040007003D38001C340067BFF7A0979EE224B
:0311A500121452CF
:1011A80012161E8B728A7389740500E50070020599
:0711B80000EA494B6001222F
:1011BF00120FF08B728A7389740500E500700205B7
:0711CF0000EA494B60012218
:0711D6007B007A0079002282
:101348001211A58B758A768977AE02AF01EF4E60D0
:101358000F8B368A3789387BFF7A0A792C1200B8C6
:10136800E577457660047F0180027F00EF3395E0E2
:01137800FE76
:011379002251
:101213006572726F7220656E206D656D6F726961A4
:101223002E630A00546573747320636F727269646A
:101233006F733A2025640A004572726F7265733AC0
:051243002025640A00F3
:100DBF00E4F522F523F524F525FE53D9BF7F08125C
:100DCF000B958E008F00E4FEFFC3EE64809480507D
:100DDF0011EF25E02400F8E4F608F60FBF00010E2E
:100DEF0080E712162C12164912156712137A8E26E7
:100DFF008F27EF64014E60117BFF7A127913120077
:100E0F00B80525E525700205240523E523700205A5
:100E1F00227BFF7A127927852236F5371200B87BAD
:100E2F00FF7A12793B8524368525371200B880FE6C
:100F1E006C6120657363726974757261206E6F20E7
:100F2E007475766F206572726F726573006C6120D6
:100F3E006C656374757261206E6F2064696F203505
:100F4E003030006C61206C656374757261206E6F59
:100F5E00207475766F206572726F72657300636FA1
:100F6E006E74656E69646F20656E20307831303036
:0B0F7E00303A2025640A0025730A00A9
:10124800752E00752F027F027E00120B95AA06A943
:10125800077B017F007E1074F41206C8852E358541
:101268002F361210AD7BFF7A0F791E1200B87B0063
:041278007A0079007F
:01127C00224F
:100E3F00752E00752F02AF2FAE2E120B95AA06A995
:100E4F00077B018B308A3189327D007C10E41206DA
:100E5F00C8AB30AA31A932852E38852F391200033D
:100E6F008B308A3189321206AFFF3395E0FEBE0117
:100E7F0006BFF403D38001C37BFF40057A0F793B94
:100E8F00227A0F79511200B8AB30AA31A93212066B
:100E9F00AFF5367BFF7A0F796C1200B87B007A00C2
:020EAF007900C8
:010EB100221E
:10127D001212488B2B8A2C892D0500E50070020572
:07128D0000EA494B60012259
:10129400120E3F8B2B8A2C892D0500E50070020568
:0712A40000EA494B60012242
:0712AB007B007A00790022AC
:10137A0012127D8B288A29892AAE02AF01EF4E60AC
:10138A000F8B368A3789387BFF7A0F79851200B836
:10139A00E52A452960047F0180027F00EF3395E04A
:0113AA00FE44
:0113AB00221F
:03000000020C31BE
:0C0C3100787FE4F6D8FD75817D020C7818
:1006AF00BB010689828A83E0225002E722BBFE0249
:0906BF00E32289828A83E493227C
:1006C800BB010689828A83F0225002F722BBFE0111
:0206D800F3220B
:1006DA0075F008758200EF2FFFEE33FECD33CDCCD7
:1006EA0033CCC58233C5829BED9AEC99E58298405A
:1006FA000CF582EE9BFEED9AFDEC99FC0FD5F0D637
:10070A00E4CEFBE4CDFAE4CCF9A88222B800C1B960
:10071A000059BA002DEC8BF084CFCECDFCE5F0CB9E
:10072A00F97818EF2FFFEE33FEED33FDEC33FCEBD7
:10073A0033FB10D703994004EB99FB0FD8E5E4F992
:10074A00FA227818EF2FFFEE33FEED33FDEC33FC7F
:10075A00C933C910D7059BE99A4007EC9BFCE99A73
:10076A00F90FD8E0E4C9FAE4CCFB2275F010EF2FB8
:10077A00FFEE33FEED33FDCC33CCC833C810D707B8
:10078A009BEC9AE899400AED9BFDEC9AFCE899F8F3
:0E079A000FD5F0DAE4CDFBE4CCFAE4C8F92286
:1007A800EB9FF5F0EA9E42F0E99D42F0E89C45F0A7
:0107B800221E
:10005600E5422436F8E60542227833300702783640
:10006600E475F0011207E60206AF2000EB7F2ED200
:10007600008018EF540F2490D43440D4FF30040B82
:10008600EF24BFB41A0050032461FFE54360021554
:10009600430546E5467002054530070D7833E4759D
:1000A600F0011207E6EF0206C802142B7403D2070A
:1000B6008003E4C207F5428B338A348935E4F5437D
:1000C600F545F546E54360077F2012009180F575FA
:1000D60044FFC201C200C202C203C205C206C20870
:1000E60012005FFF700D3007057F001200A2AF46B9
:1000F600AE4522B4255FC2D5C20412005FFF24D0EC
:10010600B40A00501A75F00A784330D50508B6FFD0
:100116000106C6A426F620D5047002D20380D9248F
:10012600CFB41A00EF5004C2E5D2040202A2D201F3
:1001360080C6D20080C0D20280BCD2D580BAD20599
:1001460080B47F201200912002077401B54300405D
:10015600F1120056FF1200910200CAD208D20680A0
:1001660095120056FB120056FA120056F94A4B70C9
:100176000679737A037BFF20022EE543602A7E0010
:100186008E827583001207B960060EEE654470F024
:10019600C2D5EBC0E0EAC0E0E9C0E0EE1202E9D069
:1001A600E0F9D0E0FAD0E0FB1206AFFF60AAEBC0A0
:1001B600E0EAC0E0E9C0E0120091D0E02401F9D005
:1001C600E03400FAD0E0FBE5440460DCD544D98095
:1001D600877BFF7A0279E5D202809C7910800279CA
:1001E60008C206C2088008D2D5790A8004790AC2F4
:1001F600D5E544047002F544E4FAFDFEFF1200560C
:10020600FC7B08200113120056FD7B1030000A12F9
:100216000056FE120056FF7B20EC3382D592D55055
:1002260013C3E43000069FFFE49EFEE42001039D15
:10023600FDE49CFCE4CBF8C201EC700CCFCECDCC37
:10024600E824F8F870F38017C3EF33FFEE33FEEDC2
:1002560033FDEC33FCEB33FB994002FB0FD8E9EBA3
:10026600300105F8D0E0C448B201C0E00AEC4D4EBA
:100276004F78207B0070C2EAB5440040BCC0E01253
:1002860002EBD0F0D0E0200104C4C0E0C4B201C04B
:10029600F012007AD0F0D5F0EB0200CA1207F60190
:1002A600675301E15801384C01344201E54F01ED35
:0F02B6004401ED49014D4301F35501D74601D7EE
:1002C5004501D747039350013C2D01402E01632B77
:1002D500014423016120037C2A00FC480000015BE6
:1002E5003F3F3F00790AA2D5200314300509B91014
:1002F500020404B9080104A2D52006025001042015
:1003050002689202B543005034C0E07F20300319E3
:100315007F30A20272067205500F120342C202C25A
:1003250006C205C2087F30800F300503E9C0E01220
:100335000091300503D0E0F9D0E0B543CC30051786
:100345007F30B9100C1200917F583004077F7880F8
:1003550003B908031200913002057F2D0200917F39
:10036500202008F87F2B2006F322920280CF286EEA
:10037500756C6C2900D2011200563001F8C2017863
:100385004330D50108F60200FC2D504349581200B0
:10039500562403B405004001E490038E93120082B5
:0D03A500743A120082D2037543040201E194
:10160D00100A0B121636BF0D027F0A02142BAF7D86
:01161D0022AA
:100B95008E338F347E007F008F828E83E0FCA3E04E
:100BA500FD4C7003FEFF228D828C83A3A3E0FAA384
:100BB500E0FBC39534EA95335008CEECCECFEDCFAC
:100BC50080D6C3EB9534F536EA9533F535C3E5366E
:100BD5009410E535940050198D828C83E0FBA3E0D9
:100BE5008F828E83CBF0A3EBF0ED2404FFE43CFE73
:100BF5002274FC2536F53674FF3535F5358D828C36
:100C050083A3A3F0A3E536F0ED2404FFE43CFEEF57
:100C15002536FFEE3535FE8F82F583A3A3E533F048
:0C0C2500A3E534F0EF2404FFE43EFE22BF
:100C3D00020DBFE493A3F8E493A34003F68001F201
:100C4D0008DFF48029E493A3F85407240CC8C333B8
:100C5D00C4540F4420C8834004F456800146F6DF87
:100C6D00E4800B01020408102040809015A0E47E62
:100C7D00019360BCA3FF543F30E509541FFEE4937C
:100C8D00A360010ECF54C025E060A840B8E493A343
:100C9D00FAE493A3F8E493A3C8C582C8CAC583CA6E
:100CAD00F0A3C8C582C8CAC583CADFE9DEE780BE26
:0115A8000042
:1007B900BB010CE58229F582E5833AF583E02250F5
:1007C90006E92582F8E622BBFE06E92582F8E2223F
:0D07D900E58229F582E5833AF583E4932259
:1007E600FAE6FB0808E6F925F0F618E6CA3AF62214
:1007F600D083D082F8E4937012740193700DA3A392
:1008060093F8740193F5828883E4737402936860A5
:06081600EFA3A3A380DFA5
:10142B00EFB40A07740D121436740A309811A89988
:10143B00B8130CC2983098FDA899C298B811F63021
:07144B0099FDC299F59922F9
:0A1636003098FDAF99C2987E0022A3
:0B15A9004800000000000000000000EF
:10113100EF4E7008FE7F01ED1D70011C900000EE66
:10114100F0A3EFF0A3ECF0A3EDF0900000E0FEA31C
:10115100E0FFF5828E83E4F0A3F0ED24FCFDEC3496
:0C116100FF8F828E83A3A3F0A3EDF02289
:00000001FF
