:100C710050756572746F20302E303A200A0050751D
:100C81006572746F20302E313A200A0050756572FA
:100C9100746F20302E323A200A0050756572746FDD
:100CA10020302E333A200A0050756572746F20305F
:100CB1002E343A200A0050756572746F20302E353B
:100CC1003A200A0050756572746F20302E363A2032
:100CD1000A0050756572746F20302E373A200A0071
:100CE100455354414D4F5320454E204C4120422005
:020CF1000A00F7
:04004F0075C6082248
:100963008E1E8F1FE51E6003020A6DE51FB408008B
:100973004003020A6D90097FF82828730209970241
:1009830009BD0209CF0209F5020A06020A2A020A70
:1009930038020A5C7BFF7A0C79711200B8E50064B7
:1009A300014500700CF500F500F51E751F01020AE4
:1009B30076751E00751F08020A767BFF7A0C797F15
:1009C3001200B8751E00751F18020A767BFF7A0C99
:1009D300798D1200B8E50064014500700CF500F54F
:1009E30000F51E751F23020A76751E00751F280267
:1009F3000A767BFF7A0C799B1200B8751E00751F6F
:100A03003880707BFF7A0C79A91200B8E500640185
:100A13004500700BF500F500F51E751F45805475F4
:100A23001E00751F48804C751E00751F587BFF7A8A
:100A33000C79B7803B7BFF7A0C79C51200B8E500CF
:100A430064014500700BF500F500F51E751F678006
:100A530022751E00751F68801A7BFF7A0C79D312EA
:100A630000B8751E00751F7880097BFF7A0C79E149
:070A73001200B8851FC62226
:0A15740043A41075E10175E2402266
:0715910043B20375EF0422D1
:1013BD0043D103E4F5F4F5FB75F708759B03759AB6
:1013CD00BFF5BD75C60875F38130EAFD43E60875B6
:0613DD00F380E4FEFF2294
:10149600759810758D96538EF4438E08858D8B53F3
:0D14A600890F438920D28ED299E4FEFF22E7
:0415B400E4FEFF2230
:0415B800E4FEFF222C
:0415BC00E4FEFF2228
:0415C000E4FEFF2224
:10000300766F6C74616A653A2025386C64206D568E
:100013000A0063617267756520756E203120656E15
:10002300206C6120706F7363696F6E3A2025630AD9
:1000330000456C2076616C6F72206E756D65726918
:0C004300636F2065733A202568690A008D
:0815440002480000024A000009
:1014730030EDFDC2EDE4F54485C54585C44685C31D
:10148300477B367A1AF9F8AF47AE46AD45AC4412FE
:0214930007163A
:011495002234
:101533007BFF7A0079038F368E358D348C3302002E
:01154300B8EF
:100FC4008F777BFF7A0079158577331200B8AF7776
:100FD400EF3395E0FEEF24D0F54DEE34FFF54C7B76
:100FE400FF7A007934F533854D341200B8C3E577C0
:100FF400648094804014E57764809488500CE54DB7
:0B10040025E02400F8760008760122A9
:1012EF00EFFD3395E0FCED24D0F54DEC34FFF54CDC
:1012FF00C3EF648094804013EF64809488500CE5B2
:0C130F004D25E02400F87600087602224C
:100F7000D3E54B9407E54A648094804005E4F54A44
:100F8000F54BE54B25E02400F8E6FC08E6FD64019E
:100F90004C700C054BE54B7002054A24FF8014EDA4
:100FA00064024C7015F500750001F54A754B02E5B9
:100FB0004B24FEFFE54A34FFFE22054BE54B70B0A3
:040FC000054A80ACB2
:1003B2000A204D656EC3BA20646520636F6E66695C
:1003C2006775726163696F6E0A00312E20436F6E2A
:1003D2006669677572616369C3B36E2064652041A3
:1003E20044430A00322E204D6F646F7320646520EF
:1003F2007472616E736D6973696F6E2064652064D7
:1004020061746F730A00332E205469706F20646523
:1004120020636F6D756E69636163696F6E207365CA
:100422007269616C0A00342E2047756172646172D0
:10043200206C6120636F6E66696775726163696FB4
:100442006E0A00352E2053616C6972206520696E38
:1004520069636961720A000A312E20436F6E666910
:1004620067757261722070696E7320656E206D6FA0
:10047200646F2073696E676C652D656E6465640ACE
:1004820000322E20436F6E6669677572617220704A
:10049200696E7320656E206D6F646F206469666596
:1004A20072656E6369616C0A00332E20436F6E665B
:1004B2006967757261722067616E616E6369610A54
:1004C20000342E20566F6C76657220616C206D654B
:1004D2006E7520616E746572696F720A000A496EE8
:1004E200677265736172206C6F73206E756D6572D1
:1004F2006F73206465206C6F732070696E65732062
:10050200736570617261646F7320706F72206C61C9
:10051200207465636C612027656E746572270A001A
:10052200416C207465726D696E61722C20696E6710
:1005320072657365206C61207465636C612027723B
:10054200270A000A496E6772657361722C2064651E
:10055200206120646F732C206C6F73207061726550
:1005620073206465206C6F732070696E65732064FC
:10057200657361646F732C207365706172616E6460
:100582006F206C6F7320677275706F7320636F6E6C
:10059200206C61207465636C612027656E746572DE
:1005A200270A000A312E20506F7220706574696329
:1005B200696F6E20646520646973706F7369746912
:1005C200766F2065787465726E6F0A00322E20464F
:1005D2006C756A6F20636F6E7374616E74650A0066
:1005E200332E20506F722076656E63696D69656E79
:1005F200746F2064652074656D706F726172697AC0
:1006020061646F720A000A312E2052533233320A69
:1006120000322E2049324320286E6F20696D706CA3
:10062200656D656E7461646F290A000A00436F6C20
:100632006F636172206C612067616E616E636961D4
:100642002071756520736520717569657265206119
:10065200706C696361722C0A006C6F732076616C36
:100662006F7265732061646D697469646F7320735E
:100672006F6E3A200A0031297831202032297832EF
:100682002020332978342020342978382020352935
:1006920078313620203629783332202037297836AF
:0D06A200342020382978313238202E0A000B
:10115A007BFF7A0379B21200B87BFF7A0379CC124B
:10116A0000B87BFF7A0379E61200B87BFF7A04792C
:10117A00081200B87BFF7A0479281200B87BFF7A3C
:06118A000479450200B8E3
:1013E3007BFF7A0479591200B87BFF7A0479831260
:1013F30000B87BFF7A0479AB1200B87BFF7A0479DB
:04140300C30200B868
:1014EB007BFF7A0479DF1200B87BFF7A0579220241
:0214FB0000B837
:1014FD007BFF7A0579451200B87BFF7A05792202C8
:02150D0000B824
:101407007BFF7A0579A51200B87BFF7A0579CE12A2
:1014170000B87BFF7A0579E21200B87BFF7A04797E
:04142700C30200B844
:10150F007BFF7A0679081200B87BFF7A06791302FF
:02151F0000B812
:10142B007BFF7A06792D1200B87BFF7A06792F1293
:10143B0000B87BFF7A06795B1200B87BFF7A0679DE
:04144B00780200B86B
:100CF30064656661756C7421210A0047616E616EDB
:100D03006369612078312E0A0047616E616E636901
:100D1300612078322E0A0047616E616E636961203B
:100D230078342E0A0047616E616E636961207838FA
:100D33002E0A0047616E616E636961207831362E39
:100D43000A0047616E616E636961207833322E0A4F
:100D53000047616E616E636961207836342E0A0044
:100D630047616E616E63696120783132382E0A0003
:04154C000275000123
:100D7300756700756801E5684567606512115A1269
:100D830015558F66121555BF0AFAE56624CE6035F0
:100D93001460371460E0146036240470391213E3CE
:100DA3001215558F66121555BF0AFAE56624CE60F3
:100DB3000C14600E2402700D1214B380081214CFA9
:100DC3008003120B4712140780AC12150F80A7E49F
:100DD300F567F56880A07BFF7A0C79F31200B88081
:010DE300957A
:010DE40022EC
:1014B3001214EB1215558F78121555BF0AFAE578F9
:0B14C30064726007AF78120FC480E86D
:0114CE0022FB
:1014CF001214FD1215558F79121555BF0AFAE579C9
:0B14DF0064726007AF791212EF80E822
:0114EA0022DF
:100B470012142B121555EF14B408004003020BE4DE
:100B5700900B6575F003A4C58325F0C58373020B5D
:100B67007D020B8A020B97020BA4020BB1020BBE8C
:100B7700020BCB020BD87BFF7A0C79FE1200B8E48C
:100B8700F5F4227BFF7A0D790C1200B875F4012277
:100B97007BFF7A0D791A1200B875F402227BFF7A6F
:100BA7000D79281200B875F403227BFF7A0D793688
:100BB7001200B875F404227BFF7A0D79451200B84C
:100BC70075F405227BFF7A0D79541200B875F40687
:0D0BD700227BFF7A0D79631200B875F407D8
:010BE40022EE
:030053000215880B
:0915880030EDFDC2ED75000132E9
:10131B00A2AF9200C2AF75FF8075EF028F828E83F2
:10132B0075B7A575B7F1438F0175FF8075EF02EDAA
:08133B00F0538FFEA20092AFF7
:011343002287
:10152100A2AF9200C2AF8F828E83E493FFA200929A
:01153100AF0A
:011532002296
:10134400A2AF9209C2AF75FF8075EF028F828E83C0
:1013540075B7A575B7F1438F0375FF8075EF02E488
:08136400F0538FFCA20992AFC7
:01136C00225E
:08081C008E088F098C0A8D0B78
:10082400751202751300E51324FFFFE51234FFFE71
:10083400EFF4FFEEF4FE5508F50CE5095FF50D2520
:1008440013CDE50C3512CD24FFF50FED34FFF50E75
:10085400E509250BFDE508350A5EF510ED5FF51198
:100864002513CFE5103512CF24FFCF34FFFEE50F5B
:100874006F7003E50E6E705EFF7E1A121344120E43
:1008840050E42509FFE508341AFEC3EF950DFFEE89
:10089400950CFEE50B2FF515E50A3EF514E5092543
:1008A4000BF517E508350AF516C3E50F9509FFE5BD
:1008B4000E9508FEC3EF950BFFEE950ACF2401F5C4
:1008C40019E43F120E67AF0DAE0C121344850C14DD
:1008D400850D1502094F7F007E1A121344120E5023
:1008E400AF0DAE0C121344850C14850D1575161A34
:1008F400751700851218851319AA18120E6A7F003D
:100904007E1A121344C3E50F9509CFE50E9508CF5F
:100914002401CF3400FEC3E50B9FFFE50A9EFEE4ED
:100924002FF515EE341AF514E5112FF517E5103EE1
:10093400F516C3E5139FF519E5129E120E67AF1164
:10094400AE1012134485101485111575161A7517F7
:0E09540000851218851319AB19AA18120E6C23
:010962002272
:10144F008E5F8F608B618A628963AD65AC641208B1
:10145F001CAB61AA62A963856435856536AF60AE42
:04146F005F0210A365
:0A10A3008E308F318B328A3389348E
:1010AD00853037853138E5312536FFE5303535FE6C
:1010BD00C3E5389FE5379E5023AB320534E534AA9E
:1010CD00337002053314F91206AFFDAF38AE371287
:0C10DD00131B0538E53870CE053780CABB
:0110E90022E4
:0A100F008B308A3189328C338D3426
:10101900E4F537F538C3E5389536E5379535502980
:10102900E5342538FFE5333537FE121521AB300598
:1010390032E532AA317002053114F9EF1206C805FA
:0F10490038E53870D0053780CCAB30AA31A932EA
:011058002275
:100E500075141A751500850C16850D17C3E50995CF
:100E60000DF519E508950CF518FAAB19AD17AC1688
:040E7000AF15AE14F8
:0C0E74008E578F588C598D5A8A5B8B5C0E
:100E8000E4F55DF55EC3E55E955CE55D955B50263A
:100E9000E55A255EFFE559355DFE121521AD07E5E2
:100EA00058255EFFE557355DFE12131B055EE55EB6
:060EB00070D3055D80CF48
:010EB6002219
:0410EA008E4E8F4F48
:1010EE00E4F555F556AE55AF56E4FCFDAB53AA529A
:1010FE00A951A850D31207A84019E54F2556FFE570
:10110E004E3555FEAD5412131B0556E55670D605D9
:03111E005580D227
:0111210022AB
:1012C2000A20202020206572726F722C20696E69BC
:1012D200636961725F55415254206E6F2064657676
:0D12E2006F6C76696F20300A0025730A00DA
:04155000021C000079
:071598007BFF7A1279C222E9
:07159F007B007A00790022B5
:1011FA0012159F8B698A6A896BAE02AF01EF4E6046
:10120A000F8B338A3489357BFF7A1279EB1200B857
:10121A00E56B456A60047F0180027F00EF3395E049
:01122A00FEC5
:01122B0022A0
:0415C40025730A0081
:0715A6007B007A00790022AE
:0715AD007B007A00790022A7
:10122C001215AD8B6C8A6D896EAE02AF01EF4E60FC
:10123C000F8B338A3489357BFF7A1579C41200B849
:10124C00E56E456D60047F0180027F00EF3395E011
:01125C00FE93
:01125D00226E
:100A7A000A20202020206572726F722C206E756EFB
:100A8A00636120636F6E76697274696F206E616448
:100A9A00610A000A6C612066756E63696F6E206375
:100AAA0061726761725F6275666665725F73696EAD
:100ABA00676C65206E6F20636172676F20656E20B8
:100ACA0070696E20300A000A6C612066756E63696F
:100ADA006F6E206361726761725F627566666572C6
:100AEA005F73696E676C65206E6F20636172676FF2
:100AFA0020656E2070696E20340A000A6C612066D7
:100B0A00756E63696F6E206361726761725F627589
:100B1A00666665725F73696E676C6520636172678A
:100B2A006F20656E20656E747261646120696E6300
:0D0B3A006F7272656374610A0025730A0012
:0E156600E4F500E50060FC7B007A00790022CD
:100EB700E4FF120FC4E500640145007003D380010D
:100EC700C340077BFF7A0A799D227F04120FC4E58E
:100ED70000640145007003D38001C340077BFF7A9C
:100EE7000A79D1227F12120FC4E50045007003D39F
:100EF7008001C3400280117FFC120FC4E50045004A
:0F0F07007003D38001C340067BFF7A0B7905226C
:031122001213BDE8
:101125001215668B6F8A708971051DE51D700205A4
:071135001CEA494B60012296
:10113C00120EB78B6F8A708971051DE51D70020543
:07114C001CEA494B6001227F
:071153007B007A0079002205
:10125E001211228B728A738974AE02AF01EF4E6047
:10126E000F8B338A3489357BFF7A0B79431200B8A2
:10127E00E574457360047F0180027F00EF3395E0D3
:01128E00FE61
:01128F00223C
:101190006572726F7220656E206D656D6F72696128
:1011A0002E630A00546573747320636F72726964EE
:1011B0006F733A2025640A004572726F7265733A44
:0511C0002025640A0077
:100F1600E4F522F523F524F52553D9BF12157412ED
:100F260015911214961212908E268F27EF64014E99
:100F360060117BFF7A1179901200B80525E52570BE
:100F46000205240523E523700205227BFF7A117929
:100F5600A4852233F5341200B87BFF7A1179B8855F
:0A0F660024338525341200B880FE04
:100DE5006C6120657363726974757261206E6F2022
:100DF5007475766F206572726F72657300636F6EBE
:100E050074656E69646F20656E20307831303030DE
:100E15003A2025640A006C61206C65637475726103
:100E2500206E6F2064696F20353030006C61206C56
:100E3500656374757261206E6F207475766F2065B9
:0B0E450072726F7265730025730A0063
:10136D007F587E1B752E01752FF47B007A00792E28
:10137D007535007536021210A37BFF7A0D79E512D3
:08138D0000B87B007A00790032
:011395002235
:101059007D587C1BE4F52EF52FFB7A00792EF535AA
:1010690075360212100F7BFF7A0E7902852E3385B1
:101079002F341200B8AE2EAF2FBE0106BFF403D332
:101089008001C37BFF40057A0E791B227A0E7931E4
:091099001200B87B007A00790016
:0110A200222B
:1011C50012136D8B2B8A2C892D051DE51D700205CB
:0711D5001CEA494B600122F6
:1011DC001210598B2B8A2C892D051DE51D700205CB
:0711EC001CEA494B600122DF
:0711F3007B007A0079002265
:101290001211C58B288A29892AAE02AF01EF4E6050
:1012A0000F8B338A3489357BFF7A0E794C1200B864
:1012B000E52A452960047F0180027F00EF3395E035
:0112C000FE2F
:0112C100220A
:03000000020BE50B
:0C0BE500787FE4F6D8FD75817A020C2CB4
:1006AF00BB010689828A83E0225002E722BBFE0249
:0906BF00E32289828A83E493227C
:1006C800BB010689828A83F0225002F722BBFE0111
:0206D800F3220B
:1006DA0075F008758200EF2FFFEE33FECD33CDCCD7
:1006EA0033CCC58233C5829BED9AEC99E58298405A
:1006FA000CF582EE9BFEED9AFDEC99FC0FD5F0D637
:10070A00E4CEFBE4CDFAE4CCF9A88222B800C1B960
:10071A000059BA002DEC8BF084CFCECDFCE5F0CB9E
:10072A00F97818EF2FFFEE33FEED33FDEC33FCEBD7
:10073A0033FB10D703994004EB99FB0FD8E5E4F992
:10074A00FA227818EF2FFFEE33FEED33FDEC33FC7F
:10075A00C933C910D7059BE99A4007EC9BFCE99A73
:10076A00F90FD8E0E4C9FAE4CCFB2275F010EF2FB8
:10077A00FFEE33FEED33FDCC33CCC833C810D707B8
:10078A009BEC9AE899400AED9BFDEC9AFCE899F8F3
:0E079A000FD5F0DAE4CDFBE4CCFAE4C8F92286
:1007A800EB9FF5F0EA9E42F0E99D42F0E89C45F0A7
:0107B800221E
:10005600E53F2433F8E6053F22783030070278334F
:10006600E475F0011207E60206AF2000EB7F2ED200
:10007600008018EF540F2490D43440D4FF30040B82
:10008600EF24BFB41A0050032461FFE54060021557
:10009600400543E5437002054230070D7830E475AC
:1000A600F0011207E6EF0206C80213967403D207A0
:1000B6008003E4C207F53F8B308A318932E4F5408C
:1000C600F542F543E54060077F2012009180F57503
:1000D60041FFC201C200C202C203C205C206C20873
:1000E60012005FFF700D3007057F001200A2AF43BC
:1000F600AE4222B4255FC2D5C20412005FFF24D0EF
:10010600B40A00501A75F00A784030D50508B6FFD3
:100116000106C6A426F620D5047002D20380D9248F
:10012600CFB41A00EF5004C2E5D2040202A2D201F3
:1001360080C6D20080C0D20280BCD2D580BAD20599
:1001460080B47F201200912002077401B540004060
:10015600F1120056FF1200910200CAD208D20680A0
:1001660095120056FB120056FA120056F94A4B70C9
:100176000679737A037BFF20022EE540602A7E0013
:100186008E827583001207B960060EEE654170F027
:10019600C2D5EBC0E0EAC0E0E9C0E0EE1202E9D069
:1001A600E0F9D0E0FAD0E0FB1206AFFF60AAEBC0A0
:1001B600E0EAC0E0E9C0E0120091D0E02401F9D005
:1001C600E03400FAD0E0FBE5410460DCD541D9809B
:1001D600877BFF7A0279E5D202809C7910800279CA
:1001E60008C206C2088008D2D5790A8004790AC2F4
:1001F600D5E541047002F541E4FAFDFEFF12005612
:10020600FC7B08200113120056FD7B1030000A12F9
:100216000056FE120056FF7B20EC3382D592D55055
:1002260013C3E43000069FFFE49EFEE42001039D15
:10023600FDE49CFCE4CBF8C201EC700CCFCECDCC37
:10024600E824F8F870F38017C3EF33FFEE33FEEDC2
:1002560033FDEC33FCEB33FB994002FB0FD8E9EBA3
:10026600300105F8D0E0C448B201C0E00AEC4D4EBA
:100276004F78207B0070C2EAB5410040BCC0E01256
:1002860002EBD0F0D0E0200104C4C0E0C4B201C04B
:10029600F012007AD0F0D5F0EB0200CA1207F60190
:1002A600675301E15801384C01344201E54F01ED35
:0F02B6004401ED49014D4301F35501D74601D7EE
:1002C5004501D747039350013C2D01402E01632B77
:1002D500014423016120037C2A00FC480000015BE6
:1002E5003F3F3F00790AA2D5200314300509B91014
:1002F500020404B9080104A2D52006025001042015
:1003050002689202B540005034C0E07F20300319E6
:100315007F30A20272067205500F120342C202C25A
:1003250006C205C2087F30800F300503E9C0E01220
:100335000091300503D0E0F9D0E0B540CC30051789
:100345007F30B9100C1200917F583004077F7880F8
:1003550003B908031200913002057F2D0200917F39
:10036500202008F87F2B2006F322920280CF286EEA
:10037500756C6C2900D2011200563001F8C2017863
:100385004030D50108F60200FC2D504349581200B3
:10039500562403B405004001E490038E93120082B5
:0D03A500743A120082D2037540040201E197
:10155500100A0B12157EBF0D027F0A021396AF7A91
:011565002263
:100BF100020F16E493A3F8E493A34003F68001F2F5
:100C010008DFF48029E493A3F85407240CC8C33304
:100C1100C4540F4420C8834004F456800146F6DFD3
:100C2100E4800B0102040810204080901544E47E0A
:100C3100019360BCA3FF543F30E509541FFEE493C8
:100C4100A360010ECF54C025E060A840B8E493A38F
:100C5100FAE493A3F8E493A3C8C582C8CAC583CABA
:100C6100F0A3C8C582C8CAC583CADFE9DEE780BE72
:011554000096
:1007B900BB010CE58229F582E5833AF583E02250F5
:1007C90006E92582F8E622BBFE06E92582F8E2223F
:0D07D900E58229F582E5833AF583E4932259
:1007E600FAE6FB0808E6F925F0F618E6CA3AF62214
:1007F600D083D082F8E4937012740193700DA3A392
:1008060093F8740193F5828883E4737402936860A5
:06081600EFA3A3A380DFA5
:10139600EFB40A07740D1213A1740A309811A899B4
:1013A600B8130CC2983098FDA899C298B811F630B7
:0713B60099FDC299F599228F
:0A157E003098FDAF99C2987E00225C
:00000001FF
