:100E020050756572746F20302E303A200A0050758A
:100E12006572746F20302E313A200A005075657267
:100E2200746F20302E323A200A0050756572746F4A
:100E320020302E333A200A0050756572746F2030CC
:100E42002E343A200A0050756572746F20302E35A8
:100E52003A200A0050756572746F20302E363A209F
:100E62000A0050756572746F20302E373A200A00DE
:100E7200455354414D4F5320454E204C4120422072
:020E82000A0064
:04004D0075C608224A
:100AE0008E718F72E5716003020B99E572B4080094
:100AF0004003020B99900AFCF8282873020B140299
:100B00000B25020B36020B47020B58020B69020B36
:100B100077020B887BFF7A0E79021200B87571009C
:100B2000757208807D7BFF7A0E79101200B875719E
:100B300000757218806C7BFF7A0E791E1200B875F2
:100B40007100757228805B7BFF7A0E792C1200B8D9
:100B5000757100757238804A7BFF7A0E793A1200FF
:100B6000B875710075724880397571007572587B5F
:100B7000FF7A0E794880287BFF7A0E79561200B8EA
:100B8000757100757268801A7BFF7A0E79641200A5
:100B9000B875710075727880097BFF7A0E797212D0
:060BA00000B88572C622B8
:0A166A0043A41075E10175E240226F
:07168F0043B20375EF0422D2
:10147A0043D103E4F5F4F5FB75F708759B03759AF8
:10148A00BFF5BD75C60875F38130EAFD43E60875F8
:06149A00F380E4FEFF22D6
:10158F00759810758D61538EF4438E01858D8B5335
:0D159F00890F438920D28ED299E4FEFF22ED
:04169D00E4FEFF2246
:0416A100E4FEFF2242
:0416A500E4FEFF223E
:0416A900E4FEFF223A
:1015F300766F6C74616A653A2025386C64206D5689
:021603000A00DB
:08167E000251000002530000BC
:1015300030EDFDC2EDE4F54D85C54E85C44F85C344
:10154000507B367A1AF9F8AF50AE4FAD4EAC4D1213
:0215500007167C
:011552002276
:1015AC008B368A3789381207B98F3F8E3E8D3D8C2A
:0A15BC003C7BFF7A1579F30200B8BA
:100F04001206AFFF24D0B40800505C900F1D75F09A
:100F140003A4C58325F0C58373020F35020F3A027B
:100F24000F41020F48020F4F020F56020F5D020FCE
:100F340064EF4401FF221206AF4402FF221206AFFF
:100F44004404FF221206AF4408FF221206AF4410E5
:100F5400FF221206AF4420FF221206AF4440FF22B4
:0C0F64001206AF4480FF221206AFFF22ED
:10121F00D3E5549407E553648094804005E4F55377
:10122F00F554E5546401455370047F0180027F003B
:10123F00E5216F60110554E5547002055324FFFF3B
:10124F00E55334FFFE220554E55470C4055380C0A6
:1003B2000A204D656EC3BA20646520636F6E66695C
:1003C2006775726163696F6E0A00312E20436F6E2A
:1003D2006669677572616369C3B36E2064652041A3
:1003E20044430A00322E204D6F646F7320646520EF
:1003F2007472616E736D6973696F6E2064652064D7
:1004020061746F730A00332E205469706F20646523
:1004120020636F6D756E69636163696F6E207365CA
:100422007269616C0A00342E2047756172646172D0
:10043200206C6120636F6E66696775726163696FB4
:100442006E0A00352E2053616C6972206520696E38
:1004520069636961720A000A312E20436F6E666910
:1004620067757261722070696E7320656E206D6FA0
:10047200646F2073696E676C652D656E6465640ACE
:1004820000322E20436F6E6669677572617220704A
:10049200696E7320656E206D6F646F206469666596
:1004A20072656E6369616C0A00332E20436F6E665B
:1004B2006967757261722067616E616E6369610A54
:1004C20000342E20566F6C76657220616C206D654B
:1004D2006E7520616E746572696F720A000A496EE8
:1004E200677265736172206C6F73206E756D6572D1
:1004F2006F73206465206C6F732070696E65732062
:10050200736570617261646F7320706F72206C61C9
:10051200207465636C612027656E746572270A001A
:10052200416C207465726D696E61722C20696E6710
:1005320072657365206C61207465636C612027723B
:10054200270A000A496E6772657361722C2064651E
:10055200206120646F732C206C6F73207061726550
:1005620073206465206C6F732070696E65732064FC
:10057200657361646F732C207365706172616E6460
:100582006F206C6F7320677275706F7320636F6E6C
:10059200206C61207465636C612027656E746572DE
:1005A200270A000A312E20506F7220706574696329
:1005B200696F6E20646520646973706F7369746912
:1005C200766F2065787465726E6F0A00322E20464F
:1005D2006C756A6F20636F6E7374616E74650A0066
:1005E200332E20506F722076656E63696D69656E79
:1005F200746F2064652074656D706F726172697AC0
:1006020061646F720A000A312E2052533233320A69
:1006120000322E2049324320286E6F20696D706CA3
:10062200656D656E7461646F290A000A00436F6C20
:100632006F636172206C612067616E616E636961D4
:100642002071756520736520717569657265206119
:10065200706C696361722C0A006C6F732076616C36
:100662006F7265732061646D697469646F7320735E
:100672006F6E3A200A0031297831202032297832EF
:100682002020332978342020342978382020352935
:1006920078313620203629783332202037297836AF
:0D06A200342020382978313238202E0A000B
:1012D5007BFF7A0379B21200B87BFF7A0379CC12CF
:1012E50000B87BFF7A0379E61200B87BFF7A0479B0
:1012F500081200B87BFF7A0479281200B87BFF7AC0
:061305000479450200B866
:1014A0007BFF7A0479591200B87BFF7A04798312A2
:1014B00000B87BFF7A0479AB1200B87BFF7A04791D
:0414C000C30200B8AB
:101605007BFF7A0479DF1200B87BFF7A0579220225
:0216150000B81B
:101617007BFF7A0579451200B87BFF7A05792202AC
:0216270000B809
:1014C4007BFF7A0579A51200B87BFF7A0579CE12E5
:1014D40000B87BFF7A0579E21200B87BFF7A0479C1
:0414E400C30200B887
:101629007BFF7A0679081200B87BFF7A06791302E4
:0216390000B8F7
:1014E8007BFF7A06792D1200B87BFF7A06792F12D6
:1014F80000B87BFF7A06795B1200B87BFF7A067921
:04150800780200B8AD
:100E840064656661756C7421210A0047616E616E48
:100E94006369612078312E0A0047616E616E63696F
:100EA400612078322E0A0047616E616E63696120A9
:100EB40078342E0A0047616E616E63696120783868
:100EC4002E0A0047616E616E636961207831362EA7
:100ED4000A0047616E616E636961207833322E0ABD
:100EE4000047616E616E636961207836342E0A00B2
:100EF40047616E616E63696120783132382E0A0071
:100F7000751B00751C01E51C6401451B705D121298
:100F8000D512164D8F1A12164DBF0AFAE51A24CE45
:100F9000602D14602F1460DE14602E240470311252
:100FA00014A012164D8F1A12164DBF0AFAE51A2414
:100FB000CD6009240270081215DF8003120C521252
:100FC00014C480B212162980ADE4F51BF51C80A66E
:0B0FD0007BFF7A0E79841200B8809B32
:010FDB0022F3
:1015DF0012160512164D8F7312164DBF0AFAE573C8
:0415EF00B472F022C0
:100C52001214E812164DEF24CFB408004003020C20
:100C6200F0900C7175F003A4C58325F0C58373025F
:100C72000C89020C96020CA3020CB0020CBD020CF1
:100C8200CA020CD7020CE47BFF7A0E798F1200B8ED
:100C9200E4F5F4227BFF7A0E799D1200B875F40117
:100CA200227BFF7A0E79AB1200B875F402227BFF29
:100CB2007A0E79B91200B875F403227BFF7A0E79A5
:100CC200C71200B875F404227BFF7A0E79D612009F
:100CD200B875F405227BFF7A0E79E51200B875F437
:0E0CE20006227BFF7A0E79F41200B875F40733
:010CF00022E1
:030053000216870B
:0816870030EDFDC2EDD21A3274
:10140100A2AF9210C2AF75FF8075EF028F828E83FB
:1014110075B7A575B7F1438F0175FF8075EF02EDC3
:08142100F0538FFEA21092AF00
:0114290022A0
:10163B00A2AF9210C2AF8F828E83E493FFA210925F
:01164B00AFEF
:01164C00227B
:10142A00A2AF9219C2AF75FF8075EF028F828E83C9
:10143A0075B7A575B7F1438F0375FF8075EF02E4A1
:08144A00F0538FFCA21992AFD0
:011452002277
:080870008E088F098C0A8D0B24
:10087800751202751300E51324FFFFE51234FFFE1D
:10088800EFF4FFEEF4FE5508F50CE5095FF50D25CC
:1008980013CDE50C3512CD24FFF50FED34FFF50E21
:1008A800E509250BFDE508350A5EF510ED5FF51144
:1008B8002513CFE5103512CF24FFCF34FFFEE50F07
:1008C8006F7003E50E6E705EFF7E1A12142A121006
:1008D80048E42509FFE508341AFEC3EF950DFFEE3D
:1008E800950CFEE50B2FF515E50A3EF514E50925EF
:1008F8000BF517E508350AF516C3E50F9509FFE569
:100908000E9508FEC3EF950BFFEE950ACF2401F56F
:1009180019E43F12105FAF0DAE0C12142A850C14A7
:10092800850D150209A37F007E1A12142A12104899
:10093800AF0DAE0C12142A850C14850D1575161AF8
:10094800751700851218851319AA181210627F00EE
:100958007E1A12142AC3E50F9509CFE50E9508CF24
:100968002401CF3400FEC3E50B9FFFE50A9EFEE499
:100978002FF515EE341AF514E5112FF517E5103E8D
:10098800F516C3E5139FF519E5129E12105FAF1116
:10099800AE1012142A85101485111575161A7517BC
:0E09A80000851218851319AB19AA18121064D5
:0109B600221E
:10150C008E678F688B698A6A896BAD6DAC6C1208BB
:10151C0070AB69AA6AA96B856C3A856D3BAF68AEF6
:04152C00670211D869
:0A11D8008E358F368B378A3889393F
:1011E20085353C85363DE536253BFFE535353AFE0E
:1011F200C3E53D9FE53C9E5023AB370539E539AA4F
:10120200387002053814F91206AFFDAF3DAE3C123C
:0C1212001401053DE53D70CE053C80CA8E
:01121E0022AD
:0A0003008B378A3889398C3A8D3B1F
:10000D00E4F53EF53FC3E53F953DE53E953C502972
:10001D00E53B253FFFE53A353EFE12163BAB370576
:10002D0039E539AA387002053814F9EF1206C805FA
:0F003D003FE53F70D0053E80CCAB37AA38A939DC
:01004C002291
:1010480075141A751500850C16850D17C3E50995D5
:101058000DF519E508950CF518FAAB19AD17AC168E
:04106800AF15AE14FE
:0C106C008E5F8F608C618D628A638B64E4
:10107800E4F565F566C3E5669564E5659563502610
:10108800E5622566FFE5613565FE12163BAD07E5AD
:10109800602566FFE55F3565FE1214010566E566A5
:0610A80070D3056580CF46
:0110AE00221F
:04129D008E568F5783
:1012A100E4F55DF55EAE5DAF5EE4FCFDAB5BAA5AB5
:1012B100A959A858D31207A84019E557255EFFE59B
:1012C10056355DFEAD5C121401055EE55E70D60516
:0312D1005D80D26B
:0112D40022F7
:0416AD0025730A0097
:1015C600E475350AF534F533F532FB7A00793212D3
:0815D60015AC7B007A007900DE
:0115DE0022EA
:101553001215C68B2F8A3089310500E5007002050C
:0715630000EA494B60012280
:07156A007B007A00790022EA
:10130B001215538B2C8A2D892EAE02AF01EF4E6036
:10131B000F8B3C8A3D893E7BFF7A1679AD1200B864
:10132B00E52E452D60047F0180027F00EF3395E0B1
:01133B00FEB3
:01133C00228E
:0416B10025730A0093
:071696007B007A00790022BD
:101571001216968B2F8A3089310500E5007002051D
:0715810000EA494B60012262
:071588007B007A00790022CC
:10133D001215718B2C8A2D892EAE02AF01EF4E60E6
:10134D000F8B3C8A3D893E7BFF7A1679B11200B82E
:10135D00E52E452D60047F0180027F00EF3395E07F
:01136D00FE81
:01136E00225C
:1009B7000A6C612066756E63696F6E20636172678A
:1009C70061725F6275666665725F73696E676C6593
:1009D700206E6F20636172676F20656E2070696E8D
:1009E70020300A000A6C612066756E63696F6E209D
:1009F7006361726761725F6275666665725F73696C
:100A07006E676C65206E6F20636172676F20656E1D
:100A17002070696E20340A000A6C612066756E6367
:100A2700696F6E206361726761725F627566666582
:100A3700725F73696E676C6520636172676F2065AB
:100A47006E20656E747261646120696E636F727285
:100A5700656374610A00746573745F7061736172B2
:100A67005F6461746F735F636F6E74696E75616DD8
:100A7700656E74652E2E2E0A00746573745F70613F
:100A87007361725F6461746F735F636F6E74696EB5
:100A970075616D656E74655F4F4B0A00746573749D
:100AA7005F6361726761725F6275666665725F73C5
:100AB700696E676C650A00746573745F636172675A
:100AC70061725F6275666665725F73696E676C6592
:090AD7005F4F4B0A0025730A0071
:0C165E00C21A301AFD7B007A00790022CD
:100FDC00E4F520757430FB7A007974120F048F20BD
:100FEC00E52170077BFF7A0979B7227574337B0092
:100FFC007A007974120F048F20E52170077BFF7A39
:10100C000979EB227574307B007A007974120F0425
:10101C008F20E5216401700280147574307B007A96
:10102C00007974120F048F20E521640170077BFF97
:0B103C007A0A791F227B007A007900FD
:011047002286
:0C117C0012147A7BFF7A0A795D1200B829
:1011880012165E8B1D8A1E891F0500E50070020578
:0711980000EA494B6001224F
:10119F007BFF7A0A79801200B87BFF7A0A79A31253
:0211AF0000B886
:1011B100120FDC8B1D8A1E891F0500E500700205D8
:0711C10000EA494B60012226
:1011C8007BFF7A0A79BE1200B87B007A0079002288
:10136F0012117C8B6E8A6F8970AE02AF01EF4E60E7
:10137F000F8B3C8A3D893E7BFF7A0A79DC1200B8DD
:10138F00E570456F60047F0180027F00EF3395E0C9
:01139F00FE4F
:0113A000222A
:1010AF006572726F7220656E20636F6D756E696306
:1010BF006163696F6E2E630A006572726F722065CD
:1010CF006E20636F6E666967757261646F722E63EF
:1010DF000A006572726F7220656E206D656D6F729A
:1010EF0069612E630A00546573747320636F7272A3
:1010FF0069646F733A2025640A004572726F7265D6
:07110F00733A2025640A0079
:100BA600E4F524F525F526F527F52AF52B53D9BFC7
:100BB600F52112166A12168F12158F12130B8E2834
:100BC6008F29EF64014E60117BFF7A1079AF120016
:100BD600B80527E527700205260525E525700205D7
:100BE6002412133D8E288F29EF64014E60117BFF7E
:100BF6007A1079C81200B80527E527700205260580
:100C060025E525700205241213A18E288F29EF648D
:100C1600014E60117BFF7A1079E11200B80527E5D5
:100C260027700205260525E525700205247BFF7A37
:100C36001079F585243CF53D1200B87BFF7A1179D1
:0C0C46000985263C85273D1200B880FE81
:100D7D006C6120657363726974757261206E6F208A
:100D8D007475766F206572726F726573006C612079
:100D9D006C656374757261206E6F2064696F2035A8
:100DAD003030006C61206C656374757261206E6FFC
:100DBD00207475766F206572726F72657300636F44
:100DCD006E74656E69646F20656E203078313030D9
:100DDD00303A2025640A006C6C65676F20612072C3
:100DED00756E2074657374206D656D6F7269610A1F
:050DFD000025730A004F
:1013D3007F007E10AB32AA33A93474F41206C8AB73
:1013E30032AA33A934753A00753B021211D87BFF38
:0D13F3007A0D797D1200B87B007A00790038
:0114000022C9
:101116007532007533027D007C10AB34AA35A936D2
:10112600E41206C8AB34AA35A93685323C85333D70
:101136001200038B348A3589361206AFFF3395E0E9
:10114600FEBE0106BFF403D38001C37BFF40057AD0
:101156000D799A227A0D79B01200B8AB34AA35A966
:10116600361206AFF53C7BFF7A0D79CB1200B87BC1
:05117600007A00790081
:01117B002251
:09125F007BFF7A0D79E41200B85E
:101268001213D38B2F8A3089310500E500700205EF
:0712780000EA494B6001226E
:10127F001211168B2F8A3089310500E50070020597
:07128F0000EA494B60012257
:071296007B007A00790022C1
:1013A10012125F8B2C8A2D892EAE02AF01EF4E6097
:1013B1000F8B3C8A3D893E7BFF7A0D79FE1200B886
:1013C100E52E452D60047F0180027F00EF3395E01B
:0113D100FE1D
:0113D20022F8
:03000000020CF1FE
:0C0CF100787FE4F6D8FD758175020D389F
:1006AF00BB010689828A83E0225002E722BBFE0249
:0906BF00E32289828A83E493227C
:1006C800BB010689828A83F0225002F722BBFE0111
:0206D800F3220B
:1006DA0075F008758200EF2FFFEE33FECD33CDCCD7
:1006EA0033CCC58233C5829BED9AEC99E58298405A
:1006FA000CF582EE9BFEED9AFDEC99FC0FD5F0D637
:10070A00E4CEFBE4CDFAE4CCF9A88222B800C1B960
:10071A000059BA002DEC8BF084CFCECDFCE5F0CB9E
:10072A00F97818EF2FFFEE33FEED33FDEC33FCEBD7
:10073A0033FB10D703994004EB99FB0FD8E5E4F992
:10074A00FA227818EF2FFFEE33FEED33FDEC33FC7F
:10075A00C933C910D7059BE99A4007EC9BFCE99A73
:10076A00F90FD8E0E4C9FAE4CCFB2275F010EF2FB8
:10077A00FFEE33FEED33FDCC33CCC833C810D707B8
:10078A009BEC9AE899400AED9BFDEC9AFCE899F8F3
:0E079A000FD5F0DAE4CDFBE4CCFAE4C8F92286
:1007A800EB9FF5F0EA9E42F0E99D42F0E89C45F0A7
:0107B800221E
:1007B900BB010789828A830208125005E9F80208F9
:1007C90006BBFE05E9F802081E89828A8302082A07
:10005600E548243CF8E60548227839301702783C12
:10006600E475F00112083A0206AF2010EB7F2ED29B
:10007600108018EF540F2490D43440D4FF30140B62
:10008600EF24BFB41A0050032461FFE5496002154E
:1000960049054CE54C7002054B30170D7839E4756F
:1000A600F00112083AEF0206C80214537403D2177D
:1000B6008003E4C217F5488B398A3A893BE4F5494F
:1000C600F54BF54CE54960077F2012009180F575E8
:1000D6004AFFC211C210C212C213C215C216C218FA
:1000E60012005FFF700D3017057F001200A2AF4CA3
:1000F600AE4B22B4255FC2D5C21412005FFF24D0D6
:10010600B40A00501A75F00A784930D50508B6FFCA
:100116000106C6A426F620D5047002D21380D9247F
:10012600CFB41A00EF5004C2E5D2140202A2D211D3
:1001360080C6D21080C0D21280BCD2D580BAD21569
:1001460080B47F201200912012077401B549004047
:10015600F1120056FF1200910200CAD218D2168080
:1001660095120056FB120056FA120056F94A4B70C9
:100176000679737A037BFF20122EE549602A7E00FA
:100186008E827583001207D960060EEE654A70F0FE
:10019600C2D5EBC0E0EAC0E0E9C0E0EE1202E9D069
:1001A600E0F9D0E0FAD0E0FB1206AFFF60AAEBC0A0
:1001B600E0EAC0E0E9C0E0120091D0E02401F9D005
:1001C600E03400FAD0E0FBE54A0460DCD54AD98089
:1001D600877BFF7A0279E5D212809C7910800279BA
:1001E60008C216C2188008D2D5790A8004790AC2D4
:1001F600D5E54A047002F54AE4FAFDFEFF12005600
:10020600FC7B08201113120056FD7B1030100A12D9
:100216000056FE120056FF7B20EC3382D592D55055
:1002260013C3E43010069FFFE49EFEE42011039DF5
:10023600FDE49CFCE4CBF8C211EC700CCFCECDCC27
:10024600E824F8F870F38017C3EF33FFEE33FEEDC2
:1002560033FDEC33FCEB33FB994002FB0FD8E9EBA3
:10026600301105F8D0E0C448B211C0E00AEC4D4E9A
:100276004F78207B0070C2EAB54A0040BCC0E0124D
:1002860002EBD0F0D0E0201104C4C0E0C4B211C02B
:10029600F012007AD0F0D5F0EB0200CA12084A013B
:1002A600675301E15801384C01344201E54F01ED35
:0F02B6004401ED49014D4301F35501D74601D7EE
:1002C5004501D747039350013C2D01402E01632B77
:1002D500014423016120037C2A00FC480000015BE6
:1002E5003F3F3F00790AA2D5201314301509B910F4
:1002F500020404B9080104A2D52016025001042005
:1003050012689212B549005034C0E07F20301319AD
:100315007F30A21272167215500F120342C212C21A
:1003250016C215C2187F30800F301503E9C0E012E0
:100335000091301503D0E0F9D0E0B549CC30151760
:100345007F30B9100C1200917F583014077F7880E8
:1003550003B908031200913012057F2D0200917F29
:10036500202018F87F2B2016F322921280CF286EBA
:10037500756C6C2900D2111200563011F8C2117833
:100385004930D50108F60200FC2D504349581200AA
:10039500562403B405004001E490038E93120082B5
:0D03A500743A120082D2137549040201E17E
:10164D00101B0B121674BF0D027F0A021453AF75D7
:01165D00226A
:100CFD00020BA6E493A3F8E493A34003F68001F25C
:100D0D0008DFF48029E493A3F85407240CC8C333F7
:100D1D00C4540F4420C8834004F456800146F6DFC6
:100D2D00E4800B010204081020408090167EE47EC2
:100D3D00019360BCA3FF543F30E509541FFEE493BB
:100D4D00A360010ECF54C025E060A840B8E493A382
:100D5D00FAE493A3F8E493A3C8C582C8CAC583CAAD
:100D6D00F0A3C8C582C8CAC583CADFE9DEE780BE65
:011686000063
:1007D900BB010CE58229F582E5833AF583E02250D5
:1007E90006E92582F8E622BBFE06E92582F8E2221F
:0D07F900E58229F582E5833AF583E4932239
:0C080600E6FC08E6FD08E6FE08E6FF221E
:0C081200E0FCA3E0FDA3E0FEA3E0FF2259
:0C081E00E2FC08E2FD08E2FE08E2FF2216
:10082A00E493FC740193FD740293FE740393FF2214
:10083A00FAE6FB0808E6F925F0F618E6CA3AF622BF
:10084A00D083D082F8E4937012740193700DA3A33D
:10085A0093F8740193F5828883E473740293686051
:06086A00EFA3A3A380DF51
:10145300EFB40A07740D12145E740A309811A89938
:10146300B8130CC2983098FDA899C298B811F630F9
:0714730099FDC299F59922D1
:0A1674003098FDAF99C2987E002265
:00000001FF
